:020000040800F2
:10000000984F002079020008975100082D41000800
:1000100095510008950F0008397A0008000000008B
:10002000000000000000000000000000A7510008D0
:10003000A510000800000000A5510008A951000803
:10004000930200089302000893020008930200083C
:10005000930200089302000845110008930200086B
:10006000930200089302000893020008930200081C
:10007000930200089302000893020008990F0008F9
:10008000A50F0008930200089302000893020008DD
:1000900093020008930200089302000893020008EC
:1000A00093020008755200085D5200089302000890
:1000B00093020008930200089302000893020008CC
:1000C00093020008930200089302000893020008BC
:1000D00093020008930200089302000893020008AC
:1000E00079110008930200089302000893020008A7
:1000F000930200089302000893020008930200088C
:10010000930200089302000893020008930200087B
:1001100093020008930200089302000801540008AB
:10012000930200089302000893020008930200085B
:10013000930200089302000893020008930200084B
:1001400093020008930200089302000899510008E6
:10015000930200089302000893020008930200082B
:10016000930200089302000893020008930200081B
:1001700093020008930200089302000800000000A8
:10018000930200089302000800F002F800F065F8FE
:100190000AA090E8000C82448344AAF10107DA45E2
:1001A00001D100F05AF8AFF2090EBAE80F0013F0CF
:1001B000010F18BFFB1A43F00103184738B20000C3
:1001C00058B200000A444FF0000C10F8013B13F045
:1001D000070408BF10F8014B1D1108BF10F8015BA0
:1001E000641E05D010F8016B641E01F8016BF9D193
:1001F00013F0080F1EBF10F8014BAD1C0C1B09D1EA
:100200006D1E58BF01F801CBFAD505E014F8016B5B
:1002100001F8016B6D1EF9D59142D6D370470000ED
:100220000023002400250026103A28BF78C1FBD8FF
:10023000520728BF30C148BF0B607047732900F0D8
:100240008283002070471FB509F0FCFA9DE8030087
:1002500000F008FB1FBD10B510BD00F0A3FB114658
:10026000FFF7F1FF08F096F900F0C1FB03B4FFF7C8
:10027000F2FF03BC00F0F2FB094880470948004741
:10028000FEE7FEE7FEE7FEE7FEE7FEE7FEE7FEE746
:10029000FEE7FEE704480549054A064B70470000A3
:1002A0004D52000889010008980F0020984F002047
:1002B000982F0020982F002070B5064600F0B6FA5F
:1002C000056806F10B0020F00704B4429CBF002033
:1002D00070BD2B466A68BAB11068A04210D304F111
:1002E000080188423CBF5068586007D35168101914
:1002F00041601168091B016058601460101D70BDD9
:1003000013465268002AE7D12146284600F096FAA3
:100310000028DED170BD70B50446051F00F086FAD6
:100320000068002C14BF446870BD002C18BFAC429C
:100330003CBF20466468F8D301680A18AA4218BF77
:10034000456003D12A6805461144016028684119B7
:10035000A1421CBF6C6070BD61686960216808447F
:10036000286070BD53EA020C00F069802DE9F04B63
:100370004FF00006002B1FBFB3FA83F503FA05F414
:1003800024FA05F65E4012BF1643B2FA82F502FA6D
:1003900005F4C5F120051EBF22FA05FC44EA0C0451
:1003A000203556EA044C4FEA144418BF641C4FF041
:1003B00000084FF00009904271EB030C39D300297B
:1003C00019BFB1FA81F701FA07F6B0FA80F700FA1F
:1003D00007F6C7F120071EBF20FA07FC46EA0C0605
:1003E0002037B6FBF4FCA7EB0507103F07F01F0B07
:1003F000CBF120060CFA0BFB2CFA06F644BFB346F1
:100400000026202FA4BF5E464FF0000B5BEA060CCF
:1004100008BF4FF0010B19EB0B09ABFB027C48EB5B
:100420000608C01B06FB02CC0BFB03CC71EB0C01D6
:10043000C1E70B46024641464846BDE8F08B13B57E
:100440004FF000004FF00001AFF30080BDE81C400A
:10045000704700000FB41CB5074B06AA7B446946E1
:100460000090059800F045FA0020694600F054FA23
:100470001CBC5DF814FB0000B904000070B50C460C
:100480000546012A05D02878800600D5EA690023B0
:1004900002E0012305E05B1C934202D2E05C0028ED
:1004A000F9D1A869E618C01AA861286A1844286218
:1004B0002846AFF3008004E0D5E9012114F8010BD0
:1004C0009047B442F8D32846AFF3008070BD0000D7
:1004D0002DE9F05F894604464FF0000ADFF824B1A9
:1004E000FB44C0F820A02046E168884700287DD062
:1004F000252806D0D4E901219047206A401C2062BB
:10050000F1E700255F462046E16888472028064637
:1005100007DB312E05D2B81910F8200C08B10543BD
:10052000F1E7A80701D525F00405C4F81CA00027B1
:10053000C4F818A02A2E09D0304607F0FDFD38B3C4
:1005400004EB8708303EC8F8186019E059F8041B1E
:10055000204604EB87029161E1688847012F064637
:1005600018D1E069002820DA25F020051DE0D8F830
:10057000180000EB800006EB40003038C8F8180087
:100580002046E1688847064607F0D6FD0028EED1F0
:10059000012F0AD02E2E08D12046E16888477F1C03
:1005A0000646022F45F02005C4DBA069002803DAC7
:1005B000404245F00105A061E80701D025F0100593
:1005C000A6B1A6F14100192802D8203645F40065ED
:1005D0004A463146204625604D46FFF72FFE60B162
:1005E000012807D0ED1D25F0070000E007E000F12D
:1005F000080978E705F1040975E730467AE7206ACB
:10060000BDE8F09F58AE000040EA0103024630B555
:100610009B0710D14FF0013400E008C208C91D1B30
:100620009D4315EAC41FF8D013F0FF0102F8011B27
:100630000DD01B0AF8E711F8013B002B02F8013B33
:1006400005D011F8013B002B02F8013BF3D130BD7E
:1006500010B5431C02E010F8011B71B18107FAD1FB
:100660004FF0013202C88C1A8C4314EAC211F9D03F
:10067000C01A0A0603D0C01E10BDC01A10BD0A045D
:1006800001D0801E10BD0902FCD0401E10BD421ECC
:1006900012F8013F002BFBD111F8013B002B02F8AF
:1006A000013BF9D17047032A40F2308010F0030C6F
:1006B00000F0158011F8013BBCF1020F624498BFB5
:1006C00011F801CB00F8013B38BF11F8013BA2F152
:1006D000040298BF00F801CB38BF00F8013B11F0CD
:1006E000030300F02580083AC0F0088051F8043B6D
:1006F000083A51F804CBA0E80810F5E7121D5CBFDA
:1007000051F8043B40F8043BAFF30080D20724BF0C
:1007100011F8013B11F801CB48BF11F8012B24BFA0
:1007200000F8013B00F801CB48BF00F8012B7047EF
:1007300010B5203AC0F00B80B1E81850203AA0E87C
:100740001850B1E81850A0E81850BFF4F5AF5FEAB0
:10075000027C24BFB1E81850A0E8185044BF18C963
:1007600018C0BDE810405FEA827C24BF51F8043B0A
:1007700040F8043B08BF7047D20728BF31F8023B5E
:1007800048BF11F8012B28BF20F8023B48BF00F8F2
:10079000012B70474FF000020429C0F0128010F0C6
:1007A000030C00F01B80CCF1040CBCF1020F18BF4D
:1007B00000F8012BA8BF20F8022BA1EB0C0100F0E0
:1007C0000DB85FEAC17C24BF00F8012B00F8012BB3
:1007D00048BF00F8012B70474FF0000200B51346E8
:1007E00094469646203922BFA0E80C50A0E80C5051
:1007F000B1F12001BFF4F7AF090728BFA0E80C5002
:1008000048BF0CC05DF804EB890028BF40F8042BFA
:1008100008BF704748BF20F8022B11F0804F18BF67
:1008200000F8012B704770477047704700487047C9
:10083000400F0020704770477047704738B5044636
:100840000A4600206946AFF30080002808BF38BD83
:1008500002460099204600F083F8012038BD0120AF
:1008600000F098B8F8B5AFF30080054600200C46BC
:10087000102000BF0646A819A0420DD9324669468D
:100880000020AFF30080070008BF00F083F8009855
:10089000A04218BF0546C419FFF7C8FF0560074608
:1008A000F01D20F007004619284600F00AF8B4426F
:1008B00008BFF8BDA21B31463868BDE8F84000F01B
:1008C0004FB800210160C0E9011070471020704747
:1008D00010B500F041F8006810BD10B5044600F0F6
:1008E0003BF8046010BD000001694A1C02610878F1
:1008F000704700B58FB0CDE9013100210591054960
:100900007944CDE9031011466846FFF7E1FD0FB0C9
:1009100000BD0000E5FFFFFF0A6802F8010B0A6056
:10092000704710B5436913B1AFF3008001E0FFF7E2
:10093000A5FD012010BD127800F124010A700022EB
:100940004A700122EDE711684FF0FF32E9E700003D
:1009500000487047380F002000487047380F0020CB
:10096000034640688C46002818BF88423CBF0346B7
:100970004068F8D318681844884207D00CF1030087
:1009800020F00700001D411A521A0146081D0A6096
:10099000FFF7C1BC10B500F039F8BDE8104000F019
:1009A0002FB870477546FFF7D3FFAE46050069467E
:1009B000534620F00700854618B020B5FFF76AFCC3
:1009C000BDE820404FF000064FF000074FF0000850
:1009D0004FF0000B21F00701AC46ACE8C009ACE8D1
:1009E000C009ACE8C009ACE8C0098D46704710B535
:1009F0000446AFF300802046BDE81040FFF736BC48
:100A0000002801D000F02AB87047000010B5012876
:100A100005D0002103A000F027F8012010BD09A196
:100A2000F8E7000053494752544D454D3A204F7561
:100A300074206F662068656170206D656D6F7279D6
:100A4000000000003A2048656170206D656D6F728E
:100A50007920636F727275707465640001491820A3
:100A6000ABBEFEE72600020070B505460C460A2024
:100A700000E06D1C00F011F835B128780028F8D19D
:100A800002E0641C00F009F814B120780028F8D1C5
:100A9000BDE870400A20AFF3008008B569468DF8C4
:100AA00000000320ABBE08BD464910B54A6822F4D9
:100AB00040324A604A6843681A434A6001684A689B
:100AC00022F480724A6001684A68036942EA03229C
:100AD0004A6001684A6822F040724A6001684A68C8
:100AE00083681A434A6001688A6822F400628A6057
:100AF00001688A68C3681A438A60816A6FF070620D
:100B0000D14201688A6822F070628A6001688A684E
:100B10000CD0836A1A438A6001688A6822F04052C6
:100B20008A6001688A68C36A1A4301E022F0405271
:100B30008A6001688A6822F002028A6001688A6815
:100B4000037E42EA43028A6090F82010002901687F
:100B50004A680FD042F400624A6001684A6822F491
:100B600060424A6001684A68174C436A04EB4333A9
:100B70001A4301E022F400624A600168CA6A22F462
:100B80007002CA620168CA6A838B104C04EB03537B
:100B90001A43CA6201688A6822F400728A60016896
:100BA0008A6890F8303042EA43228A6001688A6895
:100BB00022F480628A6001688A68406942EA802083
:100BC000886010BD0023014000E0FFFF0000F0FF3F
:100BD00070B50A4E00243568306007E000F0ACF9CB
:100BE00082B2A1B2002000F007F9641C00F0AAF95B
:100BF000A042F3D8A8B2306070BD0000AC0C002059
:100C000070B5094C064625886068206000F094F9AC
:100C100082B2A068C38803FB06F081B2002000F016
:100C200073F9A8B2206070BDAC0C0020074B30B443
:100C30009B68DD881C689B88DB1DDB08203A13FB62
:100C400002F205FB024230BC00F02EBAAC0C0020D0
:100C50000148006880680047140100202DE9F04732
:100C60000446002799468A461546B846104601E0D4
:100C700008F1010810F8011B0029F9D100F05CF916
:100C80001C4E4A46B9F1010FB1688988B0FBF1F0FA
:100C900002D0022A17D105E0A0EB0800484304EB7C
:100CA000500003E0A0EB08004843001B84B20AE0B8
:100CB00051462046FFF7BAFFB0687F1CBFB280885C
:100CC0006D1C204484B200F037F90146B06880887A
:100CD00007FB101189B2814201D3012000E00020FE
:100CE0002A780AB1012100E000210842E0D1BDE8E4
:100CF000F0870000AC0C0020054A03239268D288DC
:100D0000424390B20A4601460020FFF7A7BF000009
:100D1000AC0C00202DE9FE4F814603208846A0EB55
:100D20004207002514465EE0314EA8EB040A1FFA84
:100D30008AF1308882B209EB0500029080B200F09F
:100D400081F830881FFA8AF182B2A9EB0500019080
:100D500080B200F077F83088A8EB050A82B209EB80
:100D6000040000901FFA8AF180B200F06BF830881E
:100D7000A9EB040B82B21FFA8AF11FFA8BF000F084
:100D800061F8308808EB040A82B202981FFA8AF1EF
:100D900080B200F057F830881FFA8AF182B20198C9
:100DA00080B200F04FF8308808EB050A82B2009854
:100DB0001FFA8AF180B200F045F830881FFA8AF1F4
:100DC00082B21FFA8BF000F03DF80A48B060002FA5
:100DD00003DA07EB8507BF1D04E0281B07EB80073C
:100DE000641E0A376D1CA5429ED9BDE8FE8F000027
:100DF000AC0C0020180100202DE9F04106460F48F8
:100E000000240F4F006815468846D0F820C0BCF17A
:100E1000000F0FD0134638880A463146BDE8F0412E
:100E200080B260473888414682B2301980B200F003
:100E300009F8641CAC42F5D3BDE8F0811401002030
:100E4000AC0C0020034B1B685B69002B00D01847DB
:100E500070470000140100202DE9F74F0F46DFF81E
:100E6000A49090460321A1EB4806B9F8001082B087
:100E700089B2002415464FF6FF7AC9F8001031E018
:100E80008DB1381981B202980AEA4502401B0090E0
:100E9000934680B2FFF7B0FF381B81B200985A46E4
:100EA00080B2FFF7A9FF8CB1781B81B202980AEAE1
:100EB0004402001B0090934680B2FFF79DFF781913
:100EC00081B200985A4680B2FFF796FF002E03DAEF
:100ED00006EB8406B61D04E0601B06EB80066D1E63
:100EE0000A36641CAC42CBD9B9F80010424689B22C
:100EF000C9F80010029805B03946BDE8F04FFFF779
:100F000009BF0000AC0C00202DE9F041064609485D
:100F10000F461C460188154689B201603946781C87
:100F200087B22A463046FFF767FF641EA4B2F5D2A7
:100F3000BDE8F081AC0C002001480068806A0047E1
:100F40001401002001480068C06A00471401002015
:100F500070B50D4C4FF6FF70012660600B48A06025
:100F60000B4D0020206068688047A0F513412539AB
:100F700007D10648001F05602868804703480026FF
:100F8000A060304670BD0000AC0C002018010020AD
:100F900020010020FEE70000014800F057BC0000DF
:100FA00030040020014800F051BC0000D0030020B4
:100FB00001681823CAB2103AB2FBF3F2054B6FF383
:100FC0000901032A9B5CC36500D9091D8165084698
:100FD000704700006498000810B5014600208B6936
:100FE0008A6A4FF0C07453B1B3F5005F15D072B187
:100FF000012A0CD0022A0AD0032A09D104E01AB12E
:10100000012A06D0022A03D1C96AC90100D50120EC
:1010100010BDC96AA142FAD010BD002AF7D0012A3A
:10102000F2D0022AF3D0032AF3D010BD70B50446E3
:101030000021084604EB8102491CC2F884031029F0
:10104000F8D300224FF40075A118521C81F81C013E
:10105000AA42F9D3207060700121A170C4F8C403C2
:1010600021764022A271607684F81C0384F81D1357
:1010700084F81F0384F81E03090204F11C00FFF723
:10108000ABFB294604F58E70FFF7A6FB122104F294
:101090002630FFF77FFB3E2104F54E70FFF79CFBE7
:1010A000002070BD704700002DE9F74FDFF890B0C9
:1010B0000026DBF808008588C788E81D824620F0F6
:1010C0000700401B00F0FF0935E000BF4FEADA01DE
:1010D0000298012901FB06000BD002290BD00178F0
:1010E00042780904807841EA022141EA000800249C
:1010F0001AE0007801E0008840BA8046F7E7291B33
:1011000049440120491E884010EA080F02D0BBF86C
:10111000000001E0BBF80400019982B2009820446D
:1011200080B2FFF78FFE641CAC42E8D30198401CEC
:1011300080B2761C0190BE42C8D3BDE8FE8F00008D
:10114000AC0C0020084810B50178012901D001211C
:1011500000E00021017005A007F0A2FCBDE81040EE
:10116000012000F021BD0000B00000204B455920B7
:10117000505245535345440010B54FF6FF70FFF7EA
:1011800027FD0CA007F08CFC1349002032220870C8
:1011900078219620FFF760FE104896214160782163
:1011A000816032210160BDE810404FF4004000F042
:1011B000FBBC00005B4369726C63655D2052657324
:1011C000657420706F736974696F6E20616E64203E
:1011D0007363616C65000000B00000200000002017
:1011E00072B6FEE7002200F001B8000030B50E4BE9
:1011F000054601205C7A002C14D1587A1C54587A88
:1012000003EB800045605D7A03F108002A54587AA8
:10121000421C5A72303008703A2048702F20887073
:10122000CC70002030BD0000A00C002000B59BB0A9
:101230004FF02040009014480190052014900120A8
:1012400015900920169000200221CDE91701CDE963
:1012500019100421CDE902101021CDE904010690F6
:10126000079009020890CDE909010C900B900D90B0
:101270000E90119000F00AF814AA1146684602F088
:10128000F5F81BB000BD0000040100A0294800B51E
:10129000016887B041F001010160006800F00100C1
:1012A000059024480838016841F008010160016890
:1012B00001F008010591016841F010010160016829
:1012C00001F010010591016841F020010160016801
:1012D00001F020010591016841F0400101600068C2
:1012E000694600F040000590022001900120029024
:1012F000032003900C2004904FF6337000900E48AA
:1013000000F05EFC4FF69B70009069460B4800F0C1
:1013100057FC4FF23F0000906946094800F050FC2E
:1013200040F23F4000906946064800F049FC07B093
:1013300000BD000038380240000C0240001002409E
:10134000001402400018024030B5B3F5804F05D0BC
:101350006FF0704140F82210002030BD8C690B689E
:101360008D6823434C688989240144EA052423437A
:1013700043EA014150F82230014C23401943E9E788
:101380000000F0CF10B50A6850F8223023F00103B6
:1013900040F822308C68082C23D000234A6822436E
:1013A000CC681C430B6922431A434B690E4C1A4309
:1013B000CB691A430B6A1A434B6A1A438B6A1A4366
:1013C000CB6A1A430B6B1A438B691343CA6B0968C8
:1013D0001A4350F82130A343134340F82130002032
:1013E00010BD4023DAE700007FFF0F0030B5D1E9E0
:1013F000003443EA04138C688D89240244EA0544CE
:1014000023430C8A094D00EB820005EB045423436F
:101410000C7D6D0105EB0464896923430B4341682E
:1014200001F040410B434360002030BD0000F0FF5D
:1014300078B50024009490F83C20012A19D00122AC
:1014400080F83C200A6807230568092A13D9EE684A
:101450000A3A02EB420293409E43EE600B788A68A0
:101460000A3B03EB43039A400368DD682A43DA60D2
:1014700010E0022078BD2E6902EB420293409E43A9
:101480002E610B788A6803EB43039A4003681D6959
:101490002A431A614A681F23072A13D205686E6B14
:1014A000521E02EB820293409E436E630B790A88C0
:1014B0005B1E92B203EB83039A4003685D6B2A4381
:1014C0005A6327E005680D2A12D22E6BD21F02EB59
:1014D000820293409E432E630B790A88DB1F92B2EF
:1014E00003EB83039A4003681D6B2A431A6311E0E0
:1014F000EE6A0D3A02EB820293409E43EE620B7954
:101500000A880D3B92B203EB83039A400368DD6ABD
:101510002A43DA62164B0568144A9D4206D10D68CB
:10152000122D03D1556845F48005556005689D422C
:1015300018D10B68102B01D0112B13D1536843F431
:1015400000035360096810290CD10A490A4A096846
:10155000B1FBF2F101EB8101490000E0491E00916D
:101560000029FBD180F83C40002078BD00230140D9
:1015700000200140C400002040420F0070B504006C
:101580004FF0000503D0206C002610B107E00120C9
:1015900070BD204600F01CF8666484F83C60206C46
:1015A000C00610D4206C20F4885040F00200206463
:1015B0002046FFF779FA6664206C20F0020040F0C4
:1015C0000100206400E0012584F83C60284670BDDD
:1015D00010B586B0044614216846FFF7FDF812499D
:1015E000206888421DD111480021026842F48062BF
:1015F0000260006800F4806005900C4814380268AE
:1016000042F020020260006800F0200005904FF4D4
:10161000C06000900320CDE901016946044800F054
:10162000CFFA06B010BD000000220140443802404D
:101630000014024018B50021009190F83C20012AC6
:1016400007D0012280F83C2002689368DB0702D0B3
:1016500011E0022018BD936843F0010393602E4A05
:101660002E4B1268B2FBF3F202EB420200E0521E74
:101670000092002AFBD102689368DB0742D0036C1A
:1016800040F20164A34343F48073036453685B0531
:1016900005D5036C23F4005343F480530364036CB7
:1016A000DB0404D5436C23F00603436400E041648B
:1016B00080F83C101A496FF02203136049680068F3
:1016C000CA06184906D0884224D1816811F0405FCB
:1016D00013D01FE08842F8D0134A904203D1D1F8CA
:1016E0000423D206F1D0114A904213D1D1F8041349
:1016F00001F01F011029E8D30CE0816841F080411E
:10170000816007E0016C41F010010164416C41F01F
:1017100001014164002018BDC400002040420F00B8
:10172000002301400020014000210140002201402F
:1017300070B500B3F9B14379012B1ED00126467173
:101740000223037105682C6802F0100340F6FE7254
:101750009A409443D1E900210A439A4022432A60E7
:1017600001680A68C0249C40A2430A6006710021F7
:101770004171084670BD012070BD022070BD70B57A
:10178000040003D02079002510B105E0012070BDD0
:101790006571204600F008F80220207125610120C3
:1017A0002071002070BD0000F0B587B006461421FE
:1017B0006846FFF711F82049306888423AD11F483F
:1017C0000025016841F000510160006800F0005000
:1017D00005901A481038016841F001010160006865
:1017E000032700F0010005901020CDE900076946AD
:1017F0000295134800F0E4F9134C124820604FF0B2
:10180000606060604020C4E9020500012061400082
:1018100060618000C4E906050420C4E90850C4E9F9
:101820000A752046256300F0E1F808B1FFF7D8FCFF
:10183000B460A66307B0F0BD0074004040380240B9
:101840000000024088600240D00300202DE9F843E8
:1018500004464FF00009CDF8009063484FF416514C
:10186000A56D0068B0FBF1F72E6894F85C100820B5
:1018700000FA01F131420FD021680A6852070BD5F6
:101880000A6822F004020A6094F85C108840A8609C
:10189000606D40F00100606594F85C104FF0010845
:1018A00008FA01F0304208D021684969090604D5D8
:1018B000A860606D40F00200606594F85C10042040
:1018C0008840304208D021680968890704D5A8609B
:1018D000606D40F00400606594F85C101020884052
:1018E000304218D021680968090714D5A86020681B
:1018F0000168490304D50068000308D5A16C07E01E
:101900000168C90503D4016821F008010160216C58
:1019100009B12046884794F85C1020208840304266
:1019200031D021680968C9062DD5A86094F8350022
:1019300005282068016806D0490347D500680003E0
:101940001DD4616C1CE021F0160101602068416922
:1019500021F080014161206C08B9A06C20B12068A1
:10196000016821F00801016094F85C103F20884074
:10197000A86084F8358084F83490216D1FE0E16B15
:1019800009B120468847606D00282BD0606DC007E4
:1019900014D0052084F835002068016821F0010189
:1019A00001600098401C0090B84203D8206800688D
:1019B000C007F6D184F8358084F83490E16C0029B2
:1019C00010D001B02046BDE8F04308470168C905C2
:1019D000D5D4016821F01001016084F8358084F8C5
:1019E0003490CCE7BDE8F883C40000202DE9F04135
:1019F000044600F0EBF906465CB1022084F835009D
:101A0000002584F834502068016821F0010101604C
:101A10000DE00120BDE8F08100F0D8F9801B052819
:101A200005D920206065032084F83500F2E720689E
:101A30000068C007F0D12268116820480140D4E94D
:101A400001031843D4E90336334318436369184349
:101A5000A3691843E3691843236A18430843616A7A
:101A6000042903D1D4E90B131943084310602068FB
:101A70004069666A20F0070130460E4301270428BA
:101A80000CD1A06A0643E06A40B12046FFF7A4FAF1
:101A900020B14020606584F83570BAE7206846615F
:101AA0002046FFF785FA94F85C203F219140816041
:101AB000656584F835700020ACE700003F8010F0C9
:101AC00070B5044600F082F90546601C02D0044857
:101AD0000078044400F07AF9401BA042FAD370BDAC
:101AE000B8000020F0B587B014216846FEF774FEF8
:101AF00025480168002944D10121016023480024C0
:101B0000016841F0010101600068022500F0010058
:101B100005904FF69B70CDE9000502AA03260C271D
:101B200082E8D00069461A4800F04AF84FF6FB7088
:101B3000CDE9000502AA694682E8D000154800F008
:101B40003FF88020CDE9000502AA694682E8D0006E
:101B5000114800F035F840F23F60CDE9000502AAD7
:101B6000694682E8D0000D4800F02AF84FF23F00A5
:101B7000CDE9000502AA694682E8D000084800F0D5
:101B80001FF807B0F0BD00000C00002038380240FC
:101B900000100240000C0240000402400018024005
:101BA0000014024070470000044910B50A68024260
:101BB00002D00860FFF7F6FF10BD0000143C0140A2
:101BC0002DE9F84FDFF8BCA10022012503264FF0D4
:101BD0000F090AF1040BAAF1040E00BF0B6805FA05
:101BE00002F42340A34270D10F7907F00307012FBD
:101BF00001D0022F16D187684FEA420806FA08FC86
:101C000027EA0C07D1F80CC00CFA08FC4CEA070CC8
:101C1000C0F808C04768A7430C79C4F30014944087
:101C20003C4344600C79E443A4070AD0C4684FEAFB
:101C3000420C06FA0CF7BC438F6807FA0CF72743EF
:101C4000C7600C7904F00304022C12D1D40800EB15
:101C5000840CDCF820405707FF0E09FA07F824EA45
:101C60000804D1F8108008FA07F848EA0408CCF80C
:101C7000208004684FEA420C06FA0CF7BC430F7947
:101C800007F0030707FA0CF7274307604C6814F4C2
:101C9000403F70D03C4C276847F480472760246859
:101CA00022F0030704F480440094384C07EB040C42
:101CB000DCF8084897074FEA177809FA08F7BC4399
:101CC000334FB84202D1002724E054E0314FB842EC
:101CD00001D101271EE0304FB84201D1022719E09F
:101CE0002E4FB84201D1032714E02D4FB84201D145
:101CF00004270FE02B4FB84201D105270AE02A4FF5
:101D0000B84201D1062705E0284FB84201D1072784
:101D100000E0082707FA08F72743CCF80878DAF834
:101D200000405746D1F804C09C435FEACC2C00D554
:101D30001C433C60DBF800405F46D1F804C09C4384
:101D40005FEA8C2C00D51C433C60DEF800407746EF
:101D5000D1F804C09C435FEA8C3C00D51C433C6036
:101D6000084F083F3C68D1F804C09C435FEACC3C74
:101D700000D51C433C60521C102AFFF42FAFBDE875
:101D8000F88F0000083C0140443802400030014018
:101D9000000002400004024000080240000C024023
:101DA000001002400014024000180240001C0240D3
:101DB000426921EA02030A4043EA02418161704715
:101DC0000AB1816170470904FBE70000014880689F
:101DD00070470000B8000020D0F8DC0303F0CDBF4E
:101DE000D0F8DC0303F0D3BF006805F09BBA0068AD
:101DF00005F09CBAC1EB011100EB8100002200F854
:101E00001A2F4270C272827210467047C1EB0111E4
:101E100000EB810090F84C007047C1EB011100EB22
:101E20008100806B704710B5044690F8D4030128F8
:101E300009D0012084F8D403206805F082FA00203C
:101E400084F8D40310BD022010BD2DE9FF4F83B0EC
:101E50000546DDE9117690F8D403DDF8408093461D
:101E60008A4601281CD0CAEB0A11012305EB810424
:101E700085F8D4334FF0000984F81990069820753E
:101E800084F815A084F826700BF07F00A0755146E9
:101E90002846FFF7AFFF5FEA0B6005D5E37505E065
:101EA000022007B0BDE8F08F84F81790286805F08D
:101EB0003DFA012F06D1B8F1010F03D110B9BC2EA4
:101EC00000D9BC2684F81880B0B22085CDF80080F7
:101ED000CDE9017028685A465146069B05F09CFAE8
:101EE00085F8D493DDE770472DE9F0030E46DDE970
:101EF00006C9DDE90874C1EB061100EB810102257A
:101F0000CA7581F82630BCF1000F0AD081F82A503A
:101F1000002463B1012B31D0022B28D0032B16D122
:101F200025E04FF0030881F82A804C76F0E7BCF1F9
:101F3000010F0CD11AB18A7E012A19D007E0D7B956
:101F4000012281F83D2000E0C2B181F82A50C1F899
:101F50002C904F6381F84C408C634E7581F84D4056
:101F600082790068BDE8F003143105F0E5BA12B1DA
:101F700091F83C20E8E791F83D20E5E781F82A4018
:101F8000E5E700002DE9F04106680446304605F01B
:101F9000D4F9012877D1206805F08AFC002872D096
:101FA000206805F085FC800203D521684FF40010FD
:101FB0004861206805F07CFCC00203D521684FF41D
:101FC00080104861206805F073FC400103D521684A
:101FD0004FF080604861206805F06AFC800702D5F8
:101FE000216802204861206805F062FC800018D555
:101FF00021684FF000504861D6F84004C00710D166
:102000001021304605F070F9304605F051F9607A3C
:10201000022803D10121206805F026FC2046FFF7A5
:10202000DFFE206805F044FCC00102D5204601F027
:10203000F0FF206805F03CFC000705D5204600F0C5
:10204000D0F8216808204861206805F031FC800143
:1020500024D5206805F06CFA074600254FF00108EA
:1020600015E000BF05F00F0108FA01F038420DD06D
:1020700006EB4510D0F80005E9B20004204603D570
:1020800001F098FC02E01CE001F052FE6D1C60794A
:10209000A842E7D821684FF000704861206805F039
:1020A00007FCC043C0060CD42068816921F01001F0
:1020B0008161204601F0F7FF2068816941F010013D
:1020C0008161BDE8F081F8B5040005D094F8D5032E
:1020D0002568002610B106E00120F8BD84F8D4631D
:1020E000204600F029F8032084F8D503B5F1A04F6D
:1020F00000D1A671206805F0A7F8207C8DF80000BB
:1021000094E80F0005F040F8022560B9012120682D
:1021100005F00AFC38B9207C8DF8000094E80F0027
:1021200005F03AFB10B184F8D553D5E7012084F8C7
:10213000D5030020F8BD000030B587B00446142157
:102140006846FEF749FB2068B0F1A04F37D11D4823
:102150000024016841F00101016000681A4D00F09F
:10216000010005904FF4E05000900220CDE90104F9
:102170000A20CDE9034069462846FFF721FD68158E
:10218000CDE90004694628460294FFF719FD0D4881
:10219000001D016841F0800101600A4814300168A7
:1021A00041F4804101600068002200F48040059005
:1021B0001146432000F072FD432000F061FD07B09E
:1021C00030BD00003038024000000240D0F8DC038F
:1021D00003F06EBED0F8DC0303F06EBE006805F0BD
:1021E0008ABBD0F8DC0303F01DBE10B5044690F89E
:1021F000D40301280DD0012084F8D40301212068E4
:1022000005F03AF8206805F04DF8002084F8D40372
:1022100010BD022010BD10B5044690F8D40301286B
:1022200009D0012084F8D403206805F0ABFB00201E
:1022300084F8D40310BD022010BD000070B5040066
:1022400025D094F83D00002520B984F83C50204664
:1022500000F052FA242084F83D002068016821F043
:10226000010101602068016841F4004101602068BB
:10227000016821F40041016000F0AAFE4D4A616846
:10228000914201D84C4900E04C49884201D20120DA
:1022900070BD4B492368B0FBF1F15E6826F03F0644
:1022A0000E435E606368934206D94FF496735943B8
:1022B0004FF47A73B1FBF3F12368491C1E6A26F0D0
:1022C0003F06314319626168914210D84900401EAF
:1022D000B0FBF1F2521CC2F30B02042A01D204201B
:1022E00022E0B0FBF1F0401CC0F30B001CE0A26840
:1022F000F2B301EBC10303EB0116431EB3FBF6F38C
:102300005B1C43F480431B0549D092B301EBC1022F
:1023100002EB0111401EB0FBF1F0401CC0F30B00BA
:1023200040F4804040F400402168CA694CF6FF73D5
:102330009A431043C861D4E907100143206802683A
:1023400022F0C00211430160D4E903010143206877
:10235000826848F2FF339A4311438160D4E9050152
:1023600008432168CA6822F0FF021043C86001E0F8
:102370000EE016E02068016841F00101016025646B
:10238000202084F83D00256384F83E50002070BD75
:1023900001EB4106431EB3FBF6F35B1CB3E70120E0
:1023A000C2E701EB4101401EB0FBF1F0401CC0F35D
:1023B0000B00B7E7A086010080841E0000093D00E5
:1023C00040420F002DE9FF4F83B09A46DDE91187A7
:1023D00093460446DDF84090FFF7F8FC054694F874
:1023E0003D00202870D11923012274492046009510
:1023F00001F0B2FF0028F5D194F83C00012863D029
:10240000012084F83C0020680168C90703D10168F5
:1024100041F0010101602068016821F40061016060
:10242000222084F83D00402084F83E0000262664E7
:10243000C4F82490A4F82A80608D20856048E0626A
:10244000CDE9007553465A462046049901F086FEB0
:10245000002879D1208DD0B1012821D00228206810
:1024600024D0416980690090208D032866D8012816
:102470002BD0544902283B464FF00002009557D01C
:102480008846204601F068FF00285DD13AE02068C8
:10249000416981690091016841F4007101607DE04A
:1024A0002068016821F480610160F0E7016821F48F
:1024B000806101602068016841F40061016020686A
:1024C00041698069009069E075E02A4639462046F6
:1024D00001F0E8FF88BB54E02068016841F4007116
:1024E000016020680069616A0870606A401C60626F
:1024F000218D491E2185618D491E618521680969EB
:10250000017042E02068016821F480610160206868
:102510000069616A0870606A401C6062208D401E1C
:102520002085608D401E60853B4600224146009517
:10253000204601F011FF00B9CEE705E02A463946F2
:10254000204601F0AFFF18B1012007B0BDE8F08FC1
:1025500020680069616A0870606A401C6062208DB2
:10256000401E81B22185608D401E608520684269D1
:10257000D243520712D4032903D1016821F48061A8
:10258000016020680069616A0870606A401C6062CE
:10259000208D401E2085608D401E6085208D002886
:1025A0007FF462AF202084F83D0084F83E6084F818
:1025B0003C600020C9E70220C7E7000002001000CD
:1025C0000000FFFF040001002DE9FF4F83B09A4691
:1025D000DDE9119793460446DDF84080FFF7F6FBEE
:1025E000054694F83D0020287FD119230122404957
:1025F0002046009501F0B0FE002876D194F83C000A
:10260000012872D0012084F83C0020680168C907C5
:1026100003D1016841F0010101602068016821F4E3
:1026200000610160212084F83D00402084F83E00D4
:1026300000262664C4F82480A4F82A90608D2085A2
:102640002C48E062CDE9007553465A46204604996D
:1026500001F002FE70B930E02A463946204601F00A
:1026600059FF58B1206C042804D12068016841F456
:1026700000710160012007B0BDE8F08F606A216839
:1026800000780861606A401C6062218D491E89B231
:102690002185628D521E628522685369DB435B0788
:1026A0000BD469B100781061606A401C6062208DB3
:1026B000401E2085608D401E6085208D0028CBD176
:1026C0002A463946204601F01BFE0028CAD154F89C
:1026D0003D0B016841F400710160202004F81E09DF
:1026E000E67766770020C6E7FFE70220C3E7000031
:1026F000020010000000FFFF10B586B00446142150
:102700006846FEF769F814492068884221D11348C9
:102710000021026842F002020260006800F002003C
:1027200005904FF410700090122001900120CDE927
:1027300002010420049069460948FFF741FA07485E
:102740001030016841F400110160006800F40010CD
:10275000059006B010BD0000005400403038024023
:10276000000402402DE9FF410446006881680091A1
:102770007749784E4FF04027884201D1324600E039
:102780003A469268019240688846029001D13046EC
:1027900000E038464068039060684FF00105B0F5EE
:1027A000007F1CD0D8B1900705D50398000602D54C
:1027B000204601F00BFF0098C0070FD0029840069A
:1027C0007FD521682046CA68E16A8B1CE3620A80D3
:1027D000618E491E6186618E002967D071E0009884
:1027E000800719D50298000616D5616A20468A1C12
:1027F000626222680988D160618D491E6185618DA0
:1028000051B901684A6822F0A0024A60418E19B9A4
:1028100080F8415000F0A0F80198C00705D0039857
:10282000400602D5204601F0A1FE0198400622D5BF
:10283000039880061FD52168414501D1304600E04C
:102840003846406820F0600101D1304600E038464B
:1028500041602068416821F0A00141602068C168A2
:102860008068019084F84150606C40F00200606420
:10287000204600F072F80098000767D5029880069D
:1028800064D52068416821F0A0014160216841457C
:1028900001D1304600E03846406820F0600000D0AA
:1028A0003E46706020688068009043E001684A6896
:1028B00022F060024A60418D19B980F8415000F061
:1028C0004BF8009840061ED5029880061BD520685C
:1028D000416821F0600141602168414501D13046E5
:1028E00000E03846406820F0A00101D1304600E009
:1028F0003846416084F84150606C40F002006064EA
:10290000204600F02AF8019800071FD5039880069A
:102910001CD52168414501D1304600E03846406869
:1029200020F0A00000D03E4670602068416821F091
:102930006001416084F84150606C40F004006064C4
:1029400004B02046BDE8F04100F007B8BDE8FF81C3
:102950000038004000340040704770472DE9F047D0
:10296000040005D094F841004FF0000818B109E0C8
:102970000120BDE8F08784F840805148606320461C
:1029800000F0A6F8022684F841602068C16940F68C
:10299000BF77B943C1612068066260694FF400796E
:1029A00002282FD0E06870B12025A068202800D828
:1029B0006D00012000F0A4F9216949451FD1E168AB
:1029C00019B1A90002E01025EFE7E900B0FBF1F032
:1029D00000EB800061694000B0FBF1F0401D0A216E
:1029E000B0FBF1F000F00101401A40080902821E1C
:1029F000FE2A09D3606C40F010006064B8E7B0FBB9
:102A0000F5F0E5E70220002122690843024320682F
:102A10000262D4E901010843A269E1681143084355
:102A20002168CA69BA43104340F40060C861206A53
:102A300001283AD12348606323482168234A4FF094
:102A40004023814201D1114600E01946C96921EABB
:102A5000070101D1154600E01D46E9612168814268
:102A600001D1114600E019460E622568854201D168
:102A7000114600E01946C9698EB2616849451BD00C
:102A8000D1B100212789B4F80CC047EA0C07B4F88B
:102A900018C04CEA010C47EA0C07B9B2314341F4C3
:102AA0000061854200D01A46D161C4F844800120FB
:102AB00084F8410000205CE74FF48071E2E70000F9
:102AC0002D4600086527000800380040003400400B
:102AD0002DE9F0418AB0064614216846FDF77CFED8
:102AE0000025059506950795089530493068884278
:102AF00059D101200590F0200524CDE9060405A850
:102B000000F02EF908B1FEF76BFB2948016841F48B
:102B1000804101600068264900F480401039099026
:102B2000086840F480700860086800F480700990BC
:102B3000086840F0040008600868022700F00400FC
:102B400009900B200090CDE90175CDE90354694649
:102B50001848FFF735F84FF04008CDF80080CDE970
:102B60000175CDE9035469461348FFF729F8144C61
:102B7000124884E821010015C4E903504000606157
:102B80008000A0614011C4E90705042060620320B1
:102B9000C4E90A0520462563FEF728FF08B1FEF7C1
:102BA0001FFBB463A6630AB0BDE8F08100380040A3
:102BB000403802400020024000080240706002409D
:102BC0003004002070477047024881680278114441
:102BD00081607047B80000200B4810B5016841F4CF
:102BE00000710160016841F480610160016841F495
:102BF00080710160032000F071F8002000F006F8F9
:102C000000F024F8002010BD003C024070B50D4DCE
:102C100004464FF47A712878B1FBF0F00A4909684C
:102C2000B1FBF0F000F052FC48B9102C07D20022A2
:102C30002146501E00F032F800206C6070BD01206B
:102C400070BD0000B8000020C40000200B4882B016
:102C5000016841F480410160006800F48040009008
:102C60000648001F016841F080510160006800F0D3
:102C700080500090072002B000F030B84438024085
:102C8000002809DB00F01F0201219140400980006B
:102C900000F1E020C0F8001170470000F0B40E4BC6
:102CA0001B680C46C3F30223C3F10705042D00D9AA
:102CB0000425191D072901D2002300E0DB1E01268F
:102CC00006FA05F1491E214099409E40761E1640A5
:102CD0003143F0BC04F0C9BE0CED00E0064900F041
:102CE000070208684FF6FF03184040EA0220034A33
:102CF00010430860704700000CED00E00000FA058A
:102D000001460020012908D11149096811F4000188
:102D100004D0B1F5000F00D10E4870470C48001FD9
:102D200001680068490200F03F0001D50A4900E04F
:102D30000A49074AB1FBF0F07C321168C1F38811EF
:102D400041431068C0F30270B1FBF0F0704700001F
:102D5000083802400080BB0040787D010024F40068
:102D60002DE9F843054600684FF00109C1074FF00F
:102D7000000601D1400727D5DFF80C81C8F868604C
:102D8000FFF724F80746414C05E000BFFFF71EF8A7
:102D9000C01B022857D820680001F7D46868810159
:102DA000287A41EA0070394984310860C8F868908F
:102DB000FFF70CF8074604E0FFF708F8C01B0228ED
:102DC00041D820680001F7D52878800752D52F48D0
:102DD0004030016841F08051016000682C4C00F0E7
:102DE00080500090206840F480702060FEF7EEFF75
:102DF000074604E0FEF7EAFFC01B022823D820683C
:102E0000C005F7D5214C7034206810F4407020D0F4
:102E1000A98901F4407181421BD020681D4920F42A
:102E20004070C1F800900E6020602068C00710D08C
:102E3000FEF7CCFF064641F2883707E0FEF7C6FFF3
:102E4000801BB84202D90320BDE8F88320688007C0
:102E5000F4D5E9680D48C1F301220830032A0BD0EC
:102E6000016821F4F81101602068A989C1F30B0100
:102E7000084320600020E7E70268074B22F4F812BD
:102E800019400A430260EFE7000047420038024061
:102E900000700040400E4742FFFCFF0F2DE9F04755
:102EA0000E46050065D0DFF81481D8F80000F7B2AF
:102EB00000F00700B04207D288F80070D8F8000090
:102EC00000F00700B04254D128683D4C810712D56C
:102ED000400703D5206840F4E050206028780007C0
:102EE00003D5206840F4604020602068A96820F085
:102EF000F000084320602878C0072DD0304968686A
:102F00000839012812D0022813D0032811D00968EB
:102F1000890700292DDA216821F00301014321608E
:102F2000FEF754FF814641F2883A0EE009688903B2
:102F3000EFE709688901ECE7FEF748FFA0EB09011C
:102F4000514502D90320BDE8F0872068696800F088
:102F50000C00B0EB810FEFD1D8F80010404601F023
:102F60000701B14207D90770006800F00700B042BE
:102F700001D00120E7E72878400705D52068E968F7
:102F800020F4E050084320602878000706D5206828
:102F9000296920F4604040EAC100206000F038F860
:102FA0002168084AC1F30311515CC8400649086012
:102FB00006480068FFF72AFE0020C4E7003C0240F4
:102FC000083802406C980008C4000020BC000020B3
:102FD0000448054900680968044AC1F38221515C2C
:102FE000C8407047C4000020083802407C980008A0
:102FF0000448054900680968044AC1F34231515C3C
:10300000C8407047C4000020083802407C9800087F
:10301000154810B5006810F00C02144813D014497C
:10302000042A0FD0082A0ED10F4C241F22682368CF
:1030300002F03F025B0207D52068C0F38810A0FBB6
:10304000010106E0084610BD2168C1F38811A1FB0B
:1030500000010023FDF786F92168C1F30141491CF5
:103060004900B0FBF1F010BD083802400024F40024
:1030700040787D01F0B51F4C16460D461D4B0021D2
:1030800002220327283C0028186887B019D040F096
:1030900004001860186800F0040005901002009009
:1030A000CDE90121CDE9037169461348FEF788FD9A
:1030B000206845EAC60120F078400843206007B048
:1030C000F0BD40F001001860186800F001000590A4
:1030D0004FF480700090CDE90121CDE9037169467C
:1030E0000648FEF76DFD2068354320F0EC6028436C
:1030F000E4E70000303802400008024000000240CF
:103100002DE9F84F04006ED02078DFF84C93C0070B
:10311000A9F104054AD009F104000168C1F3810155
:10312000012908D00068C0F3810002280AD1D9F82B
:103130000000400206D52868800337D56068002863
:10314000E1D033E06068B0F5803F10D0B0F5A02F3B
:10315000286810D020F480302860286820F480206F
:1031600028606068A8B1FEF731FE06460DE02868C9
:1031700040F48030F4E740F480202860F7E700BF97
:10318000FEF724FE801B642873D828688003F7D5D7
:103190000CE0FEF71BFE064605E000BFFEF716FE3C
:1031A000801B6428F0D828688003F7D42078DFF8E3
:1031B000AC8280074FF0000A3ED5A748001D016889
:1031C00011F00C0F08D00068C0F3810002280BD169
:1031D000D9F80000400207D42868800716D5E068B7
:1031E000012800D112E033E1E068B8B10120C8F84D
:1031F0000000FEF7EBFD064605E000BFFEF7E6FD2A
:10320000801B0228C0D828688007F7D52868216964
:1032100020F0F80040EAC10028600DE0C8F800A0E6
:10322000FEF7D4FD064604E0FEF7D0FD801B022821
:103230001FD828688007F7D42078000722D5864F4A
:1032400087486169703771B101210160FEF7BEFDE9
:10325000064604E0FEF7BAFD801B022809D838684C
:103260008007F7D50EE0C0F800A0FEF7AFFD0646D8
:1032700005E082E0FEF7AAFD801B02287DD83868B1
:103280008007F7D42078400768D5DFF8CCB1002755
:103290000BF13C0BDBF80000C0000BD4DBF8001096
:1032A00041F08051CBF80010DBF80000012700F05E
:1032B000805000906B4E3068C00510D4306840F4E8
:1032C00080703060FEF782FD009005E0FEF77EFD25
:1032D0000099401A022850D83068C005F6D55E4ED5
:1032E000A0686C3601280FD00528306810D020F077
:1032F00001003060306820F004003060A068B8B190
:10330000FEF764FD00900FE0306840F00100F4E744
:1033100040F004003060F7E7FEF758FD0099411ACD
:1033200041F28830814266D830688007F4D50EE0DB
:10333000FEF74CFD009007E0FEF748FD0099411AAA
:1033400041F28830814256D830688007F4D42FB1DA
:10335000DBF8001021F08051CBF80010A069C8B351
:103360003D49091D0968C1F3810102294AD002289B
:10337000504607D0C8F8600000E03CE0FEF726FDAC
:1033800004463BE04746C8F86000FEF71FFD0646CE
:1033900005E000BFFEF71AFD801B02282BD8286825
:1033A0008001F7D4D4E907010843A16A2E4A4908ED
:1033B00002EB0141626A41EA8211084394F82C1041
:1033C00040EA0161C9F8001001203866FEF7FEFCF2
:1033D000044606E03EE000BFFEF7F8FC001B0228B2
:1033E00009D828688001F7D534E000BFFEF7EEFC6D
:1033F000001B022802D90320BDE8F88F286880014D
:10340000F4D427E00128F7D0D9F80000E26900F4ED
:10341000800191421CD1226A00F03F01914217D1F4
:1034200047F6C071626A0140B1EB821F10D1A26AF7
:103430004FF0FF3300F4403103EB5202B1EB024F87
:1034400006D194F82C1000F07060B0EB016F01D041
:103450000120D1E70020CFE70438024000004742B6
:10346000800E4742007000400000FFFF70B5154617
:103470000E46040003D094F8490010B107E0012083
:1034800070BD002084F84800204600F01DF804F1CB
:1034900008012068FDF776FF3146A2682068FDF735
:1034A000A5FFD4E901022946236BFDF74DFF2168F2
:1034B000A06851F8202042F0010241F820200120AC
:1034C00084F84900002070BDFEF70CBB10B5401E0B
:1034D000B0F1807F01D3012010BD4FF0E024606186
:1034E0000F21601704F0C1FA0020A06107202061BD
:1034F000002010BD7047704770B590F83C20012A3D
:1035000032D0012480F83C40022280F83D2003683C
:103510005A689D6822F070060A6832435A60134B5D
:1035200002689A4214D0B2F1804F11D0104B9A42E7
:103530000ED0104B9A420BD00F4B9A4208D00F4B33
:103540009A4205D00E4B9A4202D00E4B9A4204D1B9
:10355000496825F080031943916080F83D400021BF
:1035600080F83C10084670BD022070BD000001408C
:103570000004004000080040000C0040000401402E
:10358000004001400018004010B5040003D094F83A
:103590003D0010B107E0012010BD002084F83C0080
:1035A000204600F01FF8022084F83D00211D20680D
:1035B00001F08AFF012084F8460084F83E0084F878
:1035C0003F0084F8400084F8410084F8420084F809
:1035D000430084F8440084F8450084F83D0000204E
:1035E00010BD000008B501681E4881420FD11E4879
:1035F000016841F0200101600068002200F0200015
:10360000009011463720FFF749FB372024E0164889
:10361000164A001D91420ED1016841F4003101604B
:103620000068002200F40030009011461920FFF7D6
:1036300035FB192010E00E4A914211D1016841F486
:10364000802101600068002200F480200090114673
:103650001A20FFF723FB1A20BDE80840FFF710BB34
:1036600008BD000000140040403802400044014002
:103670000048014090F83D10012901D00120704719
:10368000022180F83D100168CA6842F00102CA6058
:1036900000681149884214D0B0F1804F11D00F4911
:1036A00088420ED00E4988420BD00E49884208D07D
:1036B0000D49884205D00D49884202D00C49884204
:1036C00004D1816801F00701062903D0016841F0A7
:1036D000010101600020704700000140000400402B
:1036E00000080040000C0040000401400040014080
:1036F0000018004070472DE9F04104460068C66894
:1037000005694FF00007A90713D5B10711D5F91EB8
:10371000016101202077206880698007204602D05F
:10372000FFF7E8FF04E000F07EF8204600F07CF8A8
:103730002777680716D5700714D521686FF0040045
:103740000861022020772068806910F4407F2046BD
:1037500002D0FFF7CFFF04E000F065F8204600F04C
:1037600063F82777280715D5300713D521686FF040
:1037700008000861042020772068C069800720467F
:1037800002D0FFF7B7FF04E000F04DF8204600F04C
:103790004BF82777E80616D5F00614D521686FF0A8
:1037A00010000861082020772068C06910F4407F6D
:1037B000204602D0FFF79EFF04E000F034F82046D8
:1037C00000F032F82777E80708D0F00706D0216824
:1037D0006FF001000861204600F027F8280608D5A0
:1037E000300606D521686FF0800008612046FFF79B
:1037F00081FE680608D5700606D521686FF0400086
:103800000861204600F012F8A8060AD5B00608D5CF
:1038100021686FF0200008612046BDE8F041FFF705
:103820006ABEBDE8F081704770477047704770B559
:10383000040004D094F84100002510B106E00120F6
:1038400070BD84F84050204600F024F8242084F80D
:1038500041002068C16821F40051C160204601F098
:10386000C7FE2068016921F4904101612068416927
:1038700021F02A0141612068C16841F40051C16012
:103880006564202084F8410084F8420065630020CC
:1038900070BD0000F0B587B0044614216846FCF7FF
:1038A0009BFF1949206888422CD1184800240168E0
:1038B00041F480210160006800F4802005901348E5
:1038C0001038016841F0040101600068022500F031
:1038D000040005904FF400600090CDE901540726E4
:1038E0000B4FCDE9034669463846FEF769F9680291
:1038F000CDE900050320CDE902406946049638462B
:10390000FEF75EF907B0F0BD0048004040380240C5
:10391000000802402DE9F843044690F8410098461B
:1039200016460D46202802D00220BDE8F88385B156
:103930007EB100206064212084F84100FEF746FA41
:10394000A6848146E684A0682027B0F5805F02D077
:1039500003E00120E9E7206910B12E4600250EE0C2
:1039600000260CE08021204601F0C8FEA8B9C6B1AF
:1039700016F8010B21684860E08C401EE084E08C62
:103980004B464FF00002CDF800800028EAD14FF0FE
:103990004001204601F0B2FE40B184F8417003209E
:1039A000C3E735F8020BC0F30800E3E784F8417081
:1039B0000020BAE72DE9F05F054600680E4607468D
:1039C00003F06EFFC6EB061140074FF007084FF0FB
:1039D000040905EB810401D5484633E031462868E7
:1039E00003F05EFFC0054FF0080A08D507EB46114B
:1039F0004FF48070C1F8080584F84DA028E03146E6
:103A0000286803F04DFF000705D507EB4611C1F804
:103A100008A506200CE03146286803F041FF400568
:103A200009D507EB46114FF48060C1F8080509205D
:103A300084F84D000CE03146286803F031FF0006A1
:103A40000AD5802007EB4611C1F8080584F84D809F
:103A50003146286803F075FC3146286803F020FFE2
:103A600080052868314604D503F06BFC4FF40070E4
:103A700059E103F015FFC0074FF0200B4FF0010A8A
:103A80004FF000084ED007EB4617C7F808B5E07EA8
:103A9000012807D184F81B80D7F8040520F4803072
:103AA000C7F80405A87930B1206BD7F81015C1F319
:103AB0001201401AA06384F84DA0C4F84480524615
:103AC000C7F808A594F8260030B1022804D00328CE
:103AD0000AD0012808D013E03146286803F031FCF1
:103AE0001020C7F808050BE0D7F8000540F000509B
:103AF000C7F8000584F84C2031462846FEF7F3F954
:103B0000A879012807D1208DA16B0144491EB1FB82
:103B1000F0F0C00704D014F83C0F80F001002070D2
:103B2000BDE8F09F3146286803F0BAFE80060CD548
:103B300007EB4611C1F808B5A07E0128F0D184F842
:103B40001BA0032084F84D00B4E03146286803F040
:103B5000A7FE80074FF0050B75D507EB4610022135
:103B6000C0F8081594F84D20012A16D0062A19D05D
:103B7000072A1CD0092A1AD0052A33D0032A63D079
:103B8000042A7DD0082A7ED0022AC9D094F84C207D
:103B900031462846FEF7A7F9C2E784F84D1084F8AD
:103BA0004CA0F3E784F84D1084F84CB0EEE784F8AD
:103BB0004D10626C521C6264022A10D9C4F8448011
:103BC000A27E4146012A07D1E1762177D0F804157B
:103BD00021F48031C0F8041584F84C90D6E784F8BD
:103BE0004C1022E084F84D10E27E012ACED194F8E8
:103BF0002620032AF3D1A26C521CA264022A11D9F6
:103C0000C4F8488084F81B80616C032901D284F8D1
:103C10001CA0D0F8041521F48031C0F8041584F8F4
:103C20004C9002E084F84C10B0E794F8261009B1EB
:103C30000229ABD1D0F8001521F0804141F00041BC
:103C4000C0F80015A2E724E084F84D10E27E012AB6
:103C50009CD184F84C10D0F8041541F48031C0F8A0
:103C60000415D0F80C1541F04001C0F80C15D0F83F
:103C70000C1521F02001C0F80C15D6E700E002E099
:103C800084F84D10ABE784F84D10606C401C606404
:103C9000A2E73146286803F003FE400610D507EB83
:103CA00046114020C1F8080584F84DB0A07E08B93F
:103CB000C4F8448031462868BDE8F05F03F041BB9A
:103CC0003146286803F0ECFDC0067FF565AF94F837
:103CD0002600032803D028B1022803D00FE0C4F83F
:103CE000448006E0C4F84480A87910B1E07E012841
:103CF00018D184F84D903146286803F022FBE07E0D
:103D000001280FD107EB461084F81B80D0F804156A
:103D100021F48031C0F80415D0F80C1541F02001D1
:103D2000C0F80C15102007EB4611C1F80805F7E69E
:103D30002DE9F05F054600680F46064603F0B0FD2A
:103D4000C7EB071140074FF0040A05EB810405D5C6
:103D500006EB4711C1F808A5072089E03946286815
:103D600003F09EFD80064FF000084FF001094FF070
:103D7000020B28D506EB47112020C1F80805607E0C
:103D80000326012809D184F8198084F84CB084F8FE
:103D90004D603946286803F0D4FAA07E012810D17E
:103DA000E07E00280DD194F82600012801D084F887
:103DB0001B9084F84D603946286803F0C2FAC4F8B5
:103DC0004480BDE8F09F3946286803F069FD80050E
:103DD00006D506EB47114FF40070C1F8080549E01D
:103DE0003946286803F05CFDC00720D0C4F8448041
:103DF0003946286803F054FD400606D506EB471106
:103E000084F819904020C1F80805E07E48B106EB1F
:103E1000471084F81B80D0F8041521F48031C0F8D5
:103E2000041506EB47114846C1F8089520E03946CD
:103E3000286803F035FD40060ED5052084F84D00B6
:103E4000A07E08B984F81990C4F8448039462868DF
:103E500003F077FA402028E03946286803F020FD77
:103E600000070DD506EB47110820C1F8080506200C
:103E700084F84D0039462868BDE8F05F03F061BA68
:103E80003946286803F00CFDC00613D5C4F84480F9
:103E900084F84DA0607E18B9207E08B984F8199086
:103EA0003946286803F04DFA102006EB4711C1F897
:103EB000080586E73946286803F0F2FC00061CD5A1
:103EC000A87970B1606C401C6064022811D9C4F8F4
:103ED0004480524684F84CA039462846FEF703F841
:103EE00009E0072084F84D003946286803F029FAD4
:103EF00001E084F84CB08020D7E73946286803F009
:103F0000CFFC400509D5092084F84D0039462868C2
:103F100003F017FA4FF48060C7E73946286803F0CA
:103F2000BFFC8007C5D506EB47125846C2F808B556
:103F300094F84D10012917D003293AD004293ED016
:103F400005294CD006294DD0072901D00929B0D127
:103F500084F84D00616C491C6164022948D9C4F899
:103F6000448084F84CA04DE084F84D0084F84C90D7
:103F700094F82600022801D0032843D1A87928B953
:103F800094F83D0080F0010084F83D00A8790128F4
:103F900038D1606B10B3218D0844401EB0FBF1F0A6
:103FA000C0072FD094F83D0080F0010084F83D0058
:103FB00028E084F84D00E17E012916D022E084F843
:103FC0004D0084F84C00E07E01281BD184F81B8052
:103FD000D2F8040520F48030C2F8040512E084F819
:103FE0004D0002E084F84D00052084F84C0009E003
:103FF00084F84C00D2F8000520F0804040F00040EA
:10400000C2F8000594F84C2039462846FDF76BFFAE
:10401000D7E67CB504680546D4F840040190D4F88E
:10402000400420F02E0000900198800709D50198E7
:10403000C00702D02846FDF7CFFE009840F00200EE
:1040400000900198000724D5009840F008000090E7
:10405000019840071AD5687A022803D0E879012828
:104060000CD00FE00198C0F341400228286803D02B
:10407000012103F0F9FB05E00221FAE74EF660208A
:10408000C4F804042846FEF7A5F802E02846FEF727
:104090009DF801988006009802D540F0200000901D
:1040A000C4F840047CBD2DE9F04102460068064694
:1040B000016AC1F3434301F00F07C1F30A15022B54
:1040C0002ED1002D2CD0C7EB071102EB8104E16A41
:1040D000002925D0A26B636B2A449A4222D82A4633
:1040E00003F0EAFBE06A2844E062A06B2844A06386
:1040F00006EB4710D0F81015228DC1F3C941AA4232
:104100000ED100290CD0D0F8001521F0804141F0EB
:104110000041C0F8001514F83C0F80F00100207039
:10412000BDE8F081042084F84C00F9E7FEE701685F
:104130004A69D24352050FD46FF480624A6100216C
:1041400040F8301F202242738173026942F004025A
:104150000261017301207047002070472DE9F84F7C
:104160000446006889460B9D01689846174641F44D
:10417000806101602068016841F4807101600095F0
:104180004FF0011B0022594620460A9B00F0E4F83C
:104190004FF4007A40B120680068C00501D5C4F82A
:1041A00040A00320BDE8F88F216809F0FE000861F7
:1041B0002B46284920460A9A00F016F9F0BB2068E1
:1041C0004169806900902A4620460A9900F0A2F9C8
:1041D00040B1206C04283AD12068016841F4007194
:1041E000016034E0FEB2B8F1010F09D02168380A4D
:1041F00008612A4620460A9900F08CF90028E8D187
:10420000206806612A4620460A9900F083F90028B2
:10421000DFD12068016841F48071016000950022BF
:10422000594620460A9B00F097F80028B3D1216830
:1042300009F0FF0040F00100086100E007E02B46B4
:10424000044920460A9A00F0CFF80028AAD001209D
:10425000A8E70000020001002DE9F84304460068C9
:104260000D46DDE9089701689846164641F48071CD
:1042700001604B4600224FF001112046009700F0EC
:104280006BF848B120680068C00502D54FF4007093
:1042900020640320BDE8F883216805F0FE00086172
:1042A0003B464A461549204600F09EF888B92068EA
:1042B0004169806900903A464946204600F02AF953
:1042C00048B1206C042804D12068016841F40071D1
:1042D00001600120DEE7F5B2B8F1010F09D02168D5
:1042E000300A08613A464946204600F013F9002892
:1042F000E7D1206805610020CCE700000200010042
:1043000070B516460D4604461EE02046FFF70FFF27
:1043100008B1012070BD681C16D0FDF757FD801B49
:10432000A84200D885B920684069C04340070BD532
:10433000002044F8300F20216173A073216941F0FF
:10434000200121612073E4E720684069C0434007F1
:10435000DBD4002070BD00002DE9F04798461746D9
:104360000D460446C1F30746DDF820902AE000BF61
:10437000B8F1FF3F26D0FDF729FDA0EB090141452B
:1043800002D8B8F1000F1DD12068012E16D0806927
:1043900025EA00000004000C12D00020B84211D120
:1043A000002044F8300F20216173A073216941F08F
:1043B0002001216120730120BDE8F0874069E7E713
:1043C0000120EBE72068012E0AD0806925EA000071
:1043D0000004000C06D00020B842C9D00020EBE752
:1043E0004069F3E70120F7E72DE9F04798461646C4
:1043F0000D4604464FF000094FF0200AC1F307476D
:1044000023E020684069C043400515D42068016856
:1044100041F40071016021686FF480604861C4F864
:10442000309084F83DA084F83E90216C41F0040166
:10443000216484F83C9021E0701C06D0FDF7C6FC96
:10444000A0EB0800B04203D816B1012F1FD021E025
:104450002068012F15D0806925EA00000004000CB7
:1044600018D000BF44F8309F84F80DA084F80E9057
:10447000216941F02001216184F80C900120BDE800
:10448000F087406925EA00000004000CEAD12068AA
:10449000406901E02068806925EA00000004000C02
:1044A000AFD1ECE72DE9F041002590460E460446D9
:1044B000202728E04069C043C0060CD454F8301BC4
:1044C0006FF01000486144F810596777A577206AAB
:1044D0002062257714E0FDF779FCA0EB0800B042DC
:1044E00000D886B920684069C04340060BD544F81F
:1044F000305F6773A573206940F020002061257349
:104500000120BDE8F08120684169C9434906D1D442
:104510000020F6E770B516460D4604461EE020461C
:10452000FFF705FE08B1012070BD681C16D0FDF72D
:104530004DFC801BA84200D885B920684069C04363
:1045400000060BD5002044F8300F20216173A073C2
:10455000216941F0200121612073E4E7206840696E
:10456000C0430006DBD4002070BD000070B51549C3
:104570000268154B4FF040248A4201D11A4600E0F0
:104580002246D568C26A961CC6621580428E521EAB
:104590004286428E002A14D102688A4201D119460D
:1045A00000E02146496821F0600100D023465960AF
:1045B000418D002905D14FF0010180F84110FEF72F
:1045C000CBF970BD003800400034004070B5416A3E
:1045D000144B8A1C426205680988134A4FF0402434
:1045E0009D4201D1154600E02546E960418D491EF6
:1045F0004185418D002914D10168994201D11146AC
:1046000000E02146496821F0A00100D02246516017
:10461000418E002905D14FF0010180F84110FEF7CD
:104620009BF970BD00380040003400407CB5016843
:1046300004468868009094F841000125042834D18C
:104640000098C00718D04868C043400614D4C96811
:104650002046E26A1180E16A891CE162618E491E8E
:104660006186618E41B901684A6822F060024A6041
:1046700080F84150FEF7A6FA0098400615D520684C
:104680004168C943890610D4416821F06001416046
:104690002068C1688068019084F84150606C40F0E7
:1046A000020060642046FEF758F994F841000328A0
:1046B00034D10098800719D521684868C0430006A6
:1046C00014D4626A20461288CA60616A891C6162D9
:1046D000618D491E6185618D41B901684A6822F08A
:1046E000A0024A6080F84150FEF76DFA009800077A
:1046F00014D520684168C94389060FD4416821F068
:10470000A001416020688068009084F84150606C8E
:1047100040F0040060642046FEF71FF97CBD70B5D0
:1047200004462DED108B82B0B0EE429AF0EE629A04
:10473000B0EE40FAF0EE60FA90ED08EB51EC110BA0
:1047400053EC1E2B04F094FF41EC100B51EC190BB1
:1047500053EC102B04F080FD94ED061B53EC112B51
:1047600004F0CCFA94ED10DB41EC1A0B53EC1D2B4A
:1047700051EC190B04F070FD0E4646EC100B94ED55
:104780000CCB054653EC1C2B51EC100B04F070FFC6
:1047900094ED0EBB53EC1B2B04F06AFF94ED001B51
:1047A00053EC112B04F0AAFA53EC192B04F054FD2E
:1047B00094ED0A1B53EC112B04F0A0FA46EC105BAD
:1047C00041EC180B53EC1C2B51EC100B04F078FE51
:1047D00046EC105B41EC1C0B53EC1B2B51EC100B0B
:1047E00004F06EFE94ED020B41EC1B0B53EC192B05
:1047F00051EC100B04F030FD53EC1D2B04F07EFA4D
:1048000041EC100B51EC180B8DED000B94ED040BEB
:1048100053EC102B04F072FA41EC190B51EC180B0D
:1048200053EC192B04F01EFB41EC1D0B53EC192B20
:1048300051EC1B0B04F016FB41EC190B53EC1A2B3B
:1048400051EC1F0B04F014FF41EC1F0B51EC1D0B3E
:1048500053EC1F2B04F000FD53EC1A2B04F04EFA1E
:1048600041EC1A0B53EC1F2B84ED06AB51EC190BEA
:1048700004F0F2FC53EC1E2B04F040FAC4E90801EA
:1048800053EC182B51EC1D0B04F0E6FC53EC182BE9
:1048900004F016FEC4E90A0153EC1C2B51EC1D0B6D
:1048A00004F0DAFC53EC1C2B04F00AFEC4E90C0102
:1048B00053EC182B51EC190B04F0CEFC53EC1B2BD2
:1048C00004F0FEFDC4E90E0153EC1C2B51EC190B56
:1048D00004F0C2FC9DED000B53EC102B04F0F0FD36
:1048E000C4E9100102B0B0EE4A0AF0EE6A0ABDEC6B
:1048F000108B70BD04480178002903D1012101709B
:10490000FCF794BC70470000E80000204FF0D04155
:10491000C0B208804888704710B500224FF0D044DC
:1049200004E000BF30F8023B6380921C8A42F9D356
:1049300010BD4FF0D041088070472DE9F04186B09E
:1049400080460124642504A88DE8310023467522A1
:10495000D0214046FDF736FD9DF81000682803D0B1
:10496000012006B0BDE8F081002703AE8DF80C7081
:10497000009601236B22D0214046CDE90145FDF789
:1049800023FE07208DF80C00009601231922D02168
:104990004046CDE90145FDF717FE8DF80C40009625
:1049A00001231C22D0214046CDE90145FDF70CFE34
:1049B0008DF80C70009601231B22D0214046CDE9D2
:1049C0000145FDF701FE0020CBE700002DE9F0478F
:1049D0000C462DED0C8B88B09FED9A9B9FED9BDBD9
:1049E0009FED9CBB9FED9DAB64230E2203A98DE838
:1049F0000E0001233B22D021FDF7E4FCBDF80C00A2
:104A000040BA00B22080BDF80E1049BA0EB26680DE
:104A1000BDF8101049BA0DB2A580BDF8121049BA00
:104A20000FFA81FABDF8141049BA0FB22784BDF805
:104A3000161049BA09B261848946BDF8181049BAFE
:104A400009B2A184884604F0A1FB9FED868B53EC4C
:104A5000182B04F001FCC4E90201304604F096FB77
:104A600053EC182B04F0F8FBC4E90401284604F0C9
:104A70008DFB9FED7E1B53EC112B04F0F3F900EE40
:104A800010AAB8EEC00A9FED7B1AC0EE010A9FED96
:104A90007A0AC4E90601384630EE800A84ED100A2D
:104AA00004F074FB9FED758B53EC182B04F0DAF9CE
:104AB000C4E90A01484604F069FB53EC182B04F0E2
:104AC000D1F9C4E90C01404604F060FB53EC182B0B
:104AD00004F0C8F9C4E90E01FDF778F9694D2968B9
:104AE000401A04F06AFB9FED681B53EC112B04F095
:104AF000B9F941EC1C0BFDF769F92860208810FB1F
:104B000000F1A08810FB001004F040FB41EC100BFA
:104B100003F034FAB0EE408AF0EE608A53EC192BC1
:104B200051EC180B04F0F6FA13D0B4F9020004F0BB
:104B30002DFB53EC182B04F095F941EC100B02F00F
:104B4000A7FF53EC1D2B51EC100B04F085FB41EC3F
:104B5000190BB4F9040004F019FB41EC180BB4F97B
:104B60000000404204F012FB41EC100BB0EE481A7A
:104B7000F0EE681A03F0F8F853EC1D2B51EC100B13
:104B800004F06AFB41EC180B53EC1B2B04F028FBE0
:104B900008D294ED140B53EC1A2B51EC100B04F0CB
:104BA00059FC0FD353EC1A2B51EC180B04F052FCA8
:104BB00011D294ED140B53EC1B2B51EC100B04F0A1
:104BC0000FFB08D22F48503080ED068B84ED148BFC
:104BD00094ED140B0FE02B4894ED0C1BB0EE4C2A17
:104BE000F0EE6C2AB0EE480AF0EE680A5030FFF79B
:104BF00096FD84ED140B03F0B7F953EC1A2B51EC2E
:104C0000100B04F027FC07D294ED0A0B51EC100BAB
:104C100004F068F8C4E90A011A4894ED0A1BB0EEE2
:104C20004C2AF0EE6C2AB0EE490AF0EE690A083020
:104C3000FFF775FD84ED120B08B0BDEC0C8BBDE8E1
:104C4000F08700000000000000000000F8C1631AB7
:104C5000DCA54C4000000000008056C000000000B1
:104C600000805640000000000000103F00000000DF
:104C70000029CC400000AA43B81E124200000000E8
:104C800000606040180000200000000000408F40DD
:104C90007FB50024154800940194029412490394AE
:104CA00001604FF48031C0E90114012504610576EB
:104CB00080F820400E49C0E90A14C561C46080F83C
:104CC00030404561FCF75AFC08B172B6FEE7082097
:104CD000CDE90005694602940448FCF7A9FB0028C9
:104CE00001D072B6FEE77FBD0022014068010020BE
:104CF0000100000F20B1002220210248FDF760B81A
:104D00000122F9E7001C024010B504490448FCF7F1
:104D100069FA0249491E087010BD0000B200002067
:104D20005098000800B587B01C216846FBF754FD79
:104D300016484FF020414FF4805201601449416001
:104D400000218160C160016141618161C1610162D5
:104D5000C0E90912C16201634163816341640F20AC
:104D6000FF220090CDE90102039010200490112051
:104D7000CDE90501002269460448FEF777FB0028CB
:104D800001D072B6FEE707B000BD0000800300202E
:104D9000040100A02DE9F04F87B014216846FBF70D
:104DA0001BFDE0480024016841F01001016001682A
:104DB00001F010010591016841F0020101600168F4
:104DC00001F002010591016841F0400101600168B4
:104DD00001F040010591016841F00801016001689E
:104DE00001F008010591016841F0040101600168CA
:104DF00001F004010591016841F0010101600168C1
:104E000001F001010591016841F4807101600168C0
:104E100001F480710591016841F080010160016831
:104E200001F080010591016841F0200101600068F6
:104E3000002200F0200005904FF48A51BA48FCF798
:104E4000BFFF00224FF40071B848FCF7B9FF002201
:104E500048F22001B648FCF7B3FF00228021B54894
:104E6000FCF7AEFF00228021B348FCF7A9FF4FF406
:104E7000807B0225CDF800B0CDE901540B20CDE9AF
:104E800003406946AD48FCF79BFE43F62340CDE95D
:104E900000050320CDE902400A2669460496A7488A
:104EA000FCF78EFE4FF4D0400090CDE901540B206A
:104EB000CDE9034069469C48FCF782FE4FF49850C8
:104EC000CDE900050320CDE902400C27694604978F
:104ED0009848FCF775FEA80300904FF40410CDE944
:104EE000010469469048FCF76BFE4FF48A5000902D
:104EF0000120CDE9010469468B480394FCF760FE6C
:104F0000F0200090CDE901544FF00D08CDE90348A1
:104F100069468648FCF754FE4FF004094FF4901A96
:104F2000CDF80090CDE901A469468048FCF748FE21
:104F3000280200900120CDE9010469467B480394D2
:104F4000FCF73EFE0320CDE90240CDE9009569461D
:104F500004977B48FCF734FE48F2200000900120C3
:104F6000CDE90104694672480394FCF729FE680202
:104F70000090CDE901540B20CDE9034069466B4810
:104F8000FCF71EFEA802CDE900050320CDE9024092
:104F9000694604966548FCF713FE2803CDE9000432
:104FA0000120029069466248FCF70AFE4FF4BE40B9
:104FB0000090CDE90154CDE9034869465C48FCF70F
:104FC000FFFDCC200090CDE901540B20CDE903403A
:104FD00069465748FCF7F4FDCDF800B0CDE901541F
:104FE000DFF860B10394694658460494FCF7E8FD85
:104FF000802701200097CDE9010469464D480394BC
:10500000FCF7DEFD1020CDE900050320CDE90240CC
:10501000694604964648FCF7D3FD0097CDE9015454
:105020000820CDE9034069463F48FCF7C9FD01204F
:105030000097CDE9010469463F480394FCF7C0FDA1
:105040004027CDE9007469463B480294FCF7B8FD5F
:105050000120CDE900050320CDE902406946049610
:105060003448FCF7ADFD3E200090CDE901540B2003
:10507000CDE9034069462F48FCF7A2FDCDE9009435
:1050800069462E480294FCF79BFD86200090CDE9EE
:1050900001540B20CDE9034069465846FCF790FDCA
:1050A000012000904FF44410CDE9010469465846B0
:1050B000FCF786FD0097CDE90154CDE90348694628
:1050C0005846FCF77DFD2820CDE900050320CDE9F9
:1050D0000240694604965846FCF772FDA802CDE9E5
:1050E000000A694602941448FCF76AFD6803CDE99A
:1050F000000A694602941148FCF762FD002211463D
:105100000620FDF7CBFD0620FDF7BAFD0022114673
:105110002820FDF7C3FD2820FDF7B2FD07B0BDE84C
:10512000F08F00003038024000180240002002409A
:10513000001C02400008024000140240000402402B
:10514000000C02400000024010B501220B490C483F
:1051500000F0EBFD08B1FCF743F80A49084801F0FC
:105160002DFF08B1FCF73CF8054801F06AFF002864
:1051700003D0BDE81040FCF733B810BD59700008EB
:10518000E8040020C8000020014801F0F9BD00003B
:10519000E8040020FEE7FEE70148FCF7F3BE00004C
:1051A000C008002070477047FDF70EBD70B592B083
:1051B00030216846FBF710FB14210CA8FBF70CFB11
:1051C00020480025016841F080510160006800F02E
:1051D000805011901C48016841F4804101600068D2
:1051E000022400F4804011900120009000040694F5
:1051F000860101901920CDE907604FF4A870CDE930
:10520000090407200B906846FDF77AFF08B172B6D3
:10521000FEE70CA90F2081E831004FF4A0500F9059
:105220004FF48050109005210CA8FDF737FE08B10F
:1052300072B6FEE7002231461046FDF71BFF12B0A2
:1052400070BD000040380240007000400248016814
:1052500041F470010160704788ED00E010B503F083
:10526000D1FB03F085FBBDE810400148FEF743BACF
:10527000F002002070B5504D2DED028B28789FED87
:105280004F8B504C012869D194ED140B9FED4E1BB0
:1052900051EC100B53EC112B04F0DCF80DD294ED13
:1052A000140B53EC182B51EC100B03F099FF04D2A4
:1052B00000210222084603F0DDFC94ED140B53ECB0
:1052C000182B51EC100B04F0C5F80FD294ED140B11
:1052D0009FED3F1B51EC100B53EC112B03F080FFA3
:1052E00004D200210622084603F0C4FC94ED140BFE
:1052F0009FED391B51EC100B53EC112B04F0AAF865
:1053000010D294ED140B9FED361B51EC100B53ECA7
:10531000112B03F065FF05D200216FF0050208464E
:1053200003F0A8FC94ED140B9FED2F1B51EC100B18
:1053300053EC112B04F08EF810D294ED140B9FED6A
:105340002C1B51EC100B53EC112B03F049FF05D231
:1053500000216FF00102084603F08CFC2878264CEF
:105360006FF0020602280ED12068012802D0401CEE
:1053700004D019E000221146304602E00022114616
:10538000032003F077FC287803280DD160680128FA
:1053900002D0401C03D007E00022032101E00022DC
:1053A0003146002003F066FCBDEC028B1348BDE8DB
:1053B0007040FEF7A0B90000B0000020000000001F
:1053C00000005440900400200000000000003E4017
:1053D0000000000000C0674000000000002067C01F
:1053E00000000000000044C000000000000049C0B0
:1053F00000000000000034C058010020A802002076
:105400002DE9F04129492A48FFF7E0FA03F074FB3F
:105410002848294C294F0078A515DFF8A480661587
:1054200030B101280BD0022822D003281BD12BE059
:10543000012240212046FCF7C3FC002205E00022A7
:1054400040212046FCF7BCFC012229462046FCF7FF
:10545000B7FC002231463846FCF7B2FC002280211E
:105460004046FCF7ADFCBDE8F0411648FEF743B9F5
:10547000002240212046FCF7A3FC002229462046BA
:10548000FCF79EFC0122E5E7002240212046FCF7C4
:1054900097FC002229462046FCF792FC0022314668
:1054A0003846FCF78DFC0122D9E70000900400206B
:1054B000C4010020B000002000180240002002407B
:1054C0000008024060020020F0B50268294C2A4D15
:1054D0002A4E2B4F2B4B4FF0804CA04209D06045F9
:1054E00007D0A84205D0B04203D0B84201D09842BC
:1054F00004D122F0700E4A6842EA0E02A0421BD08C
:10550000604519D0A84217D0B04215D0B84213D088
:10551000984211D01C4DA8420ED01C4DA8420BD071
:105520001B4DA84208D01B4DA84205D01A4DA842D9
:1055300002D01A4DA84203D122F44075CA682A430A
:105540004D6922F080022A4302608A68C2620A68BA
:105550008262A04201D0984201D109690163012110
:1055600041610169C90703D0016921F001010161AD
:10557000F0BD0000000001400004004000080040B1
:10558000000C004000040140004001400044014084
:105590000048014000180040001C0040002000406E
:1055A00001680C3151E8002F22F4907241E8002389
:1055B000002BF5D10168143151E8002F22F00102CF
:1055C00041E80023002BF5D1016B012909D10168C5
:1055D0000C3151E8002F22F0100241E80023002B8B
:1055E000F5D1202180F842100021016370470000AE
:1055F00070B5044600680169E26821F44051114326
:1056000001612169A068E2690843616911430843A7
:105610002168CA6849F20C639A430243CA60206851
:105620004169A26921F44071114341613149206807
:10563000884202D03049884202D1FDF7D9FC01E00E
:10564000FDF7C6FCE2690023192164253226B2F574
:10565000004F626828D0A0FB0101930F9200FAF777
:1056600081FE0146B0FBF5F06FF01802504301EBEC
:10567000800006EB0010B0FBF5F000F0F002B1FB8B
:10568000F5F002EB0012B1FBF5F06FF01803584390
:1056900001EB800006EB0010B0FBF5F000F00F000E
:1056A00021681044886070BDA0FB010192185B4125
:1056B000FAF758FE0146B0FBF5F00201B1FBF5F038
:1056C0006FF01803584301EB800006EBC000B0FBFD
:1056D000F5F000F0F80002EB4002B1FBF5F05843A2
:1056E00001EB800006EBC000B0FBF5F000F0070016
:1056F000D6E7000000100140001401402DE9F843F6
:10570000984617460D460446089E24E0701C22D099
:10571000FCF75CFBA0EB0800B0421AD8CEB12068C1
:10572000C168490717D5802D15D0402D13D00168C9
:10573000C94309070FD4016800254068009020463E
:10574000FFF72EFF0820606484F840500120BDE878
:10575000F8830320FBE72068006835EA000004D0E6
:105760000020B842D2D00020F1E70120F9E710B5BF
:1057700000224FF6FF7300EB8204B4F88443240444
:105780000BD49A4207D002F00F0300EB830041F4E0
:105790000041C0F88413D0B210BD521CD2B2102AFE
:1057A000E9D31A46F7E77FB51C46012501AE002371
:1057B000009586E80E0002232A46214600F0ADFB44
:1057C00004B0002070BD7FB51D4690F81D33089CC5
:1057D00003B100240123CDE90031CDE902240223E5
:1057E0000022294600F099FB04B0002070BD10B5DE
:1057F00000F0BAFA002010BD8278012A07D10222F7
:10580000027401224274002242828182C2820022FA
:10581000114600F00FB87FB51C46012501AE0023EC
:10582000009586E80E002A46214600F076FB04B07B
:10583000002070BD70B504460120A3780546012BF9
:105840000BD0022B08D1204600F0F1F858B1032804
:1058500009D0022800D1A57070BDA160A281257673
:105860000221A17070BDA5700021217670BD7FB5A9
:105870001D4690F81D33089C03B100240123CDE997
:105880000031CDE9022400231A46294600F045FBE9
:1058900004B0002070BD1FB500231446CDE90031CF
:1058A0000822CDE902231A46214600F036FB04B057
:1058B000002010BDFCF704B970B50546002005F5C1
:1058C0004E7500BF00EB800404EBC00405EB4404FC
:1058D000E67B0A348E4201D0FF2909D1A67996428F
:1058E00001D0FF2A04D1E4799C4206D0FF2B04D0DA
:1058F000401CC0B20228E5D3FF2070BD102907D29A
:1059000000EB8100B0F88413C1F30E01C0F88413DA
:105910000020704730B48578029C012D0FD141F0F2
:10592000800101740621417403214282B1EB122FE0
:1059300002D140F2094100E000218182C482224666
:1059400030BC1946FFF776BF0A8803781A440A80EC
:10595000017808447047F8B50D46064600F11C046E
:10596000B1F5807F01D90320F8BD23464FF40072C2
:10597000002130460095FFF7CDFF0028F4D12A46DC
:1059800021463046BDE8F84001F0BEB8F8B50C46F7
:105990000546B1F5007F01D90320F8BD05F58E73EA
:1059A0001E464FF48072002128460094FFF7B2FF94
:1059B0000028F2D1224631462846BDE8F84001F0E1
:1059C00048B9F8B51C461646B3F5007F17D8B6B1EE
:1059D00041F4407200F58E731D4600210094FFF7DC
:1059E00099FF00280CD16978032909D129788A1EEA
:1059F000A24200D814460021A2B2AD1C06E003204A
:105A0000F8BD6B5C891C06F8013B89B29142F8D362
:105A100000213170F8BD01004FF0000004D00129D1
:105A200001D0022901D002207047012070472DE9E2
:105A3000F84F0125017E04460B26092728464FF022
:105A400007084FF0050A4FF00D090C2919D2DFE8BD
:105A500001F0B4060E26313C48606B7C899A62796D
:105A600004F110012046FFF716FF022012E06179D1
:105A7000204600F0D3F9012804D0042871D0022870
:105A80007FD09AE0207CE18A00F0800021B180285C
:105A90003AD10320207690E0802814D02EE0D4F86C
:105AA000C403E0812379A2892046A168FFF7B3FEF1
:105AB0000420EFE72179204600F0B0F9012802D058
:105AC000052840D056E0277677E000906379A289D8
:105AD0002046A168FFF7CBFED4F8C403E08106207E
