:020000040800F2
:10000000980C002079020008FB420008412B0008F0
:10001000F9420008ED0D0008C74800080000000084
:10002000000000000000000000000000FF42000887
:10003000EF0D000800000000FD4200080143000829
:10004000930200089302000893020008930200083C
:1000500093020008930200088D0E00089302000826
:10006000930200089302000893020008930200081C
:10007000930200089302000893020008930200080C
:1000800093020008930200089302000893020008FC
:1000900093020008930200089302000893020008EC
:1000A00093020008CD430008B543000893020008FE
:1000B000930200089302000893020008452B0008F1
:1000C00093020008930200089302000893020008BC
:1000D00093020008930200089302000893020008AC
:1000E000C10E000893020008930200089302000862
:1000F000930200089302000893020008930200088C
:10010000930200089302000893020008930200087B
:100110009302000893020008930200085945000862
:10012000930200089302000893020008930200085B
:10013000930200089302000893020008930200084B
:10014000930200089302000893020008930200083B
:10015000930200089302000893020008930200082B
:10016000930200089302000893020008930200081B
:1001700093020008930200089302000800000000A8
:10018000930200089302000800F002F800F065F8FE
:100190000AA090E8000C82448344AAF10107DA45E2
:1001A00001D100F05AF8AFF2090EBAE80F0013F0CF
:1001B000010F18BFFB1A43F001031847AC7E000083
:1001C000CC7E00000A444FF0000C10F8013B13F005
:1001D000070408BF10F8014B1D1108BF10F8015BA0
:1001E000641E05D010F8016B641E01F8016BF9D193
:1001F00013F0080F1EBF10F8014BAD1C0C1B09D1EA
:100200006D1E58BF01F801CBFAD505E014F8016B5B
:1002100001F8016B6D1EF9D59142D6D370470000ED
:100220000023002400250026103A28BF78C1FBD8FF
:10023000520728BF30C148BF0B607047732900F0D8
:10024000EA82002070471FB506F048F99DE80300D8
:1002500000F070FA1FBD10B510BD00F00BFB114689
:10026000FFF7F1FF05F0DAF800F029FB03B4FFF720
:10027000F2FF03BC00F05AFB0948804709480047D9
:10028000FEE7FEE7FEE7FEE7FEE7FEE7FEE7FEE746
:10029000FEE7FEE704480549054A064B70470000A3
:1002A000A54300088901000898060020980C00204A
:1002B000980800209808002070B5064600F01EFA45
:1002C000056806F10B0020F00704B4429CBF002033
:1002D00070BD2B466A68BAB11068A04210D304F111
:1002E000080188423CBF5068586007D35168101914
:1002F00041601168091B016058601460101D70BDD9
:1003000013465268002AE7D12146284600F0FEF93C
:100310000028DED170BD70B50446051F00F0EEF96F
:100320000068002C14BF446870BD002C18BFAC429C
:100330003CBF20466468F8D301680A18AA4218BF77
:10034000456003D12A6805461144016028684119B7
:10035000A1421CBF6C6070BD61686960216808447F
:10036000286070BD53EA020C00F069802DE9F04B63
:100370004FF00006002B1FBFB3FA83F503FA05F414
:1003800024FA05F65E4012BF1643B2FA82F502FA6D
:1003900005F4C5F120051EBF22FA05FC44EA0C0451
:1003A000203556EA044C4FEA144418BF641C4FF041
:1003B00000084FF00009904271EB030C39D300297B
:1003C00019BFB1FA81F701FA07F6B0FA80F700FA1F
:1003D00007F6C7F120071EBF20FA07FC46EA0C0605
:1003E0002037B6FBF4FCA7EB0507103F07F01F0B07
:1003F000CBF120060CFA0BFB2CFA06F644BFB346F1
:100400000026202FA4BF5E464FF0000B5BEA060CCF
:1004100008BF4FF0010B19EB0B09ABFB027C48EB5B
:100420000608C01B06FB02CC0BFB03CC71EB0C01D6
:10043000C1E70B46024641464846BDE8F08B13B57E
:100440004FF000004FF00001AFF30080BDE81C400A
:10045000704700000FB41CB5074B06AA7B446946E1
:100460000090059800F0ADF90020694600F0BCF955
:100470001CBC5DF814FB00008903000070B50C463D
:100480000546012A05D02878800600D5EA690023B0
:1004900002E0012305E05B1C934202D2E05C0028ED
:1004A000F9D1A869E618C01AA861286A1844286218
:1004B0002846AFF3008004E0D5E9012114F8010BD0
:1004C0009047B442F8D32846AFF3008070BD0000D7
:1004D0002DE9F05F894604464FF0000ADFF824B1A9
:1004E000FB44C0F820A02046E168884700287DD062
:1004F000252806D0D4E901219047206A401C2062BB
:10050000F1E700255F462046E16888472028064637
:1005100007DB312E05D2B81910F8200C08B10543BD
:10052000F1E7A80701D525F00405C4F81CA00027B1
:10053000C4F818A02A2E09D0304604F041FD38B383
:1005400004EB8708303EC8F8186019E059F8041B1E
:10055000204604EB87029161E1688847012F064637
:1005600018D1E069002820DA25F020051DE0D8F830
:10057000180000EB800006EB40003038C8F8180087
:100580002046E1688847064604F01AFD0028EED1AF
:10059000012F0AD02E2E08D12046E16888477F1C03
:1005A0000646022F45F02005C4DBA069002803DAC7
:1005B000404245F00105A061E80701D025F0100593
:1005C000A6B1A6F14100192802D8203645F40065ED
:1005D0004A463146204625604D46FFF72FFE60B162
:1005E000012807D0ED1D25F0070000E007E000F12D
:1005F000080978E705F1040975E730467AE7206ACB
:10060000BDE8F09FD27A000040EA0103024630B50F
:100610009B0710D14FF0013400E008C208C91D1B30
:100620009D4315EAC41FF8D013F0FF0102F8011B27
:100630000DD01B0AF8E711F8013B002B02F8013B33
:1006400005D011F8013B002B02F8013BF3D130BD7E
:1006500010B5431C02E010F8011B71B18107FAD1FB
:100660004FF0013202C88C1A8C4314EAC211F9D03F
:10067000C01A0A0603D0C01E10BDC01A10BD0A045D
:1006800001D0801E10BD0902FCD0401E10BD421ECC
:1006900012F8013F002BFBD111F8013B002B02F8AF
:1006A000013BF9D170474FF0000200B51346944664
:1006B0009646203922BFA0E80C50A0E80C50B1F1BA
:1006C0002001BFF4F7AF090728BFA0E80C5048BFCE
:1006D0000CC05DF804EB890028BF40F8042B08BF6C
:1006E000704748BF20F8022B11F0804F18BF00F868
:1006F000012B7047704770477047000000487047F3
:100700003C060020704770477047704738B5044674
:100710000A4600206946AFF30080002808BF38BDB4
:1007200002460099204600F083F8012038BD0120E0
:1007300000F098B8F8B5AFF30080054600200C46ED
:10074000102000BF0646A819A0420DD932466946BE
:100750000020AFF30080070008BF00F083F8009886
:10076000A04218BF0546C419FFF7C8FF0560074639
:10077000F01D20F007004619284600F00AF8B442A0
:1007800008BFF8BDA21B31463868BDE8F84000F04C
:100790004FB800210160C0E9011070471020704778
:1007A00010B500F041F8006810BD10B5044600F027
:1007B0003BF8046010BD000001694A1C0261087822
:1007C000704700B58FB0CDE9013100210591054991
:1007D0007944CDE9031011466846FFF779FE0FB062
:1007E00000BD0000E5FFFFFF0A6802F8010B0A6088
:1007F000704710B5436913B1AFF3008001E0FFF714
:100800003DFE012010BD127800F124010A70002283
:100810004A700122EDE711684FF0FF32E9E700006E
:100820000048704734060020004870473406002016
:10083000034640688C46002818BF88423CBF0346E8
:100840004068F8D318681844884207D00CF10300B8
:1008500020F00700001D411A521A0146081D0A60C7
:10086000FFF759BD10B500F039F8BDE8104000F0B1
:100870002FB870477546FFF7D3FFAE4605006946AF
:10088000534620F00700854618B020B5FFF702FD5B
:10089000BDE820404FF000064FF000074FF0000881
:1008A0004FF0000B21F00701AC46ACE8C009ACE802
:1008B000C009ACE8C009ACE8C0098D46704710B566
:1008C0000446AFF300802046BDE81040FFF7CEBCE1
:1008D000002801D000F02AB87047000010B50128A8
:1008E00005D0002103A000F027F8012010BD09A1C8
:1008F000F8E7000053494752544D454D3A204F7593
:1009000074206F662068656170206D656D6F727907
:10091000000000003A2048656170206D656D6F72BF
:100920007920636F727275707465640001491820D4
:10093000ABBEFEE72600020070B505460C460A2055
:1009400000E06D1C00F011F835B128780028F8D1CE
:1009500002E0641C00F009F814B120780028F8D1F6
:10096000BDE870400A20AFF3008008B569468DF8F5
:1009700000000320ABBE08BD464910B54A6822F40A
:1009800040324A604A6843681A434A6001684A68CC
:1009900022F480724A6001684A68036942EA0322CD
:1009A0004A6001684A6822F040724A6001684A68F9
:1009B00083681A434A6001688A6822F400628A6088
:1009C00001688A68C3681A438A60816A6FF070623E
:1009D000D14201688A6822F070628A6001688A6880
:1009E0000CD0836A1A438A6001688A6822F04052F8
:1009F0008A6001688A68C36A1A4301E022F04052A3
:100A00008A6001688A6822F002028A6001688A6846
:100A1000037E42EA43028A6090F8201000290168B0
:100A20004A680FD042F400624A6001684A6822F4C2
:100A300060424A6001684A68174C436A04EB4333DA
:100A40001A4301E022F400624A600168CA6A22F493
:100A50007002CA620168CA6A838B104C04EB0353AC
:100A60001A43CA6201688A6822F400728A600168C7
:100A70008A6890F8303042EA43228A6001688A68C6
:100A800022F480628A6001688A68406942EA8020B4
:100A9000886010BD0023014000E0FFFF0000F0FF70
:100AA00070B50A4E00243568306007E000F070F938
:100AB00082B2A1B2002000F0E3F8641C00F06EF9ED
:100AC000A042F3D8A8B2306070BD0000A803002097
:100AD000074B30B49B68DD881C689B88DB1DDB08F6
:100AE000203A13FB02F205FB024230BC00F080B951
:100AF000A80300200148006880680047C400002067
:100B00002DE9F0470446002799468A461546B8461F
:100B1000104601E008F1010810F8011B0029F9D185
:100B200000F036F91C4E4A46B9F1010FB1688988C8
:100B3000B0FBF1F002D0022A17D105E0A0EB0800CB
:100B4000484304EB500003E0A0EB08004843001BBF
:100B500084B20AE051462046FFF7BAFFB0687F1C16
:100B6000BFB280886D1C204484B200F011F90146A8
:100B7000B068808807FB101189B2814201D301203F
:100B800000E000202A780AB1012100E0002108429B
:100B9000E0D1BDE8F0870000A80300202DE9FE4F5A
:100BA000814603208846A0EB4207002514465EE0FC
:100BB000314EA8EB040A1FFA8AF1308882B209EBA1
:100BC0000500029080B200F081F830881FFA8AF1A7
:100BD00082B2A9EB0500019080B200F077F830886E
:100BE000A8EB050A82B209EB040000901FFA8AF113
:100BF00080B200F06BF83088A9EB040B82B21FFAC8
:100C00008AF11FFA8BF000F061F8308808EB040AD3
:100C100082B202981FFA8AF180B200F057F8308849
:100C20001FFA8AF182B2019880B200F04FF8308842
:100C300008EB050A82B200981FFA8AF180B200F030
:100C400045F830881FFA8AF182B21FFA8BF000F063
:100C50003DF80A48B060002F03DA07EB8507BF1D97
:100C600004E0281B07EB8007641E0A376D1CA542B1
:100C70009ED9BDE8FE8F0000A8030020C800002018
:100C80002DE9F04106460F4800240F4F0068154635
:100C90008846D0F820C0BCF1000F0FD0134638882A
:100CA0000A463146BDE8F04180B260473888414687
:100CB00082B2301980B200F009F8641CAC42F5D35E
:100CC000BDE8F081C4000020A8030020034B1B688E
:100CD0005B69002B00D0184770470000C40000205B
:100CE0002DE9F74F0F46DFF8A49090460321A1EBC2
:100CF0004806B9F8001082B089B2002415464FF6B4
:100D0000FF7AC9F8001031E08DB1381981B202982C
:100D10000AEA4502401B0090934680B2FFF7B0FFFD
:100D2000381B81B200985A4680B2FFF7A9FF8CB1F8
:100D3000781B81B202980AEA4402001B0090934695
:100D400080B2FFF79DFF781981B200985A4680B2B1
:100D5000FFF796FF002E03DA06EB8406B61D04E0CB
:100D6000601B06EB80066D1E0A36641CAC42CBD9B4
:100D7000B9F80010424689B2C9F80010029805B0CF
:100D80003946BDE8F04FFFF709BF0000A803002077
:100D900001480068806A0047C400002001480068DC
:100DA000C06A0047C400002070B50D4C4FF6FF70BC
:100DB000012660600B48A0600B4D00202060686831
:100DC0008047A0F51341253907D10648001F05606B
:100DD0002868804703480026A060304670BD0000A8
:100DE000A8030020C8000020FC000020FEE7704798
:100DF0002DE9F74FDFF890B00026DBF80800858872
:100E0000C788E81D824620F00700401B00F0FF095C
:100E100035E000BF4FEADA010298012901FB060024
:100E20000BD002290BD0017842780904807841EA7E
:100E3000022141EA000800241AE0007801E000885D
:100E400040BA8046F7E7291B49440120491E8840E3
:100E500010EA080F02D0BBF8000001E0BBF8040064
:100E6000019982B20098204480B2FFF72FFF641CE2
:100E7000AC42E8D30198401C80B2761C0190BE427F
:100E8000C8D3BDE8FE8F0000A8030020084810B5B5
:100E90000178012901D0012100E00021017005A0A5
:100EA00004F09CFCBDE81040012000F049BB0000AC
:100EB000990000204B45592050524553534544005A
:100EC00010B54FF6FF70FFF7EBFD0CA004F086FCA9
:100ED000134900203222087078219620FFF700FF86
:100EE0001048962141607821816032210160BDE87F
:100EF00010404FF4004000F023BB00005B436972D8
:100F00006C63655D20526573657420706F736974DE
:100F1000696F6E20616E64207363616C6500000010
:100F200099000020A000002000B59BB04FF02040A9
:100F3000009014480190052014900120159009207C
:100F4000169000200221CDE91701CDE919100421E6
:100F5000CDE902101021CDE90401069007900902A5
:100F60000890CDE909010C900B900D900E90119016
:100F700000F00AF814AA1146684601F03DFB1BB0C8
:100F800000BD0000040100A0294800B5016887B039
:100F900041F001010160006800F001000590244863
:100FA0000838016841F008010160016801F008019A
:100FB0000591016841F010010160016801F0100124
:100FC0000591016841F020010160016801F02001F4
:100FD0000591016841F0400101600068694600F038
:100FE0004000059002200190012002900320039010
:100FF0000C2004904FF6337000900E4800F0ACFACD
:101000004FF69B70009069460B4800F0A5FA4FF22E
:101010003F0000906946094800F09EFA40F23F40C8
:1010200000906946064800F097FA07B000BD00003E
:1010300038380240000C0240001002400014024008
:101040000018024030B5B3F5804F05D06FF0704105
:1010500040F82210002030BD8C690B688D68234356
:101060004C688989240144EA0524234343EA014169
:1010700050F82230014C23401943E9E70000F0CF3B
:1010800010B50A6850F8223023F0010340F82230EE
:101090008C68082C23D000234A682243CC681C4368
:1010A0000B6922431A434B690E4C1A43CB691A430E
:1010B0000B6A1A434B6A1A438B6A1A43CB6A1A4368
:1010C0000B6B1A438B691343CA6B09681A4350F8B8
:1010D0002130A343134340F82130002010BD4023AA
:1010E000DAE700007FFF0F0030B5D1E9003443EAB2
:1010F00004138C688D89240244EA054423430C8A36
:10110000094D00EB820005EB045423430C7D6D0177
:1011100005EB0464896923430B43416801F04041B6
:101120000B434360002030BD0000F0FF78B5002481
:10113000009490F83C20012A19D0012280F83C202C
:101140000A6807230568092A13D9EE680A3A02EBF0
:10115000420293409E43EE600B788A680A3B03EBA1
:1011600043039A400368DD682A43DA6010E00220F6
:1011700078BD2E6902EB420293409E432E610B78AC
:101180008A6803EB43039A4003681D692A431A6186
:101190004A681F23072A13D205686E6B521E02EBA2
:1011A000820293409E436E630B790A885B1E92B263
:1011B00003EB83039A4003685D6B2A435A6327E07D
:1011C00005680D2A12D22E6BD21F02EB82029340C9
:1011D0009E432E630B790A88DB1F92B203EB8303D5
:1011E0009A4003681D6B2A431A6311E0EE6A0D3AB8
:1011F00002EB820293409E43EE620B790A880D3B1C
:1012000092B203EB83039A400368DD6A2A43DA62F1
:10121000164B0568144A9D4206D10D68122D03D164
:10122000556845F48005556005689D4218D10B68E6
:10123000102B01D0112B13D1536843F400035360DA
:10124000096810290CD10A490A4A0968B1FBF2F170
:1012500001EB8101490000E0491E00910029FBD10A
:1012600080F83C40002078BD002301400020014070
:10127000C000002040420F0070B504004FF0000590
:1012800003D0206C002610B107E0012070BD20467D
:1012900000F01CF8666484F83C60206CC00610D432
:1012A000206C20F4885040F0020020642046FFF7B4
:1012B00063FB6664206C20F0020040F001002064B3
:1012C00000E0012584F83C60284670BD10B586B06A
:1012D000044614216846FFF7E6F91249206888425F
:1012E0001DD111480021026842F48062026000684A
:1012F00000F4806005900C481438026842F0200227
:101300000260006800F0200005904FF4C06000907B
:101310000320CDE901016946044800F01DF906B03B
:1013200010BD000000220140443802400014024079
:1013300018B50021009190F83C20012A07D0012225
:1013400080F83C2002689368DB0702D011E002209D
:1013500018BD936843F0010393602E4A2E4B126828
:10136000B2FBF3F202EB420200E0521E0092002AAE
:10137000FBD102689368DB0742D0036C40F2016442
:10138000A34343F48073036453685B0505D5036C82
:1013900023F4005343F480530364036CDB0404D54B
:1013A000436C23F00603436400E0416480F83C1082
:1013B0001A496FF02203136049680068CA06184989
:1013C00006D0884224D1816811F0405F13D01FE01D
:1013D0008842F8D0134A904203D1D1F80423D206B0
:1013E000F1D0114A904213D1D1F8041301F01F013A
:1013F0001029E8D30CE0816841F08041816007E06A
:10140000016C41F010010164416C41F00101416443
:10141000002018BDC000002040420F000023014002
:1014200000200140002101400022014090F83510C9
:10143000022903D08021416501207047052180F8F1
:1014400035100068016821F001010160002070473B
:1014500090F835007047000070B5044600F082F93E
:101460000546601C02D004480078044400F07AF974
:10147000401BA042FAD370BDB4000020F0B587B085
:1014800014216846FFF70FF925480168002944D167
:101490000121016023480024016841F0010101603D
:1014A0000068022500F0010005904FF69B70CDE921
:1014B000000502AA03260C2782E8D00069461A48D4
:1014C00000F04AF84FF6FB70CDE9000502AA694624
:1014D00082E8D000154800F03FF88020CDE90005F3
:1014E00002AA694682E8D000114800F035F840F2BF
:1014F0003F60CDE9000502AA694682E8D0000D48A8
:1015000000F02AF84FF23F00CDE9000502AA694633
:1015100082E8D000084800F01FF807B0F0BD0000D6
:10152000AC0000203838024000100240000C02409D
:1015300000040240001802400014024070470000FE
:10154000044910B50A68024202D00860FFF7F6FFAE
:1015500010BD0000143C01402DE9F84FDFF8BCA19C
:101560000022012503264FF00F090AF1040BAAF10E
:10157000040E00BF0B6805FA02F42340A34270D1A9
:101580000F7907F00307012F01D0022F16D18768CA
:101590004FEA420806FA08FC27EA0C07D1F80CC00B
:1015A0000CFA08FC4CEA070CC0F808C04768A743CF
:1015B0000C79C4F3001494403C4344600C79E44338
:1015C000A4070AD0C4684FEA420C06FA0CF7BC43E1
:1015D0008F6807FA0CF72743C7600C7904F00304FF
:1015E000022C12D1D40800EB840CDCF82040570701
:1015F000FF0E09FA07F824EA0804D1F8108008FA67
:1016000007F848EA0408CCF8208004684FEA420C46
:1016100006FA0CF7BC430F7907F0030707FA0CF73B
:10162000274307604C6814F4403F70D03C4C276857
:1016300047F480472760246822F0030704F48044BD
:101640000094384C07EB040CDCF8084897074FEA85
:10165000177809FA08F7BC43334FB84202D1002784
:1016600024E054E0314FB84201D101271EE0304F51
:10167000B84201D1022719E02E4FB84201D1032709
:1016800014E02D4FB84201D104270FE02B4FB84290
:1016900001D105270AE02A4FB84201D1062705E00B
:1016A000284FB84201D1072700E0082707FA08F7BA
:1016B0002743CCF80878DAF800405746D1F804C040
:1016C0009C435FEACC2C00D51C433C60DBF8004017
:1016D0005F46D1F804C09C435FEA8C2C00D51C43C4
:1016E0003C60DEF800407746D1F804C09C435FEAD6
:1016F0008C3C00D51C433C60084F083F3C68D1F847
:1017000004C09C435FEACC3C00D51C433C60521CA7
:10171000102AFFF42FAFBDE8F88F0000083C01400D
:101720004438024000300140000002400004024002
:1017300000080240000C0240001002400014024069
:1017400000180240001C0240426921EA02030A40DC
:1017500043EA0241816170470AB18161704709041F
:10176000FBE700000148806870470000B4000020DB
:10177000704770472DE9F047026800215368C66A38
:1017800090F83E4090F83D50102C12D0402C10D0D4
:10179000046C002C7DD05469E443A6077AD4DE4360
:1017A000B60577D4036C03B19169BDE8F04701F049
:1017B00075BE976951694FF42A0CC9435FEAC17835
:1017C0004FF02A4904D066452AD04E4528D010E073
:1017D000DE43B6050DD4C16A614501D1012103E0A4
:1017E000C16A494501D10821C162BDE8F04701F055
:1017F000E9BC0E0716D4DE43B60513D4416CC9B25A
:101800001161416B09B1C96B29B9816B002907D0FE
:10181000C96B002904D00068416841F4006141604F
:10182000BDE8F0878E0706D4DE43B60503D4BDE8D5
:10183000F04701F03BBCFE43526876074FEA025284
:101840001DD4002AECDB0A0608D4DA43520505D47D
:10185000490705D5BDE8F04701F0CCBB4907DFD407
:10186000D9438905DCD4212D05D0402CD8D1BDE841
:10187000F04701F0EDBCBDE8F04701F079BB002A6C
:10188000CEDB4A060BD4DA43520508D4490708D503
:1018900001E00DE00EE0BDE8F04701F0EFBA4907C6
:1018A000BED4D9438905BBD4BDE8F04701F079BA6D
:1018B000916970E7E10606D4D943890503D4BDE8F0
:1018C000F04701F00FBE2821212D27D0292D25D04A
:1018D000650655D4DD436D0552D4640752D590F8A2
:1018E0003D30448D002C9BD01269446A2270426ABC
:1018F000521C4262428D521E4285428D002A8FD177
:101900002A2B8DD10268536823F48063536022220E
:10191000026380F83D1000F0E9FA81E7250623D440
:10192000DD436D0520D4640720D590F83D30448D0B
:10193000002CF2D0446A24781461426A521C42623C
:10194000428D521E4285428D002AE6D1292BE4D1D8
:101950000268536823F4806353602122026380F895
:101960003D1000F0C4FA5BE76107D6D4D94389057E
:10197000D3D4418D0029D0D0416A097811610AE0A1
:101980006107CAD4D9438905C7D4418D0029C4D081
:101990001169426A1170416A491C4162418D491EB8
:1019A00041853DE77047000070B5040025D094F8EC
:1019B0003D00002520B984F83C50204600F058FA3C
:1019C000242084F83D002068016821F001010160B5
:1019D0002068016841F4004101602068016821F439
:1019E0000041016000F0BAFB4D4A6168914201D8A4
:1019F0004C4900E04C49884201D2012070BD4B495E
:101A00002368B0FBF1F15E6826F03F060E435E608E
:101A10006368934206D94FF4967359434FF47A732F
:101A2000B1FBF3F12368491C1E6A26F03F063143DF
:101A300019626168914210D84900401EB0FBF1F272
:101A4000521CC2F30B02042A01D2042022E0B0FB94
:101A5000F1F0401CC0F30B001CE0A268F2B301EBF4
:101A6000C10303EB0116431EB3FBF6F35B1C43F407
:101A700080431B0549D092B301EBC10202EB011177
:101A8000401EB0FBF1F0401CC0F30B0040F480405E
:101A900040F400402168CA694CF6FF739A43104332
:101AA000C861D4E9071001432068026822F0C0022F
:101AB00011430160D4E9030101432068826848F2C0
:101AC000FF339A4311438160D4E90501084321683B
:101AD000CA6822F0FF021043C86001E00EE016E081
:101AE0002068016841F0010101602564202084F82C
:101AF0003D00256384F83E50002070BD01EB410697
:101B0000431EB3FBF6F35B1CB3E70120C2E701EB16
:101B10004101401EB0FBF1F0401CC0F30B00B7E7E1
:101B2000A086010080841E0000093D0040420F0095
:101B30007047704770477047704700002DE9FF4FAE
:101B400083B09A46DDE9118793460446DDF840905C
:101B5000FFF708FE054694F83D00202870D11923B0
:101B6000012274492046009501F096FD0028F5D128
:101B700094F83C00012863D0012084F83C002068E0
:101B80000168C90703D1016841F0010101602068C3
:101B9000016821F400610160222084F83D004020AA
:101BA00084F83E0000262664C4F82490A4F82A8015
:101BB000608D20856048E062CDE9007553465A4645
:101BC0002046049901F098FB002879D1208DD0B1EE
:101BD000012821D00228206824D041698069009022
:101BE000208D032866D801282BD0544902283B4673
:101BF0004FF00002009557D08846204601F04CFD7A
:101C000000285DD13AE0206841698169009101684E
:101C100041F4007101607DE02068016821F4806179
:101C20000160F0E7016821F48061016020680168CB
:101C300041F400610160206841698069009069E0B9
:101C400075E02A463946204601F0CCFD88BB54E0B9
:101C50002068016841F40071016020680069616AD0
:101C60000870606A401C6062218D491E2185618D6B
:101C7000491E618521680969017042E02068016898
:101C800021F48061016020680069616A0870606AFF
:101C9000401C6062208D401E2085608D401E608546
:101CA0003B46002241460095204601F0F5FC00B974
:101CB000CEE705E02A463946204601F093FD18B1EB
:101CC000012007B0BDE8F08F20680069616A0870E4
:101CD000606A401C6062208D401E81B22185608D4B
:101CE000401E608520684269D243520712D40329FE
:101CF00003D1016821F48061016020680069616A94
:101D00000870606A401C6062208D401E2085608DD6
:101D1000401E6085208D00287FF462AF202084F86B
:101D20003D0084F83E6084F83C600020C9E7022052
:101D3000C7E70000020010000000FFFF04000100E0
:101D40002DE9FF4F83B09A46DDE91197934604468B
:101D5000DDF84080FFF706FD054694F83D00202899
:101D60007FD11923012240492046009501F094FCBF
:101D7000002876D194F83C00012872D0012084F824
:101D80003C0020680168C90703D1016841F00101E6
:101D900001602068016821F400610160212084F85D
:101DA0003D00402084F83E0000262664C4F82480CC
:101DB000A4F82A90608D20852C48E062CDE900755A
:101DC00053465A462046049901F014FB70B930E09E
:101DD0002A463946204601F03DFD58B1206C0428C2
:101DE00004D12068016841F400710160012007B04E
:101DF000BDE8F08F606A216800780861606A401C65
:101E00006062218D491E89B22185628D521E6285D4
:101E100022685369DB435B070BD469B1007810611A
:101E2000606A401C6062208D401E2085608D401ECF
:101E30006085208D0028CBD12A463946204601F006
:101E4000FFFB0028CAD154F83D0B016841F4007132
:101E50000160202004F81E09E67766770020C6E7B7
:101E6000FFE70220C3E70000020010000000FFFFB0
:101E700010B586B0044614216846FEF714FC1849D4
:101E80002068884229D117480021026842F00202E6
:101E90000260006800F0020005904FF4107000909E
:101EA000122001900120CDE902010420049069462E
:101EB0000D48FFF751FB0B481030016841F4001149
:101EC00001600068002200F40010059011461F20F8
:101ED00000F078F81F2000F067F806B010BD000091
:101EE0000054004030380240000402407047704700
:101EF000024881680278114481607047B400002074
:101F00000B4810B5016841F400710160016841F4AB
:101F100080610160016841F480710160032000F07C
:101F200071F8002000F006F800F024F8002010BD41
:101F3000003C024070B50D4D04464FF47A7128788C
:101F4000B1FBF0F00A490968B1FBF0F000F084FB46
:101F500048B9102C07D200222146501E00F032F85A
:101F600000206C6070BD012070BD0000B400002036
:101F7000C00000200B4882B0016841F4804101603C
:101F8000006800F4804000900648001F016841F09E
:101F900080510160006800F080500090072002B07E
:101FA00000F030B844380240002809DB00F01F027E
:101FB000012191404009800000F1E020C0F80011AB
:101FC00070470000F0B40E4B1B680C46C3F30223AD
:101FD000C3F10705042D00D90425191D072901D2D5
:101FE000002300E0DB1E012606FA05F1491E214010
:101FF00099409E40761E16403143F0BC02F07CBCF6
:102000000CED00E0064900F0070208684FF6FF03F8
:10201000184040EA0220034A10430860704700005D
:102020000CED00E00000FA052DE9F0470E46050032
:1020300065D0DFF81481D8F80000F7B200F007008F
:10204000B04207D288F80070D8F8000000F007000E
:10205000B04254D128683D4C810712D5400703D5C2
:10206000206840F4E05020602878000703D52068FD
:1020700040F4604020602068A96820F0F000084328
:1020800020602878C0072DD03049686808390128B9
:1020900012D0022813D0032811D00968890700291B
:1020A0002DDA216821F0030101432160FFF75AFB7B
:1020B000814641F2883A0EE009688903EFE7096832
:1020C0008901ECE7FFF74EFBA0EB0901514502D96E
:1020D0000320BDE8F0872068696800F00C00B0EBD1
:1020E000810FEFD1D8F80010404601F00701B1424E
:1020F00007D90770006800F00700B04201D0012046
:10210000E7E72878400705D52068E96820F4E05023
:10211000084320602878000706D52068296920F444
:10212000604040EAC100206000F038F82168084AA9
:10213000C1F30311515CC8400649086006480068B5
:10214000FFF7F8FE0020C4E7003C024008380240D8
:10215000E6640008C0000020B800002004480549DB
:1021600000680968044AC1F38221515CC840704785
:10217000C000002008380240F66400080448054901
:1021800000680968044AC1F34231515CC840704795
:10219000C000002008380240F6640008154810B559
:1021A000006810F00C02144813D01449042A0FD010
:1021B000082A0ED10F4C241F2268236802F03F0228
:1021C0005B0207D52068C0F38810A0FB010106E080
:1021D000084610BD2168C1F38811A1FB000100234E
:1021E000FEF7C0F82168C1F30141491C4900B0FB6A
:1021F000F1F010BD083802400024F40040787D0161
:10220000F0B51F4C16460D461D4B00210222032738
:10221000283C0028186887B019D040F004001860E6
:10222000186800F00400059010020090CDE901212B
:10223000CDE9037169461348FFF78EF9206845EA36
:10224000C60120F078400843206007B0F0BD40F0A0
:1022500001001860186800F0010005904FF48070CC
:102260000090CDE90121CDE9037169460648FFF7E9
:1022700073F92068354320F0EC602843E4E7000060
:102280003038024000080240000002402DE9F84FBB
:1022900004006ED02078DFF84C93C007A9F1040544
:1022A0004AD009F104000168C1F38101012908D075
:1022B0000068C0F3810002280AD1D9F8000040026A
:1022C00006D52868800337D560680028E1D033E060
:1022D0006068B0F5803F10D0B0F5A02F286810D00E
:1022E00020F480302860286820F48020286060680E
:1022F000A8B1FFF737FA06460DE0286840F48030B1
:10230000F4E740F480202860F7E700BFFFF72AFADF
:10231000801B642873D828688003F7D50CE0FFF78A
:1023200021FA064605E000BFFFF71CFA801B64286F
:10233000F0D828688003F7D42078DFF8AC828007D3
:102340004FF0000A3ED5A748001D016811F00C0FA0
:1023500008D00068C0F3810002280BD1D9F8000032
:10236000400207D42868800716D5E068012800D10C
:1023700012E033E1E068B8B10120C8F80000FFF7CF
:10238000F1F9064605E000BFFFF7ECF9801B0228D3
:10239000C0D828688007F7D52868216920F0F800A0
:1023A00040EAC10028600DE0C8F800A0FFF7DAF9A4
:1023B000064604E0FFF7D6F9801B02281FD82868DC
:1023C0008007F7D42078000722D5864F87486169B7
:1023D000703771B101210160FFF7C4F9064604E0CE
:1023E000FFF7C0F9801B022809D838688007F7D5A5
:1023F0000EE0C0F800A0FFF7B5F9064605E082E060
:10240000FFF7B0F9801B02287DD838688007F7D421
:102410002078400768D5DFF8CCB100270BF13C0BE2
:10242000DBF80000C0000BD4DBF8001041F0805155
:10243000CBF80010DBF80000012700F0805000907E
:102440006B4E3068C00510D4306840F48070306046
:10245000FFF788F9009005E0FFF784F90099401A2A
:10246000022850D83068C005F6D55E4EA0686C369C
:1024700001280FD00528306810D020F0010030600E
:10248000306820F004003060A068B8B1FFF76AF946
:1024900000900FE0306840F00100F4E740F00400E5
:1024A0003060F7E7FFF75EF90099411A41F2883092
:1024B000814266D830688007F4D50EE0FFF752F904
:1024C000009007E0FFF74EF90099411A41F2883079
:1024D000814256D830688007F4D42FB1DBF8001061
:1024E00021F08051CBF80010A069C8B33D49091D07
:1024F0000968C1F3810102294AD00228504607D059
:10250000C8F8600000E03CE0FFF72CF904463BE02F
:102510004746C8F86000FFF725F9064605E000BF0A
:10252000FFF720F9801B02282BD828688001F7D4F8
:10253000D4E907010843A16A2E4A490802EB014188
:10254000626A41EA8211084394F82C1040EA016162
:10255000C9F8001001203866FFF704F9044606E0C8
:102560003EE000BFFFF7FEF8001B022809D82868EC
:102570008001F7D534E000BFFFF7F4F8001B022814
:1025800002D90320BDE8F88F28688001F4D427E041
:102590000128F7D0D9F80000E26900F480019142E7
:1025A0001CD1226A00F03F01914217D147F6C07159
:1025B000626A0140B1EB821F10D1A26A4FF0FF3373
:1025C00000F4403103EB5202B1EB024F06D194F814
:1025D0002C1000F07060B0EB016F01D00120D1E74A
:1025E0000020CFE70438024000004742800E4742F7
:1025F000007000400000FFFF70B515460E46040055
:1026000003D094F8490010B107E0012070BD00200C
:1026100084F84800204600F01DF804F10801206805
:10262000FEF72EFD3146A2682068FEF75DFDD4E975
:1026300001022946236BFEF705FD2168A06851F8C9
:10264000202042F0010241F82020012084F84900B6
:10265000002070BDFEF712BF10B5401EB0F1807FA4
:1026600001D3012010BD4FF0E02460610F216017FD
:1026700002F042F90020A06107202061002010BD77
:102680007047704770B590F83C20012A32D0012481
:1026900080F83C40022280F83D2003685A689D681B
:1026A00022F070060A6832435A60134B02689A425D
:1026B00014D0B2F1804F11D0104B9A420ED0104B73
:1026C0009A420BD00F4B9A4208D00F4B9A4205D03A
:1026D0000E4B9A4202D00E4B9A4204D1496825F023
:1026E00080031943916080F83D40002180F83C1040
:1026F000084670BD022070BD00000140000400408B
:1027000000080040000C004000040140004001406F
:102710000018004010B5040003D094F83D0010B13B
:1027200007E0012010BD002084F83C00204600F0A6
:102730001FF8022084F83D00211D206801F070FF81
:10274000012084F8460084F83E0084F83F0084F8B5
:10275000400084F8410084F8420084F8430084F883
:10276000440084F8450084F83D00002010BD0000BE
:1027700008B501681E4881420FD11E48016841F02A
:10278000200101600068002200F020000090114646
:102790003720FFF717FC372024E01648164A001DA3
:1027A00091420ED1016841F40031016000680022BD
:1027B00000F40030009011461920FFF703FC1920A7
:1027C00010E00E4A914211D1016841F4802101606C
:1027D0000068002200F48020009011461A20FFF7C4
:1027E000F1FB1A20BDE80840FFF7DEBB08BD000082
:1027F00000140040403802400044014000480140BD
:1028000090F83D10012901D001207047022180F885
:102810003D100168CA6842F00102CA6000681149AF
:10282000884214D0B0F1804F11D00F4988420ED0A9
:102830000E4988420BD00E49884208D00D49884283
:1028400005D00D49884202D00C49884204D18168E4
:1028500001F00701062903D0016841F00101016080
:1028600000207047000001400004004000080040C4
:10287000000C0040000401400040014000180040EE
:1028800070472DE9F04104460068C66805694FF0BD
:102890000007A90713D5B10711D5F91E0161012061
:1028A0002077206880698007204602D0FFF7E8FF84
:1028B00004E000F07EF8204600F07CF827776807F7
:1028C00016D5700714D521686FF004000861022046
:1028D00020772068806910F4407F204602D0FFF7FF
:1028E000CFFF04E000F065F8204600F063F827779A
:1028F000280715D5300713D521686FF00800086147
:10290000042020772068C0698007204602D0FFF7A6
:10291000B7FF04E000F04DF8204600F04BF82777B1
:10292000E80616D5F00614D521686FF0100008618E
:10293000082020772068C06910F4407F204602D02C
:10294000FFF79EFF04E000F034F8204600F032F874
:102950002777E80708D0F00706D021686FF001005C
:102960000861204600F027F8280608D5300606D56D
:1029700021686FF0800008612046FFF781FE68063D
:1029800008D5700606D521686FF040000861204622
:1029900000F012F8A8060AD5B00608D521686FF035
:1029A000200008612046BDE8F041FFF76ABEBDE89F
:1029B000F081704770477047704770B5040004D0CD
:1029C00094F84100002510B106E0012070BD84F8A4
:1029D0004050204600F024F8242084F8410020686C
:1029E000C16821F40051C160204601F0ADFE2068AD
:1029F000016921F4904101612068416921F02A01B7
:102A000041612068C16841F40051C16065642020C3
:102A100084F8410084F842006563002070BD000026
:102A2000F0B587B0044614216846FDF73CFE19490D
:102A3000206888422CD118480024016841F4802184
:102A40000160006800F48020059013481038016888
:102A500041F0040101600068022500F004000590C7
:102A60004FF400600090CDE9015407260B4FCDE9EB
:102A7000034669463846FEF76FFD6802CDE900055A
:102A80000320CDE90240694604963846FEF764FD0E
:102A900007B0F0BD00480040403802400008024046
:102AA0002DE9F843044690F84100984616460D4635
:102AB000202802D00220BDE8F88385B17EB1002035
:102AC0006064212084F84100FEF74CFEA684814614
:102AD000E684A0682027B0F5805F02D003E00120E3
:102AE000E9E7206910B12E4600250EE000260CE033
:102AF0008021204601F0AEFEA8B9C6B116F8010B40
:102B000021684860E08C401EE084E08C4B464FF02A
:102B10000002CDF800800028EAD14FF040012046A5
:102B200001F098FE40B184F841700320C3E735F806
:102B3000020BC0F30800E3E784F841700020BAE715
:102B4000FEE700000148FEF715BE00008C010020E2
:102B500038B5806B002190F83D202B4B46F2A8142D
:102B60001B68B3FBF4F3C3EBC30303EB83030093D2
:102B70003BB15B1E009303681B689B0505D5009B5A
:102B8000F6E7036C43F020030364436B03B1D9639E
:102B9000836B03B1D96303681C6824F480641C60F0
:102BA0004185436B03B11965836B03B119650368F4
:102BB0001C6824F001041C6090F83D402023602C28
:102BC0000BD0282434EA02020FD080F83D3080F880
:102BD0003E1000BFFEF7E6FE38BD80F83D3080F8BD
:102BE0003E100164FEF7C4FD38BD0268136843F06F
:102BF000010313600268136843F480631360016388
:102C000080F83D40E6E70000C00000200068416910
:102C1000C943090601D400210161704770B504461B
:102C200090F83D0094F83E10102901D0402906D1BB
:102C3000222804D121680A6822F400620A6028214F
:102C400031EA00024FF000054FF0200626D021683F
:102C50004968090505D4602803D084F83D6084F8EC
:102C60003E50256320684168090537D5416821F445
:102C700000614160606B90F835203C49012A11D019
:102C80000165606BFEF7D2FB38B32068016821F064
:102C90000101016084F83D60606B1CE0256384F8ED
:102CA0003D10DFE7A06B0165A06BFEF7BFFBA0B195
:102CB00020684169C943490605D40069616A087002
:102CC000606A401C60622068016821F001010160B7
:102CD00084F83D60A06B016D884710E094F83D10CA
:102CE000602910D04169C943490605D40069616A69
:102CF0000870606A401C60622046FEF753FE206C3C
:102D0000C1071CD115E084F83D6025644169C943C1
:102D1000490605D40069616A0870606A401C6062F7
:102D20002068016821F0010101602046FEF720FDC6
:102D3000E5E7810703D4410701D4000704D52068E3
:102D4000416821F4E061416094F83D00216C49073D
:102D50000BD5282809D10648E062256384F83D6038
:102D600084F83E502046FEF7E3FE70BD512B00086C
:102D70000000FFFF01684A69D24352050FD46FF487
:102D800080624A61002140F8301F20224273817323
:102D9000026942F0040202610173012070470020C1
:102DA000704710B5C26A438D0168042B06D0438D6D
:102DB000032B08D0438D022B1DD012E04A6822F469
:102DC00080624A600CE04B6823F480634B60042A05
:102DD00006D0022A04D001680A6822F480620A60E0
:102DE00001680969426A1170416A491C4162418D5A
:102DF000491E418510BD012A34D0102A32D0042A40
:102E000034D0022A32D00B6843F400730B6001689F
:102E10000969436A1970416A491C4162438D5B1E0E
:102E2000438503681B690B70416A491C4162418DEF
:102E3000491E418501684B6823F440734B60202193
:102E400080F83D1090F83E300021402B80F83E1075
:102E500010D0082A02D0202A00D012210163FEF7E8
:102E600068FE10BD0B6823F48063CFE70B6843F462
:102E70008063CBE70163FEF75EFE10BD38B590F8C6
:102E80003D10222910D1C36A418D03290DD9016853
:102E90000969426A1170416A491C4162418D491EAB
:102EA0004185418D032906D038BDC26A022A02D06D
:102EB000012906D029B10068416821F48061416090
:102EC00038BD2A4A46F2A81400211268B2FBF4F277
:102ED00002EB8202009202682024009D6D1E009584
:102EE00026D01568AD05F8D4156825F48065156001
:102EF0000268556825F4E065556002681269456A04
:102F00002A70426A521C4262428D521E428580F8EB
:102F10003D4090F83E2080F83E10402A21D0082BFA
:102F200002D0202B00D012210163FEF702FE38BD33
:102F3000036C43F020030364536823F4E06353609D
:102F400002681269436A1A70426A521C4262428DD8
:102F5000521E428580F83D4080F83E10FEF722FD6B
:102F600038BD0163FEF7E7FD38BD0000C00000205A
:102F700010B5C26A90F83D1021290BD1418D51B195
:102F8000416A026809781161416A491C4162418DB8
:102F9000491E418510BD20230021082A13D0202A74
:102FA00011D012F5803F0ED00268546824F4E0641A
:102FB00054601122026380F83E1080F83D3000BF5B
:102FC000FEF7B8FD10BD0268546824F4E064546054
:102FD0000268146844F400741460016380F83D30A2
:102FE00090F83E2080F83E10402AE9D1FEF7A4FD7B
:102FF00010BD000010B590F83D1090F83E30C26A48
:10300000048DB4B1212903D0402B11D122290FD135
:10301000418DE1B390F83E10402942D0416A0268E8
:1030200009781161416A491C4162418D491E4185FF
:1030300010BD2129E8D120230021082A13D0202AFD
:1030400011D012F5803F0ED00268546824F4E06479
:1030500054601122026380F83E1080F83D3000BFBA
:10306000FEF768FD10BD0268546824F4E064546003
:103070000268146844F400741460016380F83D3001
:1030800090F83E2080F83E10402AE9D100E002E0AE
:10309000FEF752FD10BD0068416821F48061416077
:1030A00010BDBDE8104000F0D3B8000078B590F82E
:1030B0003E50C26A036B90F83D6000240168222EE6
:1030C0007AD1066D0EB9402D76D0056D1DB9056912
:1030D000B5F5404F09D0458D05B3468D384D012ECD
:1030E0000ED0438D022B3AD05DE04A698A69009286
:1030F0000A6842F480720A60016D491C016578BD5E
:10310000AA4213D10A6822F480620A6001684A6800
:10311000120503D50A6822F4806216E04A698A69BA
:1031200000920A6842F400720A6039E0082A10D05E
:10313000202A0ED0122B0AD0042A03D0022A01D052
:10314000102AE7D10A6842F480620A6024E0012A6A
:10315000E0D00A6822F480620A600168DEE7042A8F
:1031600021D0022A1FD0102A1DD00B6823F48063BF
:103170000B6001680B6843F400630B6001684B68E7
:103180001B0509D5AA4212D0012A10D0082A0ED058
:10319000102A0CD0202A0AD001684A698969009156
:1031A000046578BD08E00B6843F48063E5E74A688E
:1031B00042F480524A60EFE7486988690090F0E77E
:1031C0000000FFFF90F83E10402910D00169B1F5D2
:1031D000804F19D0016DA9B3016D012910D1416C47
:1031E0005FF0F10201F4407142EAD11106E0016D95
:1031F0000029416C05D0C9B241F0010100680161AC
:10320000704701F0FE01F9E790F83D102129416C6B
:1032100009D0C9B241F0010102681161416B29B1C5
:10322000C96B49B902E001F0FE01F5E7816B0029A5
:10323000E6D0C96B0029E3D00068416841F4006121
:1032400041607047FFE7416CF02201F44071CBE729
:1032500010B590F83D10026D4AB1026D012A14D0EC
:10326000026D022A16D0BDE81040FFF7CFBCC16C3A
:103270000129816C02D0C1F3072108E00268C9B2BC
:103280001161016D891C016510BD816CC9B20268B4
:10329000116123E022291CD0428D0AB1212920D0BE
:1032A000428D002AF0D12129EED101684A6822F42A
:1032B000E0624A6001680A6842F400720A60002114
:1032C0000163202280F83D2080F83E10FEF734FC98
:1032D00010BD01680A6842F480720A60016D491CE1
:1032E000D1E7416A026809781161416A491C41626B
:1032F000418D491E418510BD2DE9F84F04460068F7
:1033000089460B9D01689846174641F4806101602B
:103310002068016841F48071016000954FF0011B45
:103320000022594620460A9B00F0B6F94FF4007A75
:1033300040B120680068C00501D5C4F840A0032052
:10334000BDE8F88F216809F0FE0008612B46284986
:1033500020460A9A00F0E8F9F0BB206841698069CC
:1033600000902A4620460A9900F074FA40B1206C79
:1033700004283AD12068016841F40071016034E00A
:10338000FEB2B8F1010F09D02168380A08612A4657
:1033900020460A9900F05EFA0028E8D1206806610C
:1033A0002A4620460A9900F055FA0028DFD1206805
:1033B000016841F480710160009500225946204661
:1033C0000A9B00F069F90028B3D1216809F0FF00D9
:1033D00040F00100086100E007E02B460449204668
:1033E0000A9A00F0A1F90028AAD00120A8E700005D
:1033F000020001002DE9F843044600680D46DDE9AE
:10340000089701689846164641F4807101604B4662
:1034100000224FF001112046009700F03DF948B11D
:1034200020680068C00502D54FF4007020640320B6
:10343000BDE8F883216805F0FE0008613B464A4676
:103440001549204600F070F988B920684169806903
:1034500000903A464946204600F0FCF948B1206CFD
:10346000042804D12068016841F400710160012042
:10347000DEE7F5B2B8F1010F09D02168300A086122
:103480003A464946204600F0E5F90028E7D1206891
:1034900005610020CCE700000200010038B50C46B1
:1034A00090F83D2000212825954302680B4605D061
:1034B00051699169009180F83C3038BD556825F418
:1034C00080655560E243540700D50121120601D5FD
:1034D000828900E0028B80F83C3092B2FEF749F915
:1034E00038BD0000F8B590F83D60044600684168BA
:1034F00021F4E06141602068002541690091016884
:1035000041F0010101602068016821F480610160DF
:1035100020684168090520D5474F222E48D02A2E21
:1035200046D0616B096849686185618D19B1216C6C
:1035300041F004012164416821F400614160606B45
:10354000FDF786FF012808D0606B0765606BFDF70B
:103550006DFF10B1606B016D8847608D08B3206806
:103560004169C943490708D40069616A0870606A03
:10357000401C6062608D401E608520684169C943BF
:10358000490608D40069616A0870606A401C60627C
:10359000608D401E6085608D18B1206C40F0040085
:1035A0002064206C00B32046BDE8F840FFF736BB2E
:1035B000A16B096849686185618D19B1216C41F081
:1035C00004012164416821F400614160A06BFDF7B2
:1035D0003FFF0128C1D0A06B0765A06BFDF726FF58
:1035E0000028BAD0A06BB6E72A2E06D12563282082
:1035F00084F83D002046FEF779FC94F83D10202029
:1036000028290DD0216B222901D0222E07D1256334
:1036100084F83D0084F83E502046FEF767FCF8BD74
:103620000649E162256384F83D0084F83E50204657
:10363000FEF77EFAF8BD0000512B00080000FFFFE6
:1036400070B516460D4604461EE02046FFF792FB75
:1036500008B1012070BD681C16D0FEF783F8801BEE
:10366000A84200D885B920684069C04340070BD5FF
:10367000002044F8300F20216173A073216941F0CC
:10368000200121612073E4E720684069C0434007BE
:10369000DBD4002070BD00002DE9F04798461746A6
:1036A0000D460446C1F30746DDF820902AE000BF2E
:1036B000B8F1FF3F26D0FEF755F8A0EB09014145D0
:1036C00002D8B8F1000F1DD12068012E16D08069F4
:1036D00025EA00000004000C12D00020B84211D1ED
:1036E000002044F8300F20216173A073216941F05C
:1036F0002001216120730120BDE8F0874069E7E7E0
:103700000120EBE72068012E0AD0806925EA00003D
:103710000004000C06D00020B842C9D00020EBE71E
:103720004069F3E70120F7E72DE9F0479846164690
:103730000D4604464FF000094FF0200AC1F3074739
:1037400023E020684069C043400515D42068016823
:1037500041F40071016021686FF480604861C4F831
:10376000309084F83DA084F83E90216C41F0040133
:10377000216484F83C9021E0701C06D0FDF7F2FF34
:10378000A0EB0800B04203D816B1012F1FD021E0F2
:103790002068012F15D0806925EA00000004000C84
:1037A00018D000BF44F8309F84F80DA084F80E9024
:1037B000216941F02001216184F80C900120BDE8CD
:1037C000F087406925EA00000004000CEAD1206877
:1037D000406901E02068806925EA00000004000CCF
:1037E000AFD1ECE72DE9F041002590460E460446A6
:1037F000202728E04069C043C0060CD454F8301B91
:103800006FF01000486144F810596777A577206A77
:103810002062257714E0FDF7A5FFA0EB0800B04279
:1038200000D886B920684069C04340060BD544F8EB
:10383000305F6773A573206940F020002061257315
:103840000120BDE8F08120684169C9434906D1D40F
:103850000020F6E770B516460D4604461EE02046E9
:10386000FFF788FA08B1012070BD681C16D0FDF77B
:1038700079FF801BA84200D885B920684069C04301
:1038800000060BD5002044F8300F20216173A0738F
:10389000216941F0200121612073E4E7206840693B
:1038A000C0430006DBD4002070BD70B504462DED8A
:1038B000108B82B0B0EE429AF0EE629AB0EE40FA0F
:1038C000F0EE60FA90ED08EB51EC110B53EC1E2B6F
:1038D00002F01AFD41EC100B51EC190B53EC102BBC
:1038E00002F006FB94ED061B53EC112B02F052F88C
:1038F00094ED10DB41EC1A0B53EC1D2B51EC190B22
:1039000002F0F6FA0E4646EC100B94ED0CCB054691
:1039100053EC1C2B51EC100B02F0F6FC94ED0EBB9B
:1039200053EC1B2B02F0F0FC94ED001B53EC112B1D
:1039300002F030F853EC192B02F0DAFA94ED0A1B7E
:1039400053EC112B02F026F846EC105B41EC180BFF
:1039500053EC1C2B51EC100B02F0FEFB46EC105B01
:1039600041EC1C0B53EC1B2B51EC100B02F0F4FB45
:1039700094ED020B41EC1B0B53EC192B51EC100B8B
:1039800002F0B6FA53EC1D2B02F004F841EC100BD8
:1039900051EC180B8DED000B94ED040B53EC102B38
:1039A00001F0F8FF41EC190B51EC180B53EC192BFB
:1039B00002F0A4F841EC1D0B53EC192B51EC1B0B3E
:1039C00002F09CF841EC190B53EC1A2B51EC1F0B35
:1039D00002F09AFC41EC1F0B51EC1D0B53EC1F2B1A
:1039E00002F086FA53EC1A2B01F0D4FF41EC1A0BCB
:1039F00053EC1F2B84ED06AB51EC190B02F078FA57
:103A000053EC1E2B01F0C6FFC4E9080153EC182B40
:103A100051EC1D0B02F06CFA53EC182B02F09CFBDE
:103A2000C4E90A0153EC1C2B51EC1D0B02F060FAA7
:103A300053EC1C2B02F090FBC4E90C0153EC182B47
:103A400051EC190B02F054FA53EC1B2B02F084FBDF
:103A5000C4E90E0153EC1C2B51EC190B02F048FA8F
:103A60009DED000B53EC102B02F076FBC4E9100126
:103A700002B0B0EE4A0AF0EE6A0ABDEC108B70BDDF
:103A800004480178002903D101210170FDF74CBAE7
:103A900070470000D00000204FF0D041C0B2088035
:103AA0004888704710B500224FF0D04404E000BFB2
:103AB00030F8023B6380921C8A42F9D310BD4FF06C
:103AC000D041088070472DE9F04186B0804601243E
:103AD000642504A88DE8310023467522D021404694
:103AE000FEF72CF89DF81000682803D0012006B0DE
:103AF000BDE8F081002703AE8DF80C70009601231D
:103B00006B22D0214046CDE90145FEF719F9072087
:103B10008DF80C00009601231922D0214046CDE9F2
:103B20000145FEF70DF98DF80C40009601231C228B
:103B3000D0214046CDE90145FEF702F98DF80C7021
:103B4000009601231B22D0214046CDE90145FEF716
:103B5000F7F80020CBE700002DE9F0470C462DEDEB
:103B60000C8B88B09FED9A9B9FED9BDB9FED9CBBE0
:103B70009FED9DAB64230E2203A98DE80E00012367
:103B80003B22D021FDF7DAFFBDF80C0040BA00B2AD
:103B90002080BDF80E1049BA0EB26680BDF8101034
:103BA00049BA0DB2A580BDF8121049BA0FFA81FAD0
:103BB000BDF8141049BA0FB22784BDF8161049BADF
:103BC00009B261848946BDF8181049BA09B2A184C6
:103BD000884602F027F99FED868B53EC182B02F0F4
:103BE00087F9C4E90201304602F01CF953EC182BA6
:103BF00002F07EF9C4E90401284602F013F99FEDB2
:103C00007E1B53EC112B01F079FF00EE10AAB8EEE9
:103C1000C00A9FED7B1AC0EE010A9FED7A0AC4E943
:103C20000601384630EE800A84ED100A02F0FAF8F8
:103C30009FED758B53EC182B01F060FFC4E90A016E
:103C4000484602F0EFF853EC182B01F057FFC4E997
:103C50000C01404602F0E6F853EC182B01F04EFF41
:103C6000C4E90E01FDF77EFD694D2968401A02F096
:103C7000F0F89FED681B53EC112B01F03FFF41EC76
:103C80001C0BFDF76FFD2860208810FB00F1A08859
:103C900010FB001002F0C6F841EC100B01F0B2F876
:103CA000B0EE408AF0EE608A53EC192B51EC180B01
:103CB00002F07CF813D0B4F9020002F0B3F853EC30
:103CC000182B01F01BFF41EC100B00F025FE53EC0C
:103CD0001D2B51EC100B02F00BF941EC190BB4F950
:103CE000040002F09FF841EC180BB4F900004042C8
:103CF00002F098F841EC100BB0EE481AF0EE681A9A
:103D000000F076FF53EC1D2B51EC100B02F0F0F895
:103D100041EC180B53EC1B2B02F0AEF808D294EDDB
:103D2000140B53EC1A2B51EC100B02F0DFF90FD3EC
:103D300053EC1A2B51EC180B02F0D8F911D294ED78
:103D4000140B53EC1B2B51EC100B02F095F808D21E
:103D50002F48503080ED068B84ED148B94ED140BBE
:103D60000FE02B4894ED0C1BB0EE4C2AF0EE6C2AC1
:103D7000B0EE480AF0EE680A5030FFF796FD84ED89
:103D8000140B01F035F853EC1A2B51EC100B02F028
:103D9000ADF907D294ED0A0B51EC100B01F0EEFDDA
:103DA000C4E90A011A4894ED0A1BB0EE4C2AF0EE61
:103DB0006C2AB0EE490AF0EE690A0830FFF775FD8B
:103DC00084ED120B08B0BDEC0C8BBDE8F087000051
:103DD0000000000000000000F8C1631ADCA54C40A0
:103DE00000000000008056C0000000000080564027
:103DF000000000000000103F000000000029CC403F
:103E00000000AA43B81E124200000000006060409B
:103E1000000000200000000000408F407FB500241B
:103E200015480094019402941249039401604FF4E0
:103E30008031C0E9011401250461057680F8204035
:103E40000E49C0E90A14C561C46080F8304045617C
:103E5000FDF712FA08B172B6FEE70820CDE90005B9
:103E6000694602940448FDF761F9002801D072B652
:103E7000FEE77FBD00220140440100200100000F49
:103E800000B587B01C216846FCF70DFC16484FF0C2
:103E900020414FF48052016014494160002181604B
:103EA000C160016141618161C1610162C0E90912C2
:103EB000C16201634163816341640F20FF2200906E
:103EC000CDE901020390102004901120CDE90501F5
:103ED000002269460448FEF78FFB002801D072B625
:103EE000FEE707B000BD000000030020040100A0B1
:103EF0002DE9F04F87B014216846FCF7D4FBF54854
:103F00000024016841F010010160016801F0100116
:103F10000591016841F002010160016801F00201B0
:103F20000591016841F040010160016801F0400124
:103F30000591016841F008010160016801F0080184
:103F40000591016841F004010160016801F004017C
:103F50000591016841F001010160016801F0010172
:103F60000591016841F480710160016801F480717C
:103F70000591016841F080010160016801F0800154
:103F80000591016841F0200101600068002200F005
:103F9000200005904FF48A51CF48FDF7DDFB4FF428
:103FA000007700223946CD48FDF7D6FB002248F2C3
:103FB0002001CB48FDF7D0FB00228021C948FDF746
:103FC000CBFB00228021C848FDF7C6FB781000908B
:103FD0000225CDE901540B20CDE903406946C348D1
:103FE000FDF7BAFA43F62340CDE900050320CDE9F9
:103FF00002400A2004906946BC48FDF7ADFA4FF430
:10400000D0400090CDE901540B20CDE90340694632
:10401000B148FDF7A1FA4FF49850CDE9000503200F
:10402000CDE902404FF00C0A6946CDF810A0AD482A
:10403000FDF792FAA80300904FF40410CDE90104B3
:104040006946A548FDF788FA4FF48A500090012090
:10405000CDE901046946A0480394FDF77DFA4FF4C9
:10406000E0500090CDE901540A20CDE903406946B3
:104070009F48FDF771FAF0200090CDE901540D261C
:10408000CDE9034669469548FDF766FA0920009098
:10409000CDE901540520CDE9034069468F48FDF77D
:1040A0005BFA4FF004084FF49019CDF80080CDE989
:1040B000019469468948FDF74FFA01200097CDE940
:1040C0000104694685480394FDF746FA0320CDE9CB
:1040D0000240CDE900856946CDF810A08548FDF77E
:1040E0003BFA48F2200000900120CDE90104694626
:1040F0007B480394FDF730FA68020090CDE9015443
:104100000B20CDE9034069467448FDF725FA0320EA
:10411000CDE902404FF4006B0A20CDE900B50490D0
:1041200069466E48FDF718FA2803CDE9000401201E
:10413000029069466A48FDF70FFA4FF4BE400090BE
:10414000CDE90154CDE9034669466548FDF704FA17
:10415000CDE90074694666480294FDF7FDF9CC206C
:104160000090CDE901540B20CDE9034069465C483D
:10417000FDF7F2F9E8010090CDE901540394694696
:104180005B480494FDF7E8F9802701200097CDE90A
:104190000104694653480394FDF7DEF90320CDE995
:1041A00002404FF0100A0A20CDE900A504906946AC
:1041B0004B48FDF7D1F90097CDE901540820CDE92E
:1041C000034069464448FDF7C7F901200097CDE94F
:1041D0000104694644480394FDF7BEF94027CDE940
:1041E0000074694640480294FDF7B6F90120CDE914
:1041F00000050320CDE902400A20049069463948B1
:10420000FDF7AAF93E200090CDE901540B20CDE93D
:10421000034069463348FDF79FF9CDE900846946BC
:1042200032480294FDF798F986200090CDE90154B8
:104230000B20CDE9034069462D48FDF78DF901209B
:1042400000904FF44410CDE9010469462848FDF779
:1042500083F90320CDF800A0CDE901046946244884
:10426000FDF77AF90097CDE90154CDE90346694697
:104270001F48FDF771F92820CDE900050320CDE99D
:1042800002400A20049069461948FDF765F9CDF807
:1042900000B0CDE9019469461348FDF75DF9680364
:1042A000CDE90009694602941048FDF755F900224E
:1042B00011460620FDF786FE0620FDF775FE00225A
:1042C00011462820FDF77EFE2820FDF76DFE07B081
:1042D000BDE8F08F30380240001802400020024054
:1042E000001C02400008024000140240000402408A
:1042F00000000240000C0240FEE7FEE770477047F6
:10430000FDF7F6BD70B592B030216846FCF7CBF9E9
:1043100014210CA8FCF7C7F920480025016841F0DA
:1043200080510160006800F0805011901C480168C5
:1043300041F4804101600068022400F48040119043
:104340000120009000040694860101901920CDE917
:1043500007604FF4A870CDE9090407200B90684668
:10436000FDF794FF08B172B6FEE70CA90F2081E8B3
:1043700031004FF4A0500F904FF480501090052161
:104380000CA8FDF751FE08B172B6FEE700223146D7
:104390001046FDF735FF12B070BD000040380240F6
:1043A000007000400248016841F4700101607047EC
:1043B00088ED00E010B501F0C7F901F07BF9BDE828
:1043C00010400148FEF75DBA7002002070B5504DF4
:1043D0002DED028B28789FED4F8B504C012869D131
:1043E00094ED140B9FED4E1B51EC100B53EC112B65
:1043F00001F07CFE0DD294ED140B53EC182B51EC14
:10440000100B01F039FD04D200210222084601F010
:1044100075FA94ED140B53EC182B51EC100B01F0C2
:1044200065FE0FD294ED140B9FED3F1B51EC100B6A
:1044300053EC112B01F020FD04D200210622084686
:1044400001F05CFA94ED140B9FED391B51EC100B4D
:1044500053EC112B01F04AFE10D294ED140B9FED9A
:10446000361B51EC100B53EC112B01F005FD05D25E
:1044700000216FF00502084601F040FA94ED140B9C
:104480009FED2F1B51EC100B53EC112B01F02EFE66
:1044900010D294ED140B9FED2C1B51EC100B53EC30
:1044A000112B01F0E9FC05D200216FF00102084652
:1044B00001F024FA2878264C6FF0020602280ED16B
:1044C0002068012802D0401C04D019E000221146C7
:1044D000304602E000221146032001F00FFA28784E
:1044E00003280DD16068012802D0401C03D007E0EA
:1044F0000022032101E000223146002001F0FEF9F4
:10450000BDEC028B1348BDE87040FEF7BAB900005D
:1045100099000020000000000000544050030020DB
:1045200000000000000044400000000000C06740A0
:1045300000000000002067C000000000000044C030
:1045400000000000000049C000000000000034C06E
:1045500034010020280200202DE9F04129492A4891
:10456000FFF7FAFA01F066F92848294C294F00783C
:10457000A515DFF8A480661530B101280BD00228FC
:1045800022D003281BD12BE0012240212046FDF739
:10459000E3F8002205E0002240212046FDF7DCF888
:1045A000012229462046FDF7D7F800223146384639
:1045B000FDF7D2F8002280214046FDF7CDF8BDE896
:1045C000F0411648FEF75DB9002240212046FDF774
:1045D000C3F8002229462046FDF7BEF80122E5E790
:1045E000002240212046FDF7B7F800222946204648
:1045F000FDF7B2F8002231463846FDF7ADF801224A
:10460000D9E70000500300208C0100209900002011
:10461000001802400020024000080240E001002093
:10462000F0B50268294C2A4D2A4E2B4F2B4B4FF0E8
:10463000804CA04209D0604507D0A84205D0B042C6
:1046400003D0B84201D0984204D122F0700E4A68DB
:1046500042EA0E02A0421BD0604519D0A84217D0F2
:10466000B04215D0B84213D0984211D01C4DA84288
:104670000ED01C4DA8420BD01B4DA84208D01B4D9C
:10468000A84205D01A4DA84202D01A4DA84203D123
:1046900022F44075CA682A434D6922F080022A43F9
:1046A00002608A68C2620A688262A04201D09842AF
:1046B00001D109690163012141610169C90703D081
:1046C000016921F001010161F0BD0000000001401D
:1046D0000004004000080040000C004000040140BD
:1046E00000400140004401400048014000180040E3
:1046F000001C00400020004001680C3151E8002FF0
:1047000022F4907241E80023002BF5D101681431A6
:1047100051E8002F22F0010241E80023002BF5D1DF
:10472000016B012909D101680C3151E8002F22F0F9
:10473000100241E80023002BF5D1202180F842101F
:10474000002101637047000070B5044600680169EC
:10475000E26821F44051114301612169A068E269D6
:1047600008436169114308432168CA6849F20C6330
:104770009A430243CA6020684169A26921F44071EA
:104780001143416131492068884202D03049884252
:1047900002D1FDF7F3FC01E0FDF7E0FCE269002344
:1047A000192164253226B2F5004F626828D0A0FB9B
:1047B0000101930F9200FBF7D5FD0146B0FBF5F028
:1047C0006FF01802504301EB800006EB0010B0FBC5
:1047D000F5F000F0F002B1FBF5F002EB0012B1FBD6
:1047E000F5F06FF01803584301EB800006EB001062
:1047F000B0FBF5F000F00F0021681044886070BD38
:10480000A0FB010192185B41FBF7ACFD0146B0FB38
:10481000F5F00201B1FBF5F06FF01803584301EB1E
:10482000800006EBC000B0FBF5F000F0F80002EBF2
:104830004002B1FBF5F0584301EB800006EBC000ED
:10484000B0FBF5F000F00700D6E7000000100140D3
:10485000001401402DE9F843984617460D460446DA
:10486000089E24E0701C22D0FCF77CFFA0EB08001F
:10487000B0421AD8CEB12068C168490717D5802D3B
:1048800015D0402D13D00168C94309070FD4016822
:104890000025406800902046FFF72EFF0820606446
:1048A00084F840500120BDE8F8830320FBE720682E
:1048B000006835EA000004D00020B842D2D00020C1
:1048C000F1E70120F9E7FEE703B401984100009801
:1048D00050EAC12018BF04204A0D18BF40F0010063
:1048E00040F2FF72B2EB515F08BF40F002000128B6
:1048F00008BF052002B070470907090E002804DB35
:1049000000F1E02080F80014704700F00F0000F183
:10491000E02080F8141D704770B59B482DED020B08
:104920002DED068B079D25F00044A04218DC97482A
:10493000844202DC0AD1069840B19DED060BBDEC25
:10494000068B02B0BDE8704000F015BB002DCCBF57
:104950009FED8F0B9FED900BBDEC068B02B070BDF1
:104960008F48A04215DD8F48A042D8BF4FF0FF34DA
:1049700058DD9DED060B51EC100BFFF7A5FF042849
:1049800008BF00F00DFB9DED060BBDEC068B02B0E1
:1049900070BD9DED060B51EC100B00F020FBCDE936
:1049A000060181489FED828BA0423CDD8248A042F7
:1049B0001FDD00249FED82AB9DED060B53EC1A2BFF
:1049C00051EC100B00F0E6FF9DED060B41EC190BCE
:1049D00053EC1A2B51EC100B01F08AFA53EC182B04
:1049E00001F092FC53EC192B01F088F8CDE9060197
:1049F00049E09DED060B012453EC182B51EC100BF4
:104A000000F0C8FF9DED060B41EC190B53EC182B81
:104A100051EC100B01F078FC53EC192B01F06EF8FF
:104A2000CDE906012FE06848A0421FDD02249FED7A
:104A3000689B9DED060B53EC192B51EC100B01F00C
:104A400057FA53EC182B00F0A5FF9DED060B41EC37
:104A5000180B53EC192B51EC100B01F055FC53ECD7
:104A6000182B01F04BF8CDE906010CE09DED060B8B
:104A7000032453EC102B9FED580B51EC100B01F05D
:104A80003DF8CDE906019DED060B53EC102B51ECE2
:104A9000100B01F02DFA41EC180B53EC182B01F020
:104AA00027FA41EC190B4E480621B0EE490AF0EE08
:104AB000690A784400F0E3F953EC182B51EC100B21
:104AC00001F016FA41EC180B4648B0EE490AF0EE38
:104AD000690A0521784400F0D2F953EC192B51EC06
:104AE000100B01F005FA41EC100B51EC180B53ECD4
:104AF000102B002C0EDA00F04DFF9DED061B53EC41
:104B0000112B01F0F5F99DED061B53EC112B01F073
:104B100023FB35E000F03EFF9DED061B53EC112B0F
:104B200001F0E6F941EC100B2F48784400EBC4008B
:104B300090ED001B51EC100B53EC112B01F0E4FB3A
:104B40009DED061B53EC112B01F0DEFB41EC100B2D
:104B50002648784400EBC40090ED001B51EC100B8C
:104B600053EC112B01F0F8FA41EC100B002DA2BF11
:104B7000BDEC068B02B070BD51EC100B00F0FEFED8
:104B800041EC100B01E70000000010440000F07F32
:104B9000182D4454FB21F93F182D4454FB21F9BF33
:104BA0000000DC3F0000203E0000F33F000000005A
:104BB000000000000000F03F0000E63F00000000A1
:104BC00000000000000000400080034000000000E2
:104BD000000000000000F83F000000000000F0BFEF
:104BE0007A35000030350000BA340000723400001D
:104BF00070B56F4E2DED040B2DED048B82B0DDF8FA
:104C000024C0DDE907235C422CF000411C4341EA4B
:104C1000D474069D22F00040B44205D86C422C4367
:104C200040EAD474B4420BD99DED081B9DED060BF0
:104C300002B0BDEC048B04B0BDE8704000F0A5B933
:104C4000ACF14054A4F17F641C430BD0022404EA6D
:104C5000AC7444EAD27405439FED578B9FED582BFB
:104C600007D015E09DED060B51EC100B00F0AFF9ED
:104C700042E0002C11BF012C9DED060B02B0BDECF3
:104C8000048B04BF04B070BD022C38D0032C3BD081
:104C90000B439FED4D1B9FED4E0B0AD0B14218D137
:104CA000B04209D121F0804120F080400991079065
:104CB0000FE0002A15DA10E0474B7B44002C08BFB8
:104CC00093ED000B0DD0012C10D0022C17D0032C2B
:104CD0001AD0B0421DD1002A03DAB0EE410AF0EE3C
:104CE000610A02B0BDEC048B04B070BD93ED000B03
:104CF00051EC100B00F042FE41EC100BF1E7B0EE6E
:104D0000480AF0EE680AECE7B0EE420AF0EE620AFA
:104D1000E7E7401A00159FED329B3C28C8BF8DED98
:104D2000000B17DCBCF1000FBCBF10F13C0F8DED88
:104D3000009B0FDB9DED080B53EC102B9DED060B3C
:104D400051EC100B00F0DAFE00F049F900F03FF9E9
:104D5000CDE90001B4B1012C10D0022C9FED220B43
:104D600053EC102B9DED000B51EC100B19D001F002
:104D7000CBFA53EC182B01F0C7FABDE7019880F08D
:104D8000004001909DED000B53EC192B51EC100BE2
:104D900001F00CF804BF0220FBF707FD9DED000BAE
:104DA0009FE701F0B1FA53EC182B01F0D5F9A3E716
:104DB0000000F07F00000000182D4454FB21094042
:104DC000182D4454FB2109C0182D4454FB21F9BF70
:104DD000182D4454FB21F93FA233000000000000CD
:104DE0000000000000000000075C143326A6A13C70
:104DF0002DED020B019820F0004001909DED000B7D
:104E000002B0704700B52DED048BB0EE409AF0EE85
:104E1000609A83B051EC190B01F0AAF941EC180B20
:104E200018EE100A18EE901A8DED008B002818BFAE
:104E30000120084320F00040C0F17F6000F1E04015
:104E4000C00F14D019EE101A19EE900A8DED009BC8
:104E5000002918BF0121084320F00040C0F17F6005
:104E600000F1E040C00F04BF0120FBF79EFCB0EE54
:104E7000480A03B0F0EE680ABDEC048B00BD70B5C3
:104E800004462DED028B4D1E00EBC500B0EE408AAE
:104E9000F0EE608A90ED000B35F0060017D053EC71
:104EA000182B51EC100B01F023F841EC100B6D1E88
:104EB00004EBC50090ED001B51EC100B53EC112BD3
:104EC00000F068FD41EC100B35F00600E7D1022D33
:104ED00036D0042D1CD0062D1CBFBDEC028B70BD3E
:104EE00053EC182B51EC100B01F002F894ED0A1B57
:104EF00053EC112B00F04EFD53EC182B00F0F8FF93
:104F000094ED081B53EC112B00F044FD41EC100B09
:104F100053EC182B51EC100B00F0EAFF94ED061B3C
:104F200053EC112B00F036FD53EC182B00F0E0FF92
:104F300094ED040B53EC102B00F02CFD41EC100B06
:104F400053EC182B51EC100B00F0D2FF94ED021B28
:104F500053EC112B00F01EFD53EC182B00F0C8FF92
:104F600094ED001B53EC112B00F014FDBDEC028BF3
:104F700041EC100B70BD10B553EC102B51EC100B25
:104F800000F008FD41EC100B10BD10B553EC112BD7
:104F900051EC100B00F0FEFC41EC100B10BD0000BA
:104FA0009FED050B10B553EC102B51EC100B00F0DE
:104FB0009FFF41EC100B10BD00000000000000102E
:104FC00030380A2801D2012070470020704710B500
:104FD00041EC100BFFF7A0FC51EC100B10BD82B0A0
:104FE000CDE9000121F0004001909DED000B02B0E1
:104FF00051EC100B704710B50021102000F005FA9D
:105000000021112000F001FA0021122000F0FDF92A
:105010000021132000F0F9F90021292000F0F5F912
:105020000021BDE81040072000F0EFB910B50021C5
:10503000102000F0EAF90021112000F0E6F900212B
:10504000122000F0E2F90021132000F0DEF941F215
:10505000B071102000F0D9F940F23711112000F0A2
:10506000D4F940F23911122000F0CFF94FF4E85191
:10507000132000F0CAF91321292000F0C6F9BDE879
:10508000104040F27311072000F0BFB92DE9F04144
:10509000064650880D46918840EA0141508993891F
:1050A00040EA0340091A4C08171841F2080103208E
:1050B00000F0ABF92946304600F06FF92220FEF7E8
:1050C000FEFC61003846FEF7EDFCBDE8F04141F220
:1050D0001801032000F099B970B51D460B4606462D
:1050E00000241146184600F058F92220FEF7E7FC8C
:1050F000064803E020F81460641CA4B2AC42F9D363
:105100006900BDE870400148FEF7CCBCB403002044
:1051100070B502FB03F4049D00F03FF92220FEF776
:10512000CEFC61002846BDE87040FEF7BBBC000025
:105130002DE9F041884606461D461746002441F2F7
:105140001001032000F061F93946404600F025F9CE
:105150002220FEF7B4FC0A4804E000BF20F81460E7
:10516000641CA4B2AC42F9D369000548FEF79AFC6E
:10517000BDE8F04141F21801032000F046B90000FB
:10518000B4030020F02070474FF4A07070472DE961
:10519000F041FEF775FC0121002000F036F94FF4D4
:1051A0008071012000F031F94FF4E061022000F03D
:1051B0002CF941F218042146032000F026F90021C1
:1051C000042000F022F940F20221082000F01DF92D
:1051D0000021092000F019F900210A2000F015F93A
:1051E00000210C2000F011F900210D2000F00DF934
:1051F00000210F2000F009F90021102000F005F92E
:105200000021112000F001F90021122000F0FDF82A
:105210000021132000F0F9F841F2B071102000F0E5
:10522000F4F840F23711112000F0EFF840F2391194
:10523000122000F0EAF84FF4E851132000F0E5F8EE
:105240001321292000F0E1F80021202000F0DDF8F2
:105250000021212000F0D9F80721302000F0D5F8F6
:1052600040F20231312000F0D0F840F20515294615
:10527000322000F0CAF840F206263146352000F010
:10528000C4F840F608073946362000F0BEF831462B
:10529000372000F0BAF840F20451382000F0B5F899
:1052A0000721392000F0B1F829463C2000F0ADF884
:1052B00039463D2000F0A9F80021502000F0A5F863
:1052C000EF21512000F0A1F80021522000F09DF8BC
:1052D00040F23F11532000F098F84FF4274160202E
:1052E00000F093F80121612000F08FF800216A207E
:1052F00000F08BF80021802000F087F80021812049
:1053000000F083F80021822000F07FF80021832044
:1053100000F07BF80021842000F077F80021852040
:1053200000F073F81021902000F06FF80021922017
:1053300000F06BF80321932000F067F84FF48871B8
:10534000952000F062F80021972000F05EF800211F
:10535000982000F05AF82146032000F056F840F259
:105360007311072000F051F80021084600F015F8ED
:10537000BDE8F0412220FEF7A2BB10B5FEF780FB8E
:10538000BDE810400020FEF787BB10B500F005F81F
:10539000BDE810402220FEF77FBB10B50446202058
:1053A00000F033F8A4F23F14604281B2BDE810402F
:1053B000212000F02AB82DE9F04104461D4616468A
:1053C0000F46502000F021F87819401E81B251207C
:1053D00000F01BF8C4F5A070801B81B2522000F0D1
:1053E00014F8A4F23F146042BDE8F04181B25320AA
:1053F00000F00BB807B5FFF7D0FF2220FEF75FFBE8
:10540000022102A8FEF74EFB0EBD13B5FEF757FBB7
:10541000022101A8FEF746FB1CBD00001CB5FCF7ED
:105420006FFDFBF7C1FCFEF76DFFFEF761FDFEF7B8
:10543000F5FC66486449002401606549C0E901142F
:105440004FF48041C0E9034144618461C461046256
:10545000FCF7AAFA08B172B6FEE75F485D49016041
:105460004FF4E131C0E901140C21C460C0E90441EA
:105470008461C461FDF7A1FA08B172B6FEE7534832
:105480000094543055490194C0E900144FF6FF765A
:10549000C0E902468461FDF73DF908B172B6FEE746
:1054A0004A480094694654300194FDF7EBF808B17E
:1054B00072B6FEE748494A489039C1E90004C1E99B
:1054C00002460C6108468C61FDF724F908B172B6FA
:1054D000FEE7FEF7D5FC404D4248483D286063207A
:1054E000C5E9010440F24730C5E903042846AC6130
:1054F000FDF710F908B172B6FEE7FBF7FBFA40F2D0
:10550000FF70FBF7CDFA38A000F068F901233CA248
:1055100032210020FBF7F4FA01233BA24B210020AB
:10552000FBF7EEFA29484838FBF702FF40F2DC505F
:10553000FBF792FF3046FBF7B3FA36A000F04EF9C6
:10554000374C4FF47A760FE040212046FCF7FCF808
:1055500034A000F043F93046FBF77EFF01233AA266
:105560004B210520FBF7CCFA1848FEF7ACFA0128CE
:10557000EAD016485430FDF743F910B936A000F0D0
:105580002DF93B4801888AB20189808889B280B2AE
:10559000FBF7A6FB37A000F021F90F489038FDF784
:1055A0002FF910B937A000F019F90B484838FDF76A
:1055B00027F910B939A000F011F92868406A2C4980
:1055C000091F0880FEE70000005400408C01002005
:1055D000A086010000480040B802002000140040EE
:1055E00000440140004801400A0A2B3D3D3D476F01
:1055F0006F64206D6F726E696E67213D3D3D2B00BB
:10560000566F78415254000057656C636F6D652E7C
:10561000000000005B4C43445D205245414459006A
:10562000001802405B4D5055363035305D204D50EE
:1056300055204552524F522E2052455354415254F8
:105640002053595354454D00506F7765722043796C
:10565000636C65203A2800005B54696D65725D20BB
:1056600054494D3720454E41424C4544000000000E
:10567000A00000205B436972636C655D2052454168
:10568000445900005B54696D65725D2054494D3189
:105690003020454E41424C45440000005B54696D4A
:1056A00065725D2054494D313120454E41424C4593
:1056B0004400000070B51F4D9FED1F1B1C4C53ECA8
:1056C000112B2DED028B95ED120B9FED178B51ECED
:1056D000100B00F0D1FB02D24FF0FF30606095ED6F
:1056E000120B53EC182B51EC100B00F0FFFC01D205
:1056F0000120606095ED120B9FED111B51EC100B1A
:1057000053EC112B00F0F2FC0AD295ED120B53EC86
:10571000182B51EC100B00F0AFFB01D200206060A1
:10572000BDEC028B70BD00000000000000003E4098
:1057300034010020500300200000000000002AC0B7
:1057400000000000000014C070B51F4D1D4C2DED71
:10575000028B9FED1A8B95ED020B53EC182B51EC3D
:10576000100B00F0C3FC01D20120206095ED020B6C
:105770009FED161B51EC100B53EC112B00F07CFB32
:1057800002D24FF0FF30206095ED020B53EC182B46
:1057900051EC100B00F070FB0CD295ED020B9FED5D
:1057A0000D1B51EC100B53EC112B00F09FFC01D2A0
:1057B00000202060BDEC028B70BD0000333333331A
:1057C0003333F33F34010020500300200000000079
:1057D0000000F8BF000000000000F0BF30B589B045
:1057E000054624216846FAF75EFF2846FAF730FF9F
:1057F000001DFAF761FD04462946FAF705FF0AA1E4
:105800002046FAF744FF224608A16846FAF722FE2E
:105810006423232269460648FDF742F92046FAF739
:105820007AFD09B030BD00000D0A000025730000AC
:10583000B802002070B52B4C2B4D2DED048B9FED45
:10584000258B94ED120B9FED259B53EC182B51ECFF
:10585000100B00F04BFC1FD294ED120B53EC192BE4
:1058600051EC100B00F008FB16D294ED140B53EC26
:10587000182B51EC100B00F039FC0DD294ED140BE9
:1058800053EC192B51EC100B00F0F6FA04D22878E7
:10589000012801D0022019E094ED140B9FED131B99
:1058A00051EC100B53EC112B00F0E6FA0FD294EDF3
:1058B000140B9FED101B51EC100B53EC112B00F04F
:1058C00015FC04D22878012801D003202870BDECF3
:1058D000048B70BD00000000000024C00000000028
:1058E0000000244050030020990000200000000028
:1058F00000E065C00000000000A066C010B51D4CAF
:10590000636818446060A3681944A16023681A445E
:10591000A2F10A0322605B2B05D3642A01DD642215
:1059200000E00A222260A1F16402472A05D3AA29D5
:1059300001DDAA2100E06421A160A0F128013D2938
:1059400005D3642801DD642000E0282060600A4857
:10595000007800280DD04FF6FF70FBF7A1F82088E3
:1059600082B2208981B2A088BDE8104080B2FBF7E6
:10597000B7B910BDA00000209800002081F00041C0
:10598000704780F00040704721F00041704720F0E0
:105990000040704710B591EA030F48BF83F0004301
:1059A00000F1BA84841A71EB030C05D2121943EB8F
:1059B0000C03001B61EB0C01DFF824E14FEA1154EA
:1059C000A4EB135C1EEA430F18BF9EEA445F73D03A
:1059D00023EA0E03DCF1200E21EA045143F4801384
:1059E00032D322FA0CFE10EB0E0023FA0CFE41EB30
:1059F0000E01CCF1200E03FA0EFE10EB0E0051F159
:105A00000001B1F5801FCCF1200E32D201EB045120
:105A100012FA0EF2BDE8104058BF7047401C38BF64
:105A20005FEA420218BF7047002814BF20F001004F
:105A300041F100014FEA410313F5001F38BF7047E1
:105A4000A1F1C04100F04CBB012A43EB0302ACF1D1
:105A5000200CDCF11F0E32BF4FF0000E23FA0CF3C6
:105A600010EB030041EB0451B4EB115FD0D0A1EB7C
:105A7000045101F5801149085FEA300001EB04513F
:105A80000ED350F1000038BF12FA0EFE08D1BDE867
:105A90001040C9E7401C38BF5FEA4202CAD1C3E7E1
:105AA000BDE810404FEA410313F5001F38BF7047AF
:105AB000A1F1C04100F014BB9EEA445F08D011EA96
:105AC0005E0FBDE8104004BF01F0004100207047A8
:105AD000BDE8104070B500F0B5FA00BF64FBBE3EF3
