:020000040800F2
:10000000C81400207902000867580008B13E0008B3
:1000100065580008210F0008098100080000000051
:1000200000000000000000000000000077580008F9
:100030009B0F000800000000755800087958000860
:10004000930200089302000893020008930200083C
:100050009302000893020008391000089302000878
:10006000930200089302000893020008930200081C
:10007000930200089302000893020008930200080C
:1000800093020008930200089302000893020008FC
:1000900093020008930200089302000893020008EC
:1000A00093020008455900082D59000893020008E2
:1000B000930200089302000893020008B53E00086E
:1000C00093020008930200089302000893020008BC
:1000D00093020008930200089302000893020008AC
:1000E0006D100008930200089302000893020008B4
:1000F000930200089302000893020008930200088C
:10010000930200089302000893020008930200087B
:10011000930200089302000893020008D15A0008D5
:10012000930200089302000893020008930200085B
:10013000930200089302000893020008930200084B
:10014000930200089302000893020008695800080F
:10015000930200089302000893020008930200082B
:10016000930200089302000893020008930200081B
:1001700093020008930200089302000800000000A8
:10018000930200089302000800F002F800F065F8FE
:100190000AA090E8000C82448344AAF10107DA45E2
:1001A00001D100F05AF8AFF2090EBAE80F0013F0CF
:1001B000010F18BFFB1A43F00103184738B70000BE
:1001C00058B700000A444FF0000C10F8013B13F040
:1001D000070408BF10F8014B1D1108BF10F8015BA0
:1001E000641E05D010F8016B641E01F8016BF9D193
:1001F00013F0080F1EBF10F8014BAD1C0C1B09D1EA
:100200006D1E58BF01F801CBFAD505E014F8016B5B
:1002100001F8016B6D1EF9D59142D6D370470000ED
:100220000023002400250026103A28BF78C1FBD8FF
:10023000520728BF30C148BF0B607047732900F0D8
:100240008283002070471FB509F07EFD9DE8030002
:1002500000F008FB1FBD10B510BD00F0A3FB114658
:10026000FFF7F1FF08F0FEFC00F0C1FB03B4FFF75D
:10027000F2FF03BC00F0F2FB094880470948004741
:10028000FEE7FEE7FEE7FEE7FEE7FEE7FEE7FEE746
:10029000FEE7FEE704480549054A064B70470000A3
:1002A0001D59000889010008C80E0020C81400204C
:1002B000C8100020C810002070B5064600F0B6FA3D
:1002C000056806F10B0020F00704B4429CBF002033
:1002D00070BD2B466A68BAB11068A04210D304F111
:1002E000080188423CBF5068586007D35168101914
:1002F00041601168091B016058601460101D70BDD9
:1003000013465268002AE7D12146284600F096FAA3
:100310000028DED170BD70B50446051F00F086FAD6
:100320000068002C14BF446870BD002C18BFAC429C
:100330003CBF20466468F8D301680A18AA4218BF77
:10034000456003D12A6805461144016028684119B7
:10035000A1421CBF6C6070BD61686960216808447F
:10036000286070BD53EA020C00F069802DE9F04B63
:100370004FF00006002B1FBFB3FA83F503FA05F414
:1003800024FA05F65E4012BF1643B2FA82F502FA6D
:1003900005F4C5F120051EBF22FA05FC44EA0C0451
:1003A000203556EA044C4FEA144418BF641C4FF041
:1003B00000084FF00009904271EB030C39D300297B
:1003C00019BFB1FA81F701FA07F6B0FA80F700FA1F
:1003D00007F6C7F120071EBF20FA07FC46EA0C0605
:1003E0002037B6FBF4FCA7EB0507103F07F01F0B07
:1003F000CBF120060CFA0BFB2CFA06F644BFB346F1
:100400000026202FA4BF5E464FF0000B5BEA060CCF
:1004100008BF4FF0010B19EB0B09ABFB027C48EB5B
:100420000608C01B06FB02CC0BFB03CC71EB0C01D6
:10043000C1E70B46024641464846BDE8F08B13B57E
:100440004FF000004FF00001AFF30080BDE81C400A
:10045000704700000FB41CB5074B06AA7B446946E1
:100460000090059800F045FA0020694600F054FA23
:100470001CBC5DF814FB0000B904000070B50C460C
:100480000546012A05D02878800600D5EA690023B0
:1004900002E0012305E05B1C934202D2E05C0028ED
:1004A000F9D1A869E618C01AA861286A1844286218
:1004B0002846AFF3008004E0D5E9012114F8010BD0
:1004C0009047B442F8D32846AFF3008070BD0000D7
:1004D0002DE9F05F894604464FF0000ADFF824B1A9
:1004E000FB44C0F820A02046E168884700287DD062
:1004F000252806D0D4E901219047206A401C2062BB
:10050000F1E700255F462046E16888472028064637
:1005100007DB312E05D2B81910F8200C08B10543BD
:10052000F1E7A80701D525F00405C4F81CA00027B1
:10053000C4F818A02A2E09D0304608F065F938B35F
:1005400004EB8708303EC8F8186019E059F8041B1E
:10055000204604EB87029161E1688847012F064637
:1005600018D1E069002820DA25F020051DE0D8F830
:10057000180000EB800006EB40003038C8F8180087
:100580002046E1688847064608F03EF90028EED18B
:10059000012F0AD02E2E08D12046E16888477F1C03
:1005A0000646022F45F02005C4DBA069002803DAC7
:1005B000404245F00105A061E80701D025F0100593
:1005C000A6B1A6F14100192802D8203645F40065ED
:1005D0004A463146204625604D46FFF72FFE60B162
:1005E000012807D0ED1D25F0070000E007E000F12D
:1005F000080978E705F1040975E730467AE7206ACB
:10060000BDE8F09F54B3000040EA0103024630B554
:100610009B0710D14FF0013400E008C208C91D1B30
:100620009D4315EAC41FF8D013F0FF0102F8011B27
:100630000DD01B0AF8E711F8013B002B02F8013B33
:1006400005D011F8013B002B02F8013BF3D130BD7E
:1006500010B5431C02E010F8011B71B18107FAD1FB
:100660004FF0013202C88C1A8C4314EAC211F9D03F
:10067000C01A0A0603D0C01E10BDC01A10BD0A045D
:1006800001D0801E10BD0902FCD0401E10BD421ECC
:1006900012F8013F002BFBD111F8013B002B02F8AF
:1006A000013BF9D17047032A40F2308010F0030C6F
:1006B00000F0158011F8013BBCF1020F624498BFB5
:1006C00011F801CB00F8013B38BF11F8013BA2F152
:1006D000040298BF00F801CB38BF00F8013B11F0CD
:1006E000030300F02580083AC0F0088051F8043B6D
:1006F000083A51F804CBA0E80810F5E7121D5CBFDA
:1007000051F8043B40F8043BAFF30080D20724BF0C
:1007100011F8013B11F801CB48BF11F8012B24BFA0
:1007200000F8013B00F801CB48BF00F8012B7047EF
:1007300010B5203AC0F00B80B1E81850203AA0E87C
:100740001850B1E81850A0E81850BFF4F5AF5FEAB0
:10075000027C24BFB1E81850A0E8185044BF18C963
:1007600018C0BDE810405FEA827C24BF51F8043B0A
:1007700040F8043B08BF7047D20728BF31F8023B5E
:1007800048BF11F8012B28BF20F8023B48BF00F8F2
:10079000012B70474FF000020429C0F0128010F0C6
:1007A000030C00F01B80CCF1040CBCF1020F18BF4D
:1007B00000F8012BA8BF20F8022BA1EB0C0100F0E0
:1007C0000DB85FEAC17C24BF00F8012B00F8012BB3
:1007D00048BF00F8012B70474FF0000200B51346E8
:1007E00094469646203922BFA0E80C50A0E80C5051
:1007F000B1F12001BFF4F7AF090728BFA0E80C5002
:1008000048BF0CC05DF804EB890028BF40F8042BFA
:1008100008BF704748BF20F8022B11F0804F18BF67
:1008200000F8012B704770477047704700487047C9
:10083000700E0020704770477047704738B5044607
:100840000A4600206946AFF30080002808BF38BD83
:1008500002460099204600F083F8012038BD0120AF
:1008600000F098B8F8B5AFF30080054600200C46BC
:10087000102000BF0646A819A0420DD9324669468D
:100880000020AFF30080070008BF00F083F8009855
:10089000A04218BF0546C419FFF7C8FF0560074608
:1008A000F01D20F007004619284600F00AF8B4426F
:1008B00008BFF8BDA21B31463868BDE8F84000F01B
:1008C0004FB800210160C0E9011070471020704747
:1008D00010B500F041F8006810BD10B5044600F0F6
:1008E0003BF8046010BD000001694A1C02610878F1
:1008F000704700B58FB0CDE9013100210591054960
:100900007944CDE9031011466846FFF7E1FD0FB0C9
:1009100000BD0000E5FFFFFF0A6802F8010B0A6056
:10092000704710B5436913B1AFF3008001E0FFF7E2
:10093000A5FD012010BD127800F124010A700022EB
:100940004A700122EDE711684FF0FF32E9E700003D
:1009500000487047680E002000487047680E00206D
:10096000034640688C46002818BF88423CBF0346B7
:100970004068F8D318681844884207D00CF1030087
:1009800020F00700001D411A521A0146081D0A6096
:10099000FFF7C1BC10B500F039F8BDE8104000F019
:1009A0002FB870477546FFF7D3FFAE46050069467E
:1009B000534620F00700854618B020B5FFF76AFCC3
:1009C000BDE820404FF000064FF000074FF0000850
:1009D0004FF0000B21F00701AC46ACE8C009ACE8D1
:1009E000C009ACE8C009ACE8C0098D46704710B535
:1009F0000446AFF300802046BDE81040FFF736BC48
:100A0000002801D000F02AB87047000010B5012876
:100A100005D0002103A000F027F8012010BD09A196
:100A2000F8E7000053494752544D454D3A204F7561
:100A300074206F662068656170206D656D6F7279D6
:100A4000000000003A2048656170206D656D6F728E
:100A50007920636F727275707465640001491820A3
:100A6000ABBEFEE72600020070B505460C460A2024
:100A700000E06D1C00F011F835B128780028F8D19D
:100A800002E0641C00F009F814B120780028F8D1C5
:100A9000BDE870400A20AFF3008008B569468DF8C4
:100AA00000000320ABBE08BD464910B54A6822F4D9
:100AB00040324A604A6843681A434A6001684A689B
:100AC00022F480724A6001684A68036942EA03229C
:100AD0004A6001684A6822F040724A6001684A68C8
:100AE00083681A434A6001688A6822F400628A6057
:100AF00001688A68C3681A438A60816A6FF070620D
:100B0000D14201688A6822F070628A6001688A684E
:100B10000CD0836A1A438A6001688A6822F04052C6
:100B20008A6001688A68C36A1A4301E022F0405271
:100B30008A6001688A6822F002028A6001688A6815
:100B4000037E42EA43028A6090F82010002901687F
:100B50004A680FD042F400624A6001684A6822F491
:100B600060424A6001684A68174C436A04EB4333A9
:100B70001A4301E022F400624A600168CA6A22F462
:100B80007002CA620168CA6A838B104C04EB03537B
:100B90001A43CA6201688A6822F400728A60016896
:100BA0008A6890F8303042EA43228A6001688A6895
:100BB00022F480628A6001688A68406942EA802083
:100BC000886010BD0023014000E0FFFF0000F0FF3F
:100BD0007047704770B50A4E00243568306007E0F2
:100BE00000F070F982B2A1B2002000F0E3F8641CBA
:100BF00000F06EF9A042F3D8A8B2306070BD0000DA
:100C000018040020074B30B49B68DD881C689B8863
:100C1000DB1DDB08203A13FB02F205FB024230BC6D
:100C200000F0BCB918040020014800688068004743
:100C3000C00000202DE9F0470446002799468A4667
:100C40001546B846104601E008F1010810F8011BEE
:100C50000029F9D100F036F91C4E4A46B9F1010FCE
:100C6000B1688988B0FBF1F002D0022A17D105E003
:100C7000A0EB0800484304EB500003E0A0EB0800A1
:100C80004843001B84B20AE051462046FFF7BAFFF2
:100C9000B0687F1CBFB280886D1C204484B200F015
:100CA00011F90146B068808807FB101189B28142B2
:100CB00001D3012000E000202A780AB1012100E0E0
:100CC00000210842E0D1BDE8F087000018040020B0
:100CD0002DE9FE4F814603208846A0EB4207002500
:100CE00014465EE0314EA8EB040A1FFA8AF1308800
:100CF00082B209EB0500029080B200F081F83088E2
:100D00001FFA8AF182B2A9EB0500019080B200F0CF
:100D100077F83088A8EB050A82B209EB040000904E
:100D20001FFA8AF180B200F06BF83088A9EB040B4F
:100D300082B21FFA8AF11FFA8BF000F061F8308856
:100D400008EB040A82B202981FFA8AF180B200F01E
:100D500057F830881FFA8AF182B2019880B200F009
:100D60004FF8308808EB050A82B200981FFA8AF122
:100D700080B200F045F830881FFA8AF182B21FFA7B
:100D80008BF000F03DF80A48B060002F03DA07EB63
:100D90008507BF1D04E0281B07EB8007641E0A3788
:100DA0006D1CA5429ED9BDE8FE8F000018040020EE
:100DB000C40000202DE9F04106460F4800240F4FE3
:100DC000006815468846D0F820C0BCF1000F0FD04F
:100DD000134638880A463146BDE8F04180B2604784
:100DE0003888414682B2301980B200F009F8641C9C
:100DF000AC42F5D3BDE8F081C0000020180400200B
:100E0000034B1B685B69002B00D01847704700003C
:100E1000C00000202DE9F74F0F46DFF8A490904660
:100E20000321A1EB4806B9F8001082B089B2002472
:100E300015464FF6FF7AC9F8001031E08DB1381928
:100E400081B202980AEA4502401B0090934680B2A4
:100E5000FFF7B0FF381B81B200985A4680B2FFF707
:100E6000A9FF8CB1781B81B202980AEA4402001BE8
:100E70000090934680B2FFF79DFF781981B20098E9
:100E80005A4680B2FFF796FF002E03DA06EB84067F
:100E9000B61D04E0601B06EB80066D1E0A36641C5E
:100EA000AC42CBD9B9F80010424689B2C9F800105B
:100EB000029805B03946BDE8F04FFFF709BF0000C2
:100EC0001804002001480068806A0047C000002024
:100ED00001480068C06A0047C000002070B50D4C92
:100EE0004FF6FF70012660600B48A0600B4D00209C
:100EF000206068688047A0F51341253907D106486E
:100F0000001F05602868804703480026A06030461F
:100F100070BD000018040020C4000020F80000206C
:100F2000FEE770B504460021084604EB8102491C27
:100F3000C2F884031029F8D300224FF40075A118D9
:100F4000521C81F81C01AA42F9D320706070012163
:100F5000A170C4F8C40321764022A271607684F89F
:100F60001C0384F81D1384F81F0384F81E03090270
:100F700004F11C00FFF730FC294604F58E70FFF7E2
:100F80002BFC122104F22630FFF704FC3E2104F56D
:100F90004E70FFF721FC002070BD70472DE9F74F20
:100FA000DFF890B00026DBF808008588C788E81DC8
:100FB000824620F00700401B00F0FF0935E000BF2B
:100FC0004FEADA010298012901FB06000BD0022941
:100FD0000BD0017842780904807841EA022141EA85
:100FE000000800241AE0007801E0008840BA80463A
:100FF000F7E7291B49440120491E884010EA080FE1
:1010000002D0BBF8000001E0BBF80400019982B2F5
:101010000098204480B2FFF7F3FE641CAC42E8D392
:101020000198401C80B2761C0190BE42C8D3BDE836
:10103000FE8F000018040020084810B5017801292F
:1010400001D0012100E00021017005A008F004F8A2
:10105000BDE81040012000F06FBB000098000020A8
:101060004B455920505245535345440010B54FF657
:10107000FF70FFF7AFFD0CA007F0EEFF1349002053
:101080003222087078219620FFF7C4FE104896217E
:1010900041607821816032210160BDE810404FF449
:1010A000004000F049BB00005B4369726C63655D02
:1010B00020526573657420706F736974696F6E2058
:1010C000616E64207363616C65000000980000200D
:1010D0009C00002072B6FEE7002200F001B800007C
:1010E00030B50E4B054601205C7A002C14D1587A9D
:1010F0001C54587A03EB800045605D7A03F10800C8
:101100002A54587A421C5A72303008703A2048707B
:101110002F208870CC70002030BD00005C0E0020B5
:1011200000B59BB04FF0204000901448019005207E
:101130001490012015900920169000200221CDE97D
:101140001701CDE919100421CDE902101021CDE9D4
:1011500004010690079009020890CDE909010C905E
:101160000B900D900E90119000F00AF814AA114601
:10117000684602F03DF81BB000BD0000040100A06D
:10118000294800B5016887B041F00101016000689D
:1011900000F00100059024480838016841F008017A
:1011A0000160016801F008010591016841F010013A
:1011B0000160016801F010010591016841F0200112
:1011C0000160016801F020010591016841F04001D2
:1011D00001600068694600F040000590022001901F
:1011E00001200290032003900C2004904FF63370EE
:1011F00000900E4800F0ACFA4FF69B7000906946E4
:101200000B4800F0A5FA4FF23F00009069460948EC
:1012100000F09EFA40F23F4000906946064800F018
:1012200097FA07B000BD000038380240000C0240B9
:1012300000100240001402400018024030B5B3F51F
:10124000804F05D06FF0704140F82210002030BD73
:101250008C690B688D6823434C688989240144EAB2
:101260000524234343EA014150F82230014C234036
:101270001943E9E70000F0CF10B50A6850F82230B2
:1012800023F0010340F822308C68082C23D000237F
:101290004A682243CC681C430B6922431A434B69BA
:1012A0000E4C1A43CB691A430B6A1A434B6A1A4312
:1012B0008B6A1A43CB6A1A430B6B1A438B6913432D
:1012C000CA6B09681A4350F82130A343134340F80E
:1012D0002130002010BD4023DAE700007FFF0F001F
:1012E00030B5D1E9003443EA04138C688D892402B7
:1012F00044EA054423430C8A094D00EB820005EBC8
:10130000045423430C7D6D0105EB04648969234378
:101310000B43416801F040410B434360002030BD66
:101320000000F0FF78B50024009490F83C20012ADA
:1013300019D0012280F83C200A6807230568092A91
:1013400013D9EE680A3A02EB420293409E43EE60E4
:101350000B788A680A3B03EB43039A400368DD6815
:101360002A43DA6010E0022078BD2E6902EB4202C7
:1013700093409E432E610B788A6803EB43039A40A7
:1013800003681D692A431A614A681F23072A13D27A
:1013900005686E6B521E02EB820293409E436E63A1
:1013A0000B790A885B1E92B203EB83039A400368B1
:1013B0005D6B2A435A6327E005680D2A12D22E6B13
:1013C000D21F02EB820293409E432E630B790A8860
:1013D000DB1F92B203EB83039A4003681D6B2A4321
:1013E0001A6311E0EE6A0D3A02EB820293409E43CB
:1013F000EE620B790A880D3B92B203EB83039A40AD
:101400000368DD6A2A43DA62164B0568144A9D4276
:1014100006D10D68122D03D1556845F4800555603D
:1014200005689D4218D10B68102B01D0112B13D1E8
:10143000536843F400035360096810290CD10A492A
:101440000A4A0968B1FBF2F101EB8101490000E0B1
:10145000491E00910029FBD180F83C40002078BD56
:101460000023014000200140BC00002040420F004A
:1014700070B504004FF0000503D0206C002610B1B9
:1014800007E0012070BD204600F01CF8666484F877
:101490003C60206CC00610D4206C20F4885040F0D2
:1014A000020020642046FFF7FFFA6664206C20F0FB
:1014B000020040F00100206400E0012584F83C6057
:1014C000284670BD10B586B0044614216846FFF763
:1014D00083F91249206888421DD111480021026811
:1014E00042F480620260006800F4806005900C485D
:1014F0001438026842F020020260006800F0200008
:1015000005904FF4C06000900320CDE901016946C9
:10151000044800F01DF906B010BD00000022014093
:10152000443802400014024018B50021009190F8A0
:101530003C20012A07D0012280F83C2002689368F1
:10154000DB0702D011E0022018BD936843F00103CD
:1015500093602E4A2E4B1268B2FBF3F202EB42026A
:1015600000E0521E0092002AFBD102689368DB075C
:1015700042D0036C40F20164A34343F480730364DC
:1015800053685B0505D5036C23F4005343F4805383
:101590000364036CDB0404D5436C23F0060343644B
:1015A00000E0416480F83C101A496FF02203136098
:1015B00049680068CA06184906D0884224D1816863
:1015C00011F0405F13D01FE08842F8D0134A9042D8
:1015D00003D1D1F80423D206F1D0114A904213D19D
:1015E000D1F8041301F01F011029E8D30CE0816841
:1015F00041F08041816007E0016C41F0100101641D
:10160000416C41F001014164002018BDBC00002084
:1016100040420F0000230140002001400021014012
:101620000022014090F83510022903D08021416545
:1016300001207047052180F835100068016821F00D
:10164000010101600020704790F8350070470000EC
:1016500070B5044600F082F90546601C02D00448CB
:101660000078044400F07AF9401BA042FAD370BD20
:10167000B0000020F0B587B014216846FFF7ACF841
:1016800025480168002944D1012101602348002434
:10169000016841F0010101600068022500F00100CD
:1016A00005904FF69B70CDE9000502AA03260C2792
:1016B00082E8D00069461A4800F04AF84FF6FB70FD
:1016C000CDE9000502AA694682E8D000154800F07D
:1016D0003FF88020CDE9000502AA694682E8D000E3
:1016E000114800F035F840F23F60CDE9000502AA4C
:1016F000694682E8D0000D4800F02AF84FF23F001A
:10170000CDE9000502AA694682E8D000084800F049
:101710001FF807B0F0BD0000A800002038380240D4
:1017200000100240000C0240000402400018024079
:101730000014024070470000044910B50A680242D4
:1017400002D00860FFF7F6FF10BD0000143C014016
:101750002DE9F84FDFF8BCA10022012503264FF048
:101760000F090AF1040BAAF1040E00BF0B6805FA79
:1017700002F42340A34270D10F7907F00307012F31
:1017800001D0022F16D187684FEA420806FA08FCFA
:1017900027EA0C07D1F80CC00CFA08FC4CEA070C3D
:1017A000C0F808C04768A7430C79C4F300149440FC
:1017B0003C4344600C79E443A4070AD0C4684FEA70
:1017C000420C06FA0CF7BC438F6807FA0CF7274364
:1017D000C7600C7904F00304022C12D1D40800EB8A
:1017E000840CDCF820405707FF0E09FA07F824EABA
:1017F0000804D1F8108008FA07F848EA0408CCF881
:10180000208004684FEA420C06FA0CF7BC430F79BB
:1018100007F0030707FA0CF7274307604C6814F436
:10182000403F70D03C4C276847F4804727602468CD
:1018300022F0030704F480440094384C07EB040CB6
:10184000DCF8084897074FEA177809FA08F7BC430D
:10185000334FB84202D1002724E054E0314FB84260
:1018600001D101271EE0304FB84201D1022719E013
:101870002E4FB84201D1032714E02D4FB84201D1B9
:1018800004270FE02B4FB84201D105270AE02A4F69
:10189000B84201D1062705E0284FB84201D10727F9
:1018A00000E0082707FA08F72743CCF80878DAF8A9
:1018B00000405746D1F804C09C435FEACC2C00D5C9
:1018C0001C433C60DBF800405F46D1F804C09C43F9
:1018D0005FEA8C2C00D51C433C60DEF80040774664
:1018E000D1F804C09C435FEA8C3C00D51C433C60AB
:1018F000084F083F3C68D1F804C09C435FEACC3CE9
:1019000000D51C433C60521C102AFFF42FAFBDE8E9
:10191000F88F0000083C014044380240003001408C
:10192000000002400004024000080240000C024097
:10193000001002400014024000180240001C024047
:10194000426921EA02030A4043EA02418161704789
:101950000AB1816170470904FBE700000148806813
:1019600070470000B0000020D0F8DC0304F06DBD2B
:10197000D0F8DC0304F073BD006806F03BB80068E3
:1019800006F03CB8C1EB011100EB8100002200F829
:101990001A2F4270C272827210467047C1EB011159
:1019A00000EB810090F84C007047C1EB011100EB97
:1019B0008100806B704710B5044690F8D40301286D
:1019C00009D0012084F8D403206806F022F8002012
:1019D00084F8D40310BD022010BD2DE9FF4F83B061
:1019E0000546DDE9117690F8D403DDF84080934692
:1019F0008A4601281CD0CAEB0A11012305EB810499
:101A000085F8D4334FF0000984F8199006982075B2
:101A100084F815A084F826700BF07F00A07551465D
:101A20002846FFF7AFFF5FEA0B6005D5E37505E0D9
:101A3000022007B0BDE8F08F84F81790286805F001
:101A4000DDFF012F06D1B8F1010F03D110B9BC2E73
:101A500000D9BC2684F81880B0B22085CDF800806B
:101A6000CDE9017028685A465146069B06F03CF8BD
:101A700085F8D493DDE770472DE9F0030E46DDE9E4
:101A800006C9DDE90874C1EB061100EB81010225EE
:101A9000CA7581F82630BCF1000F0AD081F82A50AF
:101AA000002463B1012B31D0022B28D0032B16D197
:101AB00025E04FF0030881F82A804C76F0E7BCF16E
:101AC000010F0CD11AB18A7E012A19D007E0D7B9CB
:101AD000012281F83D2000E0C2B181F82A50C1F80E
:101AE0002C904F6381F84C408C634E7581F84D40CB
:101AF00082790068BDE8F003143106F085B812B1B0
:101B000091F83C20E8E791F83D20E5E781F82A408C
:101B1000E5E700002DE9F04106680446304605F08F
:101B200074FF012877D1206806F02AFA002872D0C5
:101B3000206806F025FA800203D521684FF40010D2
:101B40004861206806F01CFAC00203D521684FF4F2
:101B500080104861206806F013FA400103D521681F
:101B60004FF080604861206806F00AFA800702D5CD
:101B7000216802204861206806F002FA800018D52A
:101B800021684FF000504861D6F84004C00710D1DA
:101B90001021304605F010FF304605F0F1FE607A66
:101BA000022803D10121206806F0C6F92046FFF77C
:101BB000DFFE206806F0E4F9C00102D5204602F0FD
:101BC000EAF8206806F0DCF9000705D5204600F0A9
:101BD000D0F8216808204861206806F0D1F980011A
:101BE00024D5206806F00CF8074600254FF00108C0
:101BF00015E000BF05F00F0108FA01F038420DD0E2
:101C000006EB4510D0F80005E9B20004204603D5E4
:101C100001F092FD02E01CE001F04CFF6D1C6079C8
:101C2000A842E7D821684FF000704861206806F0AC
:101C3000A7F9C043C0060CD42068816921F01001C7
:101C40008161204602F0F1F82068816941F01001BD
:101C50008161BDE8F081F8B5040005D094F8D503A2
:101C60002568002610B106E00120F8BD84F8D46391
:101C7000204600F029F8032084F8D503B5F1A04FE1
:101C800000D1A671206805F047FE207C8DF8000089
:101C900094E80F0005F0E0FD022560B901212068FD
:101CA00006F0AAF938B9207C8DF8000094E80F00FE
:101CB00006F0DAF810B184F8D553D5E7012084F89E
:101CC000D5030020F8BD000030B587B004461421CC
:101CD0006846FEF781FD2068B0F1A04F37D11D485E
:101CE0000024016841F00101016000681A4D00F014
:101CF000010005904FF4E05000900220CDE901046E
:101D00000A20CDE9034069462846FFF721FD681502
:101D1000CDE90004694628460294FFF719FD0D48F5
:101D2000001D016841F0800101600A48143001681B
:101D300041F4804101600068002200F48040059079
:101D40001146432000F06CFE432000F05BFE07B01C
:101D500030BD00003038024000000240D0F8DC0303
:101D600004F00EBCD0F8DC0304F00EBC006806F0F2
:101D70002AB9D0F8DC0304F0BDBB10B5044690F8D6
:101D8000D40301280DD0012084F8D4030121206858
:101D900005F0DAFD206805F0EDFD002084F8D4039D
:101DA00010BD022010BD10B5044690F8D4030128E0
:101DB00009D0012084F8D403206806F04BF90020F4
:101DC00084F8D40310BD022010BD704770472DE980
:101DD000F047026800215368C66A90F83E4090F8C8
:101DE0003D50102C12D0402C10D0046C002C7DD013
:101DF0005469E443A6077AD4DE43B60577D4036C6E
:101E000003B19169BDE8F04702F000BD97695169DF
:101E10004FF42A0CC9435FEAC1784FF02A4904D035
:101E200066452AD04E4528D010E0DE43B6050DD4D5
:101E3000C16A614501D1012103E0C16A494501D16F
:101E40000821C162BDE8F04702F074BB0E0716D44A
:101E5000DE43B60513D4416CC9B21161416B09B1BF
:101E6000C96B29B9816B002907D0C96B002904D03F
:101E70000068416841F400614160BDE8F0878E0769
:101E800006D4DE43B60503D4BDE8F04702F0C6BA77
:101E9000FE43526876074FEA02521DD4002AECDB5B
:101EA0000A0608D4DA43520505D4490705D5BDE82A
:101EB000F04702F057BA4907DFD4D9438905DCD48B
:101EC000212D05D0402CD8D1BDE8F04702F078BBD9
:101ED000BDE8F04702F004BA002ACEDB4A060BD474
:101EE000DA43520508D4490708D501E00DE00EE0B9
:101EF000BDE8F04702F07AB94907BED4D943890555
:101F0000BBD4BDE8F04702F004B9916970E7E1067F
:101F100006D4D943890503D4BDE8F04702F09ABC42
:101F20002821212D27D0292D25D0650655D4DD4324
:101F30006D0552D4640752D590F83D30448D002C85
:101F40009BD01269446A2270426A521C4262428DDE
:101F5000521E4285428D002A8FD12A2B8DD10268D4
:101F6000536823F4806353602222026380F83D109B
:101F700000F0E8FA81E7250623D4DD436D0520D47F
:101F8000640720D590F83D30448D002CF2D0446A8F
:101F900024781461426A521C4262428D521E42856C
:101FA000428D002AE6D1292BE4D10268536823F43C
:101FB000806353602122026380F83D1000F0C3FA71
:101FC0005BE76107D6D4D9438905D3D4418D002975
:101FD000D0D0416A097811610AE06107CAD4D943B7
:101FE0008905C7D4418D0029C4D01169426A117096
:101FF000416A491C4162418D491E41853DE7704758
:1020000070B5040025D094F83D00002520B984F86F
:102010003C50204600F058FA242084F83D00206807
:10202000016821F0010101602068016841F400416C
:1020300001602068016821F40041016000F08AFE1F
:102040004D4A6168914201D84C4900E04C498842B0
:1020500001D2012070BD4B492368B0FBF1F15E68ED
:1020600026F03F060E435E606368934206D94FF444
:10207000967359434FF47A73B1FBF3F12368491C0B
:102080001E6A26F03F06314319626168914210D8FA
:102090004900401EB0FBF1F2521CC2F30B02042AAD
:1020A00001D2042022E0B0FBF1F0401CC0F30B0091
:1020B0001CE0A268F2B301EBC10303EB0116431E5F
:1020C000B3FBF6F35B1C43F480431B0549D092B38A
:1020D00001EBC10202EB0111401EB0FBF1F0401C0C
:1020E000C0F30B0040F4804040F400402168CA690E
:1020F0004CF6FF739A431043C861D4E907100143BB
:102100002068026822F0C00211430160D4E9030193
:1021100001432068826848F2FF339A43114381608B
:10212000D4E9050108432168CA6822F0FF02104380
:10213000C86001E00EE016E02068016841F001018E
:1021400001602564202084F83D00256384F83E501A
:10215000002070BD01EB4106431EB3FBF6F35B1C90
:10216000B3E70120C2E701EB4101401EB0FBF1F0F3
:10217000401CC0F30B00B7E7A086010080841E005E
:1021800000093D0040420F0070477047704770479C
:10219000704700002DE9FF4F83B09A46DDE91187B3
:1021A00093460446DDF84090FFF7D8FB054694F8C7
:1021B0003D00202870D11923012274492046009542
:1021C00002F022FC0028F5D194F83C00012863D0ED
:1021D000012084F83C0020680168C90703D1016828
:1021E00041F0010101602068016821F40061016093
:1021F000222084F83D00402084F83E00002626641A
:10220000C4F82490A4F82A80608D20856048E0629C
:10221000CDE9007553465A462046049902F024FA47
:10222000002879D1208DD0B1012821D00228206842
:1022300024D0416980690090208D032866D8012848
:102240002BD0544902283B464FF00002009557D04E
:102250008846204602F0D8FB00285DD13AE020688D
:10226000416981690091016841F4007101607DE07C
:102270002068016821F480610160F0E7016821F4C1
:10228000806101602068016841F40061016020689C
:1022900041698069009069E075E02A463946204628
:1022A00002F058FC88BB54E02068016841F40071DA
:1022B000016020680069616A0870606A401C6062A1
:1022C000218D491E2185618D491E6185216809691D
:1022D000017042E02068016821F48061016020689B
:1022E0000069616A0870606A401C6062208D401E4F
:1022F0002085608D401E60853B460022414600954A
:10230000204602F081FB00B9CEE705E02A463946B7
:10231000204602F01FFC18B1012007B0BDE8F08F85
:1023200020680069616A0870606A401C6062208DE4
:10233000401E81B22185608D401E60852068426903
:10234000D243520712D4032903D1016821F48061DA
:10235000016020680069616A0870606A401C606200
:10236000208D401E2085608D401E6085208D0028B8
:102370007FF462AF202084F83D0084F83E6084F84A
:102380003C600020C9E70220C7E7000002001000FF
:102390000000FFFF040001002DE9FF4F83B09A46C3
:1023A000DDE9119793460446DDF84080FFF7D6FA41
:1023B000054694F83D0020287FD119230122404989
:1023C0002046009502F020FB002876D194F83C00CE
:1023D000012872D0012084F83C0020680168C907F8
:1023E00003D1016841F0010101602068016821F416
:1023F00000610160212084F83D00402084F83E0007
:1024000000262664C4F82480A4F82A90608D2085D4
:102410002C48E062CDE9007553465A46204604999F
:1024200002F0A0F970B930E02A463946204602F0A1
:10243000C9FB58B1206C042804D12068016841F41C
:1024400000710160012007B0BDE8F08F606A21686B
:1024500000780861606A401C6062218D491E89B263
:102460002185628D521E628522685369DB435B07BA
:102470000BD469B100781061606A401C6062208DE5
:10248000401E2085608D401E6085208D0028CBD1A8
:102490002A463946204602F08BFA0028CAD154F861
:1024A0003D0B016841F400710160202004F81E0911
:1024B000E67766770020C6E7FFE70220C3E7000063
:1024C000020010000000FFFF10B586B00446142182
:1024D0006846FEF781F918492068884229D11748D3
:1024E0000021026842F002020260006800F002006F
:1024F00005904FF410700090122001900120CDE95A
:1025000002010420049069460D48FFF721F90B48A9
:102510001030016841F4001101600068002200F4ED
:102520000010059011461F2000F07AFA1F2000F0DD
:1025300069FA06B010BD0000005400403038024077
:1025400000040240704770472DE9FF4104460068CF
:10255000816800917749784E4FF04027884201D139
:10256000324600E03A4692680192406888460290FE
:1025700001D1304600E038464068039060684FF073
:102580000105B0F5007F1CD0D8B1900705D50398A0
:10259000000602D5204602F071FB0098C0070FD05C
:1025A000029840067FD521682046CA68E16A8B1CE4
:1025B000E3620A80618E491E6186618E002967D0C0
:1025C00071E00098800719D50298000616D5616A57
:1025D00020468A1C626222680988D160618D491E8A
:1025E0006185618D51B901684A6822F0A0024A6094
:1025F000418E19B980F8415000F0A0F80198C00749
:1026000005D00398400602D5204602F007FB01984A
:10261000400622D5039880061FD52168414501D187
:10262000304600E03846406820F0600101D1304675
:1026300000E0384641602068416821F0A001416017
:102640002068C1688068019084F84150606C40F057
:1026500002006064204600F072F80098000767D519
:102660000298800664D52068416821F0A00141608D
:102670002168414501D1304600E03846406820F0ED
:10268000600000D03E46706020688068009043E0A3
:1026900001684A6822F060024A60418D19B980F8E9
:1026A000415000F04BF8009840061ED50298800675
:1026B0001BD52068416821F06001416021684145D7
:1026C00001D1304600E03846406820F0A00101D139
:1026D000304600E03846416084F84150606C40F07C
:1026E00002006064204600F02AF8019800071FD518
:1026F000039880061CD52168414501D1304600E091
:102700003846406820F0A00000D03E467060206847
:10271000416821F06001416084F84150606C40F0F4
:102720000400606404B02046BDE8F04100F007B842
:10273000BDE8FF810038004000340040704710B50C
:10274000FEF746FA10BD00002DE9F047040005D061
:1027500094F841004FF0000818B109E00120BDE8ED
:10276000F08784F8408051486063204600F0A6F866
:10277000022684F841602068C16940F6BF77B943FA
:10278000C1612068066260694FF4007902282FD089
:10279000E06870B12025A068202800D86D000120D5
:1027A00000F070F9216949451FD1E16819B1A9000C
:1027B00002E01025EFE7E900B0FBF1F000EB80004C
:1027C00061694000B0FBF1F0401D0A21B0FBF1F05F
:1027D00000F00101401A40080902821EFE2A09D3B6
:1027E000606C40F010006064B8E7B0FBF5F0E5E71E
:1027F0000220002122690843024320680262D4E9D2
:1028000001010843A269E168114308432168CA69CC
:10281000BA43104340F40060C861206A01283AD1ED
:102820002348606323482168234A4FF040238142B4
:1028300001D1114600E01946C96921EA070101D119
:10284000154600E01D46E9612168814201D111462B
:1028500000E019460E622568854201D1114600E06C
:102860001946C9698EB2616849451BD0D1B10021B2
:102870002789B4F80CC047EA0C07B4F818C04CEA32
:10288000010C47EA0C07B9B2314341F400618542BB
:1028900000D01A46D161C4F84480012084F8410078
:1028A00000205CE74FF48071E2E70000DD4C000897
:1028B00049250008003800400034004030B58BB096
:1028C000054614216846FDF787FF00240594069409
:1028D0000794089417492868884229D10120059057
:1028E000C0200225CDE9060505A800F0FBF808B1D7
:1028F000FEF7F0FB1048016841F480410160006878
:1029000000F4804009900C481038016841F480714F
:1029100001600068694600F4807009900B20009007
:10292000CDE901540520CDE903400448FEF710FF2E
:102930000BB030BD0038004040380240002002405B
:10294000704710B5FEF745F910BD000002488168D8
:102950000278114481607047B00000200B4810B528
:10296000016841F400710160016841F48061016017
:10297000016841F480710160032000F071F80020CB
:1029800000F006F800F024F8002010BD003C0240E2
:1029900070B50D4D04464FF47A712878B1FBF0F014
:1029A0000A490968B1FBF0F000F052FC48B9102C5C
:1029B00007D200222146501E00F032F800206C6041
:1029C00070BD012070BD0000B0000020BC000020E0
:1029D0000B4882B0016841F480410160006800F456
:1029E000804000900648001F016841F0805101605E
:1029F000006800F080500090072002B000F030B86E
:102A000044380240002809DB00F01F0201219140F8
:102A10004009800000F1E020C0F80011704700007C
:102A2000F0B40E4B1B680C46C3F30223C3F1070539
:102A3000042D00D90425191D072901D2002300E027
:102A4000DB1E012606FA05F1491E214099409E40F1
:102A5000761E16403143F0BC05F06FBB0CED00E074
:102A6000064900F0070208684FF6FF03184040EAE5
:102A70000220034A10430860704700000CED00E09C
:102A80000000FA0501460020012908D11149096812
:102A900011F4000104D0B1F5000F00D10E487047C9
:102AA0000C48001F01680068490200F03F0001D592
:102AB0000A4900E00A49074AB1FBF0F07C3211688C
:102AC000C1F3881141431068C0F30270B1FBF0F00C
:102AD00070470000083802400080BB0040787D014C
:102AE0000024F4002DE9F843054600684FF0010981
:102AF000C1074FF0000601D1400727D5DFF80C8150
:102B0000C8F86860FEF72AFF0746414C05E000BFA1
:102B1000FEF724FFC01B022857D820680001F7D415
:102B200068688101287A41EA007039498431086077
:102B3000C8F86890FEF712FF074604E0FEF70EFFA4
:102B4000C01B022841D820680001F7D528788007EB
:102B500052D52F484030016841F080510160006833
:102B60002C4C00F080500090206840F48070206071
:102B7000FEF7F4FE074604E0FEF7F0FEC01B022855
:102B800023D82068C005F7D5214C7034206810F494
:102B9000407020D0A98901F4407181421BD0206887
:102BA0001D4920F44070C1F800900E60206020683C
:102BB000C00710D0FEF7D2FE064641F2883707E084
:102BC000FEF7CCFE801BB84202D90320BDE8F88393
:102BD00020688007F4D5E9680D48C1F30122083068
:102BE000032A0BD0016821F4F81101602068A9893B
:102BF000C1F30B01084320600020E7E70268074BA0
:102C000022F4F81219400A430260EFE7000047423D
:102C10000038024000700040400E4742FFFCFF0FAA
:102C20002DE9F0470E46050065D0DFF81481D8F88D
:102C30000000F7B200F00700B04207D288F8007039
:102C4000D8F8000000F00700B04254D128683D4C8D
:102C5000810712D5400703D5206840F4E05020607A
:102C60002878000703D5206840F460402060206881
:102C7000A96820F0F000084320602878C0072DD014
:102C8000304968680839012812D0022813D0032877
:102C900011D00968890700292DDA216821F0030184
:102CA00001432160FEF75AFE814641F2883A0EE068
:102CB00009688903EFE709688901ECE7FEF74EFE32
:102CC000A0EB0901514502D90320BDE8F087206837
:102CD000696800F00C00B0EB810FEFD1D8F800105C
:102CE000404601F00701B14207D90770006800F0C3
:102CF0000700B04201D00120E7E72878400705D55A
:102D00002068E96820F4E050084320602878000734
:102D100006D52068296920F4604040EAC10020609F
:102D200000F038F82168084AC1F30311515CC8402B
:102D30000649086006480068FFF72AFE0020C4E73D
:102D4000003C024008380240529D0008BC000020B0
:102D5000B40000200448054900680968044AC1F32A
:102D60008221515CC8407047BC00002008380240F6
:102D7000629D00080448054900680968044AC1F3D7
:102D80004231515CC8407047BC0000200838024006
:102D9000629D0008154810B5006810F00C02144838
:102DA00013D01449042A0FD0082A0ED10F4C241F27
:102DB0002268236802F03F025B0207D52068C0F357
:102DC0008810A0FB010106E0084610BD2168C1F390
:102DD0008811A1FB00010023FDF7C4FA2168C1F3AB
:102DE0000141491C4900B0FBF1F010BD0838024018
:102DF0000024F40040787D01F0B51F4C16460D46C6
:102E00001D4B002102220327283C0028186887B0A8
:102E100019D040F004001860186800F00400059014
:102E200010020090CDE90121CDE9037169461348F4
:102E3000FEF78EFC206845EAC60120F07840084382
:102E4000206007B0F0BD40F001001860186800F085
:102E5000010005904FF480700090CDE90121CDE98B
:102E6000037169460648FEF773FC2068354320F07D
:102E7000EC602843E4E700003038024000080240DC
:102E8000000002402DE9F84F04006ED02078DFF8F2
:102E90004C93C007A9F104054AD009F10400016868
:102EA000C1F38101012908D00068C0F38100022824
:102EB0000AD1D9F80000400206D52868800337D52A
:102EC00060680028E1D033E06068B0F5803F10D042
:102ED000B0F5A02F286810D020F480302860286832
:102EE00020F4802028606068A8B1FEF737FD064610
:102EF0000DE0286840F48030F4E740F4802028603A
:102F0000F7E700BFFEF72AFD801B642873D8286806
:102F10008003F7D50CE0FEF721FD064605E000BF73
:102F2000FEF71CFD801B6428F0D828688003F7D4C6
:102F30002078DFF8AC8280074FF0000A3ED5A74822
:102F4000001D016811F00C0F08D00068C0F381006B
:102F500002280BD1D9F80000400207D42868800766
:102F600016D5E068012800D112E033E1E068B8B17D
:102F70000120C8F80000FEF7F1FC064605E000BF9E
:102F8000FEF7ECFC801B0228C0D828688007F7D524
:102F90002868216920F0F80040EAC10028600DE0AF
:102FA000C8F800A0FEF7DAFC064604E0FEF7D6FCFF
:102FB000801B02281FD828688007F7D420780007D4
:102FC00022D5864F87486169703771B10121016050
:102FD000FEF7C4FC064604E0FEF7C0FC801B022896
:102FE00009D838688007F7D50EE0C0F800A0FEF7D2
:102FF000B5FC064605E082E0FEF7B0FC801B022827
:103000007DD838688007F7D42078400768D5DFF886
:10301000CCB100270BF13C0BDBF80000C0000BD457
:10302000DBF8001041F08051CBF80010DBF8000015
:10303000012700F0805000906B4E3068C00510D41E
:10304000306840F480703060FEF788FC009005E046
:10305000FEF784FC0099401A022850D83068C00559
:10306000F6D55E4EA0686C3601280FD00528306872
:1030700010D020F001003060306820F00400306093
:10308000A068B8B1FEF76AFC00900FE0306840F02D
:103090000100F4E740F004003060F7E7FEF75EFC63
:1030A0000099411A41F28830814266D83068800721
:1030B000F4D50EE0FEF752FC009007E0FEF74EFC60
:1030C0000099411A41F28830814256D83068800711
:1030D000F4D42FB1DBF8001021F08051CBF80010B0
:1030E000A069C8B33D49091D0968C1F381010229DE
:1030F0004AD00228504607D0C8F8600000E03CE003
:10310000FEF72CFC04463BE04746C8F86000FEF79B
:1031100025FC064605E000BFFEF720FC801B0228C8
:103120002BD828688001F7D4D4E907010843A16AA5
:103130002E4A490802EB0141626A41EA82110843C2
:1031400094F82C1040EA0161C9F80010012038669B
:10315000FEF704FC044606E03EE000BFFEF7FEFB7F
:10316000001B022809D828688001F7D534E000BF89
:10317000FEF7F4FB001B022802D90320BDE8F88FFC
:1031800028688001F4D427E00128F7D0D9F800009E
:10319000E26900F4800191421CD1226A00F03F01F3
:1031A000914217D147F6C071626A0140B1EB821FAC
:1031B00010D1A26A4FF0FF3300F4403103EB52020A
:1031C000B1EB024F06D194F82C1000F07060B0EB18
:1031D000016F01D00120D1E70020CFE70438024081
:1031E00000004742800E4742007000400000FFFF91
:1031F00070B515460E46040003D094F8490010B18E
:1032000007E0012070BD002084F84800204600F04F
:103210001DF804F108012068FEF72EF83146A26877
:103220002068FEF75DF8D4E901022946236BFEF71A
:1032300005F82168A06851F8202042F0010241F809
:103240002020012084F84900002070BDFEF712BA4A
:1032500010B5401EB0F1807F01D3012010BD4FF0AA
:10326000E02460610F21601704F067FF0020A06177
:1032700007202061002010BD7047704770B590F89E
:103280003C20012A32D0012480F83C40022280F800
:103290003D2003685A689D6822F070060A68324330
:1032A0005A60134B02689A4214D0B2F1804F11D089
:1032B000104B9A420ED0104B9A420BD00F4B9A42B1
:1032C00008D00F4B9A4205D00E4B9A4202D00E4BBB
:1032D0009A4204D1496825F080031943916080F82F
:1032E0003D40002180F83C10084670BD022070BDB2
:1032F000000001400004004000080040000C0040B5
:1033000000040140004001400018004010B50400D6
:1033100003D094F83D0010B107E0012010BD00205B
:1033200084F83C00204600F01FF8022084F83D009D
:10333000211D206802F030FC012084F8460084F84A
:103340003E0084F83F0084F8400084F8410084F88F
:10335000420084F8430084F8440084F8450084F86F
:103360003D00002010BD000008B501681E488142E4
:103370000FD11E48016841F0200101600068002261
:1033800000F02000009011463720FFF749FB37205E
:1033900024E01648164A001D91420ED1016841F4FE
:1033A000003101600068002200F4003000901146F6
:1033B0001920FFF735FB192010E00E4A914211D178
:1033C000016841F4802101600068002200F480203F
:1033D000009011461A20FFF723FB1A20BDE8084091
:1033E000FFF710BB08BD0000001400404038024049
:1033F000004401400048014090F83D10012901D0EF
:1034000001207047022180F83D100168CA6842F02F
:103410000102CA6000681149884214D0B0F1804F9F
:1034200011D00F4988420ED00E4988420BD00E4968
:10343000884208D00D49884205D00D49884202D003
:103440000C49884204D1816801F00701062903D0A4
:10345000016841F001010160002070470000014057
:103460000004004000080040000C0040000401403F
:10347000004001400018004070472DE9F04104462B
:103480000068C66805694FF00007A90713D5B107A2
:1034900011D5F91E0161012020772068806980071D
:1034A000204602D0FFF7E8FF04E000F07EF8204657
:1034B00000F07CF82777680716D5700714D52168C7
:1034C0006FF004000861022020772068806910F402
:1034D000407F204602D0FFF7CFFF04E000F065F800
:1034E000204600F063F82777280715D5300713D555
:1034F00021686FF008000861042020772068C06907
:103500008007204602D0FFF7B7FF04E000F04DF837
:10351000204600F04BF82777E80616D5F00614D5BC
:1035200021686FF010000861082020772068C069CA
:1035300010F4407F204602D0FFF79EFF04E000F029
:1035400034F8204600F032F82777E80708D0F00773
:1035500006D021686FF001000861204600F027F8CE
:10356000280608D5300606D521686FF0800008616E
:103570002046FFF781FE680608D5700606D521684B
:103580006FF040000861204600F012F8A8060AD546
:10359000B00608D521686FF0200008612046BDE81C
:1035A000F041FFF76ABEBDE8F08170477047704791
:1035B000704770B5040004D094F84100002510B1A4
:1035C00006E0012070BD84F84050204600F024F849
:1035D000242084F841002068C16821F40051C160B2
:1035E000204602F06DFB2068016921F490410161E1
:1035F0002068416921F02A0141612068C16841F4D5
:103600000051C1606564202084F8410084F84200C4
:103610006563002070BD0000F0B587B0044614213A
:103620006846FDF7D9F81949206888422CD1184816
:103630000024016841F480210160006800F48020CA
:10364000059013481038016841F0040101600068DA
:10365000022500F0040005904FF400600090CDE9D1
:10366000015407260B4FCDE9034669463846FEF75D
:103670006FF86802CDE900050320CDE902406946F4
:1036800004963846FEF764F807B0F0BD00480040E5
:1036900040380240000802402DE9F843044690F803
:1036A0004100984616460D46202802D00220BDE86B
:1036B000F88385B17EB100206064212084F8410048
:1036C000FEF74CF9A6848146E684A0682027B0F571
:1036D000805F02D003E00120E9E7206910B12E46A7
:1036E00000250EE000260CE08021204602F06EFB53
:1036F000A8B9C6B116F8010B21684860E08C401EDD
:10370000E084E08C4B464FF00002CDF800800028AA
:10371000EAD14FF04001204602F058FB40B184F856
:1037200041700320C3E735F8020BC0F30800E3E75C
:1037300084F841700020BAE72DE9F05F0546006883
:103740000E46074604F014FCC6EB061140074FF086
:1037500007084FF0040905EB810401D5484633E022
:103760003146286804F004FCC0054FF0080A08D56B
:1037700007EB46114FF48070C1F8080584F84DA09E
:1037800028E03146286804F0F3FB000705D507EB75
:103790004611C1F808A506200CE03146286804F05F
:1037A000E7FB400509D507EB46114FF48060C1F8EF
:1037B0000805092084F84D000CE03146286804F023
:1037C000D7FB00060AD5802007EB4611C1F8080593
:1037D00084F84D803146286804F01BF9314628688A
:1037E00004F0C6FB80052868314604D504F011F9C1
:1037F0004FF4007059E104F0BBFBC0074FF0200B01
:103800004FF0010A4FF000084ED007EB4617C7F8FB
:1038100008B5E07E012807D184F81B80D7F804059D
:1038200020F48030C7F80405A87930B1206BD7F8B0
:103830001015C1F31201401AA06384F84DA0C4F81A
:1038400044805246C7F808A594F8260030B10228F3
:1038500004D003280AD0012808D013E03146286894
:1038600004F0D7F81020C7F808050BE0D7F80005DA
:1038700040F00050C7F8000584F84C203146284637
:10388000FEF7F9F8A879012807D1208DA16B014432
:10389000491EB1FBF0F0C00704D014F83C0F80F0D3
:1038A00001002070BDE8F09F3146286804F060FBFD
:1038B00080060CD507EB4611C1F808B5A07E01289B
:1038C000F0D184F81BA0032084F84D00B4E0314609
:1038D000286804F04DFB80074FF0050B75D507EB0A
:1038E00046100221C0F8081594F84D20012A16D080
:1038F000062A19D0072A1CD0092A1AD0052A33D043
:10390000032A63D0042A7DD0082A7ED0022AC9D097
:1039100094F84C2031462846FEF7ADF8C2E784F80B
:103920004D1084F84CA0F3E784F84D1084F84CB0A7
:10393000EEE784F84D10626C521C6264022A10D9C2
:10394000C4F84480A27E4146012A07D1E17621775E
:10395000D0F8041521F48031C0F8041584F84C9097
:10396000D6E784F84C1022E084F84D10E27E012A5C
:10397000CED194F82620032AF3D1A26C521CA26463
:10398000022A11D9C4F8488084F81B80616C03298D
:1039900001D284F81CA0D0F8041521F48031C0F8BD
:1039A000041584F84C9002E084F84C10B0E794F8C9
:1039B000261009B10229ABD1D0F8001521F08041C1
:1039C00041F00041C0F80015A2E724E084F84D1052
:1039D000E27E012A9CD184F84C10D0F8041541F401
:1039E0008031C0F80415D0F80C1541F04001C0F842
:1039F0000C15D0F80C1521F02001C0F80C15D6E7F5
:103A000000E002E084F84D10ABE784F84D10606CE4
:103A1000401C6064A2E73146286804F0A9FA400619
:103A200010D507EB46114020C1F8080584F84DB0C9
:103A3000A07E08B9C4F8448031462868BDE8F05F2C
:103A400003F0E7BF3146286804F092FAC0067FF51C
:103A500065AF94F82600032803D028B1022803D0CC
:103A60000FE0C4F8448006E0C4F84480A87910B19F
:103A7000E07E012818D184F84D903146286803F083
:103A8000C8FFE07E01280FD107EB461084F81B80A9
:103A9000D0F8041521F48031C0F80415D0F80C15C5
:103AA00041F02001C0F80C15102007EB4611C1F8B9
:103AB0000805F7E62DE9F05F054600680F46064663
:103AC00004F056FAC7EB071140074FF0040A05EB64
:103AD000810405D506EB4711C1F808A5072089E048
:103AE0003946286804F044FA80064FF000084FF089
:103AF00001094FF0020B28D506EB47112020C1F831
:103B00000805607E0326012809D184F8198084F80D
:103B10004CB084F84D603946286803F07AFFA07EE7
:103B2000012810D1E07E00280DD194F8260001284C
:103B300001D084F81B9084F84D603946286803F062
:103B400068FFC4F84480BDE8F09F3946286804F057
:103B50000FFA800506D506EB47114FF40070C1F847
:103B6000080549E03946286804F002FAC00720D069
:103B7000C4F844803946286804F0FAF9400606D5AE
:103B800006EB471184F819904020C1F80805E07E43
:103B900048B106EB471084F81B80D0F8041521F4D7
:103BA0008031C0F8041506EB47114846C1F8089566
:103BB00020E03946286804F0DBF940060ED50520E0
:103BC00084F84D00A07E08B984F81990C4F84480A8
:103BD0003946286803F01DFF402028E03946286850
:103BE00004F0C6F900070DD506EB47110820C1F80F
:103BF0000805062084F84D0039462868BDE8F05FC6
:103C000003F007BF3946286804F0B2F9C00613D59F
:103C1000C4F8448084F84DA0607E18B9207E08B9AD
:103C200084F819903946286803F0F3FE102006EB5B
:103C30004711C1F8080586E73946286804F098F965
:103C400000061CD5A87970B1606C401C6064022825
:103C500011D9C4F84480524684F84CA0394628460D
:103C6000FDF709FF09E0072084F84D003946286870
:103C700003F0CFFE01E084F84CB08020D7E739464E
:103C8000286804F075F9400509D5092084F84D002D
:103C90003946286803F0BDFE4FF48060C7E7394617
:103CA000286804F065F98007C5D506EB4712584629
:103CB000C2F808B594F84D10012917D003293AD05D
:103CC00004293ED005294CD006294DD0072901D022
:103CD0000929B0D184F84D00616C491C6164022946
:103CE00048D9C4F8448084F84CA04DE084F84D00D5
:103CF00084F84C9094F82600022801D0032843D180
:103D0000A87928B994F83D0080F0010084F83D00BE
:103D1000A879012838D1606B10B3218D0844401E6A
:103D2000B0FBF1F0C0072FD094F83D0080F0010007
:103D300084F83D0028E084F84D00E17E012916D08A
:103D400022E084F84D0084F84C00E07E01281BD16D
:103D500084F81B80D2F8040520F48030C2F80405F2
:103D600012E084F84D0002E084F84D00052084F84C
:103D70004C0009E084F84C00D2F8000520F08040A7
:103D800040F00040C2F8000594F84C20394628461F
:103D9000FDF771FED7E67CB504680546D4F840040B
:103DA0000190D4F8400420F02E0000900198800784
:103DB00009D50198C00702D02846FDF7D5FD009827
:103DC00040F0020000900198000724D5009840F0D0
:103DD00008000090019840071AD5687A022803D09D
:103DE000E87901280CD00FE00198C0F34140022887
:103DF000286803D0012104F09FF805E00221FAE7CA
:103E00004EF66020C4F804042846FDF7ABFF02E03C
:103E10002846FDF7A3FF01988006009802D540F0E0
:103E200020000090C4F840047CBD2DE9F04102461A
:103E300000680646016AC1F3434301F00F07C1F36E
:103E40000A15022B2ED1002D2CD0C7EB071102EB47
:103E50008104E16A002925D0A26B636B2A449A424F
:103E600022D82A4604F090F8E06A2844E062A06B69
:103E70002844A06306EB4710D0F81015228DC1F33B
:103E8000C941AA420ED100290CD0D0F8001521F06A
:103E9000804141F00041C0F8001514F83C0F80F05B
:103EA00001002070BDE8F081042084F84C00F9E79F
:103EB000FEE700000148FDF78ABF0000B0010020C6
:103EC00038B5806B002190F83D202B4B46F2A814AA
:103ED0001B68B3FBF4F3C3EBC30303EB830300934F
:103EE0003BB15B1E009303681B689B0505D5009BD7
:103EF000F6E7036C43F020030364436B03B1D9631B
:103F0000836B03B1D96303681C6824F480641C606C
:103F10004185436B03B11965836B03B11965036870
:103F20001C6824F001041C6090F83D402023602CA4
:103F30000BD0282434EA02020FD080F83D3080F8FC
:103F40003E1000BFFEF75BF838BD80F83D3080F8CA
:103F50003E100164FDF739FF38BD0268136843F075
:103F6000010313600268136843F480631360016304
:103F700080F83D40E6E70000BC0000200068416991
:103F8000C943090601D400210161704770B5044698
:103F900090F83D0094F83E10102901D0402906D138
:103FA000222804D121680A6822F400620A602821CC
:103FB00031EA00024FF000054FF0200626D02168BC
:103FC0004968090505D4602803D084F83D6084F869
:103FD0003E50256320684168090537D5416821F4C2
:103FE00000614160606B90F835203C49012A11D096
:103FF0000165606BFDF716FB38B32068016821F09E
:104000000101016084F83D60606B1CE0256384F869
:104010003D10DFE7A06B0165A06BFDF703FBA0B1CE
:1040200020684169C943490605D40069616A08707E
:10403000606A401C60622068016821F00101016033
:1040400084F83D60A06B016D884710E094F83D1046
:10405000602910D04169C943490605D40069616AE5
:104060000870606A401C60622046FDF7C8FF206C43
:10407000C1071CD115E084F83D6025644169C9433E
:10408000490605D40069616A0870606A401C606274
:104090002068016821F0010101602046FDF795FECE
:1040A000E5E7810703D4410701D4000704D5206860
:1040B000416821F4E061416094F83D00216C4907BA
:1040C0000BD5282809D10648E062256384F83D60B5
:1040D00084F83E502046FEF757F870BDC13E0008F8
:1040E0000000FFFF01684A69D24352050FD46FF404
:1040F00080624A61002140F8301F202242738173A0
:10410000026942F00402026101730120704700203D
:10411000704710B5C26A438D0168042B06D0438DE9
:10412000032B08D0438D022B1DD012E04A6822F4E5
:1041300080624A600CE04B6823F480634B60042A81
:1041400006D0022A04D001680A6822F480620A605C
:1041500001680969426A1170416A491C4162418DD6
:10416000491E418510BD012A34D0102A32D0042ABC
:1041700034D0022A32D00B6843F400730B6001681C
:104180000969436A1970416A491C4162438D5B1E8B
:10419000438503681B690B70416A491C4162418D6C
:1041A000491E418501684B6823F440734B60202110
:1041B00080F83D1090F83E300021402B80F83E10F2
:1041C00010D0082A02D0202A00D012210163FDF766
:1041D000DCFF10BD0B6823F48063CFE70B6843F46A
:1041E0008063CBE70163FDF7D2FF10BD38B590F8CF
:1041F0003D10222910D1C36A418D03290DD90168D0
:104200000969426A1170416A491C4162418D491E27
:104210004185418D032906D038BDC26A022A02D0E9
:10422000012906D029B10068416821F4806141600C
:1042300038BD2A4A46F2A81400211268B2FBF4F2F3
:1042400002EB8202009202682024009D6D1E009500
:1042500026D01568AD05F8D4156825F4806515607D
:104260000268556825F4E065556002681269456A80
:104270002A70426A521C4262428D521E428580F868
:104280003D4090F83E2080F83E10402A21D0082B77
:1042900002D0202B00D012210163FDF776FF38BD3C
:1042A000036C43F020030364536823F4E06353601A
:1042B00002681269436A1A70426A521C4262428D55
:1042C000521E428580F83D4080F83E10FDF797FE73
:1042D00038BD0163FDF75BFF38BD0000BC00002066
:1042E00010B5C26A90F83D1021290BD1418D51B112
:1042F000416A026809781161416A491C4162418D35
:10430000491E418510BD20230021082A13D0202AF0
:1043100011D012F5803F0ED00268546824F4E06496
:1043200054601122026380F83E1080F83D3000BFD7
:10433000FDF72CFF10BD0268546824F4E06454605B
:104340000268146844F400741460016380F83D301E
:1043500090F83E2080F83E10402AE9D1FDF718FF82
:1043600010BD000010B590F83D1090F83E30C26AC4
:10437000048DB4B1212903D0402B11D122290FD1B2
:10438000418DE1B390F83E10402942D0416A026865
:1043900009781161416A491C4162418D491E41857C
:1043A00010BD2129E8D120230021082A13D0202A7A
:1043B00011D012F5803F0ED00268546824F4E064F6
:1043C00054601122026380F83E1080F83D3000BF37
:1043D000FDF7DCFE10BD0268546824F4E06454600C
:1043E0000268146844F400741460016380F83D307E
:1043F00090F83E2080F83E10402AE9D100E002E02B
:10440000FDF7C6FE10BD0068416821F4806141607F
:1044100010BDBDE8104000F0D3B8000078B590F8AA
:104420003E50C26A036B90F83D6000240168222E62
:104430007AD1066D0EB9402D76D0056D1DB905698E
:10444000B5F5404F09D0458D05B3468D384D012E49
:104450000ED0438D022B3AD05DE04A698A69009202
:104460000A6842F480720A60016D491C016578BDDA
:10447000AA4213D10A6822F480620A6001684A687D
:10448000120503D50A6822F4806216E04A698A6937
:1044900000920A6842F400720A6039E0082A10D0DB
:1044A000202A0ED0122B0AD0042A03D0022A01D0CF
:1044B000102AE7D10A6842F480620A6024E0012AE7
:1044C000E0D00A6822F480620A600168DEE7042A0C
:1044D00021D0022A1FD0102A1DD00B6823F480633C
:1044E0000B6001680B6843F400630B6001684B6864
:1044F0001B0509D5AA4212D0012A10D0082A0ED0D5
:10450000102A0CD0202A0AD001684A6989690091D2
:10451000046578BD08E00B6843F48063E5E74A680A
:1045200042F480524A60EFE7486988690090F0E7FA
:104530000000FFFF90F83E10402910D00169B1F54E
:10454000804F19D0016DA9B3016D012910D1416CC3
:104550005FF0F10201F4407142EAD11106E0016D11
:104560000029416C05D0C9B241F001010068016128
:10457000704701F0FE01F9E790F83D102129416CE8
:1045800009D0C9B241F0010102681161416B29B142
:10459000C96B49B902E001F0FE01F5E7816B002922
:1045A000E6D0C96B0029E3D00068416841F400619E
:1045B00041607047FFE7416CF02201F44071CBE7A6
:1045C00010B590F83D10026D4AB1026D012A14D069
:1045D000026D022A16D0BDE81040FFF7CFBCC16CB7
:1045E0000129816C02D0C1F3072108E00268C9B239
:1045F0001161016D891C016510BD816CC9B2026831
:10460000116123E022291CD0428D0AB1212920D03A
:10461000428D002AF0D12129EED101684A6822F4A6
:10462000E0624A6001680A6842F400720A60002190
:104630000163202280F83D2080F83E10FDF7A8FDA0
:1046400010BD01680A6842F480720A60016D491C5D
:10465000D1E7416A026809781161416A491C4162E7
:10466000418D491E418510BD2DE9F84F0446006873
:1046700089460B9D01689846174641F480610160A8
:104680002068016841F48071016000954FF0011BC2
:104690000022594620460A9B00F0B6F94FF4007AF2
:1046A00040B120680068C00501D5C4F840A00320CF
:1046B000BDE8F88F216809F0FE0008612B46284903
:1046C00020460A9A00F0E8F9F0BB20684169806949
:1046D00000902A4620460A9900F074FA40B1206CF6
:1046E00004283AD12068016841F40071016034E087
:1046F000FEB2B8F1010F09D02168380A08612A46D4
:1047000020460A9900F05EFA0028E8D12068066188
:104710002A4620460A9900F055FA0028DFD1206881
:10472000016841F4807101600095002259462046DD
:104730000A9B00F069F90028B3D1216809F0FF0055
:1047400040F00100086100E007E02B4604492046E4
:104750000A9A00F0A1F90028AAD00120A8E70000D9
:10476000020001002DE9F843044600680D46DDE92A
:10477000089701689846164641F4807101604B46DF
:1047800000224FF001112046009700F03DF948B19A
:1047900020680068C00502D54FF400702064032033
:1047A000BDE8F883216805F0FE0008613B464A46F3
:1047B0001549204600F070F988B920684169806980
:1047C00000903A464946204600F0FCF948B1206C7A
:1047D000042804D12068016841F4007101600120BF
:1047E000DEE7F5B2B8F1010F09D02168300A08619F
:1047F0003A464946204600F0E5F90028E7D120680E
:1048000005610020CCE700000200010038B50C462D
:1048100090F83D2000212825954302680B4605D0DD
:1048200051699169009180F83C3038BD556825F494
:1048300080655560E243540700D50121120601D579
:10484000828900E0028B80F83C3092B2FDF7BEFA1C
:1048500038BD0000F8B590F83D6004460068416836
:1048600021F4E06141602068002541690091016800
:1048700041F0010101602068016821F4806101605C
:1048800020684168090520D5474F222E48D02A2E9E
:1048900046D0616B096849686185618D19B1216CE9
:1048A00041F004012164416821F400614160606BC2
:1048B000FCF7CAFE012808D0606B0765606BFCF747
:1048C000B1FE10B1606B016D8847608D08B3206840
:1048D0004169C943490708D40069616A0870606A80
:1048E000401C6062608D401E608520684169C9433C
:1048F000490608D40069616A0870606A401C6062F9
:10490000608D401E6085608D18B1206C40F0040001
:104910002064206C00B32046BDE8F840FFF736BBAA
:10492000A16B096849686185618D19B1216C41F0FD
:1049300004012164416821F400614160A06BFCF72F
:1049400083FE0128C1D0A06B0765A06BFCF76AFE4F
:104950000028BAD0A06BB6E72A2E06D125632820FE
:1049600084F83D002046FDF7EDFD94F83D10202031
:1049700028290DD0216B222901D0222E07D12563B1
:1049800084F83D0084F83E502046FDF7DBFDF8BD7D
:104990000649E162256384F83D0084F83E502046D4
:1049A000FDF7F2FBF8BD0000C13E00080000FFFF6C
:1049B00070B516460D4604461EE02046FFF792FBF2
:1049C00008B1012070BD681C16D0FCF7C7FF801B22
:1049D000A84200D885B920684069C04340070BD57C
:1049E000002044F8300F20216173A073216941F049
:1049F000200121612073E4E720684069C04340073B
:104A0000DBD4002070BD00002DE9F0479846174622
:104A10000D460446C1F30746DDF820902AE000BFAA
:104A2000B8F1FF3F26D0FCF799FFA0EB0901414503
:104A300002D8B8F1000F1DD12068012E16D0806970
:104A400025EA00000004000C12D00020B84211D169
:104A5000002044F8300F20216173A073216941F0D8
:104A60002001216120730120BDE8F0874069E7E75C
:104A70000120EBE72068012E0AD0806925EA0000BA
:104A80000004000C06D00020B842C9D00020EBE79B
:104A90004069F3E70120F7E72DE9F047984616460D
:104AA0000D4604464FF000094FF0200AC1F30747B6
:104AB00023E020684069C043400515D420680168A0
:104AC00041F40071016021686FF480604861C4F8AE
:104AD000309084F83DA084F83E90216C41F00401B0
:104AE000216484F83C9021E0701C06D0FCF736FF6E
:104AF000A0EB0800B04203D816B1012F1FD021E06F
:104B00002068012F15D0806925EA00000004000C00
:104B100018D000BF44F8309F84F80DA084F80E90A0
:104B2000216941F02001216184F80C900120BDE849
:104B3000F087406925EA00000004000CEAD12068F3
:104B4000406901E02068806925EA00000004000C4B
:104B5000AFD1ECE72DE9F041002590460E46044622
:104B6000202728E04069C043C0060CD454F8301B0D
:104B70006FF01000486144F810596777A577206AF4
:104B80002062257714E0FCF7E9FEA0EB0800B042B4
:104B900000D886B920684069C04340060BD544F868
:104BA000305F6773A573206940F020002061257392
:104BB0000120BDE8F08120684169C9434906D1D48C
:104BC0000020F6E770B516460D4604461EE0204666
:104BD000FFF788FA08B1012070BD681C16D0FCF7F9
:104BE000BDFE801BA84200D885B920684069C0433B
:104BF00000060BD5002044F8300F20216173A0730C
:104C0000216941F0200121612073E4E720684069B7
:104C1000C0430006DBD4002070BD000070B515490C
:104C20000268154B4FF040248A4201D11A4600E039
:104C30002246D568C26A961CC6621580428E521EF4
:104C40004286428E002A14D102688A4201D1194656
:104C500000E02146496821F0600100D023465960F8
:104C6000418D002905D14FF0010180F84110FDF779
:104C700065FD70BD003800400034004070B5416AE9
:104C8000144B8A1C426205680988134A4FF040247D
:104C90009D4201D1154600E02546E960418D491E3F
:104CA0004185418D002914D10168994201D11146F5
:104CB00000E02146496821F0A00100D02246516061
:104CC000418E002905D14FF0010180F84110FDF718
:104CD00035FD70BD00380040003400407CB50168EF
:104CE00004468868009094F841000125042834D1D6
:104CF0000098C00718D04868C043400614D4C9685B
:104D00002046E26A1180E16A891CE162618E491ED7
:104D10006186618E41B901684A6822F060024A608A
:104D200080F84150FDF70CFE0098400615D520682C
:104D30004168C943890610D4416821F0600141608F
:104D40002068C1688068019084F84150606C40F030
:104D5000020060642046FDF7F2FC94F8410003284D
:104D600034D10098800719D521684868C0430006EF
:104D700014D4626A20461288CA60616A891C616222
:104D8000618D491E6185618D41B901684A6822F0D3
:104D9000A0024A6080F84150FDF7D3FD009800075B
:104DA00014D520684168C94389060FD4416821F0B1
:104DB000A001416020688068009084F84150606CD8
:104DC00040F0040060642046FDF7B9FC7CBD70B57E
:104DD00004462DED108B82B0B0EE429AF0EE629A4E
:104DE000B0EE40FAF0EE60FA90ED08EB51EC110BEA
:104DF00053EC1E2B04F0BEFE41EC100B51EC190BD2
:104E000053EC102B04F0AAFC94ED061B53EC112B71
:104E100004F0F6F994ED10DB41EC1A0B53EC1D2B6A
:104E200051EC190B04F09AFC0E4646EC100B94ED75
:104E30000CCB054653EC1C2B51EC100B04F09AFEE6
:104E400094ED0EBB53EC1B2B04F094FE94ED001B71
:104E500053EC112B04F0D4F953EC192B04F07EFC25
:104E600094ED0A1B53EC112B04F0CAF946EC105BCD
:104E700041EC180B53EC1C2B51EC100B04F0A2FD71
:104E800046EC105B41EC1C0B53EC1B2B51EC100B54
:104E900004F098FD94ED020B41EC1B0B53EC192B25
:104EA00051EC100B04F05AFC53EC1D2B04F0A8F944
:104EB00041EC100B51EC180B8DED000B94ED040B35
:104EC00053EC102B04F09CF941EC190B51EC180B2E
:104ED00053EC192B04F048FA41EC1D0B53EC192B41
:104EE00051EC1B0B04F040FA41EC190B53EC1A2B5C
:104EF00051EC1F0B04F03EFE41EC1F0B51EC1D0B5F
:104F000053EC1F2B04F02AFC53EC1A2B04F078F915
:104F100041EC1A0B53EC1F2B84ED06AB51EC190B33
:104F200004F01CFC53EC1E2B04F06AF9C4E90801E0
:104F300053EC182B51EC1D0B04F010FC53EC182B08
:104F400004F040FDC4E90A0153EC1C2B51EC1D0B8D
:104F500004F004FC53EC1C2B04F034FDC4E90C01F8
:104F600053EC182B51EC190B04F0F8FB53EC1B2BF2
:104F700004F028FDC4E90E0153EC1C2B51EC190B75
:104F800004F0ECFB9DED000B53EC102B04F01AFD2C
:104F9000C4E9100102B0B0EE4A0AF0EE6A0ABDECB4
:104FA000108B70BD04480178002903D101210170E4
:104FB000FCF7B6B870470000CC0000204FF0D0419D
:104FC000C0B208804888704710B500224FF0D04426
:104FD00004E000BF30F8023B6380921C8A42F9D3A0
:104FE00010BD4FF0D041088070472DE9F04186B0E8
:104FF00080460124642504A88DE8310023467522EB
:10500000D0214046FDF7C6F89DF81000682803D06F
:10501000012006B0BDE8F081002703AE8DF80C70CA
:10502000009601236B22D0214046CDE90145FDF7D2
:10503000B3F907208DF80C00009601231922D02126
:105040004046CDE90145FDF7A7F98DF80C400096E3
:1050500001231C22D0214046CDE90145FDF79CF9F2
:105060008DF80C70009601231B22D0214046CDE91B
:105070000145FDF791F90020CBE700002DE9F0474D
:105080000C462DED0C8B88B09FED9A9B9FED9BDB22
:105090009FED9CBB9FED9DAB64230E2203A98DE881
:1050A0000E0001233B22D021FDF774F8BDF80C005F
:1050B00040BA00B22080BDF80E1049BA0EB2668028
:1050C000BDF8101049BA0DB2A580BDF8121049BA4A
:1050D0000FFA81FABDF8141049BA0FB22784BDF84F
:1050E000161049BA09B261848946BDF8181049BA48
:1050F00009B2A184884604F0CBFA9FED868B53EC6D
:10510000182B04F02BFBC4E90201304604F0C0FA6E
:1051100053EC182B04F022FBC4E90401284604F0E8
:10512000B7FA9FED7E1B53EC112B04F01DF900EE36
:1051300010AAB8EEC00A9FED7B1AC0EE010A9FEDDF
:105140007A0AC4E90601384630EE800A84ED100A76
:1051500004F09EFA9FED758B53EC182B04F004F9C4
:10516000C4E90A01484604F093FA53EC182B04F002
:10517000FBF8C4E90C01404604F08AFA53EC182B02
:1051800004F0F2F8C4E90E01FCF7E8FB694D296868
:10519000401A04F094FA9FED681B53EC112B04F0B5
:1051A000E3F841EC1C0BFCF7D9FB2860208810FBCE
:1051B00000F1A08810FB001004F06AFA41EC100B1B
:1051C00003F044FAB0EE408AF0EE608A53EC192BFB
:1051D00051EC180B04F020FA13D0B4F9020004F0DB
:1051E00057FA53EC182B04F0BFF841EC100B02F007
:1051F000B7FF53EC1D2B51EC100B04F0AFFA41EC50
:10520000190BB4F9040004F043FA41EC180BB4F99B
:105210000000404204F03CFA41EC100BB0EE481A9A
:10522000F0EE681A03F008F953EC1D2B51EC100B4B
:1052300004F094FA41EC180B53EC1B2B04F052FAD7
:1052400008D294ED140B53EC1A2B51EC100B04F014
:1052500083FB0FD353EC1A2B51EC180B04F07CFB9F
:1052600011D294ED140B53EC1B2B51EC100B04F0EA
:1052700039FA08D22F48503080ED068B84ED148B1C
:1052800094ED140B0FE02B4894ED0C1BB0EE4C2A60
:10529000F0EE6C2AB0EE480AF0EE680A5030FFF7E4
:1052A00096FD84ED140B03F0C7F953EC1A2B51EC67
:1052B000100B04F051FB07D294ED0A0B51EC100BCC
:1052C00003F092FFC4E90A011A4894ED0A1BB0EEFC
:1052D0004C2AF0EE6C2AB0EE490AF0EE690A08306A
:1052E000FFF775FD84ED120B08B0BDEC0C8BBDE82B
:1052F000F08700000000000000000000F8C1631A01
:10530000DCA54C4000000000008056C000000000FA
:1053100000805640000000000000103F0000000028
:105320000029CC400000AA43B81E12420000000031
:1053300000606040000000200000000000408F403E
:105340007FB50024154800940194029412490394F7
:1053500001604FF48031C0E9011401250461057634
:1053600080F820400E49C0E90A14C561C46080F885
:1053700030404561FCF77CF808B172B6FEE70820C2
:10538000CDE90005694602940448FBF7CBFF0028ED
:1053900001D072B6FEE77FBD002201406801002007
:1053A0000100000F20B1002220210248FCF7D0BAF2
:1053B0000122F9E7001C024010B504490448FBF73C
:1053C0008BFE0249491E087010BD0000310100200B
:1053D00024B8000800B587B01C216846FBF7FCF92B
:1053E00016484FF020414FF480520160144941604B
:1053F00000218160C160016141618161C16101621F
:10540000C0E90912C16201634163816341640F20F5
:10541000FF220090CDE9010203901020049011209A
:10542000CDE90501002269460448FDF7E1FE0028A8
:1054300001D072B6FEE707B000BD00006C0300208B
:10544000040100A02DE9F04F87B014216846FBF756
:10545000C3F9E8480024016841F0100101600168C7
:1054600001F010010591016841F00201016001683D
:1054700001F002010591016841F0400101600168FD
:1054800001F040010591016841F0080101600168E7
:1054900001F008010591016841F004010160016813
:1054A00001F004010591016841F00101016001680A
:1054B00001F001010591016841F48071016001680A
:1054C00001F480710591016841F08001016001687B
:1054D00001F080010591016841F020010160006840
:1054E000002200F0200005904FF48A51C248FCF7DA
:1054F0002FFA00224FF40071C048FCF729FA00226D
:1055000048F22001BE48FCF723FA00228021BD4862
:10551000FCF71EFA00228021BB48FCF719FA4FF471
:1055200080790225CDF80090CDE901540B20CDE91A
:1055300003406946B548FCF70BF943F62340CDE933
:1055400000050320CDE902400A2669460496AF48CB
:10555000FCF7FEF84FF4D0400090CDE901540B2049
:10556000CDE903406946A448FCF7F2F84FF498509F
:10557000CDE900050320CDE902404FF00C0B694650
:10558000CDF810B09F48FCF7E3F8A80300904FF463
:105590000410CDE9010469469748FCF7D9F84FF4A7
:1055A0008A5000900120CDE9010469469248039495
:1055B000FCF7CEF8F0200090CDE901540D27CDE99D
:1055C000034769468D48FCF7C3F84FF004084FF4D1
:1055D000901ACDF80080CDE901A469468748FCF710
:1055E000B7F8280200900120CDE9010469468348FC
:1055F0000394FCF7ADF80320CDE90240CDE9008526
:105600006946CDF810B08248FCF7A2F848F22000B5
:1056100000900120CDE90104694679480394FCF724
:1056200097F868020090CDE901540B20CDE90340C2
:1056300069467248FCF78CF8A802CDE90005032002
:10564000CDE90240694604966C48FCF781F82803CE
:10565000CDE900040120029069466948FCF778F81A
:105660004FF4BE400090CDE90154CDE903476946AF
:105670006348FCF76DF8CC200090CDE901540B2075
:10568000CDE9034069465E48FCF762F8CDF800902A
:10569000CDE90154039469465E480494FCF758F838
:1056A0004FF080090120CDF80090CDE90104694652
:1056B00054480394FCF74CF803204FF0100BCDE94D
:1056C0000240CDE900B5694604964D48FCF740F824
:1056D000CDF80090CDE901540820CDE9034069469A
:1056E0004548FCF735F80120CDF80090CDE90104DC
:1056F000694645480394FCF72BF84FF04009CDE983
:105700000094694640480294FCF722F80120CDE954
:1057100000050320CDE90240694604963948FCF7AC
:1057200017F83E200090CDE901540B20CDE903404D
:1057300069463448FCF70CF8CDE9008469463348E3
:105740000294FCF705F886200090CDE901540B2067
:10575000CDE9034069462F48FBF7FAFF012000908E
:105760004FF44410CDE9010469462A48FBF7F0FFE5
:105770000320CDF800B0CDE9010469462548FBF7C8
:10578000E7FFCDF80090CDE90154CDE90347694624
:105790002048FBF7DDFF2820CDE900050320CDE9F7
:1057A0000240694604961B48FBF7D2FFA802CDE9E8
:1057B000000A694602941448FBF7CAFF6803CDE962
:1057C000000A694602941148FBF7C2FF0022114605
:1057D0000620FDF725F90620FDF714F900221146F1
:1057E0002820FDF71DF92820FDF70CF907B0BDE8CA
:1057F000F08F0000303802400018024000200240C4
:10580000001C024000080240001402400004024054
:10581000000C02400000024010B501220B490C4868
:1058200000F0EBFD08B1FBF755FC0A49084801F010
:105830002DFF08B1FBF74EFC054801F06AFF002878
:1058400003D0BDE81040FBF745BC10BD2977000828
:10585000A406002038010020014801F0F9BD000035
:10586000A4060020FEE7FEE70148FCF753B900005C
:105870007C0A002070477047FDF768B870B592B099
:1058800030216846FAF7A8FF14210CA8FAF7A4FF04
:1058900020480025016841F080510160006800F057
:1058A000805011901C48016841F4804101600068FB
:1058B000022400F48040119001200090000406941E
:1058C000860101901920CDE907604FF4A870CDE959
:1058D000090407200B906846FDF7D4FA08B172B6A8
:1058E000FEE70CA90F2081E831004FF4A0500F9083
:1058F0004FF48050109005210CA8FDF791F908B1E4
:1059000072B6FEE7002231461046FDF775FA12B076
:1059100070BD00004038024000700040024801683D
:1059200041F470010160704788ED00E010B503F0AC
:1059300045FB03F0F9FABDE810400148FDF79DBDB5
:10594000DC02002070B5504D2DED028B28789FEDC4
:105950004F8B504C012869D194ED140B9FED4E1BD9
:1059600051EC100B53EC112B03F0F6FF0DD294ED1C
:10597000140B53EC182B51EC100B03F0B3FE04D2B4
:1059800000210222084603F0F7FB94ED140B53ECC0
:10599000182B51EC100B03F0DFFF0FD294ED140B1A
:1059A0009FED3F1B51EC100B53EC112B03F09AFEB3
:1059B00004D200210622084603F0DEFB94ED140B0E
:1059C0009FED391B51EC100B53EC112B03F0C4FF6E
:1059D00010D294ED140B9FED361B51EC100B53ECD1
:1059E000112B03F07FFE05D200216FF0050208465F
:1059F00003F0C2FB94ED140B9FED2F1B51EC100B29
:105A000053EC112B03F0A8FF10D294ED140B9FED73
:105A10002C1B51EC100B53EC112B03F063FE05D241
:105A200000216FF00102084603F0A6FB2878264CFF
:105A30006FF0020602280ED12068012802D0401C17
:105A400004D019E000221146304602E0002211463F
:105A5000032003F091FB287803280DD1606801280A
:105A600002D0401C03D007E00022032101E0002205
:105A70003146002003F080FBBDEC028B1348BDE8EB
:105A80007040FDF7FABC0000980000200000000004
:105A900000005440C00300200000000000003E4011
:105AA0000000000000C0674000000000002067C048
:105AB00000000000000044C000000000000049C0D9
:105AC00000000000000034C05801002094020020B3
:105AD0002DE9F04129492A48FFF7D0FA03F0E8FA06
