:020000040800F2
:10000000289F012091020008BB500008F13F000822
:10001000B9500008D9190008275500080000000051
:10002000000000000000000000000000BF500008B9
:10003000991A000800000000BD500008C1500008D7
:10004000AB020008AB020008AB020008AB020008DC
:10005000AB020008AB020008351E0008AB02000826
:10006000AB020008AB020008AB020008AB020008BC
:10007000AB020008AB020008DD190008E91900080E
:10008000AB020008AB020008AB020008AB0200089C
:10009000AB020008AB020008AB020008AB0200088C
:1000A000AB020008AB020008AB020008AB0200087C
:1000B000AB020008AB020008AB020008AB0200086C
:1000C000AB020008AB020008AB020008AB0200085C
:1000D000AB020008AB020008AB020008AB0200084C
:1000E000791E0008AB020008AB020008AB02000852
:1000F000AB020008AB020008AB020008AB0200082C
:10010000AB020008AB020008AB020008AB0200081B
:10011000AB020008AB020008AB0200086D510008FA
:10012000AB020008AB020008AB020008AB020008FB
:10013000AB020008AB020008AB020008AB020008EB
:10014000AB020008AB020008AB020008AB020008DB
:10015000AB020008AB020008AB020008AB020008CB
:10016000AB020008AB020008AB020008AB020008BB
:10017000AB020008AB020008AB0200080000000060
:10018000AB020008AB02000800F002F800F070F8C3
:100190000AA090E8000C82448344AAF10107DA45E2
:1001A00001D100F065F8AFF2090EBAE80F0013F0C4
:1001B000010F18BFFB1A43F001031847988D000088
:1001C000C88D00000A444FF0000C10F8013B13F0FA
:1001D000070408BF10F8014B1D1108BF10F8015BA0
:1001E000641E05D010F8016B641E01F8016BF9D193
:1001F00013F0080F1EBF10F8014BAD1C0C1B09D1EA
:100200006D1E58BF01F801CBFAD505E014F8016B5B
:1002100001F8016B6D1EF9D59142D6D370470000ED
:100220000023002400250026103A28BF78C1FBD8FF
:10023000520728BF30C148BF0B607047662907F0DE
:100240007580732900F02385002070471FB507F0E3
:1002500032F89DE8030000F093FA00F021FD04005D
:100260000020002106F0BEF9E0601FBD10B510BDF2
:1002700000F038FE1146FFF7E9FF05F04BFF00F0F4
:1002800056FE03B4FFF7F2FF03BC00F0C7FE000008
:100290000948804709480047FEE7FEE7FEE7FEE71A
:1002A000FEE7FEE7FEE7FEE7FEE7FEE70448054956
:1002B000054A064B704700005D510008890100089F
:1002C00028FF0020289F0120284F0120284F0120CF
:1002D00070B5064600F038FA056806F10B0020F00C
:1002E0000704B4429CBF002070BD2B466A68BAB1B7
:1002F0001068A04210D304F1080188423CBF506846
:10030000586007D35168101941601168091B0160DA
:1003100058601460101D70BD13465268002AE7D162
:100320002146284600F018FA0028DED170BD70B5CD
:100330000446051F00F008FA0068002C14BF44684A
:1003400070BD002C18BFAC423CBF20466468F8D397
:1003500001680A18AA4218BF456003D12A680546F9
:100360001144016028684119A1421CBF6C6070BD36
:100370006168696021680844286070BD53EA020C16
:1003800000F069802DE9F04B4FF00006002B1FBFF5
:10039000B3FA83F503FA05F424FA05F65E4012BFBA
:1003A0001643B2FA82F502FA05F4C5F120051EBF24
:1003B00022FA05FC44EA0C04203556EA044C4FEAC4
:1003C000144418BF641C4FF000084FF0000990421D
:1003D00071EB030C39D3002919BFB1FA81F701FA87
:1003E00007F6B0FA80F700FA07F6C7F120071EBF3C
:1003F00020FA07FC46EA0C062037B6FBF4FCA7EB14
:100400000507103F07F01F0BCBF120060CFA0BFB82
:100410002CFA06F644BFB3460026202FA4BF5E4642
:100420004FF0000B5BEA060C08BF4FF0010B19EB15
:100430000B09ABFB027C48EB0608C01B06FB02CC99
:100440000BFB03CC71EB0C01C1E70B4602464146A6
:100450004846BDE8F08B13B54FF000004FF00001A7
:10046000AFF30080BDE81C40704700000FB41CB51E
:10047000074B06AA7B4469460090059800F0D5FB1F
:100480000020694600F0E4FB1CBC5DF814FB000092
:10049000D90700000FB41CB50C0007AA009001D0CA
:1004A0002044401E074B7B4469460190069800F0AB
:1004B000BCFB002C03D06946002000F0C9FB1CBC2B
:1004C0005DF814FBB107000070B50C460546012A23
:1004D00005D02878800600D5EA69002302E00123D0
:1004E00005E05B1C934202D2E05C0028F9D1A869C8
:1004F000E618C01AA861286A184428622846AFF393
:10050000008004E0D5E9012114F8010B9047B442C2
:10051000F8D32846AFF3008070BD00002DE9F05FEE
:10052000894604464FF0000ADFF824B1FB44C0F8C6
:1005300020A02046E168884700287DD0252806D0E5
:10054000D4E901219047206A401C2062F1E7002590
:100550005F462046E16888472028064607DB312EA3
:1005600005D2B81910F8200C08B10543F1E7A80727
:1005700001D525F00405C4F81CA00027C4F818A074
:100580002A2E09D0304605F097FB38B304EB8708D4
:10059000303EC8F8186019E059F8041B204604EBF7
:1005A00087029161E1688847012F064618D1E0690A
:1005B000002820DA25F020051DE0D8F8180000EB0F
:1005C000800006EB40003038C8F818002046E1688B
:1005D0008847064605F070FB0028EED1012F0AD0AF
:1005E0002E2E08D12046E16888477F1C0646022F40
:1005F00045F02005C4DBA069002803DA404245F03D
:100600000105A061E80701D025F01005A6B1A6F10B
:100610004100192802D8203645F400654A46314683
:10062000204625604D46FFF709FE60B1012807D03E
:10063000ED1D25F0070000E007E000F1080978E76C
:1006400005F1040975E730467AE7206ABDE8F09FB6
:10065000D888000040EA0103024630B59B0710D15C
:100660004FF0013400E008C208C91D1B9D4315EA84
:10067000C41FF8D013F0FF0102F8011B0DD01B0AB4
:10068000F8E711F8013B002B02F8013B05D011F807
:10069000013B002B02F8013BF3D130BD10B5431CE8
:1006A00002E010F8011B71B18107FAD14FF001325D
:1006B00002C88C1A8C4314EAC211F9D0C01A0A0677
:1006C00003D0C01E10BDC01A10BD0A0401D0801E88
:1006D00010BD0902FCD0401E10BD421E12F8013FA1
:1006E000002BFBD111F8013B002B02F8013BF9D1A3
:1006F00070474FF0000200B51346944696462039E5
:1007000022BFA0E80C50A0E80C50B1F12001BFF4CA
:10071000F7AF090728BFA0E80C5048BF0CC05DF830
:1007200004EB890028BF40F8042B08BF704748BF7E
:1007300020F8022B11F0804F18BF00F8012B7047F2
:1007400070477047704700000048704704C7012099
:10075000704770477047704738B504460A46002016
:100760006946AFF30080002808BF38BD02460099F3
:10077000204600F09DFA012038BD012000F0AABB00
:10078000F8B5AFF30080054600200C46102000BFEE
:100790000646A819A0420DD9324669460020AFF39B
:1007A0000080070008BF00F095FB0098A04218BF2A
:1007B0000546C419FFF7C8FF05600746F01D20F085
:1007C00007004619284600F00AF8B44208BFF8BDF1
:1007D000A21B31463868BDE8F84000F069BA002134
:1007E0000160C0E9011070471020704710B500F09B
:1007F0005BFA006810BD10B5044600F055FA0460BD
:1008000010BD70472DE9FF4F0C461E464FF0FF37D5
:100810008BB0D2E90001DDF860800A908A46C1F30E
:100820000A5505B93D46002108464FF00000BAF1CF
:10083000000F00F4400005DA00EB80004FF44001A7
:1008400001EA50004FEA9059B9F1010F00DDB946B5
:100850000A9850EA4A000ED044F61050A5F2FF352F
:1008600045432F14B8F1000F1ED07542291E1EDD1E
:10087000C9F100021CE0B8F1010F4FF0000001D0F7
:10088000302103E0F24305E02154401CB042FBDB81
:1008900030460022002121540B99C1F80880C1E99B
:1008A00000200FB0BDE8F08FBD1B6D1CDEE74A468F
:1008B00000DA694206A800F09BFA06AB93E807004D
:1008C00003AB83E8070050460A9900F0CDFB8DE8A2
:1008D0000700A0F500501F3800900398002D0ADD96
:1008E00042F21F014A460844002303A903906846C8
:1008F00000F036FE09E0A0F500504A461F380023FC
:1009000003A90390684600F040FE8DE8070000044C
:10091000000C03D04FF0FF30410800E01046B8F162
:10092000000F03D00022009215461EE0751E05D46C
:1009300000F0D8F9303262556D1EF9D5B346012268
:10094000084302D000227F1C04E02078302801D127
:1009500000227F1E002A099784D01DE0112D07DA9E
:1009600000F0C0F9303262556D1C50EA0102F5D139
:10097000084302D00098C8B10EE00021681E05E0CF
:10098000235C625C63542254401E491C8142F7DBA5
:10099000AB46A81B401E0990002004F80B000B98E2
:1009A000099AC0F80880C0E9002B7AE711264FF0B9
:1009B000000857E72DE9F04F88460446D21D22F083
:1009C000070191B0D1E90001CDE90A0104F0ACFDC5
:1009D00002460B98C00F01D02D2007E02068810748
:1009E00001D52B2002E0202101EAC000032A099052
:1009F00001D0072A05DB03464146204600F0B8F93E
:100A00000BE12078800601D5E06900E00620B8F10E
:100A1000650F814606D0B8F1660F18D0B8F1670FA0
:100A200070D131E00020B9F1110F009001DB1123EA
:100A300001E009F101030AAA01A90CA8FFF7E2FEEF
:100A4000DDE90C70002609F10105834647E001202D
:100A50004B4600904FF000470AAA01A90CA8FFF7E7
:100A6000D1FEDDE90DB00C995D46002610B909F103
:100A700001000D18B9EB050003D4C0F1FF3609F1F0
:100A80000105A5EB09002BE0B9F1010F01DA4FF0E8
:100A900001090020B9F1110F0090484601DD112332
:100AA00000E003460AAA01A90CA8FFF7ABFEDDE9A6
:100AB0000C704D4600268346207800070AD4AB45CB
:100AC00000DA5D4601A8012D04DD411911F8011C71
:100AD000302907D04F4502DA17F1040F04DA01205C
:100AE00082460FE06D1EEEE7002F02DCED1B3E4458
:100AF00003E0781CA84200DD7D1CB81B00F1010A50
:100B00004FF000472078000703D4AA4501DB4FF0DF
:100B1000FF3A0021B7F1004F0DF143088DF8431063
:100B200024D002202B23002F01DA7F422D230A211B
:100B3000021EA0F1010000DC5FB197FBF1FC97FB06
:100B4000F1F201FB1C7C17460CF1300C08F801CDCA
:100B5000EEE7A8F1010003702188090501D54521C0
:100B600000E06521A0F1010800F8011C09980FA917
:100B7000A1EB0807FF1D00B10120411901EBEA704C
:100B8000A1693844081A401EA0612078C00602D42A
:100B90002046AFF30080099828B1D4E9012190479D
:100BA000206A401C20622078C00622D52046AFF380
:100BB00000801EE0002E04DBB34502DD01A8805D4D
:100BC00000E03020D4E901219047206A401C2062D7
:100BD000761CAAF101005FEA000A0AD100F060F871
:100BE000C0680168405CD4E901219047206A401C3C
:100BF0002062281EA5F10105DCDC07E0D4E9012113
:100C000018F8010B9047206A401C2062381EA7F19B
:100C10000107F3DC2046AFF30080032011B041E66A
:100C200001694A1C02610878704700B58FB0CDE9B0
:100C300001310021059105497944CDE903101146A0
:100C40006846FFF76BFC0FB000BD0000E5FFFFFF3B
:100C50000A6802F8010B0A607047D1E900239A4242
:100C600002D2531C0B601070704710B5436913B16A
:100C7000AFF3008001E0FFF727FC012010BD1278E0
:100C800000F124010A7000224A700122EDE7116888
:100C90004FF0FF32E9E7000000487047FCC6012032
:100CA000004870471CC7012000487047FCC601205F
:100CB000034640688C46002818BF88423CBF034664
:100CC0004068F8D318681844884207D00CF1030034
:100CD00020F00700001D411A521A0146081D0A6043
:100CE000FFF725BB30B5B0F10A024FEA900E71F163
:100CF00000034EEA817EB0EB0E0061EB91014FEAFA
:100D0000101E4EEA017E10EB0E0041EB11114FEA6E
:100D1000102E4EEA016E10EB0E0041EB11214FEA4E
:100D2000104E4EEA014E10EB0E0041EB11414018FF
:100D300041F100014FEAD00040EA41704FEAD10191
:100D400010EB80054FEA810444EA907444EB0104FF
:100D50006D1944EB0404521BA3414FF0000348BF3C
:100D60000A3200D530BD401C41F1000130BD000009
:100D70002DE9F0411F46044603260168072A01F4C5
:100D8000006004DB08B116A505E016A503E008B174
:100D900015A500E015A521F010002060A069C01E77
:100DA000A0610FB1401EA0612046AFF300804FB19B
:100DB000D4E9012138469047206A401C2062C01CBB
:100DC000206206E0206AFAE7D4E9012115F8010B58
:100DD0009047761EF8D22046AFF30080BDE8F08140
:100DE0004E414E006E616E00494E4600696E6600CF
:100DF0002DE9F047814616468AB0354878440DC83B
:100E00008DE80D0032487844801C03AC0DC884E89E
:100E10000D0041F69B300844372190FBF1F290FB26
:100E2000F1F5A5F1800501FB12041B3C02D56442DB
:100E3000012000E00020DFF898A080460027FA4457
:100E4000AAF1BE0A0EE0E0070AD03246684607EB78
:100E5000470101230AEB810100F097FB8DE80700B1
:100E600064107F1C002CEED1194F7F44AE3F19E077
:100E7000E80715D007EB04100DF1180A90E80E00F2
:100E80008AE80E00C068F04201D1981908903246F5
:100E9000012306A903A800F078FB03AB83E8070051
:100EA0006D10641C002DE3D14FF0010332466946FA
:100EB000B8F1000F03A802D000F052FB01E000F0EF
:100EC00064FBC9E90001C9F808200AB0BDE8F08751
:100ED0003C81000010B500F039F8BDE8104000F08A
:100EE0002FB870477546FFF7D7FEAE460500694636
:100EF000534620F00700854618B020B5FFF7D6F915
:100F0000BDE820404FF000064FF000074FF000080A
:100F10004FF0000B21F00701AC46ACE8C009ACE88B
:100F2000C009ACE8C009ACE8C0098D46704710B5EF
:100F30000446AFF300802046BDE81040FFF7A1B99A
:100F4000002801D000F06AB87047000010B50128F1
:100F500005D0002103A000F067F8012010BD09A111
:100F6000F8E7000053494752544D454D3A204F751C
:100F700074206F662068656170206D656D6F727991
:100F8000000000003A2048656170206D656D6F7249
:100F90007920636F72727570746564004FF0013C64
:100FA00050F8042B51F8043B9A4221D1A2EB0C03D8
:100FB000934313EACC1317D150F8042B51F8043B98
:100FC0009A4215D1A2EB0C03934313EACC130BD135
:100FD00050F8042B51F8043B9A4209D1A2EB0C03C0
:100FE000934313EACC13DBD04FF00000704700BFEF
:100FF000D01A01BAB1FA81F101F0180122FA01F018
:10100000CB40C1F12001DBB2C0B2C01A2CFA01F30F
:10101000D11A914311EAC311E6D170470149182052
:10102000ABBEFEE72600020070B505460C460A205E
:1010300000E06D1C00F011F835B128780028F8D1D7
:1010400002E0641C00F009F814B120780028F8D1FF
:10105000BDE870400A20AFF3008008B569468DF8FE
:1010600000000320ABBE08BD5FEA400C08BF91F052
:10107000000F4FEA8C234FEAC12243EA51514FEA55
:101080001C5018BF00F5F0404FEA300018BF41F087
:1010900000415FEA6C5C00F02980BCF1FF3F08BFB3
:1010A00040F080407047130C06BF12044FF0100C44
:1010B0004FF0000C130E04BF12020CF1080C130FBA
:1010C00004BF12010CF1040C930F04BF92000CF149
:1010D000020CD30F04BF52000CF1010C11464FF06B
:1010E0000002A0F11F00A0EB0C00704711F0004FB0
:1010F00008BF704731F000413FF4D5AF0B0C06BF7D
:1011000009044FF0100C4FF0000C0B0E04BF090245
:101110000CF1080C0B0F04BF09010CF1040C8B0F30
:1011200004BF89000CF1020CCB0F04BF49000CF185
:10113000010CCCF12003A0EB0C0022FA03F302FA1D
:101140000CF241EA030100F10100704720F07F4CEE
:1011500080EA030023F07F47ACEB070303F57C53E1
:1011600000F0004003F1FF032DE980494FEA154BE1
:1011700009B44FEA144325EA0B4E24EA03480FF260
:10118000042606EB132749083E785FEA320203FB88
:101190000667C7F5000707FB06F64FEA54374FEA24
:1011A000D64606F1020607FB066CCCF1005C4FEA5E
:1011B0001C472CEA074C07FB06F40CFB06F504EB76
:1011C00015464FEA961634BF00204FF000404FEA14
:1011D000D13706FB07FC4FEA1C4C0CFB0BF7D21B6C
:1011E00003FB0CF761EB07010CFB0EF7B0EB0740BC
:1011F00072EB17420CFB08F734BFA2EB0742B2EBCD
:10120000074261EB17414FEA0C444FEA910706FB96
:1012100007FC4FEA1C4C0CFB0BF7B0EBC74072EB22
:10122000573203FB0CF734BFA2EBC742B2EBC74205
:1012300061EB57310CFB0EF7B0EBC70072EB577246
:101240000CFB08F734BFA2EBC702B2EBC70261EB9D
:101250005771039F4FEA816141EA921104EBCC047C
:101260004FEAD1374FEA826206FB07FC42EA90124E
:101270004FEA80604FEA1C4C0CFB0BF7D21B03FBC0
:101280000CF761EB07010CFB0EF7B0EB074072EBBC
:1012900017420CFB08F734BFA2EB0742B2EB074240
:1012A00061EB17414FEA8C554FEA910704EB9C2400
:1012B00006FB07FC4FEA1C4C0CFB0BF7B0EBC740DE
:1012C00072EB573203FB0CF734BFA2EBC742B2EB11
:1012D000C74261EB57310CFB0EF7B0EBC70072EB66
:1012E00057720CFB08F734BFA2EBC702B2EBC70280
:1012F00061EB577115EB4C254FEA816141EA921180
:101300004FEA82624FEAD13742EA901206FB07FCAD
:1013100044F100044FEA80604FEA1C4C0CFB0BF7D1
:10132000D21B03FB0CF761EB07010CFB0EF7B0EBD4
:10133000074072EB17420CFB08F734BFA2EB0742E1
:10134000B2EB074261EB174115EB1C154FEA8131F7
:1013500041EA92414FEA823242EA90424FEA8030BB
:101360004FEA0C7644F1000448EA03434EEA0B4886
:101370004FF0000EB2EB080C71EB030724BF62467E
:1013800039464EEB0E0E4FF0000B0018524149410A
:101390004BEB0B0BB2EB080C71EB03077BF1000B73
:1013A00024BF624639464EEB0E0E4FF0000B00187C
:1013B000524149414BEB0B0BB2EB080C71EB0307AD
:1013C0007BF1000B24BF624639464EEB0E0E51EA0C
:1013D000020718BF46F0010616EB0E7655F1000223
:1013E00054F1000103D5BDE88901BDE80088BDE8DE
:1013F0008901BDE80048B619524141EB0101A3F152
:101400000103704780807F7E7D7C7B7A7978777658
:1014100076757473727171706F6E6E6D6C6C6B6AD1
:101420006A6968686766666564646363626161606F
:10143000605F5F5E5E5D5D5C5C5B5B5A5A595958EC
:101440005857575656555555545453535252525156
:10145000515050504F4F4F4E4E4D4D4D4C4C4C4BAC
:101460004B4B4A4A4A4949494848484747474746F3
:10147000464645454544444444434343434242422F
:1014800042414141002B9C4630D477002BD01CB503
:101490004FEA370703B44FF010004FF01001BAF1D4
:1014A000000F06D0BCF1000FDCBF40F0080040F098
:1014B00008014FF000000FBCBDE810400BF1010B1C
:1014C000BBF1010F08BF5FEA170722BF12F101024B
:1014D00011F101014FF0004143F1000300F0004021
:1014E00043EA00007047F9D35708D0E746EA0646BA
:1014F00013F1400F4FEA16461FDD13F1200FDFBF37
:1015000016430A46002120335B42BED0C3F12007B8
:1015100046EA064602FA07F74FEA164646EA070683
:10152000C3F1200722FA03F201FA07F721FA03F1C7
:101530004FF0000342EA0702A7E746EA020646EA3E
:1015400006464FEA164646EA0106BCBF46EA06468C
:10155000360C4FF000034FF000024FF0000194E70B
:101560002DE9804C9A46934670B491E8380007C83C
:1015700031EA400C48BF34EA430C03D5FFF7E6FDDF
:10158000FFF780FFF0BCBDE8008C2DE9804C9A4647
:10159000934670B491E8380007C810F0804F08BF38
:1015A00013F0804F03D100F005F8FFF76BFFF0BC9C
:1015B000BDE8008C20F07F4780EA030023F07F4CD9
:1015C00007EB0C03A3F57C5300F00040A3F1FE03EE
:1015D00092F0000F00F0B38095F0000F00F07780DC
:1015E0002DE901494FEA11404FEA144621EA00482B
:1015F00000FB06FC24EA064708FB06F607FB08F892
:1016000000FB07F718EB06484CEB164C4FEA124B61
:1016100018EB07484FEA15464CEB174022EA0B4EF1
:101620000BFB06FC25EA06470EFB06F607FB0EFE43
:101630000BFB07F71EEB064E4CEB164C4FF000066B
:101640001EEB074E4CEB174B18EB0B0840F100005C
:1016500018EB0E0B58EB000840F100008F1A4FF00A
:1016600000013CBFC943661B14BFB5EB040C00214D
:101670003CBFC943F61B4FEA17444EEA8E0E27EAD9
:1016800004454FEA1C4704FB07622CEA074C05FBA4
:1016900007F70CFB05F604FB0CFC16EB074642EBC8
:1016A000174216EB0C4642EB1C421BEB060658EBAE
:1016B0000202414146EA9E0601D5BDE80189B619FC
:1016C000524141EB0101A3F10103BDE801894FEA59
:1016D00014454FEA114724EA054621EA074C05FB69
:1016E00007F406FB07F70CFB06F105FB0CFC11EBFE
:1016F000074144EB17444FEA124711EB0C4144EB0E
:101700001C4422EA074C05FB07F206FB07F70CFB1B
:1017100006F605FB0CFC16EB074642EB174216EBF0
:101720000C4642EB1C456A1854F1000148BF704753
:10173000B619524141EB0101A3F10103704795F045
:10174000000F37D04FEA11424FEA144721EA024610
:1017500024EA074C02FB07F106FB07F70CFB06F433
:1017600002FB0CFC14EB074441EB17414FEA154711
:1017700014EB0C4441EB1C4125EA074C02FB07F536
:1017800006FB07F70CFB06F602FB0CFC16EB074604
:1017900045EB174516EB0C4645EB1C42121951F16F
:1017A000000148BF7047B619524141EB0101A3F156
:1017B000010370474FEA14454FEA114724EA0546F2
:1017C00021EA074C05FB07F106FB07F70CFB06F2C5
:1017D0004FF0000605FB0CFC12EB074241EB1741F2
:1017E00012EB0C4251EB1C4148BF7047921841EB81
:1017F0000101A3F10103704770B50A4E002435685A
:10180000306007E000F0B4F882B2A1B2002000F02E
:101810007FF8641C00F0B2F8A042F3D8A8B23060A0
:1018200070BD000070C40120074B30B49B68DD8898
:101830001C689B88DB1DDB08203A13FB02F205FBCA
:10184000024230BC00F0A8BA70C401200148006810
:101850008068004770C101202DE9F0470446002749
:1018600099468A461546B846104601E008F1010837
:1018700010F8011B0029F9D100F07AF81C4E4A46F5
:10188000B9F1010FB1688988B0FBF1F002D0022AEA
:1018900017D105E0A0EB0800484304EB500003E03B
:1018A000A0EB08004843001B84B20AE051462046E2
:1018B000FFF7BAFFB0687F1CBFB280886D1C204460
:1018C00084B200F055F80146B068808807FB10111B
:1018D00089B2814201D3012000E000202A780AB1B8
:1018E000012100E000210842E0D1BDE8F0870000BE
:1018F00070C40120054A01239268D288424390B205
:101900000A4601460020FFF7A7BF000070C401206F
:101910002DE9F04106460F4800240F4F0068154698
:101920008846D0F820C0BCF1000F0FD0134638888D
:101930000A463146BDE8F04180B2604738884146EA
:1019400082B2301980B200F009F8641CAC42F5D3C1
:10195000BDE8F08170C1012070C40120034B1B68F9
:101960005B69002B00D018477047000070C1012050
:1019700001480068806A004770C101200148006882
:10198000C06A004770C1012070B50D4C4FF6FF7062
:10199000012660600B48A0600B4D00202060686845
:1019A0008047A0F51341253907D10648001F05607F
:1019B0002868804703480026A060304670BD0000BC
:1019C00070C4012074C101207CC10120014908605C
:1019D0007047000070C40120FEE70000014800F0DD
:1019E00065BB0000B0C30120014800F05FBB0000F0
:1019F00010C4012001681823CAB2103AB2FBF3F2F6
:101A0000054B6FF30901032A9B5CC36500D9091DCF
:101A100081650846704700003073000810B5014624
:101A200000208B698A6A4FF0C07453B1B3F5005F30
:101A300015D072B1012A0CD0022A0AD0032A09D18A
:101A400004E01AB1012A06D0022A03D1C96AC901E9
:101A500000D5012010BDC96AA142FAD010BD002AEC
:101A6000F7D0012AF2D0022AF3D0032AF3D010BD16
:101A700030B50468256825F4802525600468636016
:101A80008368402B036803D099600068C26030BD52
:101A90009A600068C16030BD704700000D480C4A74
:101AA000C16B90ED081A02EB8102491CD2ED000ACD
:101AB00041EE400A00EE810A82ED000AC163C26F66
:101AC000914201D10021C163B0EE600A704700006D
:101AD00068F400209CC001200E480D4A016C90ED76
:101AE000091A02EB8102491CD2ED000A41EE400ABC
:101AF00000EE810A82ED000A00F1800201641268A2
:101B0000914201D100210164B0EE600A70470000EB
:101B1000E8FB00209CC001200E480D4A416C90ED6E
:101B20000A1A02EB8102491CD2ED000A41EE400A7A
:101B300000EE810A82ED000A00F1800241645268E1
:101B4000914201D100214164B0EE600A704700006B
:101B50006CFE00209CC001200C480B4AC16A90ED2D
:101B6000041A02EB8102491CD2ED000A00EE810A40
:101B700082ED000AC162C26E914201D10021C162B0
:101B8000B0EE600A70470000A00F00209CC001204A
:101B90000C480B4A016B90ED051A02EB8102491CBF
:101BA000D2ED000A00EE810A82ED000A0163026FA5
:101BB000914201D100210163B0EE600A704700003C
:101BC000B04500209CC001200C480B4A416B90EDB1
:101BD000061A02EB8102491CD2ED000A00EE810ACE
:101BE00082ED000A4163426F914201D100214163BD
:101BF000B0EE600A70470000607400209CC00120B5
:101C00000C480B4A816B90ED071A02EB8102491CCC
:101C1000D2ED000A00EE810A82ED000A8163826F34
:101C2000914201D100218163B0EE600A704700004B
:101C300008B100209CC0012070B5404C3E4E0844C5
:101C40002DED028B256846F8250094ED010AB0EED3
:101C5000408A03F007FFFDEEC00A10EE900AB0F5CF
:101C6000FA7F02DBA0F5FA7101E000F5FA7156F88F
:101C70002020DFED332A00EE102A56F821202F4EC7
:101C8000B8EEC02A00EE102A2A1ADFED2E8AB8EE2E
:101C9000C00AD6ED020A4FF07E53642A0CD810EE2B
:101CA000906A9E4208D001EE102AB8EEC11AC1EE29
:101CB000221AC4ED031A03E0854201D1C4ED038A60
:101CC000681AF7EE001A64280ED810EE902A9A428D
:101CD0000AD001EE100AB8EEC11A81EE223A31EEB6
:101CE000C31A84ED031A03E08D4201D1C4ED031A37
:101CF00094ED031A6D1CB5F57A7F22EE012A31EEC0
:101D0000C11A00EE012ABDEEC20A10EE106A38EECA
:101D1000200A84ED010A256001D10020206003F033
:101D2000A1FE10EE100A0849884201DBC4ED018AC9
:101D30003046BDEC028B70BD000000209CC001202D
:101D40000000C8420000000000007A4400B5B0EE78
:101D5000402AFFF701FFF0EE401AB0EE420AFFF70B
:101D600017FF71EE801AB0EE420AFFF72DFF71EEF9
:101D7000801AB0EE420AFFF743FF31EE800AF5EE1B
:101D8000000A20EE200AFFF789FEFFF7A5FE5DF8A6
:101D900004EBFFF7C1BE00002DE9F74FDFF890B06C
:101DA0000026DBF808008588C788E81D824620F0F9
:101DB0000700401B00F0FF0935E000BF4FEADA01E1
:101DC0000298012901FB06000BD002290BD00178F3
:101DD00042780904807841EA022141EA000800249F
:101DE0001AE0007801E0008840BA8046F7E7291B36
:101DF00049440120491E884010EA080F02D0BBF870
:101E0000000001E0BBF80400019982B20098204470
:101E100080B2FFF7A3FD641CAC42E8D30198401CDC
:101E200080B2761C0190BE42C8D3BDE8FE8F000090
:101E300070C40120094810B50178012903D001219F
:101E4000017007A102E00021017008A10920FFF73D
:101E500051FDBDE81040012000F00EBB98C00120EC
:101E600050495443482020200000000020204964AD
:101E70006C65202000000000064910B500200870A5
:101E800005A10920FFF736FDBDE810404FF40040E2
:101E900000F0F2BA98C00120202049646C6520202F
:101EA0000000000072B6FEE700B59BB04FF0204086
:101EB00000901448019005201490012015900920ED
:101EC000169000200221CDE91701CDE91910042157
:101ED000CDE902101021CDE9040106900790090216
:101EE0000890CDE909010C900B900D900E90119087
:101EF00000F00AF814AA1146684601F0FFFD1BB075
:101F000000BD0000040100A0294800B5016887B0A9
:101F100041F001010160006800F0010005902448D3
:101F20000838016841F008010160016801F008010A
:101F30000591016841F010010160016801F0100194
:101F40000591016841F020010160016801F0200164
:101F50000591016841F0400101600068694600F0A8
:101F60004000059002200190012002900320039080
:101F70000C2004904FF6337000900E4800F088FA61
:101F80004FF69B70009069460B4800F081FA4FF2C3
:101F90003F0000906946094800F07AFA40F23F405D
:101FA00000906946064800F073FA07B000BD0000D3
:101FB00038380240000C0240001002400014024079
:101FC0000018024030B5B3F5804F05D06FF0704176
:101FD00040F82210002030BD8C690B688D682343C7
:101FE0004C688989240144EA0524234343EA0141DA
:101FF00050F82230014C23401943E9E70000F0CFAC
:1020000010B50A6850F8223023F0010340F822305E
:102010008C68082C23D000234A682243CC681C43D8
:102020000B6922431A434B690E4C1A43CB691A437E
:102030000B6A1A434B6A1A438B6A1A43CB6A1A43D8
:102040000B6B1A438B691343CA6B09681A4350F828
:102050002130A343134340F82130002010BD40231A
:10206000DAE700007FFF0F0030B5D1E9003443EA22
:1020700004138C688D89240244EA054423430C8AA6
:10208000094D00EB820005EB045423430C7D6D01E8
:1020900005EB0464896923430B43416801F0404127
:1020A0000B434360002030BD0000F0FF2DE9F843F2
:1020B00004464FF00009CDF8009063484FF41651E4
:1020C000A56D0068B0FBF1F72E6894F85C1008204D
:1020D00000FA01F131420FD021680A6852070BD58E
:1020E0000A6822F004020A6094F85C108840A86034
:1020F000606D40F00100606594F85C104FF00108DD
:1021000008FA01F0304208D021684969090604D56F
:10211000A860606D40F00200606594F85C100420D7
:102120008840304208D021680968890704D5A86032
:10213000606D40F00400606594F85C1010208840E9
:10214000304218D021680968090714D5A8602068B2
:102150000168490304D50068000308D5A16C07E0B5
:102160000168C90503D4016821F008010160216CF0
:1021700009B12046884794F85C10202088403042FE
:1021800031D021680968C9062DD5A86094F83500BA
:1021900005282068016806D0490347D50068000378
:1021A0001DD4616C1CE021F01601016020684169BA
:1021B00021F080014161206C08B9A06C20B1206839
:1021C000016821F00801016094F85C103F2088400C
:1021D000A86084F8358084F83490216D1FE0E16BAD
:1021E00009B120468847606D00282BD0606DC0077C
:1021F00014D0052084F835002068016821F0010121
:1022000001600098401C0090B84203D82068006824
:10221000C007F6D184F8358084F83490E16C002949
:1022200010D001B02046BDE8F04308470168C90559
:10223000D5D4016821F01001016084F8358084F85C
:102240003490CCE7BDE8F88340C101202DE9F0418E
:10225000044600F023FA06465CB1022084F83500FB
:10226000002584F834502068016821F001010160E4
:102270000DE00120BDE8F08100F010FA801B052878
:1022800005D920206065032084F83500F2E7206836
:102290000068C007F0D12268116820480140D4E9E5
:1022A00001031843D4E903363343184363691843E1
:1022B000A3691843E3691843236A18430843616A12
:1022C000042903D1D4E90B13194308431060206893
:1022D0004069666A20F0070130460E430127042852
:1022E0000CD1A06A0643E06A40B12046FFF796FB96
:1022F00020B14020606584F83570BAE720684661F7
:102300002046FFF777FB94F85C203F2191408160E5
:10231000656584F835700020ACE700003F8010F060
:102320002DE9F0410446866D90F83400002501281F
:102330000DD0012084F8340094F835700020012F6E
:1023400007D084F8340002252846BDE8F081022039
:10235000FBE7022784F8357060652046FFF788FBAD
:1023600094F85C103F208840B0602068016841F01C
:1023700016010160206C20B12068016841F008015D
:1023800001602068016841F001010160DCE70000A4
:1023900070B5044600F082F90546601C02D004487E
:1023A0000078044400F07AF9401BA042FAD370BDD3
:1023B00034C10120F0B587B014216846FEF799F9C1
:1023C00025480168002944D10121016023480024E7
:1023D000016841F0010101600068022500F0010080
:1023E00005904FF69B70CDE9000502AA03260C2745
:1023F00082E8D00069461A4800F04AF84FF6FB70B0
:10240000CDE9000502AA694682E8D000154800F02F
:102410003FF88020CDE9000502AA694682E8D00095
:10242000114800F035F840F23F60CDE9000502AAFE
:10243000694682E8D0000D4800F02AF84FF23F00CC
:10244000CDE9000502AA694682E8D000084800F0FC
:102450001FF807B0F0BD00002CC101203838024041
:1024600000100240000C024000040240001802402C
:102470000014024070470000044910B50A68024287
:1024800002D00860FFF7F6FF10BD0000143C0140C9
:102490002DE9F84FDFF8BCA10022012503264FF0FB
:1024A0000F090AF1040BAAF1040E00BF0B6805FA2C
:1024B00002F42340A34270D10F7907F00307012FE4
:1024C00001D0022F16D187684FEA420806FA08FCAD
:1024D00027EA0C07D1F80CC00CFA08FC4CEA070CF0
:1024E000C0F808C04768A7430C79C4F300149440AF
:1024F0003C4344600C79E443A4070AD0C4684FEA23
:10250000420C06FA0CF7BC438F6807FA0CF7274316
:10251000C7600C7904F00304022C12D1D40800EB3C
:10252000840CDCF820405707FF0E09FA07F824EA6C
:102530000804D1F8108008FA07F848EA0408CCF833
:10254000208004684FEA420C06FA0CF7BC430F796E
:1025500007F0030707FA0CF7274307604C6814F4E9
:10256000403F70D03C4C276847F480472760246880
:1025700022F0030704F480440094384C07EB040C69
:10258000DCF8084897074FEA177809FA08F7BC43C0
:10259000334FB84202D1002724E054E0314FB84213
:1025A00001D101271EE0304FB84201D1022719E0C6
:1025B0002E4FB84201D1032714E02D4FB84201D16C
:1025C00004270FE02B4FB84201D105270AE02A4F1C
:1025D000B84201D1062705E0284FB84201D10727AC
:1025E00000E0082707FA08F72743CCF80878DAF85C
:1025F00000405746D1F804C09C435FEACC2C00D57C
:102600001C433C60DBF800405F46D1F804C09C43AB
:102610005FEA8C2C00D51C433C60DEF80040774616
:10262000D1F804C09C435FEA8C3C00D51C433C605D
:10263000084F083F3C68D1F804C09C435FEACC3C9B
:1026400000D51C433C60521C102AFFF42FAFBDE89C
:10265000F88F0000083C014044380240003001403F
:10266000000002400004024000080240000C02404A
:10267000001002400014024000180240001C0240FA
:10268000426921EA02030A4043EA0241816170473C
:102690000AB1816170470904FBE7000001488068C6
:1026A0007047000034C1012070B5040025D094F8B3
:1026B0003D00002520B984F83C50204600F052FA35
:1026C000242084F83D002068016821F001010160A8
:1026D0002068016841F4004101602068016821F42C
:1026E0000041016001F002F84D4A6168914201D851
:1026F0004C4900E04C49884201D2012070BD4B4951
:102700002368B0FBF1F15E6826F03F060E435E6081
:102710006368934206D94FF4967359434FF47A7322
:10272000B1FBF3F12368491C1E6A26F03F063143D2
:1027300019626168914210D84900401EB0FBF1F265
:10274000521CC2F30B02042A01D2042022E0B0FB87
:10275000F1F0401CC0F30B001CE0A268F2B301EBE7
:10276000C10303EB0116431EB3FBF6F35B1C43F4FA
:1027700080431B0549D092B301EBC10202EB01116A
:10278000401EB0FBF1F0401CC0F30B0040F4804051
:1027900040F400402168CA694CF6FF739A43104325
:1027A000C861D4E9071001432068026822F0C00222
:1027B00011430160D4E9030101432068826848F2B3
:1027C000FF339A4311438160D4E90501084321682E
:1027D000CA6822F0FF021043C86001E00EE016E074
:1027E0002068016841F0010101602564202084F81F
:1027F0003D00256384F83E50002070BD01EB41068A
:10280000431EB3FBF6F35B1CB3E70120C2E701EB09
:102810004101401EB0FBF1F0401CC0F30B00B7E7D4
:10282000A086010080841E0000093D0040420F0088
:102830002DE9FF4F83B09A46DDE9118793460446A0
:10284000DDF84090FFF72AFF054694F83D00202868
:1028500070D11923012274492046009501F0DEFC55
:102860000028F5D194F83C00012863D0012084F8B9
:102870003C0020680168C90703D1016841F00101EB
:1028800001602068016821F400610160222084F861
:102890003D00402084F83E0000262664C4F82490C1
:1028A000A4F82A80608D20856048E062CDE900753B
:1028B00053465A462046049901F0B2FB002879D1CC
:1028C000208DD0B1012821D00228206824D0416970
:1028D00080690090208D032866D801282BD05449A8
:1028E00002283B464FF00002009557D0884620460C
:1028F00001F094FC00285DD13AE0206841698169CB
:102900000091016841F4007101607DE02068016878
:1029100021F480610160F0E7016821F480610160C9
:102920002068016841F400610160206841698069A4
:10293000009069E075E02A463946204601F014FD12
:1029400088BB54E02068016841F400710160206890
:102950000069616A0870606A401C6062218D491ECE
:102960002185618D491E618521680969017042E0F8
:102970002068016821F48061016020680069616A53
:102980000870606A401C6062208D401E2085608D4A
:10299000401E60853B46002241460095204601F0DE
:1029A0003DFC00B9CEE705E02A463946204601F055
:1029B000DBFC18B1012007B0BDE8F08F206800698A
:1029C000616A0870606A401C6062208D401E81B29E
:1029D0002185608D401E608520684269D243520780
:1029E00012D4032903D1016821F4806101602068B9
:1029F0000069616A0870606A401C6062208D401E38
:102A00002085608D401E6085208D00287FF462AF98
:102A1000202084F83D0084F83E6084F83C6000206B
:102A2000C9E70220C7E70000020010000000FFFF16
:102A3000040001002DE9FF4F83B09A46DDE91197AC
:102A400093460446DDF84080FFF728FE054694F8DB
:102A50003D0020287FD119230122404920460095BE
:102A600001F0DCFB002876D194F83C00012872D0FC
:102A7000012084F83C0020680168C90703D101687F
:102A800041F0010101602068016821F400610160EA
:102A9000212084F83D00402084F83E000026266472
:102AA000C4F82480A4F82A90608D20852C48E06228
:102AB000CDE9007553465A462046049901F02EFB95
:102AC00070B930E02A463946204601F085FC58B1FD
:102AD000206C042804D12068016841F40071016071
:102AE000012007B0BDE8F08F606A216800780861B6
:102AF000606A401C6062218D491E89B22185628D09
:102B0000521E628522685369DB435B070BD469B1AF
:102B100000781061606A401C6062208D401E208534
:102B2000608D401E6085208D0028CBD12A46394615
:102B3000204601F047FB0028CAD154F83D0B01683C
:102B400041F400710160202004F81E09E6776677E1
:102B50000020C6E7FFE70220C3E7000002001000E4
:102B60000000FFFF10B586B0044614216846FDF74B
:102B7000C0FD14492068884221D11348016841F002
:102B8000020101600068694600F0020005904FF400
:102B900010700090122001900120029003200390F9
:102BA000042004900948FFF773FC074810300168BF
:102BB00041F400110160006800F40010059006B0B7
:102BC00010BD0000005400403038024000040240B4
:102BD0002DE9FF4104460068816800917749784EED
:102BE0004FF04027884201D1324600E03A469268D1
:102BF000019240688846029001D1304600E0384694
:102C00004068039060684FF00105B0F5007F1CD06C
:102C1000D8B1900705D50398000602D5204601F0EB
:102C200037FC0098C0070FD0029840067FD5216876
:102C30002046CA68E16A8B1CE3620A80618E491EE5
:102C40006186618E002967D071E00098800719D5F0
:102C50000298000616D5616A20468A1C62622268C4
:102C60000988D160618D491E6185618D51B9016806
:102C70004A6822F0A0024A60418E19B980F841509A
:102C800000F072F90198C00705D00398400602D5FC
:102C9000204601F0CDFB0198400622D5039880061E
:102CA0001FD52168414501D1304600E038464068D3
:102CB00020F0600101D1304600E0384641602068D4
:102CC000416821F0A00141602068C16880680190DE
:102CD00084F84150606C40F002006064204600F0CF
:102CE000A7F90098000767D50298800664D5206888
:102CF000416821F0A00141602168414501D1304681
:102D000000E03846406820F0600000D03E46706029
:102D100020688068009043E001684A6822F0600201
:102D20004A60418D19B980F8415000F01DF90098B2
:102D300040061ED5029880061BD52068416821F008
:102D4000600141602168414501D1304600E03846CC
:102D5000406820F0A00101D1304600E038464160D3
:102D600084F84150606C40F002006064204600F03E
:102D70005FF9019800071FD5039880061CD52168CC
:102D8000414501D1304600E03846406820F0A000BF
:102D900000D03E4670602068416821F060014160CB
:102DA00084F84150606C40F00400606404B0204638
:102DB000BDE8F04100F03CB9BDE8FF8100380040BB
:102DC000003400402DE9F84F044690F841001546C4
:102DD00089464FF0000AD346012802D04FF0020A7C
:102DE00084E0E1B3DAB3D3B394F8400001283FD0D4
:102DF000012084F84000E26261622068C06900F04E
:102E00000700032836D0052834D023856385238620
:102E1000A4F83230C4F844B0052384F84130E66B9E
:102E20004C4B3364E66B4C4BF363E66B4B4BF364F8
:102E3000A66BC6F840B0A66BC6F83CB0A06BC364E6
:102E40002068C369DFF8188103F44073454E4FF0E2
:102E50004027B3F5007F16D0ABB1C26900E004E0B3
:102E6000C2F30122032A45D047E00120BDE8F88FD4
:102E70000220FBE74FF6FF7000EA430020856085E3
:102E800020866086C6E7238E404501D1314600E0AA
:102E900039460C31E06BFFF743FA2068404501D119
:102EA000304600E03846406840F0010001D131462C
:102EB00000E039464860238D2268494602F10C0241
:102EC000A06BFFF72DFA2068416841F0020138E05D
:102ED00040453CD13046C06940F4806000D03E4659
:102EE000F0612068C16941F48061C16184F840B03B
:102EF0005046BBE7C26882680092238D404501D1ED
:102F0000324600E03A460C32A06BFFF709FA21681E
:102F1000414501D1314600E03946496841F002019E
:102F200001D1304600E038464160238E21682A46B0
:102F300001F10C01E06BFFF7F3F92068416841F003
:102F4000010141602068C1694905C1D5CEE7384615
:102F5000C1E70000CD450008F144000879450008AC
:102F6000003800400034004010B516492DED028BAA
:102F70008868C9684FEA30404FEA3141FEF75CFE8D
:102F8000400000EE100AB8EEC08AB0EE480AFEF724
:102F9000DDFE0D48B7EE001A0A49D0ED000A20EE1A
:102FA000200A71EE600A00EE880ABDEEC00A10EE3B
:102FB000100A020C10310A8148818A81C881BDEC57
:102FC000028B10BD90C3012024C1012010B5164909
:102FD0002DED028B086849684FEA30404FEA3141D5
:102FE000FEF72AFE400000EE100AB8EEC08AB0EEEE
:102FF000480AFEF7ABFE0D48B7EE001A0A49D0EDBD
:10300000000A20EE200A71EE600A00EE880ABDEE8A
:10301000C00A10EE100A020C10310A8048808A8023
:10302000C880BDEC028B10BD90C3012024C10120DB
:10303000704700002DE9F047040005D094F84100E6
:103040004FF0000818B109E00120BDE8F08784F8CE
:10305000408051486063204600F0A6F8022684F8BC
:1030600041602068C16940F6BF77B943C1612068FB
:10307000066260694FF4007902282FD0E06870B1D1
:103080002025A068202800D86D00012000F0C6F996
:10309000216949451FD1E16819B1A90002E0102555
:1030A000EFE7E900B0FBF1F000EB80006169400060
:1030B000B0FBF1F0401D0A21B0FBF1F000F001017E
:1030C000401A40080902821EFE2A09D3606C40F0B3
:1030D00010006064B8E7B0FBF5F0E5E702200021DE
:1030E00022690843024320680262D4E901010843CF
:1030F000A269E168114308432168CA69BA431043D1
:1031000040F40060C861206A01283AD12348606316
:1031100023482168234A4FF04023814201D11146C0
:1031200000E01946C96921EA070101D1154600E00E
:103130001D46E9612168814201D1114600E019462E
:103140000E622568854201D1114600E01946C96921
:103150008EB2616849451BD0D1B100212789B4F8EE
:103160000CC047EA0C07B4F818C04CEA010C47EA57
:103170000C07B9B2314341F40061854200D01A46D0
:10318000D161C4F84480012084F8410000205CE74C
:103190004FF48071E2E70000D7450008D12B00080A
:1031A00000380040003400402DE9F04F8BB0054658
:1031B00014216846FDF79DFA0024059406940794AF
:1031C000089440492868884278D101200590C5209C
:1031D0000226CDE9060605A800F050F908B1FEF771
:1031E00061FE3948016841F480410160006800F4E3
:1031F0008040099034481038016841F004010160B2
:10320000016801F004010991016841F002010160C7
:103210000068052700F00200099048200090CDE9E1
:103220000164DFF8A880CDE9034769464046FFF70F
:103230002FF904200090CDE901640620CDE9034078
:1032400069464046FFF724F9B8020090CDE90164D1
:10325000CDE9034769461E48FFF71AF91E4E1D487F
:103260004FF4806730604FF0C060C6E9010406F19A
:103270000C004FF400684FF400594FF4807A4FF47B
:10328000003B80E8900F30467462FEF7DFFF08B124
:10329000FEF708FEEE63B5630E48104E1830E6E800
:1032A00002044020A6E8910F0C4846F82449FEF796
:1032B000CDFF08B1FEF7F6FDAE63B5630BB0BDE818
:1032C000F08F000000380040403802400008024003
:1032D0000004024058600240B0C3012010C4012025
:1032E00070477047024881680278114481607047D6
:1032F00034C101200B4810B5016841F40071016030
:10330000016841F480610160016841F480710160ED
:10331000032000F071F8002000F006F800F024F817
:10332000002010BD003C024070B50D4D04464FF426
:103330007A712878B1FBF0F00A490968B1FBF0F026
:1033400000F00CFC48B9102C07D200222146501E78
:1033500000F032F800206C6070BD012070BD0000EC
:1033600034C1012040C101200B4882B0016841F402
:1033700080410160006800F4804000900648001F12
:10338000016841F080510160006800F080500090B9
:10339000072002B000F030B844380240002809DBB2
:1033A00000F01F02012191404009800000F1E0205F
:1033B000C0F8001170470000F0B40E4B1B680C46BB
:1033C000C3F30223C3F10705042D00D90425191DF9
:1033D000072901D2002300E0DB1E012606FA05F1D1
:1033E000491E214099409E40761E16403143F0BC54
:1033F00002F0B2B80CED00E0064900F007020868E0
:103400004FF6FF03184040EA0220034A10430860C9
:10341000704700000CED00E00000FA0501460020B6
:10342000012908D11149096811F4000104D0B1F54E
:10343000000F00D10E4870470C48001F016800685B
:10344000490200F03F0001D50A4900E00A49074A55
:10345000B1FBF0F07C321168C1F388114143106870
:10346000C0F30270B1FBF0F0704700000838024072
:103470000080BB0040787D010024F4002DE9F84372
:10348000054600684FF00109C1074FF0000601D161
:10349000400727D5DFF80C81C8F86860FFF7FEF811
:1034A0000746414C05E000BFFFF7F8F8C01B0228B3
:1034B00057D820680001F7D468688101287A41EA6A
:1034C0000070394984310860C8F86890FFF7E6F861
:1034D000074604E0FFF7E2F8C01B022841D8206845
:1034E0000001F7D52878800752D52F484030016871
:1034F00041F08051016000682C4C00F08050009039
:10350000206840F480702060FFF7C8F8074604E0A8
:10351000FFF7C4F8C01B022823D82068C005F7D5E0
:10352000214C7034206810F4407020D0A98901F437
:10353000407181421BD020681D4920F44070C1F8C1
:1035400000900E6020602068C00710D0FFF7A6F83A
:10355000064641F2883707E0FFF7A0F8801BB84223
:1035600002D90320BDE8F88320688007F4D5E96814
:103570000D48C1F301220830032A0BD0016821F461
:10358000F81101602068A989C1F30B01084320608C
:103590000020E7E70268074B22F4F81219400A43BB
:1035A0000260EFE700004742003802400070004030
:1035B000400E4742FFFCFF0F2DE9F0470E46050085
:1035C00065D0DFF81481D8F80000F7B200F00700EA
:1035D000B04207D288F80070D8F8000000F0070069
:1035E000B04254D128683D4C810712D5400703D51D
:1035F000206840F4E05020602878000703D5206858
:1036000040F4604020602068A96820F0F000084382
:1036100020602878C0072DD0304968680839012813
:1036200012D0022813D0032811D009688907002975
:103630002DDA216821F0030101432160FFF72EF804
:10364000814641F2883A0EE009688903EFE709688C
:103650008901ECE7FFF722F8A0EB0901514502D9F7
:103660000320BDE8F0872068696800F00C00B0EB2B
:10367000810FEFD1D8F80010404601F00701B142A8
:1036800007D90770006800F00700B04201D00120A0
:10369000E7E72878400705D52068E96820F4E0507E
:1036A000084320602878000706D52068296920F49F
:1036B000604040EAC100206000F038F82168084A04
:1036C000C1F30311515CC840064908600648006810
:1036D000FFF72AFE0020C4E7003C02400838024001
:1036E0003873000840C1012038C101200448054951
:1036F00000680968044AC1F38221515CC8407047E0
:1037000040C10120083802404873000804480549B8
:1037100000680968044AC1F34231515CC8407047EF
:1037200040C101200838024048730008154810B510
:10373000006810F00C02144813D01449042A0FD06A
:10374000082A0ED10F4C241F2268236802F03F0282
:103750005B0207D52068C0F38810A0FB010106E0DA
:10376000084610BD2168C1F38811A1FB00010023A8
:10377000FCF704FE2168C1F30141491C4900B0FB7C
:10378000F1F010BD083802400024F40040787D01BB
:103790002DE9F84F04006ED02078DFF84C93C00775
:1037A000A9F104054AD009F104000168C1F38101BF
:1037B000012908D00068C0F3810002280AD1D9F895
:1037C0000000400206D52868800337D560680028CD
:1037D000E1D033E06068B0F5803F10D0B0F5A02FA5
:1037E000286810D020F480302860286820F48020D9
:1037F00028606068A8B1FEF751FF06460DE0286812
:1038000040F48030F4E740F480202860F7E700BF00
:10381000FEF744FF801B642873D828688003F7D51F
:103820000CE0FEF73BFF064605E000BFFEF736FF63
:10383000801B6428F0D828688003F7D42078DFF84C
:10384000AC8280074FF0000A3ED5A748001D0168F2
:1038500011F00C0F08D00068C0F3810002280BD1D2
:10386000D9F80000400207D42868800716D5E06820
:10387000012800D112E033E1E068B8B10120C8F8B6
:103880000000FEF70BFF064605E000BFFEF706FF4F
:10389000801B0228C0D828688007F7D528682169CE
:1038A00020F0F80040EAC10028600DE0C8F800A050
:1038B000FEF7F4FE064604E0FEF7F0FE801B022849
:1038C0001FD828688007F7D42078000722D5864FB4
:1038D00087486169703771B101210160FEF7DEFE32
:1038E000064604E0FEF7DAFE801B022809D8386895
:1038F0008007F7D50EE0C0F800A0FEF7CFFE064621
:1039000005E082E0FEF7CAFE801B02287DD83868F9
:103910008007F7D42078400768D5DFF8CCB10027BE
:103920000BF13C0BDBF80000C0000BD4DBF80010FF
:1039300041F08051CBF80010DBF80000012700F0C7
:10394000805000906B4E3068C00510D4306840F451
:1039500080703060FEF7A2FE009005E0FEF79EFE4C
:103960000099401A022850D83068C005F6D55E4E3E
:10397000A0686C3601280FD00528306810D020F0E0
:1039800001003060306820F004003060A068B8B1F9
:10399000FEF784FE00900FE0306840F00100F4E78D
:1039A00040F004003060F7E7FEF778FE0099411A16
:1039B00041F28830814266D830688007F4D50EE045
:1039C000FEF76CFE009007E0FEF768FE0099411AD2
:1039D00041F28830814256D830688007F4D42FB144
:1039E000DBF8001021F08051CBF80010A069C8B3BB
:1039F0003D49091D0968C1F3810102294AD0022805
:103A0000504607D0C8F8600000E03CE0FEF746FEF4
:103A100004463BE04746C8F86000FEF73FFE064616
:103A200005E000BFFEF73AFE801B02282BD828686D
:103A30008001F7D4D4E907010843A16A2E4A490856
:103A400002EB0141626A41EA8211084394F82C10AA
:103A500040EA0161C9F8001001203866FEF71EFE39
:103A6000044606E03EE000BFFEF718FE001B0228F9
:103A700009D828688001F7D534E000BFFEF70EFEB4
:103A8000001B022802D90320BDE8F88F28688001B6
:103A9000F4D427E00128F7D0D9F80000E26900F457
:103AA000800191421CD1226A00F03F01914217D15E
:103AB00047F6C071626A0140B1EB821F10D1A26A61
:103AC0004FF0FF3300F4403103EB5202B1EB024FF1
:103AD00006D194F82C1000F07060B0EB016F01D0AB
:103AE0000120D1E70020CFE7043802400000474220
:103AF000800E4742007000400000FFFF70B5154681
:103B00000E46040003D094F8490010B107E00120EC
:103B100070BD002084F84800204600F01DF804F134
:103B200008012068FEF76CFA3146A2682068FEF7AB
:103B30009BFAD4E901022946236BFEF743FA216878
:103B4000A06851F8202042F0010241F82020012015
:103B500084F84900002070BDFEF72CBC10B5401E53
:103B6000B0F1807F01D3012010BD4FF0E0246061EF
:103B70000F21601701F0F0FC0020A06107202061F8
:103B8000002010BD7047704770B590F83C20012AA6
:103B900032D0012480F83C40022280F83D200368A6
:103BA0005A689D6822F070060A6832435A60134BC7
:103BB00002689A4214D0B2F1804F11D0104B9A4251
:103BC0000ED0104B9A420BD00F4B9A4208D00F4B9D
:103BD0009A4205D00E4B9A4202D00E4B9A4204D123
:103BE000496825F080031943916080F83D40002129
:103BF00080F83C10084670BD022070BD00000140F6
:103C00000004004000080040000C00400004014097
:103C1000004001400018004010B5040003D094F8A3
:103C20003D0010B107E0012010BD002084F83C00E9
:103C3000204600F01FF8022084F83D00211D206876
:103C400001F01EFB012084F8460084F83E0084F851
:103C50003F0084F8400084F8410084F8420084F872
:103C6000430084F8440084F8450084F83D000020B7
:103C700010BD000008B500680B49884212D10B48FE
:103C8000016841F0200101600068002200F020007E
:103C9000009011463720FFF78FFBBDE80840372022
:103CA000FFF77CBB08BD0000001400404038024014
:103CB00090F83D10012901D001207047022180F8C1
:103CC0003D100168CA6842F00102CA6000681149EB
:103CD000884214D0B0F1804F11D00F4988420ED0E5
:103CE0000E4988420BD00E49884208D00D498842BF
:103CF00005D00D49884202D00C49884204D1816820
:103D000001F00701062903D0016841F001010160BB
:103D100000207047000001400004004000080040FF
:103D2000000C004000040140004001400018004029
:103D300070472DE9F04104460068C66805694FF0F8
:103D40000007A90713D5B10711D5F91E016101209C
:103D50002077206880698007204602D0FFF7E8FFBF
:103D600004E000F07EF8204600F07CF82777680732
:103D700016D5700714D521686FF004000861022081
:103D800020772068806910F4407F204602D0FFF73A
:103D9000CFFF04E000F065F8204600F063F82777D5
:103DA000280715D5300713D521686FF00800086182
:103DB000042020772068C0698007204602D0FFF7E2
:103DC000B7FF04E000F04DF8204600F04BF82777ED
:103DD000E80616D5F00614D521686FF010000861CA
:103DE000082020772068C06910F4407F204602D068
:103DF000FFF79EFF04E000F034F8204600F032F8B0
:103E00002777E80708D0F00706D021686FF0010097
:103E10000861204600F027F8280608D5300606D5A8
:103E200021686FF0800008612046FFF7ABFE68064E
:103E300008D5700606D521686FF04000086120465D
:103E400000F012F8A8060AD5B00608D521686FF070
:103E5000200008612046BDE8F041FFF794BEBDE8B0
:103E6000F081704770477047704770B5040004D008
:103E700094F84100002510B106E0012070BD84F8DF
:103E80004050204600F024F8242084F841002068A7
:103E9000C16821F40051C160204601F085FA206814
:103EA000016921F4904101612068416921F02A01F2
:103EB00041612068C16841F40051C16065642020FF
:103EC00084F8410084F842006563002070BD000062
:103ED000F0B587B0044614216846FCF70AFC19497E
:103EE000206888422CD118480024016841F48021C0
:103EF0000160006800F480200590134810380168C4
:103F000041F0040101600068022500F00400059002
:103F10004FF400600090CDE9015407260B4FCDE926
:103F2000034669463846FEF7B3FA6802CDE9000554
:103F30000320CDE90240694604963846FEF7A8FA08
:103F400007B0F0BD00480040403802400008024081
:103F50002DE9F843044690F84100984616460D4670
:103F6000202802D00220BDE8F88385B17EB1002070
:103F70006064212084F84100FEF790FBA68481460E
:103F8000E684A0682027B0F5805F02D003E001201E
:103F9000E9E7206910B12E4600250EE000260CE06E
:103FA0008021204601F086FAA8B9C6B116F8010BA7
:103FB00021684860E08C401EE084E08C4B464FF066
:103FC0000002CDF800800028EAD14FF040012046E1
:103FD00001F070FA40B184F841700320C3E735F86E
:103FE000020BC0F30800E3E784F841700020BAE751
:103FF000FEE701684A69D24352050FD46FF480622C
:104000004A61002140F8301F202242738173026907
:1040100042F00402026101730120704700207047E2
:104020002DE9F84F0446006889460B9D01689846C3
:10403000174641F4806101602068016841F4807195
:10404000016000954FF0011B0022594620460A9B53
:1040500000F0E4F84FF4007A40B120680068C00531
:1040600001D5C4F840A00320BDE8F88F216809F00D
:10407000FE0008612B46284920460A9A00F016F9EE
:10408000F0BB20684169806900902A4620460A9961
:1040900000F0A2F940B1206C04283AD120680168F0
:1040A00041F40071016034E0FEB2B8F1010F09D0B3
:1040B0002168380A08612A4620460A9900F08CF9DE
:1040C0000028E8D1206806612A4620460A9900F0B7
:1040D00083F90028DFD12068016841F48071016014
:1040E00000950022594620460A9B00F097F80028C8
:1040F000B3D1216809F0FF0040F00100086100E041
:1041000007E02B46044920460A9A00F0CFF8002821
:10411000AAD00120A8E70000020001002DE9F84321
:10412000044600680D46DDE9089701689846164682
:1041300041F4807101604B4600224FF0011120468E
:10414000009700F06BF848B120680068C00502D500
:104150004FF4007020640320BDE8F883216805F067
:10416000FE0008613B464A461549204600F09EF88D
:1041700088B920684169806900903A4649462046DE
:1041800000F02AF948B1206C042804D120680168A5
:1041900041F4007101600120DEE7F5B2B8F1010FD2
:1041A00009D02168300A08613A464946204600F0A5
:1041B00013F90028E7D1206805610020CCE7000052
:1041C0000200010070B516460D4604461EE020466A
:1041D000FFF70FFF08B1012070BD681C16D0FEF775
:1041E0005DFA801BA84200D885B920684069C043A9
:1041F00040070BD5002044F8300F20216173A073D5
:10420000216941F0200121612073E4E720684069C1
:10421000C0434007DBD4002070BD00002DE9F0470B
:10422000984617460D460446C1F30746DDF8209030
:104230002AE000BFB8F1FF3F26D0FEF72FFAA0EB2F
:104240000901414502D8B8F1000F1DD12068012EA7
:1042500016D0806925EA00000004000C12D000206E
:10426000B84211D1002044F8300F20216173A073AF
:10427000216941F02001216120730120BDE8F08710
:104280004069E7E70120EBE72068012E0AD080694A
:1042900025EA00000004000C06D00020B842C9D076
:1042A0000020EBE74069F3E70120F7E72DE9F0474D
:1042B000984616460D4604464FF000094FF0200A76
:1042C000C1F3074723E020684069C043400515D487
:1042D0002068016841F40071016021686FF480601A
:1042E0004861C4F8309084F83DA084F83E90216C79
:1042F00041F00401216484F83C9021E0701C06D058
:10430000FEF7CCF9A0EB0800B04203D816B1012F9C
:104310001FD021E02068012F15D0806925EA000018
:104320000004000C18D000BF44F8309F84F80DA0A2
:1043300084F80E90216941F02001216184F80C90ED
:104340000120BDE8F087406925EA00000004000C68
:10435000EAD12068406901E02068806925EA000010
:104360000004000CAFD1ECE72DE9F04100259046A8
:104370000E460446202728E04069C043C0060CD4FE
:1043800054F8301B6FF01000486144F810596777FB
:10439000A577206A2062257714E0FEF77FF9A0EB6D
:1043A0000800B04200D886B920684069C043400682
:1043B0000BD544F8305F6773A573206940F0200087
:1043C000206125730120BDE8F08120684169C9435F
:1043D0004906D1D40020F6E770B516460D460446CE
:1043E0001EE02046FFF705FE08B1012070BD681CE5
:1043F00016D0FEF753F9801BA84200D885B9206873
:104400004069C04300060BD5002044F8300F20213E
:104410006173A073216941F0200121612073E4E7F9
:1044200020684069C0430006DBD4002070BD000056
:1044300070B515490268154B4FF040248A4201D1EE
:104440001A4600E02246D568C26A961CC6621580EC
:10445000428E521E4286428E002A14D102688A423F
:1044600001D1194600E02146496821F0600100D0E1
:1044700023465960418D002905D14FF0010180F894
:104480004110FEF771FD70BD00380040003400405F
:1044900070B5416A144B8A1C426205680988134A48
:1044A0004FF040249D4201D1154600E02546E960C9
:1044B000418D491E4185418D002914D101689942E1
:1044C00001D1114600E02146496821F0A00100D049
:1044D00022465160418E002905D14FF0010180F83C
:1044E0004110FEF741FD70BD00380040003400402F
:1044F00070B50146806BC969B1BB0168CA691D4BC3
:10450000C2F301251A4A4FF04024022D0CD0CD6988
:1045100015F4407F08D04D6825F001054D60016815
:10452000914212D1194611E0914201D1194600E0A1
:104530002146496821F0010100D0234659600168F5
:104540004A6822F002024A6006E02146496821F0EA
:10455000020100D0234659604FF000014186418599
:104560004FF0010180F84110FEF7FEFC70BD000025
:10457000003800400034004030B4806B01684A6865
:1045800022F003024A600F4A04680F494FF04023AB
:10459000944201D10A4600E01A46526822F0030212
:1045A00000D019464A604FF00001418541864FF026
:1045B000010180F84110416C41F00801416430BCB8
:1045C000FEF736BD003800400034004010B5806B67
:1045D000FEF7FCFC10BD7CB50168044688680090BD
:1045E00094F841000125042834D10098C00718D060
:1045F0004868C043400614D4C9682046E26A118066
:10460000E16A891CE162618E491E6186618E41B951
:1046100001684A6822F060024A6080F84150FEF763
:104620005FFE0098400615D520684168C943890699
:1046300010D4416821F0600141602068C168806841
:10464000019084F84150606C40F0020060642046A4
:10465000FEF7EEFC94F84100032834D1009880075F
:1046600019D521684868C043000614D4626A204600
:104670001288CA60616A891C6162618D491E618508
:10468000618D41B901684A6822F0A0024A6080F851
:104690004150FEF726FE0098000714D520684168B7
:1046A000C94389060FD4416821F0A0014160206808
:1046B0008068009084F84150606C40F004006064B1
:1046C0002046FEF7B5FC7CBD70B504462DED108B81
:1046D00082B0B0EE429AF0EE629AB0EE40FAF0EE9E
:1046E00060FA90ED08EB51EC110B53EC1E2B02F02D
:1046F00087FC41EC100B51EC190B53EC102B02F022
:1047000073FA94ED061B53EC112B01F0BFFF94EDEF
:1047100010DB41EC1A0B53EC1D2B51EC190B02F082
:1047200063FA0E4646EC100B94ED0CCB054653ECA9
:104730001C2B51EC100B02F063FC94ED0EBB53EC00
:104740001B2B02F05DFC94ED001B53EC112B01F0D0
:104750009DFF53EC192B02F047FA94ED0A1B53EC22
:10476000112B01F093FF46EC105B41EC180B53EC5E
:104770001C2B51EC100B02F06BFB46EC105B41EC78
:104780001C0B53EC1B2B51EC100B02F061FB94ED56
:10479000020B41EC1B0B53EC192B51EC100B02F0EC
:1047A00023FA53EC1D2B01F071FF41EC100B51EC7F
:1047B000180B8DED000B94ED040B53EC102B01F056
:1047C00065FF41EC190B51EC180B53EC192B02F05F
:1047D00011F841EC1D0B53EC192B51EC1B0B02F0A3
:1047E00009F841EC190B53EC1A2B51EC1F0B02F09A
:1047F00007FC41EC1F0B51EC1D0B53EC1F2B02F07F
:10480000F3F953EC1A2B01F041FF41EC1A0B53EC76
:104810001F2B84ED06AB51EC190B02F0E5F953ECBC
:104820001E2B01F033FFC4E9080153EC182B51ECA7
:104830001D0B02F0D9F953EC182B02F009FBC4E967
:104840000A0153EC1C2B51EC1D0B02F0CDF953EC7B
:104850001C2B02F0FDFAC4E90C0153EC182B51ECAF
:10486000190B02F0C1F953EC1B2B02F0F1FAC4E969
:104870000E0153EC1C2B51EC190B02F0B5F99DED18
:10488000000B53EC102B02F0E3FAC4E9100102B064
:10489000B0EE4A0AF0EE6A0ABDEC108B70BD000063
:1048A00004480178002903D101210170FDF7FCBA09
:1048B0007047000044C101204FF0D041C0B20880D1
:1048C0004888704710B500224FF0D04404E000BF84
:1048D00030F8023B6380921C8A42F9D310BD4FF03E
:1048E000D041088070472DE9F04186B000260124B0
:1048F00003AF8DF80C6064250097804623466B2239
:10490000D021CDE90145FEF795F83220FDF740FDB5
:1049100004A88DE8310001237522D0214046FDF71F
:1049200087FF9DF81000682803D0012006B0BDE87D
:10493000F0818DF80C60009701236B22D021404656
:10494000CDE90145FEF776F807208DF80C000097B9
:1049500001231922D0214046CDE90145FEF76AF82E
:104960008DF80C40009701231C22D0214046CDE950
:104970000145FEF75FF88DF80C60009701231B22BC
:10498000D0214046CDE90145FEF754F80020CDE79F
:104990002DE9F0470C462DED0C8B88B09FED9A9BCE
:1049A0009FED9BDB9FED9CBB9FED9DAB64230E2297
:1049B00003A98DE80E0001233B22D021FDF738FF2B
:1049C000BDF80C0040BA00B22080BDF80E1049BA04
:1049D0000EB26680BDF8101049BA0DB2A580BDF8C0
:1049E000121049BA0FFA81FABDF8141049BA0FB281
:1049F0002784BDF8161049BA09B261848946BDF80A
:104A0000181049BA09B2A184884602F087F89FEDD0
:104A1000868B53EC182B02F0E7F8C4E9020130460C
:104A200002F07CF853EC182B02F0DEF8C4E9040124
:104A3000284602F073F89FED7E1B53EC112B01F01A
:104A4000D9FE00EE10AAB8EEC00A9FED7B1AC0EEA8
:104A5000010A9FED7A0AC4E90601384630EE800A61
:104A600084ED100A02F05AF89FED758B53EC182B69
:104A700001F0C0FEC4E90A01484602F04FF853ECC9
:104A8000182B01F0B7FEC4E90C01404602F046F8CD
:104A900053EC182B01F0AEFEC4E90E01FDF7FEFD4C
:104AA000694D2968401A02F050F89FED681B53ECDD
:104AB000112B01F09FFE41EC1C0BFDF7EFFD286070
:104AC000208810FB00F1A08810FB001002F026F8EF
:104AD00041EC100B01F013F8B0EE408AF0EE608A62
:104AE00053EC192B51EC180B01F0DCFF13D0B4F987
:104AF000020002F013F853EC182B01F07BFE41EC9E
:104B0000100B00F039FD53EC1D2B51EC100B02F093
:104B10006BF841EC190BB4F9040001F0FFFF41EC14
:104B2000180BB4F90000404201F0F8FF41EC100B03
:104B3000B0EE481AF0EE681A00F08AFE53EC1D2B16
:104B400051EC100B02F050F841EC180B53EC1B2BFE
:104B500002F00EF808D294ED140B53EC1A2B51EC22
:104B6000100B02F03FF90FD353EC1A2B51EC180B3A
:104B700002F038F911D294ED140B53EC1B2B51ECCD
:104B8000100B01F0F5FF08D22F48503080ED068B56
:104B900084ED148B94ED140B0FE02B4894ED0C1B5B
:104BA000B0EE4C2AF0EE6C2AB0EE480AF0EE680A3D
:104BB0005030FFF789FD84ED140B00F049FF53ECF2
:104BC0001A2B51EC100B02F00DF907D294ED0A0BE1
:104BD00051EC100B01F01CFDC4E90A011A4894EDD8
:104BE0000A1BB0EE4C2AF0EE6C2AB0EE490AF0EE49
:104BF000690A0830FFF768FD84ED120B08B0BDECC0
:104C00000C8BBDE8F08700000000000000000000F1
:104C1000F8C1631ADCA54C4000000000008056C0BB
:104C20000000000000805640000000000000103F1F
:104C3000000000000029CC400000AA43B81E124228
:104C4000000000000060604000C001200000000083
:104C500000408F4000B587B01C216846FBF749FD36
:104C600016484FF02041102201601549416004218F
:104C700081600021C160C0E904128161C161130239
:104C80000162C0E90913C162016341638163416448
:104C90000F20FF230090CDE90103CDE9030211208D
:104CA000CDE90501002269460448FEF727FF0028E8
:104CB00001D072B6FEE707B000BD0000E4C20120DB
:104CC000040100A02DE9F04F87B014216846FBF7DE
:104CD00010FDF0480024016841F0100101600168F6
:104CE00001F010010591016841F0020101600168C5
:104CF00001F002010591016841F040010160016885
:104D000001F040010591016841F00801016001686E
:104D100001F008010591016841F00401016001689A
:104D200001F004010591016841F001010160016891
:104D300001F001010591016841F480710160016891
:104D400001F480710591016841F080010160016802
:104D500001F080010591016841F0200101600068C7
:104D6000002200F0200005904FF48A51CA48FDF758
:104D70008FFC4FF4007A00225146C848FDF788FCAA
:104D8000002248F22001C648FDF782FC0022802163
:104D9000C448FDF77DFC00228021C348FDF778FC64
:104DA0004FF4807000900225CDE901540B27CDE926
:104DB00003476946BD48FDF76BFB42F62300CDE98A
:104DC0000005032602940A20CDE903606946B7482E
:104DD000FDF75EFB4FF4D0400090CDE90154CDE9E2
:104DE00003476946AC48FDF753FB4FF49850CDE9B3
:104DF000000502940C20CDE903606946A948FDF73F
:104E000047FBA80300904FF40410CDE90104694664
:104E1000A148FDF73DFB4FF48A5000900120CDE9F9
:104E2000010469469C480394FDF732FB4FF4E050BF
:104E30000090CDE901540A20CDE9034069469C4821
:104E4000FDF726FBF0200090CDE901544FF00D084E
:104E5000CDE9034869469148FDF71AFB4FF0040974
:104E60004FF4901BCDF80090CDE901B469468B4812
:104E7000FDF70EFB0120CDF800A0CDE90104694645
:104E800086480394FDF704FB0C20CDF80090CDE993
:104E90000360CDE9015469468648FDF7F9FA48F206
:104EA000200000900120CDE9010469467C4803946C
:104EB000FDF7EEFA68020090CDE90154CDE9034711
:104EC00069467648FDF7E4FAA802CDE900050294A8
:104ED0000A20CDE9036069467048FDF7D9FA280336
:104EE000CDE900040120029069466D48FDF7D0FA33
:104EF0004FF4BE400090CDE90154CDE90348694626
:104F00006748FDF7C5FACDE900A4694668480294F0
:104F1000FDF7BEFACC200090CDE90154CDE903475E
:104F200069465F48FDF7B4FAE8010090CDE9015405
:104F3000039469465E480494FDF7AAFA4FF0800A8C
:104F40000120CDF800A0CDE901046946554803943D
:104F5000FDF79EFA1020CDE9000502940A20CDE964
:104F6000036069464E48FDF793FACDF800A0CDE9FD
:104F700001540820CDE9034069464748FDF788FA07
:104F80000120CDF800A0CDE901046946464803940C
:104F9000FDF77EFA4020CDE90004694642480294BC
:104FA000FDF776FA7002CDE90006694602943E48A4
:104FB000FDF76EFA0120CDE9000502940A20CDE943
:104FC000036069463748FDF763FA32200090CDE967
:104FD0000154CDE9034769463248FDF759FACDE956
:104FE0000094694631480294FDF752FA86200090F9
:104FF000CDE90154CDE9034769462D48FDF748FA4C
:10500000012000904FF44410CDE90104694628487E
:10501000FDF73EFA1020CDE90006694602942448C7
:10502000FDF736FA40200090CDE90154CDE9034860
:1050300069461F48FDF72CFA2820CDE900050294A7
:105040000A20CDE9036069461948FDF721FAA80254
:10505000CDE9000B694602941348FDF719FA68037D
:10506000CDE9000B694602941048FDF711FA0022C1
:1050700011460620FEF7A0F90620FEF78FF9002260
:1050800011462820FEF798F92820FEF787F907B087
:10509000BDE8F08F30380240001802400020024086
:1050A000001C0240000802400014024000040240BC
:1050B00000000240000C0240FEE7FEE77047704728
:1050C000FEF710B930B593B030216846FBF711FBFD
:1050D00014210CA8FBF70DFB1E480025016841F0C8
:1050E00080510160006800F0805011901A480168FA
:1050F00041F4804101600068022400F48040119076
:1051000001200090000401908001CDE906401920A3
:1051100008904FF4A870CDE9090407200B90684669
:10512000FEF736FB08B172B6FEE70CA90F2081E846
:1051300031004FF4A0500F904FF480501090052193
:105140000CA8FEF739FA002801D072B6FEE713B0BA
:1051500030BD000040380240007000400248016845
:1051600041F470010160704788ED00E07CB535487E
:10517000354D364C007801285FD194ED140B9FED2E
:10518000341B51EC100B53EC112B01F02BFE24D2ED
:1051900094ED140B9FED301B51EC100B53EC112BC5
:1051A00001F0E6FC19D294ED140B51EC100B01F058
:1051B0003BFA00EE900A9FED2A0A01F0EDF828680C
:1051C00002F008F8CDE9000126A204213046FBF7E1
:1051D00061F931460720FCF78DFB94ED140B9FED30
:1051E000221B51EC100B53EC112B01F0FBFD24D2D0
:1051F00094ED140B9FED1E1B51EC100B53EC112B77
:1052000001F0B6FC19D294ED140B51EC100B01F027
:105210000BFA00EE900A9FED180A01F0BDF828681D
:1052200001F0D8FFCDE900010EA204213046FBF7C2
:1052300031F931460720FCF75DFBBDE87C400F48A3
:10524000FEF777BD98C00120A4C0012038C301201B
:105250000000000000003E4000000000000054403C
:10526000CDCCCC3D2566000000000000000049C008
:1052700000000000000034C0CDCCCCBD54C20120E1
:10528000F0B50268294C2A4D2A4E2B4F2B4B4FF07C
:10529000804CA04209D0604507D0A84205D0B0425A
:1052A00003D0B84201D0984204D122F0700E4A686F
:1052B00042EA0E02A0421BD0604519D0A84217D086
:1052C000B04215D0B84213D0984211D01C4DA8421C
:1052D0000ED01C4DA8420BD01B4DA84208D01B4D30
:1052E000A84205D01A4DA84202D01A4DA84203D1B7
:1052F00022F44075CA682A434D6922F080022A438D
:1053000002608A68C2620A688262A04201D0984242
:1053100001D109690163012141610169C90703D014
:10532000016921F001010161F0BD000000000140B0
:105330000004004000080040000C00400004014050
:105340000040014000440140004801400018004076
:10535000001C00400020004001680C3151E8002F83
:1053600022F4907241E80023002BF5D1016814313A
:1053700051E8002F22F0010241E80023002BF5D173
:10538000016B012909D101680C3151E8002F22F08D
:10539000100241E80023002BF5D1202180F84210B3
:1053A000002101637047000070B504460068016980
:1053B000E26821F44051114301612169A068E2696A
:1053C00008436169114308432168CA6849F20C63C4
:1053D0009A430243CA6020684169A26921F440717E
:1053E0001143416131492068884202D030498842E6
:1053F00002D1FEF78BF901E0FEF778F9E2690023AC
:10540000192164253226B2F5004F626828D0A0FB2E
:105410000101930F9200FAF7B1FF0146B0FBF5F0DE
:105420006FF01802504301EB800006EB0010B0FB58
:10543000F5F000F0F002B1FBF5F002EB0012B1FB69
:10544000F5F06FF01803584301EB800006EB0010F5
:10545000B0FBF5F000F00F0021681044886070BDCB
:10546000A0FB010192185B41FAF788FF0146B0FBEF
:10547000F5F00201B1FBF5F06FF01803584301EBB2
:10548000800006EBC000B0FBF5F000F0F80002EB86
:105490004002B1FBF5F0584301EB800006EBC00081
:1054A000B0FBF5F000F00700D6E700000010014067
:1054B000001401402DE9F843984617460D4604466E
:1054C000089E24E0701C22D0FDF7E8F8A0EB08004D
:1054D000B0421AD8CEB12068C168490717D5802DCF
:1054E00015D0402D13D00168C94309070FD40168B6
:1054F0000025406800902046FFF72EFF08206064DA
:1055000084F840500120BDE8F8830320FBE72068C1
:10551000006835EA000004D00020B842D2D0002054
:10552000F1E70120F9E7FEE703B401984100009894
:1055300050EAC12018BF04204A0D18BF40F00100F6
:1055400040F2FF72B2EB515F08BF40F00200012849
:1055500008BF052002B070470907090E002804DBC8
:1055600000F1E02080F80014704700F00F0000F117
:10557000E02080F8141D704770B59B482DED020B9C
:105580002DED068B079D25F00044A04218DC9748BE
:10559000844202DC0AD1069840B19DED060BBDECB9
:1055A000068B02B0BDE8704000F062BB002DCCBF9E
:1055B0009FED8F0B9FED900BBDEC068B02B070BD85
:1055C0008F48A04215DD8F48A042D8BF4FF0FF346E
:1055D00058DD9DED060B51EC100BFFF7A5FF0428DD
:1055E00008BF00F059FB9DED060BBDEC068B02B029
:1055F00070BD9DED060B51EC100B00F06CFBCDE97E
:10560000060181489FED828BA0423CDD8248A0428A
:105610001FDD00249FED82AB9DED060B53EC1A2B92
:1056200051EC100B01F032F89DED060B41EC190B1B
:1056300053EC1A2B51EC100B01F0D6FA53EC182B4B
:1056400001F0DEFC53EC192B01F0D4F8CDE9060192
:1056500049E09DED060B012453EC182B51EC100B87
:1056600001F014F89DED060B41EC190B53EC182BCF
:1056700051EC100B01F0C4FC53EC192B01F0BAF8FB
:10568000CDE906012FE06848A0421FDD02249FED0E
:10569000689B9DED060B53EC192B51EC100B01F0A0
:1056A000A3FA53EC182B00F0F1FF9DED060B41EC33
:1056B000180B53EC192B51EC100B01F0A1FC53EC1F
:1056C000182B01F097F8CDE906010CE09DED060BD3
:1056D000032453EC102B9FED580B51EC100B01F0F1
:1056E00089F8CDE906019DED060B53EC102B51EC2A
:1056F000100B01F079FA41EC180B53EC182B01F068
:1057000073FA41EC190B4E480621B0EE490AF0EE4F
:10571000690A784400F030FA53EC182B51EC100B66
:1057200001F062FA41EC180B4648B0EE490AF0EE7F
:10573000690A0521784400F01FFA53EC192B51EC4B
:10574000100B01F051FA41EC100B51EC180B53EC1B
:10575000102B002C0EDA00F099FF9DED061B53EC88
:10576000112B01F041FA9DED061B53EC112B01F0BA
:105770006FFB35E000F08AFF9DED061B53EC112B0B
:1057800001F032FA41EC100B2F48784400EBC400D2
:1057900090ED001B51EC100B53EC112B01F030FC81
:1057A0009DED061B53EC112B01F02AFC41EC100B74
:1057B0002648784400EBC40090ED001B51EC100B20
:1057C00053EC112B01F044FB41EC100B002DA2BF58
:1057D000BDEC068B02B070BD51EC100B00F018FF51
:1057E00041EC100B01E70000000010440000F07FC6
:1057F000182D4454FB21F93F182D4454FB21F9BFC7
:105800000000DC3F0000203E0000F33F00000000ED
:10581000000000000000F03F0000E63F0000000034
:105820000000000000000040008003400000000075
:10583000000000000000F83F000000000000F0BF82
:105840007237000028370000B23600006A360000C8
:1058500070B56F4E2DED040B2DED048B82B0DDF88D
:1058600024C0DDE907235C422CF000411C4341EADF
:10587000D474069D22F00040B44205D86C422C43FB
:1058800040EAD474B4420BD99DED081B9DED060B84
:1058900002B0BDEC048B04B0BDE8704000F0F2B97A
:1058A000ACF14054A4F17F641C430BD0022404EA01
:1058B000AC7444EAD27405439FED578B9FED582B8F
:1058C00007D015E09DED060B51EC100B00F0FBF935
:1058D00042E0002C11BF012C9DED060B02B0BDEC87
:1058E000048B04BF04B070BD022C38D0032C3BD015
:1058F0000B439FED4D1B9FED4E0B0AD0B14218D1CB
:10590000B04209D121F0804120F0804009910790F8
:105910000FE0002A15DA10E0474B7B44002C08BF4B
:1059200093ED000B0DD0012C10D0022C17D0032CBE
:105930001AD0B0421DD1002A03DAB0EE410AF0EECF
:10594000610A02B0BDEC048B04B070BD93ED000B96
:1059500051EC100B00F05CFE41EC100BF1E7B0EEE7
:10596000480AF0EE680AECE7B0EE420AF0EE620A8E
:10597000E7E7401A00159FED329B3C28C8BF8DED2C
:10598000000B17DCBCF1000FBCBF10F13C0F8DED1C
:10599000009B0FDB9DED080B53EC102B9DED060BD0
:1059A00051EC100B00F026FF00F095F900F08BF998
:1059B000CDE90001B4B1012C10D0022C9FED220BD7
:1059C00053EC102B9DED000B51EC100B19D001F096
:1059D00017FB53EC182B01F013FBBDE7019880F087
:1059E000004001909DED000B53EC192B51EC100B76
:1059F00001F058F804BF0220FAF7FDFE9DED000B00
:105A00009FE701F0FDFA53EC182B01F021FAA3E710
:105A10000000F07F00000000182D4454FB210940D5
:105A2000182D4454FB2109C0182D4454FB21F9BF03
:105A3000182D4454FB21F93F9A3500000000000066
:105A40000000000000000000075C143326A6A13C03
:105A50002DED020B019820F0004001909DED000B10
:105A600002B0704710B52DED028BB0EE408A18EEF3
:105A7000100A01F02BFC01EE100A18EE100AB7EE26
:105A8000000A78EE410A10F0004F4FF07F4010EE10
:105A9000901A12D0B1F13F4F24BF10EE901AB0EB24
:105AA000410F12D210EE901AB1F17C5F1CDD10EEA6
:105AB000901AB0EB410F17D314E0B1F13F4F07D963
:105AC00010EE901AB0EB410F02D331EE401A0BE00A
:105AD00010EE901AB1F17C5F06DB10EE901AB0EB7D
