:020000040800F2
:10000000400D00206D0200084F3F000895270008B2
:100010004D3F0008AD0A000817430008000000002B
:10002000000000000000000000000000533F000836
:10003000AF0A000800000000513F0008553F0008CB
:10004000870200088702000887020008870200086C
:1000500087020008870200084D0B0008870200088D
:10006000870200088702000887020008870200084C
:10007000870200088702000887020008870200083C
:10008000870200088702000887020008870200082C
:10009000870200088702000887020008870200081C
:1000A000870200080940000887020008870200084C
:1000B00087020008870200088702000899270008C5
:1000C00087020008870200088702000887020008EC
:1000D00087020008870200088702000887020008DC
:1000E000790B0008870200088702000887020008D1
:1000F00087020008870200088702000887020008BC
:1001000087020008870200088702000887020008AB
:1001100087020008870200088702000825400008BF
:10012000870200088702000887020008870200088B
:10013000870200088702000887020008870200087B
:10014000870200088702000887020008870200086B
:10015000870200088702000887020008870200085B
:10016000870200088702000887020008870200084B
:1001700087020008870200088702000800000000CC
:10018000870200088702000800F002F800F05EF81D
:100190000AA090E8000C82448344AAF10107DA45E2
:1001A00001D100F053F8AFF2090EBAE80F0013F0D6
:1001B000010F18BFFB1A43F0010318472C7700000A
:1001C0004C7700000A444FF0000C10F8013B13F08C
:1001D000070408BF10F8014B1D1108BF10F8015BA0
:1001E000641E05D010F8016B641E01F8016BF9D193
:1001F00013F0080F1EBF10F8014BAD1C0C1B09D1EA
:100200006D1E58BF01F801CBFAD505E014F8016B5B
:1002100001F8016B6D1EF9D59142D6D370470000ED
:100220000023002400250026103A28BF78C1FBD8FF
:10023000520728BF30C148BF0B607047002070478D
:100240001FB505F083FD1FBD10B510BD00F0BEF950
:100250001146FFF7F5FF04F009FE00F0DCF903B4E6
:10026000FFF7F2FF03BC00F0DFF900000948804708
:1002700009480047FEE7FEE7FEE7FEE7FEE7FEE788
:10028000FEE7FEE7FEE7FEE704480549054A064BA0
:1002900070470000F93F000889010008400700206E
:1002A000400D0020400900204009002053EA020CC4
:1002B00000F069802DE9F04B4FF00006002B1FBFC6
:1002C000B3FA83F503FA05F424FA05F65E4012BF8B
:1002D0001643B2FA82F502FA05F4C5F120051EBFF5
:1002E00022FA05FC44EA0C04203556EA044C4FEA95
:1002F000144418BF641C4FF000084FF000099042EE
:1003000071EB030C39D3002919BFB1FA81F701FA57
:1003100007F6B0FA80F700FA07F6C7F120071EBF0C
:1003200020FA07FC46EA0C062037B6FBF4FCA7EBE4
:100330000507103F07F01F0BCBF120060CFA0BFB53
:100340002CFA06F644BFB3460026202FA4BF5E4613
:100350004FF0000B5BEA060C08BF4FF0010B19EBE6
:100360000B09ABFB027C48EB0608C01B06FB02CC6A
:100370000BFB03CC71EB0C01C1E70B460246414677
:100380004846BDE8F08B13B54FF000004FF0000178
:10039000AFF30080BDE81C40704700000FB41CB5EF
:1003A000074B06AA7B4469460090059800F0EDF8DB
:1003B0000020694600F0FCF81CBC5DF814FB00004E
:1003C000090200002DE9F05F894604464FF0000A5B
:1003D000DFF824B1FB44C0F820A02046E16888473C
:1003E00000287DD0252806D0D4E901219047206A35
:1003F000401C2062F1E700255F462046E1688847FF
:100400002028064607DB312E05D2B81910F8200C3B
:1004100008B10543F1E7A80701D525F00405C4F8A4
:100420001CA00027C4F818A02A2E09D0304604F0DA
:10043000EFFA38B304EB8708303EC8F8186019E0CB
:1004400059F8041B204604EB87029161E168884754
:10045000012F064618D1E069002820DA25F0200592
:100460001DE0D8F8180000EB800006EB40003038A3
:10047000C8F818002046E1688847064604F0C8FA24
:100480000028EED1012F0AD02E2E08D12046E16897
:1004900088477F1C0646022F45F02005C4DBA06973
:1004A000002803DA404245F00105A061E80701D0C9
:1004B00025F01005A6B1A6F14100192802D8203672
:1004C00045F400654A463146204625604D46FFF713
:1004D000B5FE60B1012807D0ED1D25F0070000E052
:1004E00007E000F1080978E705F1040975E73046EF
:1004F0007AE7206ABDE8F09F58740000421E12F8A7
:10050000013F002BFBD111F8013B002B02F8013B0E
:10051000F9D170474FF0000200B513469446964655
:10052000203922BFA0E80C50A0E80C50B1F1200106
:10053000BFF4F7AF090728BFA0E80C5048BF0CC0B4
:100540005DF804EB890028BF40F8042B08BF704712
:1005500048BF20F8022B11F0804F18BF00F8012B84
:10056000704770477047704710B500F027F8006873
:1005700010BD10B5044600F021F8046010BD000065
:1005800001694A1C02610878704700B58FB0CDE957
:1005900001310021059105497944CDE90310114647
:1005A0006846FFF70FFF0FB000BD0000E5FFFFFF3B
:1005B0000A6802F8010B0A607047000000487047A3
:1005C000DC06002000487047DC0600207546FFF777
:1005D000F9FFAE4605006946534620F00700854600
:1005E00018B020B5FFF750FEBDE820404FF00006E0
:1005F0004FF000074FF000084FF0000B21F007010B
:10060000AC46ACE8C009ACE8C009ACE8C009ACE84D
:10061000C0098D46704710B50446AFF300802046F0
:10062000BDE81040FFF71BBE01491820ABBEFEE736
:100630002600020070470000464910B54A6822F4BF
:1006400040324A604A6843681A434A6001684A680F
:1006500022F480724A6001684A68036942EA032210
:100660004A6001684A6822F040724A6001684A683C
:1006700083681A434A6001688A6822F400628A60CB
:1006800001688A68C3681A438A60816A6FF0706281
:10069000D14201688A6822F070628A6001688A68C3
:1006A0000CD0836A1A438A6001688A6822F040523B
:1006B0008A6001688A68C36A1A4301E022F04052E6
:1006C0008A6001688A6822F002028A6001688A688A
:1006D000037E42EA43028A6090F8201000290168F4
:1006E0004A680FD042F400624A6001684A6822F406
:1006F00060424A6001684A68174C436A04EB43331E
:100700001A4301E022F400624A600168CA6A22F4D6
:100710007002CA620168CA6A838B104C04EB0353EF
:100720001A43CA6201688A6822F400728A6001680A
:100730008A6890F8303042EA43228A6001688A6809
:1007400022F480628A6001688A68406942EA8020F7
:10075000886010BD0023014000E0FFFF0000F0FFB3
:1007600070B50A4E00243568306007E000F070F97B
:1007700082B2A1B2002000F0E3F8641C00F06EF930
:10078000A042F3D8A8B2306070BD00005004002031
:10079000074B30B49B68DD881C689B88DB1DDB0839
:1007A000203A13FB02F205FB024230BC00F080B994
:1007B000500400200148006880680047BC00002009
:1007C0002DE9F0470446002799468A461546B84663
:1007D000104601E008F1010810F8011B0029F9D1C9
:1007E00000F036F91C4E4A46B9F1010FB16889880C
:1007F000B0FBF1F002D0022A17D105E0A0EB08000F
:10080000484304EB500003E0A0EB08004843001B02
:1008100084B20AE051462046FFF7BAFFB0687F1C59
:10082000BFB280886D1C204484B200F011F90146EB
:10083000B068808807FB101189B2814201D3012082
:1008400000E000202A780AB1012100E000210842DE
:10085000E0D1BDE8F0870000500400202DE9FE4FF4
:10086000814603208846A0EB4207002514465EE03F
:10087000314EA8EB040A1FFA8AF1308882B209EBE4
:100880000500029080B200F081F830881FFA8AF1EA
:1008900082B2A9EB0500019080B200F077F83088B1
:1008A000A8EB050A82B209EB040000901FFA8AF156
:1008B00080B200F06BF83088A9EB040B82B21FFA0B
:1008C0008AF11FFA8BF000F061F8308808EB040A17
:1008D00082B202981FFA8AF180B200F057F830888D
:1008E0001FFA8AF182B2019880B200F04FF8308886
:1008F00008EB050A82B200981FFA8AF180B200F074
:1009000045F830881FFA8AF182B21FFA8BF000F0A6
:100910003DF80A48B060002F03DA07EB8507BF1DDA
:1009200004E0281B07EB8007641E0A376D1CA542F4
:100930009ED9BDE8FE8F000050040020C0000020BA
:100940002DE9F04106460F4800240F4F0068154678
:100950008846D0F820C0BCF1000F0FD0134638886D
:100960000A463146BDE8F04180B2604738884146CA
:1009700082B2301980B200F009F8641CAC42F5D3A1
:10098000BDE8F081BC00002050040020034B1B6830
:100990005B69002B00D0184770470000BC000020A6
:1009A0002DE9F74F0F46DFF8A49090460321A1EB05
:1009B0004806B9F8001082B089B2002415464FF6F7
:1009C000FF7AC9F8001031E08DB1381981B2029870
:1009D0000AEA4502401B0090934680B2FFF7B0FF41
:1009E000381B81B200985A4680B2FFF7A9FF8CB13C
:1009F000781B81B202980AEA4402001B00909346D9
:100A000080B2FFF79DFF781981B200985A4680B2F4
:100A1000FFF796FF002E03DA06EB8406B61D04E00E
:100A2000601B06EB80066D1E0A36641CAC42CBD9F7
:100A3000B9F80010424689B2C9F80010029805B012
:100A40003946BDE8F04FFFF709BF00005004002011
:100A500001480068806A0047BC0000200148006827
:100A6000C06A0047BC00002070B50D4C4FF6FF7007
:100A7000012660600B48A0600B4D00202060686874
:100A80008047A0F51341253907D10648001F0560AE
:100A90002868804703480026A060304670BD0000EB
:100AA00050040020C0000020F4000020FEE7704742
:100AB0002DE9F74FDFF890B00026DBF808008588B5
:100AC000C788E81D824620F00700401B00F0FF09A0
:100AD00035E000BF4FEADA010298012901FB060068
:100AE0000BD002290BD0017842780904807841EAC2
:100AF000022141EA000800241AE0007801E00088A1
:100B000040BA8046F7E7291B49440120491E884026
:100B100010EA080F02D0BBF8000001E0BBF80400A7
:100B2000019982B20098204480B2FFF72FFF641C25
:100B3000AC42E8D30198401C80B2761C0190BE42C2
:100B4000C8D3BDE8FE8F00005004002010B54FF45C
:100B50008071054800F036FC04A004F0DBFABDE823
:100B60001040012000F02ABB001802404B455920DC
:100B7000505245535345440010B54FF6FF70FFF7F0
:100B8000EFFD322278219620FFF70AFF0449322038
:100B90000860BDE810404FF4004000F00FBB0000BB
:100BA0009800002000B59BB04FF020400090144802
:100BB0000190052014900120159009201690002026
:100BC0000221CDE91701CDE919100421CDE9021068
:100BD0001021CDE904010690079009020890CDE9A3
:100BE00009010C900B900D900E90119000F00AF8F6
:100BF00014AA1146684601F03DFB1BB000BD000081
:100C0000040100A0294800B5016887B041F0010146
:100C10000160006800F00100059024480838016870
:100C200041F008010160016801F0080105910168C7
:100C300041F010010160016801F0100105910168A7
:100C400041F020010160016801F020010591016877
:100C500041F0400101600068694600F040000590E5
:100C60000220019001200290032003900C200490A8
:100C70004FF6337000900E4800F0ACFA4FF69B70C0
:100C8000009069460B4800F0A5FA4FF23F00009033
:100C90006946094800F09EFA40F23F4000906946DC
:100CA000064800F097FA07B000BD0000383802404F
:100CB000000C0240001002400014024000180240E4
:100CC00030B5B3F5804F05D06FF0704140F8221079
:100CD000002030BD8C690B688D6823434C6889897E
:100CE000240144EA0524234343EA014150F8223019
:100CF000014C23401943E9E70000F0CF10B50A6822
:100D000050F8223023F0010340F822308C68082C80
:100D100023D000234A682243CC681C430B6922433A
:100D20001A434B690E4C1A43CB691A430B6A1A4398
:100D30004B6A1A438B6A1A43CB6A1A430B6B1A43EA
:100D40008B691343CA6B09681A4350F82130A343D7
:100D5000134340F82130002010BD4023DAE70000A3
:100D60007FFF0F0030B5D1E9003443EA04138C68EB
:100D70008D89240244EA054423430C8A094D00EB83
:100D8000820005EB045423430C7D6D0105EB0464E4
:100D9000896923430B43416801F040410B434360A1
:100DA000002030BD0000F0FF78B50024009490F8DA
:100DB0003C20012A19D0012280F83C200A68072330
:100DC0000568092A13D9EE680A3A02EB42029340F9
:100DD0009E43EE600B788A680A3B03EB43039A401C
:100DE0000368DD682A43DA6010E0022078BD2E69CE
:100DF00002EB420293409E432E610B788A6803EB1C
:100E000043039A4003681D692A431A614A681F23F5
:100E1000072A13D205686E6B521E02EB82029340C2
:100E20009E436E630B790A885B1E92B203EB8303C9
:100E30009A4003685D6B2A435A6327E005680D2AD0
:100E400012D22E6BD21F02EB820293409E432E637E
:100E50000B790A88DB1F92B203EB83039A40036885
:100E60001D6B2A431A6311E0EE6A0D3A02EB82020F
:100E700093409E43EE620B790A880D3B92B203EBDE
:100E800083039A400368DD6A2A43DA62164B0568D9
:100E9000144A9D4206D10D68122D03D1556845F4C0
:100EA0008005556005689D4218D10B68102B01D054
:100EB000112B13D1536843F40003536009681029C0
:100EC0000CD10A490A4A0968B1FBF2F101EB810130
:100ED000490000E0491E00910029FBD180F83C4008
:100EE000002078BD0023014000200140B800002010
:100EF00040420F0070B504004FF0000503D0206C95
:100F0000002610B107E0012070BD204600F01CF85B
:100F1000666484F83C60206CC00610D4206C20F419
:100F2000885040F0020020642046FFF785FB66648D
:100F3000206C20F0020040F00100206400E0012558
:100F400084F83C60284670BD10B586B00446142174
:100F50006846FFF7DFFA1249206888421DD1114820
:100F60000021026842F480620260006800F4806040
:100F700005900C481438026842F0200202600068B4
:100F800000F0200005904FF4C06000900320CDE9F0
:100F900001016946044800F01DF906B010BD0000CB
:100FA00000220140443802400014024018B50021DC
:100FB000009190F83C20012A07D0012280F83C20C3
:100FC00002689368DB0702D011E0022018BD936825
:100FD00043F0010393602E4A2E4B1268B2FBF3F2EA
:100FE00002EB420200E0521E0092002AFBD102688E
:100FF0009368DB0742D0036C40F20164A34343F4DF
:101000008073036453685B0505D5036C23F40053B8
:1010100043F480530364036CDB0404D5436C23F076
:101020000603436400E0416480F83C101A496FF005
:101030002203136049680068CA06184906D088422E
:1010400024D1816811F0405F13D01FE08842F8D0AE
:10105000134A904203D1D1F80423D206F1D0114AA9
:10106000904213D1D1F8041301F01F011029E8D3E5
:101070000CE0816841F08041816007E0016C41F043
:1010800010010164416C41F001014164002018BD70
:10109000B800002040420F00002301400020014022
:1010A000002101400022014090F83510022903D0B0
:1010B0008021416501207047052180F835100068C6
:1010C000016821F0010101600020704790F83500AF
:1010D0007047000070B5044600F082F90546601CB8
:1010E00002D004480078044400F07AF9401BA04282
:1010F000FAD370BDAC000020F0B587B0142168466B
:10110000FFF708FA25480168002944D10121016050
:1011100023480024016841F00101016000680225B4
:1011200000F0010005904FF69B70CDE9000502AA82
:1011300003260C2782E8D00069461A4800F04AF8D6
:101140004FF6FB70CDE9000502AA694682E8D0009F
:10115000154800F03FF88020CDE9000502AA694655
:1011600082E8D000114800F035F840F23F60CDE948
:10117000000502AA694682E8D0000D4800F02AF86E
:101180004FF23F00CDE9000502AA694682E8D0008F
:10119000084800F01FF807B0F0BD0000A4000020D0
:1011A0003838024000100240000C024000040240A7
:1011B000001802400014024070470000044910B5B6
:1011C0000A68024202D00860FFF7F6FF10BD000077
:1011D000143C01402DE9F84FDFF8BCA100220125A5
:1011E00003264FF00F090AF1040BAAF1040E00BF09
:1011F0000B6805FA02F42340A34270D10F7907F07F
:101200000307012F01D0022F16D187684FEA420849
:1012100006FA08FC27EA0C07D1F80CC00CFA08FC07
:101220004CEA070CC0F808C04768A7430C79C4F320
:10123000001494403C4344600C79E443A4070AD072
:10124000C4684FEA420C06FA0CF7BC438F6807FAF1
:101250000CF72743C7600C7904F00304022C12D169
:10126000D40800EB840CDCF820405707FF0E09FA85
:1012700007F824EA0804D1F8108008FA07F848EAC9
:101280000408CCF8208004684FEA420C06FA0CF7F8
:10129000BC430F7907F0030707FA0CF727430760F1
:1012A0004C6814F4403F70D03C4C276847F48047AA
:1012B0002760246822F0030704F480440094384C2B
:1012C00007EB040CDCF8084897074FEA177809FA8F
:1012D00008F7BC43334FB84202D1002724E054E062
:1012E000314FB84201D101271EE0304FB84201D141
:1012F000022719E02E4FB84201D1032714E02D4FE9
:10130000B84201D104270FE02B4FB84201D1052785
:101310000AE02A4FB84201D1062705E0284FB8421B
:1013200001D1072700E0082707FA08F72743CCF880
:101330000878DAF800405746D1F804C09C435FEAC9
:10134000CC2C00D51C433C60DBF800405F46D1F854
:1013500004C09C435FEA8C2C00D51C433C60DEF843
:1013600000407746D1F804C09C435FEA8C3C00D52E
:101370001C433C60084F083F3C68D1F804C09C43C4
:101380005FEACC3C00D51C433C60521C102AFFF4A1
:101390002FAFBDE8F88F0000083C01404438024000
:1013A00000300140000002400004024000080240FA
:1013B000000C0240001002400014024000180240DD
:1013C000001C0240426921EA02030A4043EA02414A
:1013D000816170470AB1816170470904FBE7000031
:1013E0000148806870470000AC00002070477047DB
:1013F0002DE9F047026800215368C66A90F83E4024
:1014000090F83D50102C12D0402C10D0046C002CC1
:101410007DD05469E443A6077AD4DE43B60577D479
:10142000036C03B19169BDE8F04701F061BE9769B3
:1014300051694FF42A0CC9435FEAC1784FF02A4939
:1014400004D066452AD04E4528D010E0DE43B605CC
:101450000DD4C16A614501D1012103E0C16A49454A
:1014600001D10821C162BDE8F04701F0D5BC0E07EB
:1014700016D4DE43B60513D4416CC9B21161416B79
:1014800009B1C96B29B9816B002907D0C96B002943
:1014900004D00068416841F400614160BDE8F08714
:1014A0008E0706D4DE43B60503D4BDE8F04701F04D
:1014B00027BCFE43526876074FEA02521DD4002A29
:1014C000ECDB0A0608D4DA43520505D4490705D5F2
:1014D000BDE8F04701F0B8BB4907DFD4D94389051F
:1014E000DCD4212D05D0402CD8D1BDE8F04701F047
:1014F000D9BCBDE8F04701F065BB002ACEDB4A0647
:101500000BD4DA43520508D4490708D501E00DE0B1
:101510000EE0BDE8F04701F0DBBA4907BED4D9437D
:101520008905BBD4BDE8F04701F065BA916970E761
:10153000E10606D4D943890503D4BDE8F04701F09C
:10154000FBBD2821212D27D0292D25D0650655D476
:10155000DD436D0552D4640752D590F83D30448D7B
:10156000002C9BD01269446A2270426A521C42626B
:10157000428D521E4285428D002A8FD12A2B8DD159
:101580000268536823F4806353602222026380F868
:101590003D1000F0E9FA81E7250623D4DD436D050F
:1015A00020D4640720D590F83D30448D002CF2D033
:1015B000446A24781461426A521C4262428D521E6F
:1015C0004285428D002AE6D1292BE4D10268536876
:1015D00023F4806353602122026380F83D1000F001
:1015E000C4FA5BE76107D6D4D9438905D3D4418DCA
:1015F0000029D0D0416A097811610AE06107CAD494
:10160000D9438905C7D4418D0029C4D01169426AE4
:101610001170416A491C4162418D491E41853DE777
:101620007047000070B5040025D094F83D000025F7
:1016300020B984F83C50204600F058FA242084F861
:101640003D002068016821F0010101602068016807
:1016500041F4004101602068016821F4004101600B
:1016600000F0BAFB4D4A6168914201D84C4900E054
:101670004C49884201D2012070BD4B492368B0FB20
:10168000F1F15E6826F03F060E435E6063689342A8
:1016900006D94FF4967359434FF47A73B1FBF3F1C3
:1016A0002368491C1E6A26F03F06314319626168AF
:1016B000914210D84900401EB0FBF1F2521CC2F317
:1016C0000B02042A01D2042022E0B0FBF1F0401CFE
:1016D000C0F30B001CE0A268F2B301EBC10303EB03
:1016E0000116431EB3FBF6F35B1C43F480431B055A
:1016F00049D092B301EBC10202EB0111401EB0FBD5
:10170000F1F0401CC0F30B0040F4804040F4004076
:101710002168CA694CF6FF739A431043C861D4E943
:10172000071001432068026822F0C00211430160E3
:10173000D4E9030101432068826848F2FF339A43E9
:1017400011438160D4E9050108432168CA6822F089
:10175000FF021043C86001E00EE016E02068016857
:1017600041F0010101602564202084F83D002563DB
:1017700084F83E50002070BD01EB4106431EB3FBD0
:10178000F6F35B1CB3E70120C2E701EB4101401E09
:10179000B0FBF1F0401CC0F30B00B7E7A0860100DE
:1017A00080841E0000093D0040420F0070477047D2
:1017B00070477047704700002DE9FF4F83B09A468D
:1017C000DDE9118793460446DDF84090FFF708FEF7
:1017D000054694F83D00202870D119230122744950
:1017E0002046009501F082FD0028F5D194F83C00D8
:1017F000012863D0012084F83C0020680168C907F3
:1018000003D1016841F0010101602068016821F401
:1018100000610160222084F83D00402084F83E00F1
:1018200000262664C4F82490A4F82A80608D2085C0
:101830006048E062CDE9007553465A462046049957
:1018400001F084FB002879D1208DD0B1012821D06E
:101850000228206824D0416980690090208D0328E7
:1018600066D801282BD0544902283B464FF000028D
:10187000009557D08846204601F038FD00285DD1FC
:101880003AE02068416981690091016841F4007182
:1018900001607DE02068016821F480610160F0E76B
:1018A000016821F4806101602068016841F40061F1
:1018B0000160206841698069009069E075E02A460E
:1018C0003946204601F0B8FD88BB54E02068016825
:1018D00041F40071016020680069616A0870606A03
:1018E000401C6062218D491E2185618D491E6185E4
:1018F00021680969017042E02068016821F4806173
:10190000016020680069616A0870606A401C60625A
:10191000208D401E2085608D401E60853B46002244
:1019200041460095204601F0E1FC00B9CEE705E014
:101930002A463946204601F07FFD18B1012007B044
:10194000BDE8F08F20680069616A0870606A401C19
:101950006062208D401E81B22185608D401E6085B1
:1019600020684269D243520712D4032903D1016887
:1019700021F48061016020680069616A0870606A12
:10198000401C6062208D401E2085608D401E608559
:10199000208D00287FF462AF202084F83D0084F879
:1019A0003E6084F83C600020C9E70220C7E70000E1
:1019B000020010000000FFFF040001002DE9FF4FAE
:1019C00083B09A46DDE9119793460446DDF84080DE
:1019D000FFF706FD054694F83D0020287FD1192326
:1019E000012240492046009501F080FC002876D174
:1019F00094F83C00012872D0012084F83C00206853
:101A00000168C90703D1016841F001010160206844
:101A1000016821F400610160212084F83D0040202C
:101A200084F83E0000262664C4F82480A4F82A9096
:101A3000608D20852C48E062CDE9007553465A46FA
:101A40002046049901F000FB70B930E02A4639467F
:101A5000204601F029FD58B1206C042804D12068EB
:101A6000016841F400710160012007B0BDE8F08F0A
:101A7000606A216800780861606A401C6062218D9C
:101A8000491E89B22185628D521E62852268536982
:101A9000DB435B070BD469B100781061606A401CBE
:101AA0006062208D401E2085608D401E6085208DE7
:101AB0000028CBD12A463946204601F0EBFB00280E
:101AC000CAD154F83D0B016841F400710160202037
:101AD00004F81E09E67766770020C6E7FFE70220D4
:101AE000C3E70000020010000000FFFF10B586B041
:101AF000044614216846FEF70DFD18492068884207
:101B000029D117480021026842F0020202600068F1
:101B100000F0020005904FF4107000901220019028
:101B20000120CDE902010420049069460D48FFF729
:101B300051FB0B481030016841F40011016000684E
:101B4000002200F40010059011461F2000F078F8E4
:101B50001F2000F067F806B010BD000000540040E0
:101B600030380240000402407047704702488168E4
:101B70000278114481607047AC0000200B4810B51A
:101B8000016841F400710160016841F48061016005
:101B9000016841F480710160032000F071F80020B9
:101BA00000F006F800F024F8002010BD003C0240D0
:101BB00070B50D4D04464FF47A712878B1FBF0F002
:101BC0000A490968B1FBF0F000F084FB48B9102C19
:101BD00007D200222146501E00F032F800206C602F
:101BE00070BD012070BD0000AC000020B8000020D6
:101BF0000B4882B0016841F480410160006800F444
:101C0000804000900648001F016841F0805101604B
:101C1000006800F080500090072002B000F030B85B
:101C200044380240002809DB00F01F0201219140E6
:101C30004009800000F1E020C0F80011704700006A
:101C4000F0B40E4B1B680C46C3F30223C3F1070527
:101C5000042D00D90425191D072901D2002300E015
:101C6000DB1E012606FA05F1491E214099409E40DF
:101C7000761E16403143F0BC02F066BB0CED00E06E
:101C8000064900F0070208684FF6FF03184040EAD3
:101C90000220034A10430860704700000CED00E08A
:101CA0000000FA052DE9F0470E46050065D0DFF883
:101CB0001481D8F80000F7B200F00700B04207D254
:101CC00088F80070D8F8000000F00700B04254D146
:101CD00028683D4C810712D5400703D5206840F4A1
:101CE000E05020602878000703D5206840F4604069
:101CF00020602068A96820F0F00008432060287860
:101D0000C0072DD0304968680839012812D0022850
:101D100013D0032811D00968890700292DDA21681A
:101D200021F0030101432160FFF75AFB814641F294
:101D3000883A0EE009688903EFE709688901ECE752
:101D4000FFF74EFBA0EB0901514502D90320BDE886
:101D5000F0872068696800F00C00B0EB810FEFD1CC
:101D6000D8F80010404601F00701B14207D90770CA
:101D7000006800F00700B04201D00120E7E72878B2
:101D8000400705D52068E96820F4E050084320604A
:101D90002878000706D52068296920F4604040EAC9
:101DA000C100206000F038F82168084AC1F303112F
:101DB000515CC8400649086006480068FFF7F8FE15
:101DC0000020C4E7003C024008380240605D000883
:101DD000B8000020B00000200448054900680968E8
:101DE000044AC1F38221515CC8407047B80000200A
:101DF00008380240705D0008044805490068096819
:101E0000044AC1F34231515CC8407047B800002019
:101E100008380240705D0008154810B5006810F0E1
:101E20000C02144813D01449042A0FD0082A0ED1EA
:101E30000F4C241F2268236802F03F025B0207D583
:101E40002068C0F38810A0FB010106E0084610BD21
:101E50002168C1F38811A1FB00010023FEF726FAD7
:101E60002168C1F30141491C4900B0FBF1F010BDEC
:101E7000083802400024F40040787D01F0B51F4C82
:101E800016460D461D4B002102220327283C002840
:101E9000186887B019D040F004001860186800F086
:101EA0000400059010020090CDE90121CDE90371F5
:101EB00069461348FFF78EF9206845EAC60120F00D
:101EC00078400843206007B0F0BD40F00100186082
:101ED000186800F0010005904FF480700090CDE983
:101EE0000121CDE9037169460648FFF773F92068BF
:101EF000354320F0EC602843E4E70000303802402E
:101F000000080240000002402DE9F84F04006ED0A6
:101F10002078DFF84C93C007A9F104054AD009F1F5
:101F200004000168C1F38101012908D00068C0F3F1
:101F3000810002280AD1D9F80000400206D528689D
:101F4000800337D560680028E1D033E06068B0F5E1
:101F5000803F10D0B0F5A02F286810D020F480303A
:101F60002860286820F4802028606068A8B1FFF706
:101F700037FA06460DE0286840F48030F4E740F474
:101F800080202860F7E700BFFFF72AFA801B64284B
:101F900073D828688003F7D50CE0FFF721FA0646CE
:101FA00005E000BFFFF71CFA801B6428F0D8286802
:101FB0008003F7D42078DFF8AC8280074FF0000A66
:101FC0003ED5A748001D016811F00C0F08D000682D
:101FD000C0F3810002280BD1D9F80000400207D4D9
:101FE0002868800716D5E068012800D112E033E1A7
:101FF000E068B8B10120C8F80000FFF7F1F9064623
:1020000005E000BFFFF7ECF9801B0228C0D8286864
:102010008007F7D52868216920F0F80040EAC10060
:1020200028600DE0C8F800A0FFF7DAF9064604E0E2
:10203000FFF7D6F9801B02281FD828688007F7D43D
:102040002078000722D5864F87486169703771B1C3
:1020500001210160FFF7C4F9064604E0FFF7C0F96B
:10206000801B022809D838688007F7D50EE0C0F831
:1020700000A0FFF7B5F9064605E082E0FFF7B0F9EA
:10208000801B02287DD838688007F7D42078400765
:1020900068D5DFF8CCB100270BF13C0BDBF8000072
:1020A000C0000BD4DBF8001041F08051CBF80010D9
:1020B000DBF80000012700F0805000906B4E306884
:1020C000C00510D4306840F480703060FFF788F9A4
:1020D000009005E0FFF784F90099401A022850D8D3
:1020E0003068C005F6D55E4EA0686C3601280FD06A
:1020F0000528306810D020F001003060306820F0F2
:1021000004003060A068B8B1FFF76AF900900FE0F2
:10211000306840F00100F4E740F004003060F7E779
:10212000FFF75EF90099411A41F28830814266D882
:1021300030688007F4D50EE0FFF752F9009007E011
:10214000FFF74EF90099411A41F28830814256D882
:1021500030688007F4D42FB1DBF8001021F08051F3
:10216000CBF80010A069C8B33D49091D0968C1F347
:10217000810102294AD00228504607D0C8F86000E1
:1021800000E03CE0FFF72CF904463BE04746C8F886
:102190006000FFF725F9064605E000BFFFF720F9CC
:1021A000801B02282BD828688001F7D4D4E90701C6
:1021B0000843A16A2E4A490802EB0141626A41EADA
:1021C0008211084394F82C1040EA0161C9F800100C
:1021D00001203866FFF704F9044606E03EE000BF40
:1021E000FFF7FEF8001B022809D828688001F7D500
:1021F00034E000BFFFF7F4F8001B022802D90320E7
:10220000BDE8F88F28688001F4D427E00128F7D0D2
:10221000D9F80000E26900F4800191421CD1226AE1
:1022200000F03F01914217D147F6C071626A014048
:10223000B1EB821F10D1A26A4FF0FF3300F440319E
:1022400003EB5202B1EB024F06D194F82C1000F0D0
:102250007060B0EB016F01D00120D1E70020CFE723
:102260000438024000004742800E474200700040A0
:102270000000FFFF70B515460E46040003D094F829
:10228000490010B107E0012070BD002084F848002B
:10229000204600F01DF804F108012068FEF72EFD2D
:1022A0003146A2682068FEF75DFDD4E901022946A7
:1022B000236BFEF705FD2168A06851F8202042F04D
:1022C000010241F82020012084F84900002070BD5F
:1022D000FEF712BF10B5401EB0F1807F01D3012080
:1022E00010BD4FF0E02460610F21601702F02CF860
:1022F0000020A06107202061002010BD70477047BA
:1023000070B590F83C20012A32D0012480F83C407E
:10231000022280F83D2003685A689D6822F070060A
:102320000A6832435A60134B02689A4214D0B2F1E1
:10233000804F11D0104B9A420ED0104B9A420BD0C6
:102340000F4B9A4208D00F4B9A4205D00E4B9A423F
:1023500002D00E4B9A4204D1496825F080031943FC
:10236000916080F83D40002180F83C10084670BD27
:10237000022070BD00000140000400400008004041
:10238000000C0040000401400040014000180040E3
:1023900010B5040003D094F83D0010B107E001200F
:1023A00010BD002084F83C00204600F01FF80220F9
:1023B00084F83D00211D206801F05AFE012084F8B8
:1023C000460084F83E0084F83F0084F8400084F81A
:1023D000410084F8420084F8430084F8440084F803
:1023E000450084F83D00002010BD000008B50068DD
:1023F000154988420FD11548016841F0200101605C
:102400000068002200F02000009011463720FFF7FE
:1024100017FC372012E00E49884213D10B48001DEB
:10242000016841F4003101600068002200F40030CE
:10243000009011461920FFF703FC1920BDE8084061
:10244000FFF7F0BB08BD0000001400404038024018
:102450000044014090F83D10012901D0012070474F
:10246000022180F83D100168CA6842F00102CA608A
:1024700000681149884214D0B0F1804F11D00F4943
:1024800088420ED00E4988420BD00E49884208D0AF
:102490000D49884205D00D49884202D00C49884236
:1024A00004D1816801F00701062903D0016841F0D9
:1024B000010101600020704700000140000400405D
:1024C00000080040000C00400004014000400140B2
:1024D0000018004070472DE9F04104460068C668C6
:1024E00005694FF00007A90713D5B10711D5F91EEB
:1024F000016101202077206880698007204602D092
:10250000FFF7E8FF04E000F07EF8204600F07CF8DA
:102510002777680716D5700714D521686FF0040077
:102520000861022020772068806910F4407F2046EF
:1025300002D0FFF7CFFF04E000F065F8204600F07E
:1025400063F82777280715D5300713D521686FF072
:1025500008000861042020772068C06980072046B1
:1025600002D0FFF7B7FF04E000F04DF8204600F07E
:102570004BF82777E80616D5F00614D521686FF0DA
:1025800010000861082020772068C06910F4407F9F
:10259000204602D0FFF79EFF04E000F034F820460A
:1025A00000F032F82777E80708D0F00706D0216856
:1025B0006FF001000861204600F027F8280608D5D2
:1025C000300606D521686FF0800008612046FFF7CD
:1025D00095FE680608D5700606D521686FF04000A4
:1025E0000861204600F012F8A8060AD5B00608D502
:1025F00021686FF0200008612046BDE8F041FFF738
:102600007EBEBDE8F081704770477047704770B577
:10261000040004D094F84100002510B106E0012028
:1026200070BD84F84050204600F024F8242084F83F
:1026300041002068C16821F40051C160204601F0CA
:10264000ABFD2068016921F4904101612068416976
:1026500021F02A0141612068C16841F40051C16044
:102660006564202084F8410084F8420065630020FE
:1026700070BD0000F0B587B0044614216846FDF730
:1026800049FF1949206888422CD118480024016864
:1026900041F480210160006800F480200590134817
:1026A0001038016841F0040101600068022500F063
:1026B000040005904FF400600090CDE90154072616
:1026C0000B4FCDE9034669463846FEF783FD6802A5
:1026D000CDE900050320CDE902406946049638465D
:1026E000FEF778FD07B0F0BD0048004040380240DA
:1026F000000802402DE9F843044690F8410098464E
:1027000016460D46202802D00220BDE8F88385B188
:102710007EB100206064212084F84100FEF760FE55
:10272000A6848146E684A0682027B0F5805F02D0A9
:1027300003E00120E9E7206910B12E4600250EE0F4
:1027400000260CE08021204601F0ACFDA8B9C6B1FE
:1027500016F8010B21684860E08C401EE084E08C94
:102760004B464FF00002CDF800800028EAD14FF030
:102770004001204601F096FD40B184F841700320ED
:10278000C3E735F8020BC0F30800E3E784F84170B3
:102790000020BAE7FEE700000148FEF729BE00006E
:1027A0007801002038B5806B002190F83D202B4B3C
:1027B00046F2A8141B68B3FBF4F3C3EBC30303EBAB
:1027C000830300933BB15B1E009303681B689B056A
:1027D00005D5009BF6E7036C43F020030364436BCD
:1027E00003B1D963836B03B1D96303681C6824F414
:1027F00080641C604185436B03B11965836B03B131
:10280000196503681C6824F001041C6090F83D40C1
:102810002023602C0BD0282434EA02020FD080F849
:102820003D3080F83E1000BFFEF7FAFE38BD80F85C
:102830003D3080F83E100164FEF7D8FD38BD0268D7
:10284000136843F0010313600268136843F4806364
:102850001360016380F83D40E6E70000B800002007
:1028600000684169C943090601D40021016170472C
:1028700070B5044690F83D0094F83E10102901D040
:10288000402906D1222804D121680A6822F4006276
:102890000A60282131EA00024FF000054FF02006BF
:1028A00026D021684968090505D4602803D084F83A
:1028B0003D6084F83E50256320684168090537D59E
:1028C000416821F400614160606B90F835203C491B
:1028D000012A11D00165606BFEF7E6FB38B3206872
:1028E000016821F00101016084F83D60606B1CE02B
:1028F000256384F83D10DFE7A06B0165A06BFEF750
:10290000D3FBA0B120684169C943490605D40069D9
:10291000616A0870606A401C60622068016821F08A
:102920000101016084F83D60A06B016D884710E0F3
:1029300094F83D10602910D04169C943490605D477
:102940000069616A0870606A401C60622046FEF798
:1029500067FE206CC1071CD115E084F83D6025643A
:102960004169C943490605D40069616A0870606A13
:10297000401C60622068016821F00101016020466E
:10298000FEF734FDE5E7810703D4410701D40007D2
:1029900004D52068416821F4E061416094F83D006D
:1029A000216C49070BD5282809D10648E062256328
:1029B00084F83D6084F83E502046FEF7F7FE70BD77
:1029C000A52700080000FFFF01684A69D2435205AD
:1029D0000FD46FF480624A61002140F8301F20223A
:1029E00042738173026942F00402026101730120A3
:1029F00070470020704710B5C26A438D0168042BF0
:102A000006D0438D032B08D0438D022B1DD012E03E
:102A10004A6822F480624A600CE04B6823F48063C9
:102A20004B60042A06D0022A04D001680A6822F406
:102A300080620A6001680969426A1170416A491C32
:102A40004162418D491E418510BD012A34D0102AB2
:102A500032D0042A34D0022A32D00B6843F40073F7
:102A60000B6001680969436A1970416A491C416237
:102A7000438D5B1E438503681B690B70416A491CCB
:102A80004162418D491E418501684B6823F44073C2
:102A90004B60202180F83D1090F83E300021402B03
:102AA00080F83E1010D0082A02D0202A00D012212F
:102AB0000163FEF77CFE10BD0B6823F48063CFE753
:102AC0000B6843F48063CBE70163FEF772FE10BD31
:102AD00038B590F83D10222910D1C36A418D0329E1
:102AE0000DD901680969426A1170416A491C416245
:102AF000418D491E4185418D032906D038BDC26AEA
:102B0000022A02D0012906D029B10068416821F4C7
:102B10008061416038BD2A4A46F2A814002112683B
:102B2000B2FBF4F202EB8202009202682024009DC4
:102B30006D1E009526D01568AD05F8D4156825F4EE
:102B4000806515600268556825F4E0655560026887
:102B50001269456A2A70426A521C4262428D521EB4
:102B6000428580F83D4090F83E2080F83E10402A93
:102B700021D0082B02D0202B00D012210163FEF7B8
:102B800016FE38BD036C43F020030364536823F43E
:102B9000E063536002681269436A1A70426A521C09
:102BA0004262428D521E428580F83D4080F83E10C0
:102BB000FEF736FD38BD0163FEF7FBFD38BD0000B2
:102BC000B800002010B5C26A90F83D1021290BD141
:102BD000418D51B1416A026809781161416A491C0D
:102BE0004162418D491E418510BD20230021082AE4
:102BF00013D0202A11D012F5803F0ED002685468FD
:102C000024F4E06454601122026380F83E1080F8DE
:102C10003D3000BFFEF7CCFD10BD0268546824F4BF
:102C2000E06454600268146844F400741460016342
:102C300080F83D3090F83E2080F83E10402AE9D1DF
:102C4000FEF7B8FD10BD000010B590F83D1090F8EB
:102C50003E30C26A048DB4B1212903D0402B11D17A
:102C600022290FD1418DE1B390F83E10402942D086
:102C7000416A026809781161416A491C4162418DCB
:102C8000491E418510BD2129E8D120230021082AB1
:102C900013D0202A11D012F5803F0ED0026854685C
:102CA00024F4E06454601122026380F83E1080F83E
:102CB0003D3000BFFEF77CFD10BD0268546824F46F
:102CC000E06454600268146844F4007414600163A2
:102CD00080F83D3090F83E2080F83E10402AE9D13F
:102CE00000E002E0FEF766FD10BD0068416821F4D7
:102CF0008061416010BDBDE8104000F0D3B8000015
:102D000078B590F83E50C26A036B90F83D6000249D
:102D10000168222E7AD1066D0EB9402D76D0056D50
:102D20001DB90569B5F5404F09D0458D05B3468DF0
:102D3000384D012E0ED0438D022B3AD05DE04A690A
:102D40008A6900920A6842F480720A60016D491C27
:102D5000016578BDAA4213D10A6822F480620A6034
:102D600001684A68120503D50A6822F4806216E0F9
:102D70004A698A6900920A6842F400720A6039E07E
:102D8000082A10D0202A0ED0122B0AD0042A03D0F1
:102D9000022A01D0102AE7D10A6842F480620A6050
:102DA00024E0012AE0D00A6822F480620A60016807
:102DB000DEE7042A21D0022A1FD0102A1DD00B687A
:102DC00023F480630B6001680B6843F400630B60BD
:102DD00001684B681B0509D5AA4212D0012A10D000
:102DE000082A0ED0102A0CD0202A0AD001684A697D
:102DF00089690091046578BD08E00B6843F480633D
:102E0000E5E74A6842F480524A60EFE7486988691A
:102E10000090F0E70000FFFF90F83E10402910D02E
:102E20000169B1F5804F19D0016DA9B3016D012978
:102E300010D1416C5FF0F10201F4407142EAD1110E
:102E400006E0016D0029416C05D0C9B241F00101D5
:102E500000680161704701F0FE01F9E790F83D104C
:102E60002129416C09D0C9B241F001010268116108
:102E7000416B29B1C96B49B902E001F0FE01F5E7E8
:102E8000816B0029E6D0C96B0029E3D00068416856
:102E900041F4006141607047FFE7416CF02201F4AA
:102EA0004071CBE710B590F83D10026D4AB1026D4C
:102EB000012A14D0026D022A16D0BDE81040FFF797
:102EC000CFBCC16C0129816C02D0C1F3072108E09D
:102ED0000268C9B21161016D891C016510BD816C68
:102EE000C9B20268116123E022291CD0428D0AB1C7
:102EF000212920D0428D002AF0D12129EED101686C
:102F00004A6822F4E0624A6001680A6842F400728A
:102F10000A6000210163202280F83D2080F83E10E5
:102F2000FEF748FC10BD01680A6842F480720A602E
:102F3000016D491CD1E7416A026809781161416A53
:102F4000491C4162418D491E418510BD2DE9F84F54
:102F50000446006889460B9D01689846174641F46F
:102F6000806101602068016841F480710160009512
:102F70004FF0011B0022594620460A9B00F0B6F98B
:102F80004FF4007A40B120680068C00501D5C4F84C
:102F900040A00320BDE8F88F216809F0FE00086119
:102FA0002B46284920460A9A00F0E8F9F0BB206831
:102FB0004169806900902A4620460A9900F074FA17
:102FC00040B1206C04283AD12068016841F40071B6
:102FD000016034E0FEB2B8F1010F09D02168380A6F
:102FE00008612A4620460A9900F05EFA0028E8D1D6
:102FF000206806612A4620460A9900F055FA002802
:10300000DFD12068016841F48071016000950022E1
:10301000594620460A9B00F069F90028B3D121687F
:1030200009F0FF0040F00100086100E007E02B46D6
:10303000044920460A9A00F0A1F90028AAD00120EC
:10304000A8E70000020001002DE9F84304460068EB
:103050000D46DDE9089701689846164641F48071EF
:1030600001604B4600224FF001112046009700F00E
:103070003DF948B120680068C00502D54FF40070E2
:1030800020640320BDE8F883216805F0FE00086194
:103090003B464A461549204600F070F988B9206839
:1030A0004169806900903A464946204600F0FCF9A3
:1030B00048B1206C042804D12068016841F40071F3
:1030C00001600120DEE7F5B2B8F1010F09D02168F7
:1030D000300A08613A464946204600F0E5F90028E2
:1030E000E7D1206805610020CCE700000200010064
:1030F00038B50C4690F83D200021282595430268FC
:103100000B4605D051699169009180F83C3038BD7B
:10311000556825F480655560E243540700D50121C8
:10312000120601D5828900E0028B80F83C3092B211
:10313000FEF75DF938BD0000F8B590F83D60044633
:103140000068416821F4E061416020680025416920
:103150000091016841F0010101602068016821F4DB
:103160008061016020684168090520D5474F222E03
:1031700048D02A2E46D0616B096849686185618D07
:1031800019B1216C41F004012164416821F400610E
:103190004160606BFDF79AFF012808D0606B0765FE
:1031A000606BFDF781FF10B1606B016D8847608D2A
:1031B00008B320684169C943490708D40069616AB6
:1031C0000870606A401C6062608D401E60852068E7
:1031D0004169C943490608D40069616A0870606A98
:1031E000401C6062608D401E6085608D18B1206C4F
:1031F00040F004002064206C00B32046BDE8F84095
:10320000FFF736BBA16B096849686185618D19B10B
:10321000216C41F004012164416821F400614160A6
:10322000A06BFDF753FF0128C1D0A06B0765A06B11
:10323000FDF73AFF0028BAD0A06BB6E72A2E06D1D8
:103240002563282084F83D002046FEF78DFC94F885
:103250003D10202028290DD0216B222901D0222EBB
:1032600007D1256384F83D0084F83E502046FEF7E0
:103270007BFCF8BD0649E162256384F83D0084F8D3
:103280003E502046FEF792FAF8BD0000A527000840
:103290000000FFFF70B516460D4604461EE02046AE
:1032A000FFF792FB08B1012070BD681C16D0FEF735
:1032B00097F8801BA84200D885B920684069C043B0
:1032C00040070BD5002044F8300F20216173A07314
:1032D000216941F0200121612073E4E72068406901
:1032E000C0434007DBD4002070BD00002DE9F0474B
:1032F000984617460D460446C1F30746DDF8209070
:103300002AE000BFB8F1FF3F26D0FEF769F8A0EB36
:103310000901414502D8B8F1000F1DD12068012EE6
:1033200016D0806925EA00000004000C12D00020AD
:10333000B84211D1002044F8300F20216173A073EE
:10334000216941F02001216120730120BDE8F0874F
:103350004069E7E70120EBE72068012E0AD0806989
:1033600025EA00000004000C06D00020B842C9D0B5
:103370000020EBE74069F3E70120F7E72DE9F0478C
:10338000984616460D4604464FF000094FF0200AB5
:10339000C1F3074723E020684069C043400515D4C6
:1033A0002068016841F40071016021686FF4806059
:1033B0004861C4F8309084F83DA084F83E90216CB8
:1033C00041F00401216484F83C9021E0701C06D097
:1033D000FEF706F8A0EB0800B04203D816B1012FA3
:1033E0001FD021E02068012F15D0806925EA000058
:1033F0000004000C18D000BF44F8309F84F80DA0E2
:1034000084F80E90216941F02001216184F80C902C
:103410000120BDE8F087406925EA00000004000CA7
:10342000EAD12068406901E02068806925EA00004F
:103430000004000CAFD1ECE72DE9F04100259046E7
:103440000E460446202728E04069C043C0060CD43D
:1034500054F8301B6FF01000486144F8105967773A
:10346000A577206A2062257714E0FDF7B9FFA0EB6D
:103470000800B04200D886B920684069C0434006C1
:103480000BD544F8305F6773A573206940F02000C6
:10349000206125730120BDE8F08120684169C9439E
:1034A0004906D1D40020F6E770B516460D4604460D
:1034B0001EE02046FFF788FA08B1012070BD681CA5
:1034C00016D0FDF78DFF801BA84200D885B9206873
:1034D0004069C04300060BD5002044F8300F20217E
:1034E0006173A073216941F0200121612073E4E739
:1034F00020684069C0430006DBD4002070BD70B571
:1035000004462DED108B82B0B0EE429AF0EE629A36
:10351000B0EE40FAF0EE60FA90ED08EB51EC110BD2
:1035200053EC1E2B02F028FB41EC100B51EC190B55
:1035300053EC102B02F014F994ED061B53EC112BF5
:1035400001F060FE94ED10DB41EC1A0B53EC1D2BE7
:1035500051EC190B02F004F90E4646EC100B94EDF9
:103560000CCB054653EC1C2B51EC100B02F004FB6A
:1035700094ED0EBB53EC1B2B02F0FEFA94ED001BF6
:1035800053EC112B01F03EFE53EC192B02F0E8F83E
:1035900094ED0A1B53EC112B01F034FE46EC105B4A
:1035A00041EC180B53EC1C2B51EC100B02F00CFAF5
:1035B00046EC105B41EC1C0B53EC1B2B51EC100B3D
:1035C00002F002FA94ED020B41EC1B0B53EC192BA9
:1035D00051EC100B02F0C4F853EC1D2B01F012FE5D
:1035E00041EC100B51EC180B8DED000B94ED040B1E
:1035F00053EC102B01F006FE41EC190B51EC180BAB
:1036000053EC192B01F0B2FE41EC1D0B53EC192BBE
:1036100051EC1B0B01F0AAFE41EC190B53EC1A2BD9
:1036200051EC1F0B02F0A8FA41EC1F0B51EC1D0BE3
:1036300053EC1F2B02F094F853EC1A2B01F0E2FD2F
:1036400041EC1A0B53EC1F2B84ED06AB51EC190B1C
:1036500002F086F853EC1E2B01F0D4FDC4E90801FA
:1036600053EC182B51EC1D0B02F07AF853EC182B8D
:1036700002F0AAF9C4E90A0153EC1C2B51EC1D0B12
:1036800002F06EF853EC1C2B02F09EF9C4E90C0119
:1036900053EC182B51EC190B02F062F853EC1B2B76
:1036A00002F092F9C4E90E0153EC1C2B51EC190BFA
:1036B00002F056F89DED000B53EC102B02F084F94C
:1036C000C4E9100102B0B0EE4A0AF0EE6A0ABDEC9D
:1036D000108B70BD04480178002903D101210170CD
:1036E000FDF760BA70470000C80000204FF0D041DD
:1036F000C0B208804888704710B500224FF0D0440F
:1037000004E000BF30F8023B6380921C8A42F9D388
:1037100010BD4FF0D041088070472DE9F04186B0D0
:103720008046012504A8CDE9000564242B467522B6
:10373000D02102944046FEF73FF89DF8100068281B
:1037400003D0012006B0BDE8F081002703AE8DF85C
:103750000C700096CDE9015401236B22D021404624
:10376000FEF72CF907208DF80C000096CDE90154E6
:1037700001231922D0214046FEF720F98DF80C7064
:103780000096CDE9015401231C22D0214046FEF7CA
:1037900015F98DF80C700096CDE9015401231B2218
:1037A000D0214046FEF70AF90020CBE72DE9F0478B
:1037B0000C462DED0C8B88B09FED9A9B9FED9BDB0B
:1037C0009FED9CBB9FED9DAB64230E2203A98DE86A
:1037D0000E0001233B22D021FDF7EEFFBDF80C00C7
:1037E00040BA00B22080BDF80E1049BA0EB2668011
:1037F000BDF8101049BA0DB2A580BDF8121049BA33
:103800000FFA81FABDF8141049BA0FB22784BDF837
:10381000161049BA09B261848946BDF8181049BA30
:1038200009B2A184884601F035FF9FED868B53ECE9
:10383000182B01F095FFC4E90201304601F02AFF80
:1038400053EC182B01F08CFFC4E90401284601F069
:1038500021FF9FED7E1B53EC112B01F087FD00EE45
:1038600010AAB8EEC00A9FED7B1AC0EE010A9FEDC8
:103870007A0AC4E90601384630EE800A84ED100A5F
:1038800001F008FF9FED758B53EC182B01F06EFDD6
:10389000C4E90A01484601F0FDFE53EC182B01F083
:1038A00065FDC4E90C01404601F0F4FE53EC182B11
:1038B00001F05CFDC4E90E01FDF792FD694D296838
:1038C000401A01F0FEFE9FED681B53EC112B01F036
:1038D0004DFD41EC1C0BFDF783FD2860208810FB9B
:1038E00000F1A08810FB001001F0D4FE41EC100B99
:1038F00000F0B0FFB0EE408AF0EE608A53EC192B76
:1039000051EC180B01F08AFE13D0B4F9020001F05B
:10391000C1FE53EC182B01F029FD41EC100B00F017
:1039200023FD53EC1D2B51EC100B01F019FF41EC62
:10393000190BB4F9040001F0ADFE41EC180BB4F919
:103940000000404201F0A6FE41EC100BB0EE481A18
:10395000F0EE681A00F074FE53EC1D2B51EC100BC6
:1039600001F0FEFE41EC180B53EC1B2B01F0BCFEEA
:1039700008D294ED140B53EC1A2B51EC100B01F000
:10398000EDFF0FD353EC1A2B51EC180B01F0E6FFAF
:1039900011D294ED140B53EC1B2B51EC100B01F0D6
:1039A000A3FE08D22F48503080ED068B84ED148B97
:1039B00094ED140B0FE02B4894ED0C1BB0EE4C2A49
:1039C000F0EE6C2AB0EE480AF0EE680A5030FFF7CD
:1039D00096FD84ED140B00F033FF53EC1A2B51ECE1
:1039E000100B01F0BBFF07D294ED0A0B51EC100B4A
:1039F00001F0CAFBC4E90A011A4894ED0A1BB0EEB3
:103A00004C2AF0EE6C2AB0EE490AF0EE690A083052
:103A1000FFF775FD84ED120B08B0BDEC0C8BBDE813
:103A2000F08700000000000000000000F8C1631AE9
:103A3000DCA54C4000000000008056C000000000E3
:103A400000805640000000000000103F0000000011
:103A50000029CC400000AA43B81E1242000000001A
:103A600000606040000000200000000000408F4027
:103A70007FB50024154800940194029412490394E0
:103A800001604FF48031C0E901140125046105761D
:103A900080F820400E49C0E90A14C561C46080F86E
:103AA00030404561FDF726FA08B172B6FEE70820FE
:103AB000CDE90005694602940448FDF775F9002830
:103AC00001D072B6FEE77FBD002201403001002028
:103AD0000100000F00B587B01C216846FCF71AFDF5
:103AE00016484FF020414FF4805201601449416064
:103AF00000218160C160016141618161C161016238
:103B0000C0E90912C16201634163816341640F200E
:103B1000FF220090CDE901020390102004901120B3
:103B2000CDE90501002269460448FEF7A3FB002801
:103B300001D072B6FEE707B000BD0000A40200206D
:103B4000040100A02DE9F04F87B014216846FCF76E
:103B5000E1FCF5480024016841F0100101600168B2
:103B600001F010010591016841F002010160016856
:103B700001F002010591016841F040010160016816
:103B800001F040010591016841F008010160016800
:103B900001F008010591016841F00401016001682C
:103BA00001F004010591016841F001010160016823
:103BB00001F001010591016841F480710160016823
:103BC00001F480710591016841F080010160016894
:103BD00001F080010591016841F020010160006859
:103BE000002200F0200005904FF48A51CF48FDF7E5
:103BF000F1FB4FF4007700223946CD48FDF7EAFB90
:103C0000002248F22001CB48FDF7E4FB002280218E
:103C1000C948FDF7DFFB00228021C848FDF7DAFB29
:103C2000781000900225CDE901540B20CDE9034026
:103C30006946C348FDF7CEFA43F62340CDE90005B7
:103C40000320CDE902400A2004906946BC48FDF7F4
:103C5000C1FA4FF4D0400090CDE901540B20CDE9DA
:103C600003406946B148FDF7B5FA4FF49850CDE9E5
:103C700000050320CDE902404FF00C0A6946CDF85B
:103C800010A0AD48FDF7A6FAA80300904FF4041069
:103C9000CDE901046946A548FDF79CFA4FF48A5026
:103CA00000900120CDE901046946A0480394FDF786
:103CB00091FA4FF4E0500090CDE901540A20CDE98B
:103CC000034069469F48FDF785FAF0200090CDE952
:103CD00001540D26CDE9034669469548FDF77AFA69
:103CE00009200090CDE901540520CDE90340694643
:103CF0008F48FDF76FFA4FF004084FF49019CDF894
:103D00000080CDE9019469468948FDF763FA0120F6
:103D10000097CDE90104694685480394FDF75AFAF6
:103D20000320CDE90240CDE900856946CDF810A019
:103D30008548FDF74FFA48F2200000900120CDE9B8
:103D4000010469467B480394FDF744FA6802009039
:103D5000CDE901540B20CDE9034069467448FDF7D5
:103D600039FA0320CDE902404FF4006B0A20CDE977
:103D700000B5049069466E48FDF72CFA2803CDE99A
:103D800000040120029069466A48FDF723FA4FF4C7
:103D9000BE400090CDE90154CDE90346694665482F
:103DA000FDF718FACDE90074694666480294FDF7FC
:103DB00011FACC200090CDE901540B20CDE903404D
:103DC00069465C48FDF706FAE8010090CDE9015428
:103DD000039469465B480494FDF7FCF980270120B1
:103DE0000097CDE90104694653480394FDF7F2F9C1
:103DF0000320CDE902404FF0100A0A20CDE900A5CA
:103E0000049069464B48FDF7E5F90097CDE9015468
:103E10000820CDE9034069464448FDF7DBF901205D
:103E20000097CDE90104694644480394FDF7D2F9AF
:103E30004027CDE90074694640480294FDF7CAF96D
:103E40000120CDE900050320CDE902400A200490BD
:103E500069463948FDF7BEF93E200090CDE901548E
:103E60000B20CDE9034069463348FDF7B3F9CDE9AE
:103E70000084694632480294FDF7ACF98620009030
:103E8000CDE901540B20CDE9034069462D48FDF7EB
:103E9000A1F9012000904FF48810CDE90104694692
:103EA0002848FDF797F90320CDF800A0CDE90104DB
:103EB00069462448FDF78EF90097CDE90154CDE914
:103EC000034669461F48FDF785F92820CDE900051E
:103ED0000320CDE902400A20049069461948FDF705
:103EE00079F9CDF800B0CDE9019469461348FDF7A2
:103EF00071F96803CDE90009694602941048FDF79D
:103F000069F9002211460620FDF79AFE0620FDF70A
:103F100089FE002211462820FDF792FE2820FDF799
:103F200081FE07B0BDE8F08F303802400018024033
:103F300000200240001C0240000802400014024021
:103F40000004024000000240000C0240FEE7FEE7D1
:103F500070477047FDF70ABE70B592B030216846D1
:103F6000FCF7D8FA14210CA8FCF7D4FA2048002555
:103F7000016841F080510160006800F080501190AC
:103F80001C48016841F4804101600068022400F48B
:103F90008040119001200090000406948601019059
:103FA0001920CDE907604FF4A870CDE90904072076
:103FB0000B906846FDF7A8FF08B172B6FEE70CA9A2
:103FC0000F2081E831004FF4A0500F904FF4805043
:103FD000109005210CA8FDF765FE08B172B6FEE74A
:103FE000002231461046FDF749FF12B070BD0000B7
:103FF00040380240007000400248016841F47001FE
:104000000160704788ED00E010B5FDF7E9F903495C
:104010004860BDE810400248FEF75DBA9C000020F1
:104020001402002010B50D490D48FFF7BFFB0B48E7
:1040300090ED020B51EC100B01F0B2F80A4A094B5B
:10404000116843F82100491C1160402900DD00215E
:104050001160BDE810400548FEF73DBAF8020020A7
:1040600078010020500300209C000020CC0100209B
:10407000F0B50268294C2A4D2A4E2B4F2B4B4FF09E
:10408000804CA04209D0604507D0A84205D0B0427C
:1040900003D0B84201D0984204D122F0700E4A6891
:1040A00042EA0E02A0421BD0604519D0A84217D0A8
:1040B000B04215D0B84213D0984211D01C4DA8423E
:1040C0000ED01C4DA8420BD01B4DA84208D01B4D52
:1040D000A84205D01A4DA84202D01A4DA84203D1D9
:1040E00022F44075CA682A434D6922F080022A43AF
:1040F00002608A68C2620A688262A04201D0984265
:1041000001D109690163012141610169C90703D036
:10411000016921F001010161F0BD000000000140D2
:104120000004004000080040000C00400004014072
:104130000040014000440140004801400018004098
:10414000001C00400020004001680C3151E8002FA5
:1041500022F4907241E80023002BF5D1016814315C
:1041600051E8002F22F0010241E80023002BF5D195
:10417000016B012909D101680C3151E8002F22F0AF
:10418000100241E80023002BF5D1202180F84210D5
:10419000002101637047000070B5044600680169A2
:1041A000E26821F44051114301612169A068E2698C
:1041B00008436169114308432168CA6849F20C63E6
:1041C0009A430243CA6020684169A26921F44071A0
:1041D0001143416131492068884202D03049884208
:1041E00002D1FDF709FE01E0FDF7F6FDE2690023CB
:1041F000192164253226B2F5004F626828D0A0FB51
:104200000101930F9200FCF751F80146B0FBF5F065
:104210006FF01802504301EB800006EB0010B0FB7A
:10422000F5F000F0F002B1FBF5F002EB0012B1FB8B
:10423000F5F06FF01803584301EB800006EB001017
:10424000B0FBF5F000F00F0021681044886070BDED
:10425000A0FB010192185B41FCF728F80146B0FB76
:10426000F5F00201B1FBF5F06FF01803584301EBD4
:10427000800006EBC000B0FBF5F000F0F80002EBA8
:104280004002B1FBF5F0584301EB800006EBC000A3
:10429000B0FBF5F000F00700D6E700000010014089
:1042A000001401402DE9F843984617460D46044690
:1042B000089E24E0701C22D0FDF792F8A0EB0800C5
:1042C000B0421AD8CEB12068C168490717D5802DF1
:1042D00015D0402D13D00168C94309070FD40168D8
:1042E0000025406800902046FFF72EFF08206064FC
:1042F00084F840500120BDE8F8830320FBE72068E4
:10430000006835EA000004D00020B842D2D0002076
:10431000F1E70120F9E7FEE703B4019841000098B6
:1043200050EAC12018BF04204A0D18BF40F0010018
:1043300040F2FF72B2EB515F08BF40F0020001286B
:1043400008BF052002B070470907090E002804DBEA
:1043500000F1E02080F80014704700F00F0000F139
:10436000E02080F8141D704770B59B482DED020BBE
:104370002DED068B079D25F00044A04218DC9748E0
:10438000844202DC0AD1069840B19DED060BBDECDB
:10439000068B02B0BDE8704000F015BB002DCCBF0D
:1043A0009FED8F0B9FED900BBDEC068B02B070BDA7
:1043B0008F48A04215DD8F48A042D8BF4FF0FF3490
:1043C00058DD9DED060B51EC100BFFF7A5FF0428FF
:1043D00008BF00F00DFB9DED060BBDEC068B02B097
:1043E00070BD9DED060B51EC100B00F020FBCDE9EC
:1043F000060181489FED828BA0423CDD8248A042AD
:104400001FDD00249FED82AB9DED060B53EC1A2BB4
:1044100051EC100B00F0F6FE9DED060B41EC190B74
:1044200053EC1A2B51EC100B01F09AF953EC182BAA
:1044300001F0A2FB53EC192B00F098FFCDE9060127
:1044400049E09DED060B012453EC182B51EC100BA9
:1044500000F0D8FE9DED060B41EC190B53EC182B28
:1044600051EC100B01F088FB53EC192B00F07EFF90
:10447000CDE906012FE06848A0421FDD02249FED30
:10448000689B9DED060B53EC192B51EC100B01F0C2
:1044900067F953EC182B00F0B5FE9DED060B41ECCF
:1044A000180B53EC192B51EC100B01F065FB53EC7E
:1044B000182B00F05BFFCDE906010CE09DED060B2B
:1044C000032453EC102B9FED580B51EC100B00F014
:1044D0004DFFCDE906019DED060B53EC102B51EC81
:1044E000100B01F03DF941EC180B53EC182B01F0C7
:1044F00037F941EC190B4E480621B0EE490AF0EEAF
:10450000690A784400F0E3F953EC182B51EC100BD6
:1045100001F026F941EC180B4648B0EE490AF0EEDE
:10452000690A0521784400F0D2F953EC192B51ECBB
:10453000100B01F015F941EC100B51EC180B53EC7A
:10454000102B002C0EDA00F05DFE9DED061B53ECE7
:10455000112B01F005F99DED061B53EC112B01F019
:1045600033FA35E000F04EFE9DED061B53EC112BA7
:1045700001F0F6F841EC100B2F48784400EBC40032
:1045800090ED001B51EC100B53EC112B01F0F4FAE1
:104590009DED061B53EC112B01F0EEFA41EC100BD4
:1045A0002648784400EBC40090ED001B51EC100B42
:1045B00053EC112B01F008FA41EC100B002DA2BFB7
:1045C000BDEC068B02B070BD51EC100B00F0DCFDB1
:1045D00041EC100B01E70000000010440000F07FE8
:1045E000182D4454FB21F93F182D4454FB21F9BFE9
:1045F0000000DC3F0000203E0000F33F0000000010
:10460000000000000000F03F0000E63F0000000056
:104610000000000000000040008003400000000097
:10462000000000000000F83F000000000000F0BFA4
:10463000AA33000060330000EA320000A23200001A
:1046400070B56F4E2DED040B2DED048B82B0DDF8AF
:1046500024C0DDE907235C422CF000411C4341EA01
:10466000D474069D22F00040B44205D86C422C431D
:1046700040EAD474B4420BD99DED081B9DED060BA6
:1046800002B0BDEC048B04B0BDE8704000F0A5B9E9
:10469000ACF14054A4F17F641C430BD0022404EA23
:1046A000AC7444EAD27405439FED578B9FED582BB1
:1046B00007D015E09DED060B51EC100B00F0AFF9A3
:1046C00042E0002C11BF012C9DED060B02B0BDECA9
:1046D000048B04BF04B070BD022C38D0032C3BD037
:1046E0000B439FED4D1B9FED4E0B0AD0B14218D1ED
:1046F000B04209D121F0804120F08040099107901B
:104700000FE0002A15DA10E0474B7B44002C08BF6D
:1047100093ED000B0DD0012C10D0022C17D0032CE0
:104720001AD0B0421DD1002A03DAB0EE410AF0EEF1
:10473000610A02B0BDEC048B04B070BD93ED000BB8
:1047400051EC100B00F020FD41EC100BF1E7B0EE46
:10475000480AF0EE680AECE7B0EE420AF0EE620AB0
:10476000E7E7401A00159FED329B3C28C8BF8DED4E
:10477000000B17DCBCF1000FBCBF10F13C0F8DED3E
:10478000009B0FDB9DED080B53EC102B9DED060BF2
:1047900051EC100B00F0EAFD00F049F900F03FF990
:1047A000CDE90001B4B1012C10D0022C9FED220BF9
:1047B00053EC102B9DED000B51EC100B19D001F0B8
:1047C000DBF953EC182B01F0D7F9BDE7019880F025
:1047D000004001909DED000B53EC192B51EC100B98
:1047E00000F01CFF04BF0220FBF7C3FE9DED000B91
:1047F0009FE701F0C1F953EC182B01F0E5F8A3E7AE
:104800000000F07F00000000182D4454FB210940F7
:10481000182D4454FB2109C0182D4454FB21F9BF25
:10482000182D4454FB21F93FD23100000000000054
:104830000000000000000000075C143326A6A13C25
:104840002DED020B019820F0004001909DED000B32
:1048500002B0704700B52DED048BB0EE409AF0EE3B
:10486000609A83B051EC190B01F0BAF841EC180BC7
:1048700018EE100A18EE901A8DED008B002818BF64
:104880000120084320F00040C0F17F6000F1E040CB
:10489000C00F14D019EE101A19EE900A8DED009B7E
:1048A000002918BF0121084320F00040C0F17F60BB
:1048B00000F1E040C00F04BF0120FBF75AFEB0EE4C
:1048C000480A03B0F0EE680ABDEC048B00BD70B579
:1048D00004462DED028B4D1E00EBC500B0EE408A64
:1048E000F0EE608A90ED000B35F0060017D053EC27
:1048F000182B51EC100B00F033FF41EC100B6D1E28
:1049000004EBC50090ED001B51EC100B53EC112B88
:1049100000F078FC41EC100B35F00600E7D1022DD9
:1049200036D0042D1CD0062D1CBFBDEC028B70BDF3
:1049300053EC182B51EC100B00F012FF94ED0A1BF6
:1049400053EC112B00F05EFC53EC182B00F008FF29
:1049500094ED081B53EC112B00F054FC41EC100BB0
:1049600053EC182B51EC100B00F0FAFE94ED061BE3
:1049700053EC112B00F046FC53EC182B00F0F0FE2A
:1049800094ED040B53EC102B00F03CFC41EC100BAD
:1049900053EC182B51EC100B00F0E2FE94ED021BCF
:1049A00053EC112B00F02EFC53EC182B00F0D8FE2A
:1049B00094ED001B53EC112B00F024FCBDEC028B9A
:1049C00041EC100B70BD10B553EC102B51EC100BDB
:1049D00000F018FC41EC100B10BD10B553EC112B7E
:1049E00051EC100B00F00EFC41EC100B10BD000060
:1049F0009FED050B10B553EC102B51EC100B00F094
:104A0000AFFE41EC100B10BD0000000000000010D4
:104A100030380A2801D2012070470020704710B5B5
:104A200041EC100BFFF7A0FC51EC100B10BD82B055
:104A3000CDE9000121F0004001909DED000B02B096
:104A400051EC100B704710B50021102000F005FA52
:104A50000021112000F001FA0021122000F0FDF9E0
:104A60000021132000F0F9F90021292000F0F5F9C8
:104A70000021BDE81040072000F0EFB910B500217B
:104A8000102000F0EAF90021112000F0E6F90021E1
:104A9000122000F0E2F90021132000F0DEF941F2CB
:104AA000B071102000F0D9F940F23711112000F058
:104AB000D4F940F23911122000F0CFF94FF4E85147
:104AC000132000F0CAF91321292000F0C6F9BDE82F
:104AD000104040F27311072000F0BFB92DE9F041FA
:104AE000064650880D46918840EA014150899389D5
:104AF00040EA0340091A4C08171841F20801032044
:104B000000F0ABF92946304600F06FF92220FEF79D
:104B100000FE61003846FEF7EFFDBDE8F04141F2CE
:104B20001801032000F099B970B51D460B460646E2
:104B300000241146184600F058F92220FEF7E9FD3E
:104B4000064803E020F81460641CA4B2AC42F9D318
:104B50006900BDE870400148FEF7CEBD5C0400204E
:104B600070B502FB03F4049D00F03FF92220FEF72C
:104B7000D0FD61002846BDE87040FEF7BDBD0000D5
:104B80002DE9F041884606461D461746002441F2AD
:104B90001001032000F061F93946404600F025F984
:104BA0002220FEF7B6FD0A4804E000BF20F814609A
:104BB000641CA4B2AC42F9D369000548FEF79CFD21
:104BC000BDE8F04141F21801032000F046B90000B1
:104BD0005C040020F02070474FF4A07070472DE96E
:104BE000F041FEF777FD0121002000F036F94FF487
:104BF0008071012000F031F94FF4E061022000F0F3
:104C00002CF941F218042146032000F026F9002176
:104C1000042000F022F940F20221082000F01DF9E2
:104C20000021092000F019F900210A2000F015F9EF
:104C300000210C2000F011F900210D2000F00DF9E9
:104C400000210F2000F009F90021102000F005F9E3
:104C50000021112000F001F90021122000F0FDF8E0
:104C60000021132000F0F9F841F2B071102000F09B
:104C7000F4F840F23711112000F0EFF840F239114A
:104C8000122000F0EAF84FF4E851132000F0E5F8A4
:104C90001321292000F0E1F80021202000F0DDF8A8
:104CA0000021212000F0D9F80721302000F0D5F8AC
:104CB00040F20231312000F0D0F840F205152946CB
:104CC000322000F0CAF840F206263146352000F0C6
:104CD000C4F840F608073946362000F0BEF83146E1
:104CE000372000F0BAF840F20451382000F0B5F84F
:104CF0000721392000F0B1F829463C2000F0ADF83A
:104D000039463D2000F0A9F80021502000F0A5F818
:104D1000EF21512000F0A1F80021522000F09DF871
:104D200040F23F11532000F098F84FF427416020E3
:104D300000F093F80121612000F08FF800216A2033
:104D400000F08BF80021802000F087F800218120FE
:104D500000F083F80021822000F07FF800218320FA
:104D600000F07BF80021842000F077F800218520F6
:104D700000F073F81021902000F06FF800219220CD
:104D800000F06BF80321932000F067F84FF488716E
:104D9000952000F062F80021972000F05EF80021D5
:104DA000982000F05AF82146032000F056F840F20F
:104DB0007311072000F051F80021084600F015F8A3
:104DC000BDE8F0412220FEF7A4BC10B5FEF782FC3E
:104DD000BDE810400020FEF789BC10B500F005F8D2
:104DE000BDE810402220FEF781BC10B5044620200B
:104DF00000F033F8A4F23F14604281B2BDE81040E5
:104E0000212000F02AB82DE9F04104461D4616463F
:104E10000F46502000F021F87819401E81B2512031
:104E200000F01BF8C4F5A070801B81B2522000F086
:104E300014F8A4F23F146042BDE8F04181B253205F
:104E400000F00BB807B5FFF7D0FF2220FEF761FC9A
:104E5000022102A8FEF750FC0EBD13B5FEF759FC67
:104E6000022101A8FEF748FC1CBD00002DED088BB7
:104E700082B0FCF783FEFBF7F7FDFFF76DF8FEF756
:104E800061FEFEF7F5FD82488049002401608149FA
:104E9000C0E901144FF48041C0E9034144618461D9
:104EA000C4610462FCF7BEFB08B172B6FEE7784845
:104EB0007949E43001604FF4E131C0E901140C217B
:104EC000C460C0E904418461C461FDF7A0FB08B17E
:104ED00072B6FEE76E480094543070490194C0E900
:104EE00000144FF6FF75C0E902458461FDF750FAE2
:104EF00008B172B6FEE766480094694654300194E2
:104F0000FDF7FEF908B172B6FEE7614964489C31CD
:104F1000C1E90004C1E902450C6108468C61FDF756
:104F200037FA08B172B6FEE7FEF7D4FDFBF742FC94
:104F300040F2FF70FBF714FC01235AA2322100203B
:104F4000FBF73EFC012359A24B210020FBF738FC64
:104F50004F484838FCF72AF840F2DC50FCF7BAF822
:104F60002846FBF7FDFB54A000F0D4F8554C4FF455
:104F70007A750CE040212046FCF724FA2846FCF71D
:104F8000A9F8012350A24B210520FBF719FC40484A
:104F9000FEF7C3FB0128EDD03D485430FDF75AFA27
:104FA000002000F0D3F83A489C30FDF753FA9FED0B
:104FB0004AAB4B4C9FED4BBB02E0022000F0C6F821
:104FC00094ED140B53EC1B2B51EC100B00F0C6FCB2
:104FD00008D294ED140B53EC1A2B51EC100B00F08B
:104FE00083FBEAD39FED418B94ED140BB0EE4A1A8C
:104FF000F0EE6A1A53EC112B51EC100B00F0AEFCE2
:1050000010D294ED140B53EC182B51EC100B00F054
:105010006BFB07D2062000F099F8E5E7284600F080
:1050200095F805E09FED338B9FED349B6FF0050500
:1050300094ED140B53EC182B51EC100B00F08EFC7C
:1050400008D294ED140B53EC192B51EC100B00F01B
:105050004BFBE3D36FF001059FED2A8B9FED2B9B5C
:1050600094ED140B53EC182B51EC100B00F076FC64
:10507000A6D294ED140B53EC192B51EC100B00F04D
:1050800033FB9DD2284600F061F8E9E70054004068
:1050900078010020A0860100004800400014004074
:1050A00000440140566F78415254000057656C63CC
:1050B0006F6D652E000000004C43442072656164F2
:1050C0007900000000180240506F77657220637904
:1050D000636C65203A280000000000000000544086
:1050E000F802002000000000000044400000000022
:1050F00000C0674000000000002067C00000000002
:10510000000044C000000000000049C00000000092
:10511000000014C010B58AB0044624216846FBF78D
:10512000F9F908A12046FBF7E9F901466846FBF7C3
:1051300035F96423232269460348FDF7DBFA0AB0F8
:1051400010BD00000A0000005C02002010B50D4CEC
:1051500021680844A0F10A0120605B2906D30A28CF
:1051600001DD642000E00A20206010BD4FF6FF70D2
:10517000FBF7F6FA2088782182B2BDE8104096202D
:10518000FBF70EBC9800002081F00041704780F0D2
:105190000040704721F00041704720F00040704708
:1051A00021F00042A2F16052B2F5801F01F00043ED
:1051B00028BFD2F17F6C0BD95FEA001C43EAC20220
:1051C00042EB507018BF704728BF20F001007047B5
:1051D000B2F5801FBCBF184670474FEA410C1CF562
:1051E000001F02D2084600F0B6BD70B500F062FBA9
:1051F00000000089FFF7F6BF4FF00040A0F58000E7
:105200007047000010B591EA030F48BF83F00043D8
:1052100000F1BA84841A71EB030C05D2121943EB26
:105220000C03001B61EB0C01DFF824E14FEA115481
:10523000A4EB135C1EEA430F18BF9EEA445F73D0D1
:1052400023EA0E03DCF1200E21EA045143F480131B
:1052500032D322FA0CFE10EB0E0023FA0CFE41EBC7
:105260000E01CCF1200E03FA0EFE10EB0E0051F1F0
:105270000001B1F5801FCCF1200E32D201EB0451B8
:1052800012FA0EF2BDE8104058BF7047401C38BFFC
:105290005FEA420218BF7047002814BF20F00100E7
:1052A00041F100014FEA410313F5001F38BF704779
:1052B000A1F1C04100F04CBB012A43EB0302ACF169
:1052C000200CDCF11F0E32BF4FF0000E23FA0CF35E
:1052D00010EB030041EB0451B4EB115FD0D0A1EB14
:1052E000045101F5801149085FEA300001EB0451D7
:1052F0000ED350F1000038BF12FA0EFE08D1BDE8FF
:105300001040C9E7401C38BF5FEA4202CAD1C3E778
:10531000BDE810404FEA410313F5001F38BF704746
:10532000A1F1C04100F014BB9EEA445F08D011EA2D
:105330005E0FBDE8104004BF01F00041002070473F
:10534000BDE8104070B500F0B5FA00BF64FBBE3E8A
:105350000000E0FF491058BFC1F140415B1058BF49
:10536000C3F140438B42EFF3008070472DE9C04109
:1053700030B4DFF8A0C23CEA111418BF3CEA1314A1
:1053800000F0EC8081EA03051CEA111444EAD574AC
:1053900018BF1CEA131500F0C780A4EB05044FF0FA
:1053A000004545EAC12145EAC32341EA505143EA99
:1053B000525304F17F74994204F500344FEAC0203F
:1053C0004FEAC22208BF904200F09C804FEA13656A
:1053D0000FF24016765D4FEA134506FB05F7C7F15D
:1053E000807706FB07F74FEAD737A7FB03687642BB
:1053F000C8F58038A7FB06CE38BFA8F1010807FB27
:1054000008E64FF0000EA6FB028CE6FB03CEDCF1B3
:10541000000CCEF1004E38BFAEF1010EA6FB0C58C9
:105420004FF000074FF00005E6FB0E87A1FB08C612
:10543000A0FB07CE16EB0E0645F10005E1FB076564
:1054400015F1E04E7EBFA4F580345FEA46066D415B
:1054500016F1800745F100054FEA17274FEA066667
:1054600047EA0567A6F1DE46B6F1805F4FEA1525EB
:105470001FD9384624F0010C05EBC471BCF1FE6F56
:1054800001EB0C1102D8F0BCBDE8008124425CBFE6
:1054900001F5801E9EEAC47F02D4F0BCBDE8008105
:1054A000244238D4F0BCA1F1C041BDE8004100F075
:1054B0004FBA4FEAD22242EA43524FEAD323A7FB24
:1054C00002864FEAD02040EA415007FB03661EEAFD
:1054D0000E0F4FEAD12105FB026658BFA6EB00561E
:1054E000B6EB00564FEA520E4EEAC37E18EB0E0E94
:1054F00056EB530EBDD518EB02085E417F1C55F1EB
:105500000005B6E74FF480154FF000074FF0000696
:105510004FF00008ADE7F0BC4FF0000001F1C041D2
:1055200001F00041BDE8008111EA0C1F0CEA1315DF
:1055300000D00CE013EA0C1F00F025804FF00000B3
:10554000F0BC81EA030101F00041BDE80081F0BC3C
:10555000BDE8004181EA030100F0FAB9F0BCBDE802
:10556000004170B500F0A6F9097EFC3E00F007B8D6
:1055700081EA03014FF0000001F00041704781EA29
:10558000030100F0E5B9F0BCBDE800414FF00000B8
:1055900021497047FFFDFBF9F7F5F4F2F0EEEDEB72
:1055A000E9E8E6E4E3E1E0DEDDDBDAD8D7D5D4D321
:1055B000D1D0CFCDCCCBCAC8C7C6C5C4C2C1C0BF6D
:1055C000BEBDBCBBBAB9B8B7B6B5B4B3B2B1B0AF73
:1055D000AEADACABAAA9A8A8A7A6A5A4A3A3A2A157
:1055E000A09F9F9E9D9C9C9B9A9999989797969512
:1055F00095949393929191908F8F8E8E8D8C8C8BAE
:105600008B8A898988888787868585848483838235
:10561000828181800000FF070000F87F51EA030CBF
:1056200017D41CF5801F58BFBCF5801F00F1068001
:10563000994218BF704708BF9042704707D711F5CD
:10564000801F58BF13F5801F19D4994270478942B3
:1056500070471CF5801F08D5BCF5801FF7D58B421D
:1056600018BF704708BF824270474FF4001C1CEB04
:10567000410F38BF1CEB430F01D28B42704770B50E
:1056800000F018F9922449004FF000514FF0805378
:10569000FFF760BE10F0004248BF4042B0FA80F30E
:1056A00010FA03F10AD0C3F11D0303F580634FEA3A
:1056B000415002EB035202EBD12170474FF0000042
:1056C0007047B0FA80F310FA03F10AD0C3F11D035A
:1056D00003F580634FEA41504FEA035202EBD121B8
:1056E00070474FF00000704751EA030C17D41CF5C7
:1056F000801F58BFBCF5801F00F10680994218BF7B
:10570000704708BF9042704707D711F5801F58BFF8
:1057100013F5801F19D499427047894270471CF5D0
:10572000801F08D5BCF5801FF7D58B4218BF704786
:1057300008BF824270474FF4001C1CEB410F38BF7A
:105740001CEB430F01D28B42704770B500F0B2F8EA
:10575000922449004FF000514FF08053FFF7FABDFB
:10576000DFF848C170B51CEA111E1EBF1CEA1315F4
:105770009EEA0C0F95EA0C0F00F06F8081EA03049B
:1057800023EA4C134EEAD47E21EA4C1141F48011F5
:1057900043F48013AE44A1FB024CA0FB0365AEF1C1
:1057A0007F7E361955EB0C05A1FB034C4CF1000331
:1057B000A0FB021C16EB0C06654153F100030942E5
:1057C00018BF46F0010613F4007F0BD14FEA0331F6
:1057D0004FEA0530340341EA155140EA16506FF0A4
:1057E00003020AE04FEAC3214FEAC520F40241EA6E
:1057F000555140EA56506FF0020202EB2E4201EB87
:10580000025585EACE710AD05FEA440C18BF24F035
:10581000004450F1000041F1000120EAD47040F250
:10582000FE7C624500D270BDA84214BF4FF0804498
:105830004FF04044002E08BF0024BEF1806FA8BF87
:10584000A1F1C041BDE8704080F282804FF00000BD
:1058500001F1C04101F0004170479EEA0C0F0CEAD3
:10586000131518BF95EA0C0F06D04FF0000081EA1F
:10587000030E0EF0004170BD00F01CF88900013EDF
:1058800000F007B800F009B84FEA430C5FEA5C5C2F
:1058900008D081EA030100F05BB84FEA410C5FEAEF
:1058A0005C5CF6D14FF00000014970470000FF0733
:1058B0000000F87F0EF1020E2EF0030E5EF8046B6E
:1058C000364205D4012A43EB030515F5001F12D813
:1058D000012841EB010C1CF5001F0CD80ED14FEA3A
:1058E000D17C15F5001F0CEB4C0C0CF1020C08BF21
:1058F0004CEBD37C04E04FF0080C01E04FEAD37C82
:105900000CEB4C0526FA05F606F00706B6F1040C7A
:1059100006D20EEB860CBDE870404CF0010C6047DF
:10592000DFE80CF0090B02024FF000414FF00000DD
:10593000A1F5002170BD19461046012851EB010464
:1059400018BFD4F5001484BF002001F0004170BDE1
:105950000808A0F500114FEA3101704753EA010C25
:1059600017D41CF5801F58BFBCF5801F00F10680BE
:105970008B4218BF704708BF8242704707D713F5A4
:10598000801F58BF11F5801F19D48B4270479B426E
:1059900070471CF5801F08D5BCF5801FF7D59942CC
:1059A00018BF704708BF904270474FF4001C1CEBB3
:1059B000430F38BF1CEB410F01D2994270470FB41F
:1059C0000CBC03BCFFF7C1BE91EA030F10B581F018
:1059D00000413FF51FAC83F0004300F0D5B8000054
:1059E0002DE9F04101F5801CBCF5001FC0F2A98033
:1059F0004FEA115C21EA0C510CF1FD0C41F48011CD
:105A00005FEA5C0C0CF5C07C01D34000494130A436
:105A1000890241EA905187028E0E0A0CA45D04FBB4
:105A200004F602FB06F6C6F14046A4FB0662F60D3C
:105A300046EA422606FB06F4A4FB01235242C3F1C8
:105A4000404338BF5B1EA6FB02420024E6FB032452
:105A5000D20B42EA4446A6FB0623A1FB02E2A3FBCB
:105A600007E4E3FB61426442C2F1404E38BFAEF14D
:105A7000010EA6FB04234FF00002E6FB0E32A2FB50
:105A800003463400E2FB6264A1FB06E6A4FB07E8E0
:105A9000E4FB61687642C8F1405838BFA8F10108BC
:105AA000A2FB06E4A3FB08E5E2FB6854A1FB05E6C4
:105AB000A7FB04E8E1FB648618F1200556F1000617
:105AC000A809A8F11B08B10908F03F08B8F10A0FAE
:105AD00040EA86601CD901EB0C51BDE8F08100BFA3
