:020000040800F2
:10000000A8480020790200088F440008193500082C
:100010008D440008150E0008534A00080000000037
:1000200000000000000000000000000093440008F1
:10003000A10F00080000000091440008954400084A
:10004000930200089302000893020008930200083C
:100050009302000893020008411000089302000870
:10006000930200089302000893020008930200081C
:100070009302000893020008D90E0008E50E00085C
:10008000F10E000893020008930200089302000892
:1000900093020008930200089302000893020008EC
:1000A00093020008594500084145000893020008E2
:1000B00093020008930200089302000893020008CC
:1000C00093020008930200089302000893020008BC
:1000D00093020008930200089302000893020008AC
:1000E00075100008930200089302000893020008AC
:1000F000930200089302000893020008930200088C
:10010000930200089302000893020008930200087B
:10011000930200089302000893020008E5460008D5
:10012000930200089302000893020008930200085B
:10013000930200089302000893020008930200084B
:10014000930200089302000893020008930200083B
:10015000930200089302000893020008930200082B
:10016000930200089302000893020008930200081B
:1001700093020008930200089302000800000000A8
:10018000930200089302000800F002F800F065F8FE
:100190000AA090E8000C82448344AAF10107DA45E2
:1001A00001D100F05AF8AFF2090EBAE80F0013F0CF
:1001B000010F18BFFB1A43F001031847BC81000070
:1001C000DC8100000A444FF0000C10F8013B13F0F2
:1001D000070408BF10F8014B1D1108BF10F8015BA0
:1001E000641E05D010F8016B641E01F8016BF9D193
:1001F00013F0080F1EBF10F8014BAD1C0C1B09D1EA
:100200006D1E58BF01F801CBFAD505E014F8016B5B
:1002100001F8016B6D1EF9D59142D6D370470000ED
:100220000023002400250026103A28BF78C1FBD8FF
:10023000520728BF30C148BF0B607047732900F0D8
:10024000EA82002070471FB506F0CCFA9DE8030053
:1002500000F070FA1FBD10B510BD00F00BFB114689
:10026000FFF7F1FF05F0A2F900F029FB03B4FFF757
:10027000F2FF03BC00F05AFB0948804709480047D9
:10028000FEE7FEE7FEE7FEE7FEE7FEE7FEE7FEE746
:10029000FEE7FEE704480549054A064B70470000A3
:1002A0003145000889010008A8080020A84800205E
:1002B000A8280020A828002070B5064600F01EFAE5
:1002C000056806F10B0020F00704B4429CBF002033
:1002D00070BD2B466A68BAB11068A04210D304F111
:1002E000080188423CBF5068586007D35168101914
:1002F00041601168091B016058601460101D70BDD9
:1003000013465268002AE7D12146284600F0FEF93C
:100310000028DED170BD70B50446051F00F0EEF96F
:100320000068002C14BF446870BD002C18BFAC429C
:100330003CBF20466468F8D301680A18AA4218BF77
:10034000456003D12A6805461144016028684119B7
:10035000A1421CBF6C6070BD61686960216808447F
:10036000286070BD53EA020C00F069802DE9F04B63
:100370004FF00006002B1FBFB3FA83F503FA05F414
:1003800024FA05F65E4012BF1643B2FA82F502FA6D
:1003900005F4C5F120051EBF22FA05FC44EA0C0451
:1003A000203556EA044C4FEA144418BF641C4FF041
:1003B00000084FF00009904271EB030C39D300297B
:1003C00019BFB1FA81F701FA07F6B0FA80F700FA1F
:1003D00007F6C7F120071EBF20FA07FC46EA0C0605
:1003E0002037B6FBF4FCA7EB0507103F07F01F0B07
:1003F000CBF120060CFA0BFB2CFA06F644BFB346F1
:100400000026202FA4BF5E464FF0000B5BEA060CCF
:1004100008BF4FF0010B19EB0B09ABFB027C48EB5B
:100420000608C01B06FB02CC0BFB03CC71EB0C01D6
:10043000C1E70B46024641464846BDE8F08B13B57E
:100440004FF000004FF00001AFF30080BDE81C400A
:10045000704700000FB41CB5074B06AA7B446946E1
:100460000090059800F0ADF90020694600F0BCF955
:100470001CBC5DF814FB00008903000070B50C463D
:100480000546012A05D02878800600D5EA690023B0
:1004900002E0012305E05B1C934202D2E05C0028ED
:1004A000F9D1A869E618C01AA861286A1844286218
:1004B0002846AFF3008004E0D5E9012114F8010BD0
:1004C0009047B442F8D32846AFF3008070BD0000D7
:1004D0002DE9F05F894604464FF0000ADFF824B1A9
:1004E000FB44C0F820A02046E168884700287DD062
:1004F000252806D0D4E901219047206A401C2062BB
:10050000F1E700255F462046E16888472028064637
:1005100007DB312E05D2B81910F8200C08B10543BD
:10052000F1E7A80701D525F00405C4F81CA00027B1
:10053000C4F818A02A2E09D0304604F009FE38B3BA
:1005400004EB8708303EC8F8186019E059F8041B1E
:10055000204604EB87029161E1688847012F064637
:1005600018D1E069002820DA25F020051DE0D8F830
:10057000180000EB800006EB40003038C8F8180087
:100580002046E1688847064604F0E2FD0028EED1E7
:10059000012F0AD02E2E08D12046E16888477F1C03
:1005A0000646022F45F02005C4DBA069002803DAC7
:1005B000404245F00105A061E80701D025F0100593
:1005C000A6B1A6F14100192802D8203645F40065ED
:1005D0004A463146204625604D46FFF72FFE60B162
:1005E000012807D0ED1D25F0070000E007E000F12D
:1005F000080978E705F1040975E730467AE7206ACB
:10060000BDE8F09FE27D000040EA0103024630B5FC
:100610009B0710D14FF0013400E008C208C91D1B30
:100620009D4315EAC41FF8D013F0FF0102F8011B27
:100630000DD01B0AF8E711F8013B002B02F8013B33
:1006400005D011F8013B002B02F8013BF3D130BD7E
:1006500010B5431C02E010F8011B71B18107FAD1FB
:100660004FF0013202C88C1A8C4314EAC211F9D03F
:10067000C01A0A0603D0C01E10BDC01A10BD0A045D
:1006800001D0801E10BD0902FCD0401E10BD421ECC
:1006900012F8013F002BFBD111F8013B002B02F8AF
:1006A000013BF9D170474FF0000200B51346944664
:1006B0009646203922BFA0E80C50A0E80C50B1F1BA
:1006C0002001BFF4F7AF090728BFA0E80C5048BFCE
:1006D0000CC05DF804EB890028BF40F8042B08BF6C
:1006E000704748BF20F8022B11F0804F18BF00F868
:1006F000012B7047704770477047000000487047F3
:100700004C080020704770477047704738B5044662
:100710000A4600206946AFF30080002808BF38BDB4
:1007200002460099204600F083F8012038BD0120E0
:1007300000F098B8F8B5AFF30080054600200C46ED
:10074000102000BF0646A819A0420DD932466946BE
:100750000020AFF30080070008BF00F083F8009886
:10076000A04218BF0546C419FFF7C8FF0560074639
:10077000F01D20F007004619284600F00AF8B442A0
:1007800008BFF8BDA21B31463868BDE8F84000F04C
:100790004FB800210160C0E9011070471020704778
:1007A00010B500F041F8006810BD10B5044600F027
:1007B0003BF8046010BD000001694A1C0261087822
:1007C000704700B58FB0CDE9013100210591054991
:1007D0007944CDE9031011466846FFF779FE0FB062
:1007E00000BD0000E5FFFFFF0A6802F8010B0A6088
:1007F000704710B5436913B1AFF3008001E0FFF714
:100800003DFE012010BD127800F124010A70002283
:100810004A700122EDE711684FF0FF32E9E700006E
:1008200000487047440800200048704744080020F2
:10083000034640688C46002818BF88423CBF0346E8
:100840004068F8D318681844884207D00CF10300B8
:1008500020F00700001D411A521A0146081D0A60C7
:10086000FFF759BD10B500F039F8BDE8104000F0B1
:100870002FB870477546FFF7D3FFAE4605006946AF
:10088000534620F00700854618B020B5FFF702FD5B
:10089000BDE820404FF000064FF000074FF0000881
:1008A0004FF0000B21F00701AC46ACE8C009ACE802
:1008B000C009ACE8C009ACE8C0098D46704710B566
:1008C0000446AFF300802046BDE81040FFF7CEBCE1
:1008D000002801D000F02AB87047000010B50128A8
:1008E00005D0002103A000F027F8012010BD09A1C8
:1008F000F8E7000053494752544D454D3A204F7593
:1009000074206F662068656170206D656D6F727907
:10091000000000003A2048656170206D656D6F72BF
:100920007920636F727275707465640001491820D4
:10093000ABBEFEE72600020070B505460C460A2055
:1009400000E06D1C00F011F835B128780028F8D1CE
:1009500002E0641C00F009F814B120780028F8D1F6
:10096000BDE870400A20AFF3008008B569468DF8F5
:1009700000000320ABBE08BD464910B54A6822F40A
:1009800040324A604A6843681A434A6001684A68CC
:1009900022F480724A6001684A68036942EA0322CD
:1009A0004A6001684A6822F040724A6001684A68F9
:1009B00083681A434A6001688A6822F400628A6088
:1009C00001688A68C3681A438A60816A6FF070623E
:1009D000D14201688A6822F070628A6001688A6880
:1009E0000CD0836A1A438A6001688A6822F04052F8
:1009F0008A6001688A68C36A1A4301E022F04052A3
:100A00008A6001688A6822F002028A6001688A6846
:100A1000037E42EA43028A6090F8201000290168B0
:100A20004A680FD042F400624A6001684A6822F4C2
:100A300060424A6001684A68174C436A04EB4333DA
:100A40001A4301E022F400624A600168CA6A22F493
:100A50007002CA620168CA6A838B104C04EB0353AC
:100A60001A43CA6201688A6822F400728A600168C7
:100A70008A6890F8303042EA43228A6001688A68C6
:100A800022F480628A6001688A68406942EA8020B4
:100A9000886010BD0023014000E0FFFF0000F0FF70
:100AA00070B50A4E00243568306007E000F07EF92A
:100AB00082B2A1B2002000F0F1F8641C00F07CF9D1
:100AC000A042F3D8A8B2306070BD0000B805002085
:100AD000074B30B49B68DD881C689B88DB1DDB08F6
:100AE000203A13FB02F205FB024230BC00F05ABA76
:100AF000B8050020014800688068004750010020C8
:100B00002DE9F0470446002799468A461546B8461F
:100B1000104601E008F1010810F8011B0029F9D185
:100B200000F044F91C4E4A46B9F1010FB1688988BA
:100B3000B0FBF1F002D0022A17D105E0A0EB0800CB
:100B4000484304EB500003E0A0EB08004843001BBF
:100B500084B20AE051462046FFF7BAFFB0687F1C16
:100B6000BFB280886D1C204484B200F01FF901469A
:100B7000B068808807FB101189B2814201D301203F
:100B800000E000202A780AB1012100E0002108429B
:100B9000E0D1BDE8F0870000B8050020054A032336
:100BA0009268D288424390B20A4601460020FFF77D
:100BB000A7BF0000B80500202DE9FE4F81460320A5
:100BC0008846A0EB4207002514465EE0314EA8EBB4
:100BD000040A1FFA8AF1308882B209EB05000290FC
:100BE00080B200F081F830881FFA8AF182B2A9EB56
:100BF0000500019080B200F077F83088A8EB050A74
:100C000082B209EB040000901FFA8AF180B200F072
:100C10006BF83088A9EB040B82B21FFA8AF11FFA35
:100C20008BF000F061F8308808EB040A82B2029879
:100C30001FFA8AF180B200F057F830881FFA8AF163
:100C400082B2019880B200F04FF8308808EB050AB4
:100C500082B200981FFA8AF180B200F045F830881D
:100C60001FFA8AF182B21FFA8BF000F03DF80A48B1
:100C7000B060002F03DA07EB8507BF1D04E0281BD7
:100C800007EB8007641E0A376D1CA5429ED9BDE89C
:100C9000FE8F0000B8050020540100202DE9F0412E
:100CA00006460F4800240F4F006815468846D0F8C6
:100CB00020C0BCF1000F0FD0134638880A463146D9
:100CC000BDE8F04180B260473888414682B23019B1
:100CD00080B200F009F8641CAC42F5D3BDE8F081A5
:100CE00050010020B8050020034B1B685B69002BF6
:100CF00000D0184770470000500100202DE9F74F41
:100D00000F46DFF8A49090460321A1EB4806B9F8FE
:100D1000001082B089B2002415464FF6FF7AC9F858
:100D2000001031E08DB1381981B202980AEA45020B
:100D3000401B0090934680B2FFF7B0FF381B81B292
:100D400000985A4680B2FFF7A9FF8CB1781B81B298
:100D500002980AEA4402001B0090934680B2FFF713
:100D60009DFF781981B200985A4680B2FFF796FF2E
:100D7000002E03DA06EB8406B61D04E0601B06EBCA
:100D800080066D1E0A36641CAC42CBD9B9F800103F
:100D9000424689B2C9F80010029805B03946BDE84C
:100DA000F04FFFF709BF0000B805002001480068B8
:100DB000806A00475001002001480068C06A00476F
:100DC0005001002070B50D4C4FF6FF700126606099
:100DD0000B48A0600B4D0020206068688047A0F59C
:100DE0001341253907D10648001F05602868804750
:100DF00003480026A060304670BD0000B805002002
:100E0000540100205C010020014908607047000087
:100E1000B8050020FEE7000000EE100A1548F8EEC5
:100E2000C00A90ED070A90ED081AD0ED0C1A20EEDA
:100E3000200A90ED0D2AD0ED0F2A01EE210A90ED47
:100E4000091A01EE020A90ED0A2A90ED0E1A02EE3E
:100E5000410A90ED0B2AC0ED0D1AC0ED0C0A80ED91
:100E60000F1A02EE620A80ED0E0ABDEEC00A10EE05
:100E7000100A70479C00002000EE100A1548F8EE9A
:100E8000C00A90ED100A90ED111AD0ED151A20EE5F
:100E9000200A90ED162AD0ED182A01EE210A90EDD5
:100EA000121A01EE020A90ED132A90ED171A02EEC3
:100EB000410A90ED142AC0ED161AC0ED150A80ED16
:100EC000181A02EE620A80ED170ABDEEC00A10EE93
:100ED000100A70479C000020014800F011BC00007F
:100EE0008C040020014800F00BBC0000EC04002042
:100EF000014800F005BC00002C0400200168182304
:100F0000CAB2103AB2FBF3F2054B6FF30901032AA0
:100F10009B5CC36500D9091D8165084670470000C8
:100F2000EE67000810B5014600208B698A6A4FF011
:100F3000C07453B1B3F5005F15D072B1012A0CD063
:100F4000022A0AD0032A09D104E01AB1012A06D0E4
:100F5000022A03D1C96AC90100D5012010BDC96A9E
:100F6000A142FAD010BD002AF7D0012AF2D0022AFD
:100F7000F3D0032AF3D010BD30B50468256825F4FA
:100F800080252560046863608368402B036803D074
:100F900099600068C26030BD9A600068C16030BD71
:100FA000704700002DE9F74FDFF890B00026DBF81E
:100FB00008008588C788E81D824620F00700401B8E
:100FC00000F0FF0935E000BF4FEADA01029801297D
:100FD00001FB06000BD002290BD0017842780904EE
:100FE000807841EA022141EA000800241AE00078F2
:100FF00001E0008840BA8046F7E7291B49440120F8
:10100000491E884010EA080F02D0BBF8000001E03A
:10101000BBF80400019982B20098204480B2FFF727
:1010200063FE641CAC42E8D30198401C80B2761C7D
:101030000190BE42C8D3BDE8FE8F0000B805002075
:10104000084810B50178012901D0012100E00021F4
:10105000017005A004F0F4FCBDE81040012000F090
:1010600035BD0000980000204B4559205052455393
:101070005345440010B54FF6FF70FFF711FD0CA06B
:1010800004F0DEFC134900203222087078219620FB
:10109000FFF734FE104896214160782181603221AB
:1010A0000160BDE810404FF4004000F00FBD0000AB
:1010B0005B4369726C63655D205265736574207073
:1010C0006F736974696F6E20616E64207363616C05
:1010D00065000000980000200001002072B6FEE7C5
:1010E00000B59BB04FF020400090144801900520BF
:1010F0001490012015900920169000200221CDE9BE
:101100001701CDE919100421CDE902101021CDE914
:1011100004010690079009020890CDE909010C909E
:101120000B900D900E90119000F00AF814AA114641
:10113000684601F04DFF1BB000BD0000040100A097
:10114000294800B5016887B041F0010101600068DD
:1011500000F00100059024480838016841F00801BA
:101160000160016801F008010591016841F010017A
:101170000160016801F010010591016841F0200152
:101180000160016801F020010591016841F0400112
:1011900001600068694600F040000590022001905F
:1011A00001200290032003900C2004904FF633702E
:1011B00000900E4800F096FC4FF69B700090694638
:1011C0000B4800F08FFC4FF23F0000906946094841
:1011D00000F088FC40F23F4000906946064800F06D
:1011E00081FC07B000BD000038380240000C02400E
:1011F00000100240001402400018024030B5B3F560
:10120000804F05D06FF0704140F82210002030BDB3
:101210008C690B688D6823434C688989240144EAF2
:101220000524234343EA014150F82230014C234076
:101230001943E9E70000F0CF10B50A6850F82230F2
:1012400023F0010340F822308C68082C23D00023BF
:101250004A682243CC681C430B6922431A434B69FA
:101260000E4C1A43CB691A430B6A1A434B6A1A4352
:101270008B6A1A43CB6A1A430B6B1A438B6913436D
:10128000CA6B09681A4350F82130A343134340F84E
:101290002130002010BD4023DAE700007FFF0F005F
:1012A00030B5D1E9003443EA04138C688D892402F7
:1012B00044EA054423430C8A094D00EB820005EB08
:1012C000045423430C7D6D0105EB046489692343B9
:1012D0000B43416801F040410B434360002030BDA7
:1012E0000000F0FF78B50024009490F83C20012A1B
:1012F00019D0012280F83C200A6807230568092AD2
:1013000013D9EE680A3A02EB420293409E43EE6024
:101310000B788A680A3B03EB43039A400368DD6855
:101320002A43DA6010E0022078BD2E6902EB420207
:1013300093409E432E610B788A6803EB43039A40E7
:1013400003681D692A431A614A681F23072A13D2BA
:1013500005686E6B521E02EB820293409E436E63E1
:101360000B790A885B1E92B203EB83039A400368F1
:101370005D6B2A435A6327E005680D2A12D22E6B53
:10138000D21F02EB820293409E432E630B790A88A0
:10139000DB1F92B203EB83039A4003681D6B2A4361
:1013A0001A6311E0EE6A0D3A02EB820293409E430B
:1013B000EE620B790A880D3B92B203EB83039A40ED
:1013C0000368DD6A2A43DA62164B0568144A9D42B7
:1013D00006D10D68122D03D1556845F4800555607E
:1013E00005689D4218D10B68102B01D0112B13D129
:1013F000536843F400035360096810290CD10A496B
:101400000A4A0968B1FBF2F101EB8101490000E0F1
:10141000491E00910029FBD180F83C40002078BD96
:1014200000230140002001402001002040420F0025
:1014300070B504004FF0000503D0206C002610B1F9
:1014400007E0012070BD204600F01CF8666484F8B7
:101450003C60206CC00610D4206C20F4885040F012
:10146000020020642046FFF787FA6664206C20F0B3
:10147000020040F00100206400E0012584F83C6097
:10148000284670BD10B586B0044614216846FFF7A3
:101490000AF91249206888421DD1114800210268CA
:1014A00042F480620260006800F4806005900C489D
:1014B0001438026842F020020260006800F0200048
:1014C00005904FF4C06000900320CDE9010169460A
:1014D000044800F007FB06B010BD000000220140E8
:1014E000443802400014024018B50021009190F8E1
:1014F0003C20012A07D0012280F83C200268936832
:10150000DB0702D011E0022018BD936843F001030D
:1015100093602E4A2E4B1268B2FBF3F202EB4202AA
:1015200000E0521E0092002AFBD102689368DB079C
:1015300042D0036C40F20164A34343F4807303641C
:1015400053685B0505D5036C23F4005343F48053C3
:101550000364036CDB0404D5436C23F0060343648B
:1015600000E0416480F83C101A496FF022031360D8
:1015700049680068CA06184906D0884224D18168A3
:1015800011F0405F13D01FE08842F8D0134A904218
:1015900003D1D1F80423D206F1D0114A904213D1DD
:1015A000D1F8041301F01F011029E8D30CE0816881
:1015B00041F08041816007E0016C41F0100101645D
:1015C000416C41F001014164002018BD2001002060
:1015D00040420F0000230140002001400021014053
:1015E0000022014070B500B3F9B14379012B1ED040
:1015F000012646710223037105682C6802F010036E
:1016000040F6FE729A409443D1E900210A439A4081
:1016100022432A6001680A68C0249C40A2430A60F1
:10162000067100214171084670BD012070BD022085
:1016300070BD70B5040003D02079002510B105E01D
:10164000012070BD6571204600F008F8022020716D
:10165000256101202071002070BD0000F0B587B029
:10166000064614216846FFF71EF820493068884274
:101670003AD11F480025016841F00051016000681F
:1016800000F0005005901A481038016841F001013F
:1016900001600068032700F0010005901020CDE9EB
:1016A000000769460295134800F01CFA134C1248D3
:1016B00020604FF0606060604020C4E902050001D6
:1016C0002061400060618000C4E906050420C4E98F
:1016D0000850C4E90A752046256300F0E1F808B116
:1016E000FFF7FCFCB460A66307B0F0BD00740040D7
:1016F0004038024000000240886002402C04002074
:101700002DE9F84304464FF00009CDF800906348F6
:101710004FF41651A56D0068B0FBF1F72E6894F8F0
:101720005C10082000FA01F131420FD021680A68EC
:1017300052070BD50A6822F004020A6094F85C1084
:101740008840A860606D40F00100606594F85C100E
:101750004FF0010808FA01F0304208D021684969C9
:10176000090604D5A860606D40F00200606594F839
:101770005C1004208840304208D02168096889073D
:1017800004D5A860606D40F00400606594F85C10BA
:1017900010208840304218D021680968090714D504
:1017A000A86020680168490304D50068000308D5D3
:1017B000A16C07E00168C90503D4016821F00801A4
:1017C0000160216C09B12046884794F85C10202004
:1017D0008840304231D021680968C9062DD5A860FB
:1017E00094F8350005282068016806D0490347D5DC
:1017F000006800031DD4616C1CE021F0160101603B
:101800002068416921F080014161206C08B9A06C19
:1018100020B12068016821F00801016094F85C1093
:101820003F208840A86084F8358084F83490216D8A
:101830001FE0E16B09B120468847606D00282BD07E
:10184000606DC00714D0052084F835002068016859
:1018500021F0010101600098401C0090B84203D8BB
:1018600020680068C007F6D184F8358084F8349089
:10187000E16C002910D001B02046BDE8F0430847D4
:101880000168C905D5D4016821F01001016084F810
:10189000358084F83490CCE7BDE8F883200100203F
:1018A0002DE9F041044600F023FA06465CB102201F
:1018B00084F83500002584F834502068016821F050
:1018C000010101600DE00120BDE8F08100F010FA97
:1018D000801B052805D920206065032084F8350089
:1018E000F2E720680068C007F0D12268116820483C
:1018F0000140D4E901031843D4E9033633431843C4
:1019000063691843A3691843E3691843236A1843BA
:101910000843616A042903D1D4E90B13194308432E
:10192000106020684069666A20F0070130460E4367
:10193000012704280CD1A06A0643E06A40B1204682
:10194000FFF7F0FA20B14020606584F83570BAE7FF
:10195000206846612046FFF7D1FA94F85C203F21C9
:1019600091408160656584F835700020ACE7000027
:101970003F8010F02DE9F0410446866D90F8340068
:10198000002501280DD0012084F8340094F835702A
:101990000020012F07D084F8340002252846BDE836
:1019A000F0810220FBE7022784F83570606520464D
:1019B000FFF7E2FA94F85C103F208840B06020689E
:1019C000016841F016010160206C20B120680168B7
:1019D00041F0080101602068016841F001010160E7
:1019E000DCE7000070B5044600F082F90546601C93
:1019F00002D004480078044400F07AF9401BA04269
:101A0000FAD370BD14010020F0B587B014216846E8
:101A1000FEF749FE25480168002944D101210160F3
:101A200023480024016841F001010160006802259B
:101A300000F0010005904FF69B70CDE9000502AA69
:101A400003260C2782E8D00069461A4800F04AF8BD
:101A50004FF6FB70CDE9000502AA694682E8D00086
:101A6000154800F03FF88020CDE9000502AA69463C
:101A700082E8D000114800F035F840F23F60CDE92F
:101A8000000502AA694682E8D0000D4800F02AF855
:101A90004FF23F00CDE9000502AA694682E8D00076
:101AA000084800F01FF807B0F0BD00000C0100204E
:101AB0003838024000100240000C0240000402408E
:101AC000001802400014024070470000044910B59D
:101AD0000A68024202D00860FFF7F6FF10BD00005E
:101AE000143C01402DE9F84FDFF8BCA1002201258C
:101AF00003264FF00F090AF1040BAAF1040E00BFF0
:101B00000B6805FA02F42340A34270D10F7907F065
:101B10000307012F01D0022F16D187684FEA420830
:101B200006FA08FC27EA0C07D1F80CC00CFA08FCEE
:101B30004CEA070CC0F808C04768A7430C79C4F307
:101B4000001494403C4344600C79E443A4070AD059
:101B5000C4684FEA420C06FA0CF7BC438F6807FAD8
:101B60000CF72743C7600C7904F00304022C12D150
:101B7000D40800EB840CDCF820405707FF0E09FA6C
:101B800007F824EA0804D1F8108008FA07F848EAB0
:101B90000408CCF8208004684FEA420C06FA0CF7DF
:101BA000BC430F7907F0030707FA0CF727430760D8
:101BB0004C6814F4403F70D03C4C276847F4804791
:101BC0002760246822F0030704F480440094384C12
:101BD00007EB040CDCF8084897074FEA177809FA76
:101BE00008F7BC43334FB84202D1002724E054E049
:101BF000314FB84201D101271EE0304FB84201D128
:101C0000022719E02E4FB84201D1032714E02D4FCF
:101C1000B84201D104270FE02B4FB84201D105276C
:101C20000AE02A4FB84201D1062705E0284FB84202
:101C300001D1072700E0082707FA08F72743CCF867
:101C40000878DAF800405746D1F804C09C435FEAB0
:101C5000CC2C00D51C433C60DBF800405F46D1F83B
:101C600004C09C435FEA8C2C00D51C433C60DEF82A
:101C700000407746D1F804C09C435FEA8C3C00D515
:101C80001C433C60084F083F3C68D1F804C09C43AB
:101C90005FEACC3C00D51C433C60521C102AFFF488
:101CA0002FAFBDE8F88F0000083C014044380240E7
:101CB00000300140000002400004024000080240E1
:101CC000000C0240001002400014024000180240C4
:101CD000001C0240426921EA02030A4043EA024131
:101CE000816170470AB1816170470904FBE7000018
:101CF00001488068704700001401002070B504009E
:101D000025D094F83D00002520B984F83C502046A9
:101D100000F0BAF9242084F83D002068016821F021
:101D2000010101602068016841F400410160206800
:101D3000016821F40041016000F042FF4D4A6168F2
:101D4000914201D84C4900E04C49884201D201201F
:101D500070BD4B492368B0FBF1F15E6826F03F0689
:101D60000E435E606368934206D94FF496735943FD
:101D70004FF47A73B1FBF3F12368491C1E6A26F015
:101D80003F06314319626168914210D84900401EF4
:101D9000B0FBF1F2521CC2F30B02042A01D2042060
:101DA00022E0B0FBF1F0401CC0F30B001CE0A26885
:101DB000F2B301EBC10303EB0116431EB3FBF6F3D1
:101DC0005B1C43F480431B0549D092B301EBC10275
:101DD00002EB0111401EB0FBF1F0401CC0F30B0000
:101DE00040F4804040F400402168CA694CF6FF731B
:101DF0009A431043C861D4E9071001432068026880
:101E000022F0C00211430160D4E9030101432068BC
:101E1000826848F2FF339A4311438160D4E9050197
:101E200008432168CA6822F0FF021043C86001E03D
:101E30000EE016E02068016841F0010101602564B0
:101E4000202084F83D00256384F83E50002070BDBA
:101E500001EB4106431EB3FBF6F35B1CB3E7012025
:101E6000C2E701EB4101401EB0FBF1F0401CC0F3A2
:101E70000B00B7E7A086010080841E0000093D002A
:101E800040420F002DE9FF4F83B09A46DDE91187EC
:101E900093460446DDF84090FFF72AFF054694F884
:101EA0003D00202870D11923012274492046009555
:101EB00001F0C8FB0028F5D194F83C00012863D05C
:101EC000012084F83C0020680168C90703D101683B
:101ED00041F0010101602068016821F400610160A6
:101EE000222084F83D00402084F83E00002626642D
:101EF000C4F82490A4F82A80608D20856048E062B0
:101F0000CDE9007553465A462046049901F01CFB62
:101F1000002879D1208DD0B1012821D00228206855
:101F200024D0416980690090208D032866D801285B
:101F30002BD0544902283B464FF00002009557D061
:101F40008846204601F07EFB00285DD13AE02068FB
:101F5000416981690091016841F4007101607DE08F
:101F60002068016821F480610160F0E7016821F4D4
:101F7000806101602068016841F4006101602068AF
:101F800041698069009069E075E02A46394620463B
:101F900001F0FEFB88BB54E02068016841F4007149
:101FA000016020680069616A0870606A401C6062B4
:101FB000218D491E2185618D491E61852168096930
:101FC000017042E02068016821F4806101602068AE
:101FD0000069616A0870606A401C6062208D401E62
:101FE0002085608D401E60853B460022414600955D
:101FF000204601F027FB00B9CEE705E02A46394626
:10200000204601F0C5FB18B1012007B0BDE8F08FF4
:1020100020680069616A0870606A401C6062208DF7
:10202000401E81B22185608D401E60852068426916
:10203000D243520712D4032903D1016821F48061ED
:10204000016020680069616A0870606A401C606213
:10205000208D401E2085608D401E6085208D0028CB
:102060007FF462AF202084F83D0084F83E6084F85D
:102070003C600020C9E70220C7E700000200100012
:102080000000FFFF0400010010B586B004461421D3
:102090006846FEF708FB14492068884221D113489E
:1020A000016841F0020101600068694600F0020029
:1020B00005904FF4107000901220019001200290C2
:1020C00003200390042004900948FFF70BFD074804
:1020D0001030016841F400110160006800F4001044
:1020E000059006B010BD000000540040303802409A
:1020F000000402402DE9FF41044600688168009118
:102100007749784E4FF04027884201D1324600E0AF
:102110003A469268019240688846029001D1304662
:1021200000E038464068039060684FF00105B0F564
:10213000007F1CD0D8B1900705D50398000602D5C2
:10214000204601F0B9FB0098C0070FD00298400666
:102150007FD521682046CA68E16A8B1CE3620A8049
:10216000618E491E6186618E002967D071E00098FA
:10217000800719D50298000616D5616A20468A1C88
:10218000626222680988D160618D491E6185618D16
:1021900051B901684A6822F0A0024A60418E19B91B
:1021A00080F8415000F072F90198C00705D00398FB
:1021B000400602D5204601F04FFB0198400622D58B
:1021C000039880061FD52168414501D1304600E0C3
:1021D0003846406820F0600101D1304600E03846C2
:1021E00041602068416821F0A00141602068C16819
:1021F0008068019084F84150606C40F00200606497
:10220000204600F07FF90098000767D50298800605
:1022100064D52068416821F0A001416021684145F2
:1022200001D1304600E03846406820F0600000D020
:102230003E46706020688068009043E001684A680C
:1022400022F060024A60418D19B980F8415000F0D7
:102250001DF9009840061ED5029880061BD52068FF
:10226000416821F0600141602168414501D130465B
:1022700000E03846406820F0A00101D1304600E07F
:102280003846416084F84150606C40F00200606460
:10229000204600F037F9019800071FD50398800603
:1022A0001CD52168414501D1304600E038464068E0
:1022B00020F0A00000D03E4670602068416821F008
:1022C0006001416084F84150606C40F0040060643B
:1022D00004B02046BDE8F04100F014B9BDE8FF812C
:1022E00000380040003400402DE9F84F044690F8D3
:1022F0004100154689464FF0000AD346012802D016
:102300004FF0020A84E0E1B3DAB3D3B394F84000AB
:1023100001283FD0012084F84000E2626162206819
:10232000C06900F00700032836D0052834D0238583
:1023300063852386A4F83230C4F844B0052384F8BA
:102340004130E66B4C4B3364E66B4C4BF363E66B0E
:102350004B4BF364A66BC6F840B0A66BC6F83CB016
:10236000A06BC3642068C369DFF8188103F440736D
:10237000454E4FF04027B3F5007F16D0ABB1C26990
:1023800000E004E0C2F30122032A45D047E0012027
:10239000BDE8F88F0220FBE74FF6FF7000EA43002C
:1023A0002085608520866086C6E7238E404501D162
:1023B000314600E039460C31E06BFFF7DBFA20686C
:1023C000404501D1304600E03846406840F0010009
:1023D00001D1314600E039464860238D22684946E4
:1023E00002F10C02A06BFFF7C5FA2068416841F0CA
:1023F000020138E040453CD13046C06940F480607D
:1024000000D03E46F0612068C16941F48061C1613D
:1024100084F840B05046BBE7C26882680092238DC2
:10242000404501D1324600E03A460C32A06BFFF73E
:10243000A1FA2168414501D1314600E03946496899
:1024400041F0020101D1304600E038464160238E60
:1024500021682A4601F10C01E06BFFF78BFA206836
:10246000416841F0010141602068C1694905C1D559
:10247000CEE73846C1E70000F539000819390008F1
:10248000A139000800380040003400400D4900B573
:102490008868C9684FEA30404FEA3141491001EB82
:1024A00060000246FEF7B8FC01461046FEF7E4FC69
:1024B000044A0B0C103213815181010C9181D0819F
:1024C00000BD00000C0400200D4900B508684968F3
:1024D0004FEA30404FEA3141491001EB60000246BB
:1024E000FEF79AFC01461046FEF7C6FC044A0B0CA8
:1024F000103213805180010C9180D08000BD00000B
:102500000C040020704700002DE9F047040005D0BE
:1025100094F841004FF0000818B109E00120BDE82F
:10252000F08784F8408051486063204600F0A6F8A8
:10253000022684F841602068C16940F6BF77B9433C
:10254000C1612068066260694FF4007902282FD0CB
:10255000E06870B12025A068202800D86D00012017
:1025600000F0C6F9216949451FD1E16819B1A900F8
:1025700002E01025EFE7E900B0FBF1F000EB80008E
:1025800061694000B0FBF1F0401D0A21B0FBF1F0A1
:1025900000F00101401A40080902821EFE2A09D3F8
:1025A000606C40F010006064B8E7B0FBF5F0E5E760
:1025B0000220002122690843024320680262D4E914
:1025C00001010843A269E168114308432168CA690F
:1025D000BA43104340F40060C861206A01283AD130
:1025E0002348606323482168234A4FF040238142F7
:1025F00001D1114600E01946C96921EA070101D15C
:10260000154600E01D46E9612168814201D111466D
:1026100000E019460E622568854201D1114600E0AE
:102620001946C9698EB2616849451BD0D1B10021F4
:102630002789B4F80CC047EA0C07B4F818C04CEA74
:10264000010C47EA0C07B9B2314341F400618542FD
:1026500000D01A46D161C4F84480012084F84100BA
:1026600000205CE74FF48071E2E70000FF390008CA
:10267000F520000800380040003400402DE9F04FFC
:102680008BB0054614216846FEF70DF8002405942A
:1026900006940794089440492868884278D101201C
:1026A0000590C5200226CDE9060605A800F050F9E0
:1026B00008B1FEF713FD3948016841F4804101601B
:1026C000006800F48040099034481038016841F0F7
:1026D00004010160016801F004010991016841F001
:1026E000020101600068052700F0020009904820FF
:1026F0000090CDE90164DFF8A880CDE90347694681
:102700004046FFF7EFF904200090CDE90164062070
:10271000CDE9034069464046FFF7E4F9B80200906E
:10272000CDE90164CDE9034769461E48FFF7DAF9B0
:102730001E4E1D484FF4806730604FF0C060C6E900
:10274000010406F10C004FF400684FF400594FF4F7
:10275000807A4FF4403B80E8900F30467462FFF778
:102760009FF808B1FEF7BAFCEE63B5630E48104E51
:102770001830E6E802044020A6E8910F0C4846F81D
:102780002449FFF78DF808B1FEF7A8FCAE63B563E6
:102790000BB0BDE8F08F0000003800404038024028
:1027A0000008024000040240586002408C040020EF
:1027B000EC04002070477047024881680278114499
:1027C00081607047140100200B4810B5016841F486
:1027D00000710160016841F480610160016841F4A9
:1027E00080710160032000F071F8002000F006F80D
:1027F00000F024F8002010BD003C024070B50D4DE3
:1028000004464FF47A712878B1FBF0F00A49096860
:10281000B1FBF0F000F00CFC48B9102C07D20022FC
:102820002146501E00F032F800206C6070BD01207F
:1028300070BD000014010020200100200B4882B070
:10284000016841F480410160006800F4804000901C
:102850000648001F016841F080510160006800F0E7
:1028600080500090072002B000F030B84438024099
:10287000002809DB00F01F0201219140400980007F
:1028800000F1E020C0F8001170470000F0B40E4BDA
:102890001B680C46C3F30223C3F10705042D00D9BE
:1028A0000425191D072901D2002300E0DB1E0126A3
:1028B00006FA05F1491E214099409E40761E1640B9
:1028C0003143F0BC02F0DEB80CED00E0064900F048
:1028D000070208684FF6FF03184040EA0220034A47
:1028E00010430860704700000CED00E00000FA059E
:1028F00001460020012908D11149096811F400019D
:1029000004D0B1F5000F00D10E4870470C48001FED
:1029100001680068490200F03F0001D50A4900E063
:102920000A49074AB1FBF0F07C321168C1F3881103
:1029300041431068C0F30270B1FBF0F07047000033
:10294000083802400080BB0040787D010024F4007C
:102950002DE9F843054600684FF00109C1074FF023
:10296000000601D1400727D5DFF80C81C8F8686060
:10297000FFF7BEF90746414C05E000BFFFF7B8F985
:10298000C01B022857D820680001F7D4686881016D
:10299000287A41EA0070394984310860C8F86890A3
:1029A000FFF7A6F9074604E0FFF7A2F9C01B0228CB
:1029B00041D820680001F7D52878800752D52F48E4
:1029C0004030016841F08051016000682C4C00F0FB
:1029D00080500090206840F480702060FFF788F9F4
:1029E000074604E0FFF784F9C01B022823D82068BB
:1029F000C005F7D5214C7034206810F4407020D009
:102A0000A98901F4407181421BD020681D4920F43E
:102A10004070C1F800900E6020602068C00710D0A0
:102A2000FFF766F9064641F2883707E0FFF760F9DD
:102A3000801BB84202D90320BDE8F88320688007D4
:102A4000F4D5E9680D48C1F301220830032A0BD000
:102A5000016821F4F81101602068A989C1F30B0114
:102A6000084320600020E7E70268074B22F4F812D1
:102A700019400A430260EFE7000047420038024075
:102A800000700040400E4742FFFCFF0F2DE9F04769
:102A90000E46050065D0DFF81481D8F80000F7B2C3
:102AA00000F00700B04207D288F80070D8F80000A4
:102AB00000F00700B04254D128683D4C810712D580
:102AC000400703D5206840F4E050206028780007D4
:102AD00003D5206840F4604020602068A96820F099
:102AE000F000084320602878C0072DD0304968687E
:102AF0000839012812D0022813D0032811D0096800
:102B0000890700292DDA216821F0030101432160A2
:102B1000FFF7EEF8814641F2883A0EE00968890332
:102B2000EFE709688901ECE7FFF7E2F8A0EB09019C
:102B3000514502D90320BDE8F0872068696800F09C
:102B40000C00B0EB810FEFD1D8F80010404601F037
:102B50000701B14207D90770006800F00700B042D2
:102B600001D00120E7E72878400705D52068E9680B
:102B700020F4E050084320602878000706D520683C
:102B8000296920F4604040EAC100206000F038F874
:102B90002168084AC1F30311515CC8400649086026
:102BA00006480068FFF72AFE0020C4E7003C024008
:102BB00008380240F66700082001002018010020B4
:102BC0000448054900680968044AC1F38221515C40
:102BD000C8407047200100200838024006680008FD
:102BE0000448054900680968044AC1F34231515C50
:102BF000C8407047200100200838024006680008DD
:102C0000154810B5006810F00C02144813D0144990
:102C1000042A0FD0082A0ED10F4C241F22682368E3
:102C200002F03F025B0207D52068C0F38810A0FBCA
:102C3000010106E0084610BD2168C1F38811A1FB1F
:102C400000010023FDF78EFB2168C1F30141491CFF
:102C50004900B0FBF1F010BD083802400024F40038
:102C600040787D012DE9F84F04006ED02078DFF820
:102C70004C93C007A9F104054AD009F1040001688A
:102C8000C1F38101012908D00068C0F38100022846
:102C90000AD1D9F80000400206D52868800337D54C
:102CA00060680028E1D033E06068B0F5803F10D064
:102CB000B0F5A02F286810D020F480302860286854
:102CC00020F4802028606068A8B1FFF711F806465C
:102CD0000DE0286840F48030F4E740F4802028605C
:102CE000F7E700BFFFF704F8801B642873D8286853
:102CF0008003F7D50CE0FEF7FBFF064605E000BFBA
:102D0000FEF7F6FF801B6428F0D828688003F7D40C
:102D10002078DFF8AC8280074FF0000A3ED5A74844
:102D2000001D016811F00C0F08D00068C0F381008D
:102D300002280BD1D9F80000400207D42868800788
:102D400016D5E068012800D112E033E1E068B8B19F
:102D50000120C8F80000FEF7CBFF064605E000BFE3
:102D6000FEF7C6FF801B0228C0D828688007F7D569
:102D70002868216920F0F80040EAC10028600DE0D1
:102D8000C8F800A0FEF7B4FF064604E0FEF7B0FF67
:102D9000801B02281FD828688007F7D420780007F6
:102DA00022D5864F87486169703771B10121016072
:102DB000FEF79EFF064604E0FEF79AFF801B0228FE
:102DC00009D838688007F7D50EE0C0F800A0FEF7F4
:102DD0008FFF064605E082E0FEF78AFF801B02288F
:102DE0007DD838688007F7D42078400768D5DFF8A9
:102DF000CCB100270BF13C0BDBF80000C0000BD47A
:102E0000DBF8001041F08051CBF80010DBF8000037
:102E1000012700F0805000906B4E3068C00510D440
:102E2000306840F480703060FEF762FF009005E08B
:102E3000FEF75EFF0099401A022850D83068C0059E
:102E4000F6D55E4EA0686C3601280FD00528306894
:102E500010D020F001003060306820F004003060B5
:102E6000A068B8B1FEF744FF00900FE0306840F072
:102E70000100F4E740F004003060F7E7FEF738FFA8
:102E80000099411A41F28830814266D83068800743
:102E9000F4D50EE0FEF72CFF009007E0FEF728FFC8
:102EA0000099411A41F28830814256D83068800733
:102EB000F4D42FB1DBF8001021F08051CBF80010D2
:102EC000A069C8B33D49091D0968C1F38101022900
:102ED0004AD00228504607D0C8F8600000E03CE025
:102EE000FEF706FF04463BE04746C8F86000FEF7E1
:102EF000FFFE064605E000BFFEF7FAFE801B022833
:102F00002BD828688001F7D4D4E907010843A16AC7
:102F10002E4A490802EB0141626A41EA82110843E4
:102F200094F82C1040EA0161C9F8001001203866BD
:102F3000FEF7DEFE044606E03EE000BFFEF7D8FEE8
:102F4000001B022809D828688001F7D534E000BFAB
:102F5000FEF7CEFE001B022802D90320BDE8F88F41
:102F600028688001F4D427E00128F7D0D9F80000C0
:102F7000E26900F4800191421CD1226A00F03F0115
:102F8000914217D147F6C071626A0140B1EB821FCE
:102F900010D1A26A4FF0FF3300F4403103EB52022C
:102FA000B1EB024F06D194F82C1000F07060B0EB3A
:102FB000016F01D00120D1E70020CFE704380240A3
:102FC00000004742800E4742007000400000FFFFB3
:102FD00070B515460E46040003D094F8490010B1B0
:102FE00007E0012070BD002084F84800204600F072
:102FF0001DF804F108012068FEF71EF93146A268A9
:103000002068FEF74DF9D4E901022946236BFEF74B
:10301000F5F82168A06851F8202042F0010241F83B
:103020002020012084F84900002070BDFEF7ECBC90
:1030300010B5401EB0F1807F01D3012010BD4FF0CC
:10304000E02460610F21601701F01CFD0020A061E9
:1030500007202061002010BD7047704770B590F8C0
:103060003C20012A32D0012480F83C40022280F822
:103070003D2003685A689D6822F070060A68324352
:103080005A60134B02689A4214D0B2F1804F11D0AB
:10309000104B9A420ED0104B9A420BD00F4B9A42D3
:1030A00008D00F4B9A4205D00E4B9A4202D00E4BDD
:1030B0009A4204D1496825F080031943916080F851
:1030C0003D40002180F83C10084670BD022070BDD4
:1030D000000001400004004000080040000C0040D7
:1030E00000040140004001400018004010B50400F9
:1030F00003D094F83D0010B107E0012010BD00207E
:1031000084F83C00204600F01FF8022084F83D00BF
:10311000211D206801F04AFB012084F8460084F854
:103120003E0084F83F0084F8400084F8410084F8B1
:10313000420084F8430084F8440084F8450084F891
:103140003D00002010BD000008B501681E48814206
:103150000FD11E48016841F0200101600068002283
:1031600000F02000009011463720FFF78FFB37203A
:1031700024E01648164A001D91420ED1016841F420
:10318000003101600068002200F400300090114618
:103190001920FFF77BFB192010E00E4A914211D154
:1031A000016841F4802101600068002200F4802061
:1031B000009011461A20FFF769FB1A20BDE808406D
:1031C000FFF756BB08BD0000001400404038024025
:1031D000004401400048014090F83D10012901D011
:1031E00001207047022180F83D100168CA6842F052
:1031F0000102CA6000681149884214D0B0F1804FC2
:1032000011D00F4988420ED00E4988420BD00E498A
:10321000884208D00D49884205D00D49884202D025
:103220000C49884204D1816801F00701062903D0C6
:10323000016841F001010160002070470000014079
:103240000004004000080040000C00400004014061
:10325000004001400018004070472DE9F04104464D
:103260000068C66805694FF00007A90713D5B107C4
:1032700011D5F91E0161012020772068806980073F
:10328000204602D0FFF7E8FF04E000F07EF8204679
:1032900000F07CF82777680716D5700714D52168E9
:1032A0006FF004000861022020772068806910F424
:1032B000407F204602D0FFF7CFFF04E000F065F822
:1032C000204600F063F82777280715D5300713D577
:1032D00021686FF008000861042020772068C06929
:1032E0008007204602D0FFF7B7FF04E000F04DF85A
:1032F000204600F04BF82777E80616D5F00614D5DF
:1033000021686FF010000861082020772068C069EC
:1033100010F4407F204602D0FFF79EFF04E000F04B
:1033200034F8204600F032F82777E80708D0F00795
:1033300006D021686FF001000861204600F027F8F0
:10334000280608D5300606D521686FF08000086190
:103350002046FFF781FE680608D5700606D521686D
:103360006FF040000861204600F012F8A8060AD568
:10337000B00608D521686FF0200008612046BDE83E
:10338000F041FFF76ABEBDE8F081704770477047B3
:10339000704770B5040004D094F84100002510B1C6
:1033A00006E0012070BD84F84050204600F024F86B
:1033B000242084F841002068C16821F40051C160D4
:1033C000204601F087FA2068016921F490410161EB
:1033D0002068416921F02A0141612068C16841F4F7
:1033E0000051C1606564202084F8410084F84200E7
:1033F0006563002070BD0000F0B587B0044614215D
:103400006846FDF750F91949206888422CD11848C0
:103410000024016841F480210160006800F48020EC
:10342000059013481038016841F0040101600068FC
:10343000022500F0040005904FF400600090CDE9F3
:10344000015407260B4FCDE9034669463846FEF77F
:1034500049FB6802CDE900050320CDE90240694639
:1034600004963846FEF73EFB07B0F0BD004800402A
:1034700040380240000802402DE9F843044690F825
:103480004100984616460D46202802D00220BDE88D
:10349000F88385B17EB100206064212084F841006A
:1034A000FEF726FCA6848146E684A0682027B0F5B6
:1034B000805F02D003E00120E9E7206910B12E46C9
:1034C00000250EE000260CE08021204601F088FA5D
:1034D000A8B9C6B116F8010B21684860E08C401EFF
:1034E000E084E08C4B464FF00002CDF800800028CD
:1034F000EAD14FF04001204601F072FA40B184F861
:1035000041700320C3E735F8020BC0F30800E3E77E
:1035100084F841700020BAE7FEE701684A69D243A7
:1035200052050FD46FF480624A61002140F8301FC9
:10353000202242738173026942F004020261017326
:1035400001207047002070472DE9F84F04460068BD
:1035500089460B9D01689846174641F480610160D9
:103560002068016841F48071016000954FF0011BF3
:103570000022594620460A9B00F064F84FF4007A76
:1035800040B120680068C00501D5C4F840A0032000
:10359000BDE8F88F216809F0FE0008612B46284934
:1035A00020460A9A00F096F8F0BB206841698069CD
:1035B00000902A4620460A9900F022F940B1206C7A
:1035C00004283AD12068016841F40071016034E0B8
:1035D000FEB2B8F1010F09D02168380A08612A4605
:1035E00020460A9900F00CF90028E8D1206806610D
:1035F0002A4620460A9900F003F90028DFD1206806
:10360000016841F48071016000950022594620460E
:103610000A9B00F017F80028B3D1216809F0FF00D9
:1036200040F00100086100E007E02B460449204615
:103630000A9A00F04FF80028AAD00120A8E700005D
:10364000020001002DE9F047984617460D46044652
:10365000C1F30746DDF820902AE000BFB8F1FF3F34
:1036600026D0FEF745FBA0EB0901414502D8B8F191
:10367000000F1DD12068012E16D0806925EA0000B8
:103680000004000C12D00020B84211D1002044F8F0
:10369000300F20216173A073216941F02001216165
:1036A00020730120BDE8F0874069E7E70120EBE7E0
:1036B0002068012E0AD0806925EA00000004000C71
:1036C00006D00020B842C9D00020EBE74069F3E7FC
:1036D0000120F7E72DE9F047984616460D460446C7
:1036E0004FF000094FF0200AC1F3074723E020689C
:1036F0004069C043400515D42068016841F4007159
:10370000016021686FF480604861C4F8309084F8EB
:103710003DA084F83E90216C41F00401216484F8BE
:103720003C9021E0701C06D0FEF7E2FAA0EB080006
:10373000B04203D816B1012F1FD021E02068012F1D
:1037400015D0806925EA00000004000C18D000BFE5
:1037500044F8309F84F80DA084F80E90216941F060
:103760002001216184F80C900120BDE8F0874069B8
:1037700025EA00000004000CEAD12068406901E05D
:103780002068806925EA00000004000CAFD1ECE756
:103790002DE9F041002590460E460446202728E0FA
:1037A0004069C043C0060CD454F8301B6FF01000C1
:1037B000486144F810596777A577206A2062257719
:1037C00014E0FEF795FAA0EB0800B04200D886B9E5
:1037D00020684069C04340060BD544F8305F6773EA
:1037E000A573206940F02000206125730120BDE809
:1037F000F08120684169C9434906D1D40020F6E729
:1038000070B516460D4604461EE02046FFF785FEBD
:1038100008B1012070BD681C16D0FEF769FA801B44
:10382000A84200D885B920684069C04300060BD57E
:10383000002044F8300F20216173A073216941F00A
:10384000200121612073E4E720684069C04300063D
:10385000DBD4002070BD000070B515490268154B1F
:103860004FF040248A4201D11A4600E02246D56832
:10387000C26A961CC6621580428E521E4286428ED5
:10388000002A14D102688A4201D1194600E021467B
:10389000496821F0600100D023465960418D00291C
:1038A00005D14FF0010180F84110FEF7EFFD70BD2A
:1038B000003800400034004070B5416A144B8A1C47
:1038C000426205680988134A4FF040249D4201D1A5
:1038D000154600E02546E960418D491E4185418D30
:1038E000002914D10168994201D1114600E0214616
:1038F000496821F0A00100D022465160418E002984
:1039000005D14FF0010180F84110FEF7BFFD70BDF9
:10391000003800400034004070B50146806BC96932
:10392000B1BB0168CA691D4BC2F301251A4A4FF0A9
:103930004024022D0CD0CD6915F4407F08D04D688D
:1039400025F001054D600168914212D1194611E040
:10395000914201D1194600E02146496821F0010158
:1039600000D02346596001684A6822F002024A608A
:1039700006E02146496821F0020100D02346596043
:103980004FF00001418641854FF0010180F8411060
:10399000FEF77CFD70BD00000038004000340040A0
:1039A00030B4806B01684A6822F003024A600F4A13
:1039B00004680F494FF04023944201D10A4600E0C9
:1039C0001A46526822F0030200D019464A604FF0AE
:1039D0000001418541864FF0010180F84110416CA2
:1039E00041F00801416430BCFEF78CBD0038004056
:1039F0000034004010B5806BFEF766FD10BD7CB54D
:103A0000016804468868009094F841000125042864
:103A100034D10098C00718D04868C043400614D479
:103A2000C9682046E26A1180E16A891CE162618E00
:103A3000491E6186618E41B901684A6822F06002C0
:103A40004A6080F84150FEF7B5FE0098400615D553
:103A500020684168C943890610D4416821F060019B
:103A600041602068C1688068019084F84150606CB2
:103A700040F0020060642046FEF744FD94F84100E7
:103A8000032834D10098800719D521684868C043BD
:103A9000000614D4626A20461288CA60616A891CD2
:103AA0006162618D491E6185618D41B901684A6815
:103AB00022F0A0024A6080F84150FEF77CFE009898
:103AC000000714D520684168C94389060FD44168AE
:103AD00021F0A001416020688068009084F8415086
:103AE000606C40F0040060642046FEF70BFD7CBD76
:103AF00070B504462DED108B82B0B0EE429AF0EE18
:103B0000629AB0EE40FAF0EE60FA90ED08EB51ECFC
:103B1000110B53EC1E2B02F07BFD41EC100B51EC12
:103B2000190B53EC102B02F067FB94ED061B53ECC2
:103B3000112B02F0B3F894ED10DB41EC1A0B53ECAF
:103B40001D2B51EC190B02F057FB0E4646EC100BE7
:103B500094ED0CCB054653EC1C2B51EC100B02F0F2
:103B600057FD94ED0EBB53EC1B2B02F051FD94ED71
:103B7000001B53EC112B02F091F853EC192B02F0BF
:103B80003BFB94ED0A1B53EC112B02F087F846EC3B
:103B9000105B41EC180B53EC1C2B51EC100B02F09A
:103BA0005FFC46EC105B41EC1C0B53EC1B2B51EC07
:103BB000100B02F055FC94ED020B41EC1B0B53EC87
:103BC000192B51EC100B02F017FB53EC1D2B02F0DC
:103BD00065F841EC100B51EC180B8DED000B94EDDA
:103BE000040B53EC102B02F059F841EC190B51EC7B
:103BF000180B53EC192B02F005F941EC1D0B53EC9B
:103C0000192B51EC1B0B02F0FDF841EC190B53EC96
:103C10001A2B51EC1F0B02F0FBFC41EC1F0B51EC7B
:103C20001D0B53EC1F2B02F0E7FA53EC1A2B02F09A
:103C300035F841EC1A0B53EC1F2B84ED06AB51EC1D
:103C4000190B02F0D9FA53EC1E2B02F027F8C4E945
:103C5000080153EC182B51EC1D0B02F0CDFA53EC7C
:103C6000182B02F0FDFBC4E90A0153EC1C2B51ECAC
:103C70001D0B02F0C1FA53EC1C2B02F0F1FBC4E95E
:103C80000C0153EC182B51EC190B02F0B5FA53EC64
:103C90001B2B02F0E5FBC4E90E0153EC1C2B51EC8D
:103CA000190B02F0A9FA9DED000B53EC102B02F05A
:103CB000D7FBC4E9100102B0B0EE4A0AF0EE6A0A7E
:103CC000BDEC108B70BD000004480178002903D1C1
:103CD00001210170FDF704BA7047000024010020A3
:103CE0004FF0D041C0B208804888704710B500221C
:103CF0004FF0D04404E000BF30F8023B6380921CD8
:103D00008A42F9D310BD4FF0D041088070470000BF
:103D10002DE9F0470C462DED0C8B88B09FED9A9B5A
:103D20009FED9BDB9FED9CBB9FED9DAB64230E2223
:103D300003A98DE80E0001233B22D021FEF7A2F853
:103D4000BDF80C0040BA00B22080BDF80E1049BA90
:103D50000EB26680BDF8101049BA0DB2A580BDF84C
:103D6000121049BA0FFA81FABDF8141049BA0FB20D
:103D70002784BDF8161049BA09B261848946BDF896
:103D8000181049BA09B2A184884602F0CFF99FED14
:103D9000868B53EC182B02F02FFAC4E9020130464F
:103DA00002F0C4F953EC182B02F026FAC4E904011E
:103DB000284602F0BBF99FED7E1B53EC112B02F05D
:103DC00021F800EE10AAB8EEC00A9FED7B1AC0EEF3
:103DD000010A9FED7A0AC4E90601384630EE800AEE
:103DE00084ED100A02F0A2F99FED758B53EC182BAD
:103DF00002F008F8C4E90A01484602F097F953ECCA
:103E0000182B01F0FFFFC4E90C01404602F08EF9C7
:103E100053EC182B01F0F6FFC4E90E01FDF768FF23
:103E2000694D2968401A02F098F99FED681B53EC20
:103E3000112B01F0E7FF41EC1C0BFDF759FF286047
:103E4000208810FB00F1A08810FB001002F06EF932
:103E500041EC100B01F09EF8B0EE408AF0EE608A63
:103E600053EC192B51EC180B02F024F913D0B4F9D0
:103E7000020002F05BF953EC182B01F0C3FF41EC98
:103E8000100B00F011FE53EC1D2B51EC100B02F047
:103E9000B3F941EC190BB4F9040002F047F941EC15
:103EA000180BB4F90000404202F040F941EC100B4D
:103EB000B0EE481AF0EE681A00F062FF53EC1D2BCA
:103EC00051EC100B02F098F941EC180B53EC1B2B42
:103ED00002F056F908D294ED140B53EC1A2B51EC66
:103EE000100B02F087FA0FD353EC1A2B51EC180B7E
:103EF00002F080FA11D294ED140B53EC1B2B51EC11
:103F0000100B02F03DF908D22F48503080ED068B9F
:103F100084ED148B94ED140B0FE02B4894ED0C1BE7
:103F2000B0EE4C2AF0EE6C2AB0EE480AF0EE680AC9
:103F30005030FFF7DDFD84ED140B01F021F853EC58
:103F40001A2B51EC100B02F055FA07D294ED0A0B24
:103F500051EC100B01F096FEC4E90A011A4894EDE9
:103F60000A1BB0EE4C2AF0EE6C2AB0EE490AF0EED5
:103F7000690A0830FFF7BCFD84ED120B08B0BDECF8
:103F80000C8BBDE8F087000000000000000000007E
:103F9000F8C1631ADCA54C4000000000008056C048
:103FA0000000000000805640000000000000103FAC
:103FB000000000000029CC400000AA43B81E1242B5
:103FC00000000000006060400000002000000000D1
:103FD00000408F407FB5002415480094019402945E
:103FE0001249039401604FF48031C0E901140125A6
:103FF0000461057680F820400E49C0E90A14C561C5
:10400000C46080F830404561FDF712FA08B172B61D
:10401000FEE70820CDE90005694602940448FDF753
:1040200061F9002801D072B6FEE77FBD0022014091
:10403000A40100200100000F00B587B01C216846D4
:10404000FCF731FB16484FF0204110220160154962
:104050004160042181600021C160C0E904128161D6
:10406000C16113020162C0E90913C16201634163C6
:10407000816341640F20FF230090CDE90103CDE966
:1040800003021120CDE90501002269460448FEF72C
:104090009FFF002801D072B6FEE707B000BD000008
:1040A000BC030020040100A02DE9F04F87B01421CB
:1040B0006846FCF7F8FAEC480024016841F010016A
:1040C0000160016801F010010591016841F00201F1
:1040D0000160016801F002010591016841F04001B1
:1040E0000160016801F040010591016841F008019B
:1040F0000160016801F008010591016841F00401C7
:104100000160016801F004010591016841F00101BD
:104110000160016801F001010591016841F48071BD
:104120000160016801F480710591016841F080012E
:104130000160016801F080010591016841F02001F2
:1041400001600068002200F0200005904FF48A51C1
:10415000C648FDF7C7FD4FF4007800224146C44829
:10416000FDF7C0FD002248F22001C248FDF7BAFD6C
:1041700000228021C048FDF7B5FD00228021BF4804
:10418000FDF7B0FD4FF4807000900225CDE9015499
:104190000B20CDE903406946B948FDF7A3FC42F680
:1041A0002300CDE900050320CDE902400A26694637
:1041B0000496B348FDF796FC4FF4D0400090CDE94B
:1041C00001540B20CDE903406946A848FDF78AFC5D
:1041D0004FF49850CDE900050320CDE902404FF09F
:1041E0000C0B6946CDF810B0A348FDF77BFCA80383
:1041F00000904FF40410CDE9010469469B48FDF797
:1042000071FC4FF48A5000900120CDE90104694609
:1042100096480394FDF766FC4FF4E0500090CDE91A
:104220000154CDE9034669469648FDF75BFCF02052
:104230000090CDE901540D27CDE9034769468C482C
:10424000FDF750FC4FF004094FF4901ACDF80090A0
:10425000CDE901A469468648FDF744FC0120CDF86C
:104260000080CDE90104694681480394FDF73AFCDA
:104270000320CDE90240CDE900956946CDF810B0A4
:104280008148FDF72FFC48F2200000900120CDE985
:104290000104694677480394FDF724FC6802009006
:1042A000CDE901540B20CDE9034069467048FDF784
:1042B00019FC03204FF4006BCDE90240CDE900B5B5
:1042C000694604966A48FDF70DFC2803CDE9000411
:1042D0000120029069466748FDF704FC4FF4BE4098
:1042E0000090CDE90154CDE9034769466148FDF7E7
:1042F000F9FBCDE90084694662480294FDF7F2FBC0
:10430000CC200090CDE901540B20CDE90340694653
:104310005848FDF7E7FBE8010090CDE9015403940C
:10432000694658480494FDF7DDFB4FF080080120F2
:10433000CDF80080CDE9010469464F480394FDF7AC
:10434000D1FB1020CDE900050320CDE902406946EC
:1043500004964848FDF7C6FBCDF80080CDE901542E
:104360000820CDE9034069464048FDF7BBFB01202A
:10437000CDF80080CDE90104694640480394FDF77B
:10438000B1FB4FF04008CDE9008469463B480294F8
:10439000FDF7A8FB0120CDE900050320CDE902408F
:1043A000694604963448FDF79DFB32200090CDE924
:1043B00001540B20CDE9034069462F48FDF792FBDD
:1043C000CDE9009469462E480294FDF78BFB8620C8
:1043D0000090CDE901540B20CDE9034069462948FE
:1043E000FDF780FB012000904FF44410CDE901045B
:1043F00069462448FDF776FBCDF80080CDE90154ED
:10440000CDE9034769461F48FDF76CFB2820CDE93D
:1044100000050320CDE90240694604961948FDF7DE
:1044200061FBCDF800B0CDE901A469461348FDF762
:1044300059FB6803CDE9000A694602941048FDF76C
:1044400051FB002211460620FEF720FA0620FEF757
:104450000FFA002211462820FEF718FA2820FEF74E
:1044600007FA07B0BDE8F08F30380240001802406C
:1044700000200240001C02400008024000140240DC
:104480000004024000000240000C0240FEE7FEE78C
:1044900070477047FEF790B930B593B03021684649
:1044A000FCF701F914210CA8FCF7FDF81E480025C3
:1044B000016841F080510160006800F08050119067
:1044C0001A48016841F4804101600068022400F448
:1044D0008040119001200090000401908001CDE9FE
:1044E0000640192008904FF4A870CDE90904072070
:1044F0000B906846FEF7B6FB08B172B6FEE70CA952
:104500000F2081E831004FF4A0500F904FF48050FD
:10451000109005210CA8FEF7B9FA002801D072B658
:10452000FEE713B030BD000040380240007000408C
:104530000248016841F470010160704788ED00E0B5
:1045400010B501F02FFA01F0E3F9BDE81040014881
:10455000FEF783BE2C03002070B5504D2DED028B6D
:1045600028789FED4F8B504C012869D194ED140BA6
:104570009FED4E1B51EC100B53EC112B01F03AFF49
:104580000DD294ED140B53EC182B51EC100B01F0E1
:10459000F7FD04D200210222084601F03BFB94ED16
:1045A000140B53EC182B51EC100B01F023FF0FD21E
:1045B00094ED140B9FED3F1B51EC100B53EC112BA2
:1045C00001F0DEFD04D200210622084601F022FBA4
:1045D00094ED140B9FED391B51EC100B53EC112B88
:1045E00001F008FF10D294ED140B9FED361B51EC37
:1045F000100B53EC112B01F0C3FD05D200216FF01D
:104600000502084601F006FB94ED140B9FED2F1BED
:1046100051EC100B53EC112B01F0ECFE10D294ED89
:10462000140B9FED2C1B51EC100B53EC112B01F0D4
:10463000A7FD05D200216FF00102084601F0EAFA59
:104640002878264C6FF0020602280ED12068012837
:1046500002D0401C04D019E000221146304602E08E
:1046600000221146032001F0D5FA287803280DD145
:104670006068012802D0401C03D007E0002203211B
:1046800001E000223146002001F0C4FABDEC028BAB
:104690001348BDE87040FEF7E0BD00009800002020
:1046A0000000000000005440500500200000000001
:1046B00000003E400000000000C067400000000015
:1046C000002067C000000000000044C0000000009F
:1046D000000049C000000000000034C09401002028
:1046E000E40200202DE9F04129492A48FFF710FB98
:1046F00001F0D2F92848294C294F0078A515DFF898
:10470000A480661530B101280BD0022822D00328DE
:104710001BD12BE0012240212046FDF7E3FA0022C5
:1047200005E0002240212046FDF7DCFA012229465F
:104730002046FDF7D7FA002231463846FDF7D2FA77
:10474000002280214046FDF7CDFABDE8F041164831
:10475000FEF783BD002240212046FDF7C3FA002268
:1047600029462046FDF7BEFA0122E5E70022402156
:104770002046FDF7B7FA002229462046FDF7B2FA97
:10478000002231463846FDF7ADFA0122D9E7000094
:104790005005002000020020980000200018024070
:1047A00000200240000802409C020020F0B5026890
:1047B000294C2A4D2A4E2B4F2B4B4FF0804CA042B8
:1047C00009D0604507D0A84205D0B04203D0B84216
:1047D00001D0984204D122F0700E4A6842EA0E02DB
:1047E000A0421BD0604519D0A84217D0B04215D0C6
:1047F000B84213D0984211D01C4DA8420ED01C4D87
:10480000A8420BD01B4DA84208D01B4DA84205D092
:104810001A4DA84202D01A4DA84203D122F4407585
:10482000CA682A434D6922F080022A4302608A68DE
:10483000C2620A688262A04201D0984201D109692D
:104840000163012141610169C90703D0016921F0B8
:1048500001010161F0BD00000000014000040040C2
:1048600000080040000C00400004014000400140EE
:10487000004401400048014000180040001C004076
:104880000020004001680C3151E8002F22F49072A2
:1048900041E80023002BF5D10168143151E8002FC5
:1048A00022F0010241E80023002BF5D1016B012920
:1048B00009D101680C3151E8002F22F0100241E8C3
:1048C0000023002BF5D1202180F842100021016344
:1048D0007047000070B5044600680169E26821F481
:1048E0004051114301612169A068E269084361698F
:1048F000114308432168CA6849F20C639A43024392
:10490000CA6020684169A26921F440711143416184
:1049100031492068884202D03049884202D1FEF7EE
:104920005FF901E0FEF74CF9E269002319216425E3
:104930003226B2F5004F626828D0A0FB0101930F28
:104940009200FBF70FFD0146B0FBF5F06FF0180287
:10495000504301EB800006EB0010B0FBF5F000F0D7
:10496000F002B1FBF5F002EB0012B1FBF5F06FF0D5
:104970001803584301EB800006EB0010B0FBF5F084
:1049800000F00F0021681044886070BDA0FB010199
:1049900092185B41FBF7E6FC0146B0FBF5F0020123
:1049A000B1FBF5F06FF01803584301EB800006EB04
:1049B000C000B0FBF5F000F0F80002EB4002B1FBE4
:1049C000F5F0584301EB800006EBC000B0FBF5F0BA
:1049D00000F00700D6E7000000100140001401407D
:1049E0002DE9F843984617460D460446089E24E0F4
:1049F000701C22D0FDF77CF9A0EB0800B0421AD859
:104A0000CEB12068C168490717D5802D15D0402D3B
:104A100013D00168C94309070FD401680025406815
:104A200000902046FFF72EFF0820606484F8405075
:104A30000120BDE8F8830320FBE72068006835EA21
:104A4000000004D00020B842D2D00020F1E70120BD
:104A5000F9E7FEE703B401984100009850EAC1204D
:104A600018BF04204A0D18BF40F0010040F2FF7249
:104A7000B2EB515F08BF40F00200012808BF0520DB
:104A800002B070470907090E002804DB00F1E0209E
:104A900080F80014704700F00F0000F1E02080F86B
:104AA000141D70470000000070B59B482DED020BEF
:104AB0002DED068B079D25F00044A04218DC974899
:104AC000844202DC0AD1069840B19DED060BBDEC94
:104AD000068B02B0BDE8704000F015BB002DCCBFC6
:104AE0009FED8F0B9FED900BBDEC068B02B070BD60
:104AF0008F48A04215DD8F48A042D8BF4FF0FF3449
:104B000058DD9DED060B51EC100BFFF7A3FF0428B9
:104B100008BF00F00DFB9DED060BBDEC068B02B04F
:104B200070BD9DED060B51EC100B00F020FBCDE9A4
:104B3000060181489FED828BA0423CDD8248A04265
:104B40001FDD00249FED82AB9DED060B53EC1A2B6D
:104B500051EC100B01F0A2F89DED060B41EC190B86
:104B600053EC1A2B51EC100B01F046FB53EC182BB5
:104B700001F04EFD53EC192B01F044F9CDE906018B
:104B800049E09DED060B012453EC182B51EC100B62
:104B900001F084F89DED060B41EC190B53EC182B3A
:104BA00051EC100B01F034FD53EC192B01F02AF9F4
:104BB000CDE906012FE06848A0421FDD02249FEDE9
:104BC000689B9DED060B53EC192B51EC100B01F07B
:104BD00013FB53EC182B01F061F89DED060B41EC33
:104BE000180B53EC192B51EC100B01F011FD53EC89
:104BF000182B01F007F9CDE906010CE09DED060B3D
:104C0000032453EC102B9FED580B51EC100B01F0CB
:104C1000F9F8CDE906019DED060B53EC102B51EC94
:104C2000100B01F0E9FA41EC180B53EC182B01F0D2
:104C3000E3FA41EC190B4E480621B0EE490AF0EEBA
:104C4000690A784400F0E3F953EC182B51EC100B8F
:104C500001F0D2FA41EC180B4648B0EE490AF0EEEA
:104C6000690A0521784400F0D2F953EC192B51EC74
:104C7000100B01F0C1FA41EC100B51EC180B53EC86
:104C8000102B002C0EDA01F009F89DED061B53ECF9
:104C9000112B01F0B1FA9DED061B53EC112B01F025
:104CA000DFFB35E000F0FAFF9DED061B53EC112B06
:104CB00001F0A2FA41EC100B2F48784400EBC4003D
:104CC00090ED001B51EC100B53EC112B01F0A0FCEC
:104CD0009DED061B53EC112B01F09AFC41EC100BDF
:104CE0002648784400EBC40090ED001B51EC100BFB
:104CF00053EC112B01F0B4FB41EC100B002DA2BFC3
:104D0000BDEC068B02B070BD51EC100B00F0BAFF89
:104D100041EC100B01E70000000010440000F07FA0
:104D2000182D4454FB21F93F182D4454FB21F9BFA1
:104D30000000DC3F0000203E0000F33F00000000C8
:104D4000000000000000F03F0000E63F000000000F
:104D50000000000000000040008003400000000050
:104D6000000000000000F83F000000000000F0BF5D
:104D7000FA360000B03600003A360000F235000086
:104D800070B56F4E2DED040B2DED048B82B0DDF868
:104D900024C0DDE907235C422CF000411C4341EABA
:104DA000D474069D22F00040B44205D86C422C43D6
:104DB00040EAD474B4420BD99DED081B9DED060B5F
:104DC00002B0BDEC048B04B0BDE8704000F0A5B9A2
:104DD000ACF14054A4F17F641C430BD0022404EADC
:104DE000AC7444EAD27405439FED578B9FED582B6A
:104DF00007D015E09DED060B51EC100B00F0AFF95C
:104E000042E0002C11BF012C9DED060B02B0BDEC61
:104E1000048B04BF04B070BD022C38D0032C3BD0EF
:104E20000B439FED4D1B9FED4E0B0AD0B14218D1A5
:104E3000B04209D121F0804120F0804009910790D3
:104E40000FE0002A15DA10E0474B7B44002C08BF26
:104E500093ED000B0DD0012C10D0022C17D0032C99
:104E60001AD0B0421DD1002A03DAB0EE410AF0EEAA
:104E7000610A02B0BDEC048B04B070BD93ED000B71
:104E800051EC100B00F0FEFE41EC100BF1E7B0EE20
:104E9000480AF0EE680AECE7B0EE420AF0EE620A69
:104EA000E7E7401A00159FED329B3C28C8BF8DED07
:104EB000000B17DCBCF1000FBCBF10F13C0F8DEDF7
:104EC000009B0FDB9DED080B53EC102B9DED060BAB
:104ED00051EC100B00F096FF00F049F900F03FF99B
:104EE000CDE90001B4B1012C10D0022C9FED220BB2
:104EF00053EC102B9DED000B51EC100B19D001F071
:104F000087FB53EC182B01F083FBBDE7019880F081
:104F1000004001909DED000B53EC192B51EC100B50
:104F200001F0C8F804BF0220FBF73FFC9DED000B29
:104F30009FE701F06DFB53EC182B01F091FAA3E70A
:104F40000000F07F00000000182D4454FB210940B0
:104F5000182D4454FB2109C0182D4454FB21F9BFDE
:104F6000182D4454FB21F93F2235000000000000B9
:104F70000000000000000000075C143326A6A13CDE
:104F80002DED020B019820F0004001909DED000BEB
:104F900002B0704700B52DED048BB0EE409AF0EEF4
:104FA000609A83B051EC190B01F066FA41EC180BD2
:104FB00018EE100A18EE901A8DED008B002818BF1D
:104FC0000120084320F00040C0F17F6000F1E04084
:104FD000C00F14D019EE101A19EE900A8DED009B37
:104FE000002918BF0121084320F00040C0F17F6074
:104FF00000F1E040C00F04BF0120FBF7D6FBB0EE8C
:10500000480A03B0F0EE680ABDEC048B00BD70B531
:1050100004462DED028B4D1E00EBC500B0EE408A1C
:10502000F0EE608A90ED000B35F0060017D053ECDF
:10503000182B51EC100B01F0DFF841EC100B6D1E3A
:1050400004EBC50090ED001B51EC100B53EC112B41
:1050500000F024FE41EC100B35F00600E7D1022DE4
:1050600036D0042D1CD0062D1CBFBDEC028B70BDAC
:1050700053EC182B51EC100B01F0BEF894ED0A1B09
:1050800053EC112B00F00AFE53EC182B01F0B4F88E
:1050900094ED081B53EC112B00F000FE41EC100BBB
:1050A00053EC182B51EC100B01F0A6F894ED061BF5
:1050B00053EC112B00F0F2FD53EC182B01F09CF88F
:1050C00094ED040B53EC102B00F0E8FD41EC100BB9
:1050D00053EC182B51EC100B01F08EF894ED021BE1
:1050E00053EC112B00F0DAFD53EC182B01F084F88F
:1050F00094ED001B53EC112B00F0D0FDBDEC028BA6
:1051000041EC100B70BD10B553EC102B51EC100B93
:1051100000F0C4FD41EC100B10BD10B553EC112B89
:1051200051EC100B00F0BAFD41EC100B10BD00006B
:105130009FED050B10B553EC102B51EC100B01F04B
:105140005BF841EC100B10BD0000000000000010E7
:1051500030380A2801D2012070470020704710B56E
:1051600041EC100BFFF7A0FC51EC100B10BD82B00E
:10517000CDE9000121F0004001909DED000B02B04F
:1051800051EC100B704710B50021102000F005FA0B
:105190000021112000F001FA0021122000F0FDF999
:1051A0000021132000F0F9F90021292000F0F5F981
:1051B0000021BDE81040072000F0EFB910B5002134
:1051C000102000F0EAF90021112000F0E6F900219A
:1051D000122000F0E2F90021132000F0DEF941F284
:1051E000B071102000F0D9F940F23711112000F011
:1051F000D4F940F23911122000F0CFF94FF4E85100
:10520000132000F0CAF91321292000F0C6F9BDE8E7
:10521000104040F27311072000F0BFB92DE9F041B2
:10522000064650880D46918840EA0141508993898D
:1052300040EA0340091A4C08171841F208010320FC
:1052400000F0ABF92946304600F06FF92220FEF756
:105250005AFD61003846FEF749FDBDE8F04141F2D4
:105260001801032000F099B970B51D460B4606469B
:1052700000241146184600F058F92220FEF743FD9D
:10528000064803E020F81460641CA4B2AC42F9D3D1
:105290006900BDE870400148FEF728BDC405002044
:1052A00070B502FB03F4049D00F03FF92220FEF7E5
:1052B0002AFD61002846BDE87040FEF717BD0000DA
:1052C0002DE9F041884606461D461746002441F266
:1052D0001001032000F061F93946404600F025F93D
:1052E0002220FEF710FD0A4804E000BF20F81460F9
:1052F000641CA4B2AC42F9D369000548FEF7F6FC81
:10530000BDE8F04141F21801032000F046B9000069
:10531000C4050020F02070474FF4A07070472DE9BD
:10532000F041FEF7D1FC0121002000F036F94FF4E6
:105330008071012000F031F94FF4E061022000F0AB
:105340002CF941F218042146032000F026F900212F
:10535000042000F022F940F20221082000F01DF99B
:105360000021092000F019F900210A2000F015F9A8
:1053700000210C2000F011F900210D2000F00DF9A2
:1053800000210F2000F009F90021102000F005F99C
:105390000021112000F001F90021122000F0FDF899
:1053A0000021132000F0F9F841F2B071102000F054
:1053B000F4F840F23711112000F0EFF840F2391103
:1053C000122000F0EAF84FF4E851132000F0E5F85D
:1053D0001321292000F0E1F80021202000F0DDF861
:1053E0000021212000F0D9F80721302000F0D5F865
:1053F00040F20231312000F0D0F840F20515294684
:10540000322000F0CAF840F206263146352000F07E
:10541000C4F840F608073946362000F0BEF8314699
:10542000372000F0BAF840F20451382000F0B5F807
:105430000721392000F0B1F829463C2000F0ADF8F2
:1054400039463D2000F0A9F80021502000F0A5F8D1
:10545000EF21512000F0A1F80021522000F09DF82A
:1054600040F23F11532000F098F84FF4274160209C
:1054700000F093F80121612000F08FF800216A20EC
:1054800000F08BF80021802000F087F800218120B7
:1054900000F083F80021822000F07FF800218320B3
:1054A00000F07BF80021842000F077F800218520AF
:1054B00000F073F81021902000F06FF80021922086
:1054C00000F06BF80321932000F067F84FF4887127
:1054D000952000F062F80021972000F05EF800218E
:1054E000982000F05AF82146032000F056F840F2C8
:1054F0007311072000F051F80021084600F015F85C
:10550000BDE8F0412220FEF7FEBB10B5FEF7DCFB44
:10551000BDE810400020FEF7E3BB10B500F005F831
:10552000BDE810402220FEF7DBBB10B5044620206A
:1055300000F033F8A4F23F14604281B2BDE810409D
:10554000212000F02AB82DE9F04104461D461646F8
:105550000F46502000F021F87819401E81B25120EA
:1055600000F01BF8C4F5A070801B81B2522000F03F
:1055700014F8A4F23F146042BDE8F04181B2532018
:1055800000F00BB807B5FFF7D0FF2220FEF7BBFBFA
:10559000022102A8FEF7AAFB0EBD13B5FEF7B3FB6E
:1055A000022101A8FEF7A2FB1CBD00001CB5DFED27
:1055B000990A9948C0ED070A9FED980A80ED080AFC
:1055C000C0ED090A9FED961A80ED0A1ADFED951AD3
:1055D000C0ED0B1ADFED940AC0ED100A9FED930A9F
:1055E000443080EC040AFDF7EFF8FBF7EBFBFEF725
:1055F00053FFFEF759FD8E480024016841F4001165
:1056000001600068224600F40010009021460E2040
:10561000FDF73CF90E20FDF72BF9002211460F2073
:10562000FDF734F90F20FDF723F900221146102071
:10563000FDF72CF91020FDF71BF9FEF7CBFC7E4897
:105640007C4901604FF4E131C0E901140C21C460D0
:10565000C0E904418461C461FDF79BFE08B172B6E4
:10566000FEE775480094D83874490194C0E90014E5
:105670004FF6FF75C0E902458461FDF737FD08B1BB
:1056800072B6FEE76C4800946946D8380194FDF77D
:10569000E5FC08B172B6FEE7674869499038C0E991
:1056A0000014C0E9024504618461FDF71FFD08B1E3
:1056B00072B6FEE7FEF7C0FC5F48624948380160F9
:1056C0006321C0E9011440F24731C0E90314846149
:1056D000FDF70CFD08B172B6FEE75C485A4903229B
:1056E00001604915C0E90114C0E903214BF680317E
:1056F000C0E905140121C0E90741FCF705FF08B125
:1057000072B6FEE751485249543801605149C0E928
:1057100001144FF48041C0E9034144618461C461D4
:105720000462FCF7EBFA08B172B6FEE74749009451
:1057300068394948019408600846FBF77AFF08B1C8
:1057400072B6FEE741480094002269466838019429
:10575000FBF748FF08B172B6FEE7FBF7CBF9322042
:10576000FCF740F92846FBF79BF90020FBF74CFBC0
:105770003AA000F065F93FA10120FBF70FFA33488A
:10578000B038FBF7B1FE4FF47A70FCF72BF93EA06E
:1057900000F056F9284A0423983202F110012B48F0
:1057A000FCF7A2FD60B14FF47840FBF72DFB39A167
:1057B0000220FBF7F3F980213A48FCF78BFAFEE769
:1057C00022484830FDF708FD10B937A000F038F93D
:1057D0001148643001888AB20189808889B280B218
:1057E000FBF78CFA36A000F02BF913489038FDF740
:1057F000F3FC10B936A000F023F90F484838FDF744
:10580000EBFC10B938A000F01BF93DA000F018F92E
:10581000FEE700000150743F9C0000200150F4BFDF
:10582000FA0CF4BF1026693F160E863A160E063B98
:10583000303802400048004074030020001400404B
:10584000004401400048014000380040540200205C
:1058500000540040A0860100007400400A0A2B3D5D
:105860003D3D476F6F64204D6F726E696E67213DDD
:105870003D3D2B00202020202020566F784172745F
:1058800020202020202000005B4C43445D20524516
:1058900041445900202020417564696F20455252CF
:1058A00020202000000802405B54696D65725D2075
:1058B00054494D3720454E41424C454400000000BC
:1058C0005B436972636C655D205245414459000039
:1058D0005B54696D65725D2054494D313020454EF1
:1058E00041424C45440000005B54696D65725D2087
:1058F00054494D313120454E41424C454400000051
:10590000416C6C656E20776173206865726500007C
:1059100070B51F4D9FED1F1B1C4C53EC112B2DED33
:10592000028B95ED120B9FED178B51EC100B00F0D5
:1059300027FC01D20120606095ED120B53EC182B6F
:1059400051EC100B00F056FD02D24FF0FF306060BA
:1059500095ED120B9FED111B51EC100B53EC112B1D
:1059600000F048FD0AD295ED120B53EC182B51ECC8
:10597000100B00F005FC01D200206060BDEC028B32
:1059800070BD0000000000000000394094010020BC
:105990005005002000000000000024C000000000AE
:1059A000000014C070B5214D1F4C2DED028B9FEDF2
:1059B0001C8B95ED060B53EC182B51EC100B00F0E3
:1059C00019FD02D201202060207395ED060B9FED9A
:1059D000181B51EC100B53EC112B00F0D1FB05D22E
:1059E000207B012802D04FF0FF30206095ED060BA0
:1059F00053EC182B51EC100B00F0C2FB0DD295EDBF
:105A0000060B9FED0D1B51EC100B53EC112B00F00E
:105A1000F1FC02D2002020602073BDEC028B70BD2F
:105A2000333333333333F33F9401002050050020E8
:105A3000000000000000F8BF000000000000F0BF00
:105A400030B589B0054624216846FAF72CFE284671
:105A5000FAF7FEFD001DFAF72FFC04462946FAF777
:105A6000D3FD0AA12046FAF712FE224608A1684695
:105A7000FAF7F0FC6423232269460648FDF7FCFC94
:105A80002046FAF748FC09B030BD00000D0A0000BE
:105A9000257300007403002070B52DED048B9FED7D
:105AA000499B9FED4A8B4B4C4B4D53EC182B94ED7F
:105AB000120B51EC100B00F09DFC1FD294ED120B59
:105AC00053EC192B51EC100B00F05AFB16D294ED4D
:105AD000140B53EC182B51EC100B00F08BFC0DD277
