:020000040800F2
:10000000E846002039020008E3320008992B000876
:10001000E13200088D0C0008DF3700080000000006
:10002000000000000000000000000000E7320008AF
:100030004D0D000800000000E5320008E93200081C
:10004000530200085302000853020008530200083C
:100050005302000853020008ED0D00085302000887
:10006000530200085302000853020008530200081C
:100070005302000853020008910C00089D0C000870
:1000800053020008530200085302000853020008FC
:1000900053020008530200085302000853020008EC
:1000A0005302000853020008953300085302000869
:1000B00053020008530200085302000853020008CC
:1000C00053020008530200085302000853020008BC
:1000D00053020008530200085302000853020008AC
:1000E000210E0008530200085302000853020008C2
:1000F000530200085302000853020008530200088C
:10010000530200085302000853020008530200087B
:10011000530200085302000853020008A9330008E4
:10012000530200085302000853020008530200085B
:10013000530200085302000853020008530200084B
:10014000530200085302000853020008530200083B
:10015000530200085302000853020008530200082B
:10016000530200085302000853020008530200081B
:100170005302000853020008530200080000000068
:10018000530200085302000800F002F800F045F89E
:100190000AA090E8000C82448344AAF10107DA45E2
:1001A00001D100F03AF8AFF2090EBAE80F0013F0EF
:1001B000010F18BFFB1A43F001031847B45B00009E
:1001C000D45B0000103A24BF78C878C1FAD852072F
:1001D00024BF30C830C144BF04680C6070470000C1
:1001E0000023002400250026103A28BF78C1FBD840
:1001F000520728BF30C148BF0B607047732900F019
:10020000DE82002070471FB504F038F89DE8030037
:1002100000F070FA1FBD10B510BD00F0FBFA1146DA
:10022000FFF7F1FF03F006FD00F019FB03B4FFF741
:10023000F2FF03BC00F04AFB094880470948004729
:10024000FEE7FEE7FEE7FEE7FEE7FEE7FEE7FEE786
:10025000FEE7FEE704480549054A064B70470000E3
:100260008533000889010008E8060020E8460020E0
:10027000E8260020E826002070B5064600F01EFAA9
:10028000056806F10B0020F00704B4429CBF002073
:1002900070BD2B466A68BAB11068A04210D304F151
:1002A000080188423CBF5068586007D35168101954
:1002B00041601168091B016058601460101D70BD19
:1002C00013465268002AE7D12146284600F0FEF97D
:1002D0000028DED170BD70B50446051F00F0EEF9B0
:1002E0000068002C14BF446870BD002C18BFAC42DD
:1002F0003CBF20466468F8D301680A18AA4218BFB8
:10030000456003D12A6805461144016028684119F7
:10031000A1421CBF6C6070BD6168696021680844BF
:10032000286070BD53EA020C00F069802DE9F04BA3
:100330004FF00006002B1FBFB3FA83F503FA05F454
:1003400024FA05F65E4012BF1643B2FA82F502FAAD
:1003500005F4C5F120051EBF22FA05FC44EA0C0491
:10036000203556EA044C4FEA144418BF641C4FF081
:1003700000084FF00009904271EB030C39D30029BB
:1003800019BFB1FA81F701FA07F6B0FA80F700FA5F
:1003900007F6C7F120071EBF20FA07FC46EA0C0645
:1003A0002037B6FBF4FCA7EB0507103F07F01F0B47
:1003B000CBF120060CFA0BFB2CFA06F644BFB34631
:1003C0000026202FA4BF5E464FF0000B5BEA060C10
:1003D00008BF4FF0010B19EB0B09ABFB027C48EB9C
:1003E0000608C01B06FB02CC0BFB03CC71EB0C0117
:1003F000C1E70B46024641464846BDE8F08B13B5BF
:100400004FF000004FF00001AFF30080BDE81C404A
:10041000704700000FB41CB5074B06AA7B44694621
:100420000090059800F0A1F90020694600F0B0F9AD
:100430001CBC5DF814FB00007103000070B50C4695
:100440000546012A05D02878800600D5EA690023F0
:1004500002E0012305E05B1C934202D2E05C00282D
:10046000F9D1A869E618C01AA861286A1844286258
:100470002846AFF3008004E0D5E9012114F8010B10
:100480009047B442F8D32846AFF3008070BD000017
:100490002DE9F05F894604464FF0000ADFF824B1E9
:1004A000FB44C0F820A02046E168884700287DD0A2
:1004B000252806D0D4E901219047206A401C2062FB
:1004C000F1E700255F462046E16888472028064678
:1004D00007DB312E05D2B81910F8200C08B10543FE
:1004E000F1E7A80701D525F00405C4F81CA00027F2
:1004F000C4F818A02A2E09D0304603F081F938B389
:1005000004EB8708303EC8F8186019E059F8041B5E
:10051000204604EB87029161E1688847012F064677
:1005200018D1E069002820DA25F020051DE0D8F870
:10053000180000EB800006EB40003038C8F81800C7
:100540002046E1688847064603F05AF90028EED1B4
:10055000012F0AD02E2E08D12046E16888477F1C43
:100560000646022F45F02005C4DBA069002803DA07
:10057000404245F00105A061E80701D025F01005D3
:10058000A6B1A6F14100192802D8203645F400652D
:100590004A463146204625604D46FFF72FFE60B1A2
:1005A000012807D0ED1D25F0070000E007E000F16D
:1005B000080978E705F1040975E730467AE7206A0B
:1005C000BDE8F09FBA58000040EA0103024630B58A
:1005D0009B0710D14FF0013400E008C208C91D1B71
:1005E0009D4315EAC41FF8D013F0FF0102F8011B68
:1005F0000DD01B0AF8E711F8013B002B02F8013B74
:1006000005D011F8013B002B02F8013BF3D130BDBE
:1006100010B5431C02E010F8011B71B18107FAD13B
:100620004FF0013202C88C1A8C4314EAC211F9D07F
:10063000C01A0A0603D0C01E10BDC01A10BD0A049D
:1006400001D0801E10BD0902FCD0401E10BD421E0C
:1006500012F8013F002BFBD111F8013B002B02F8EF
:10066000013BF9D170474FF0000200B513469446A4
:100670009646203922BFA0E80C50A0E80C50B1F1FA
:100680002001BFF4F7AF090728BFA0E80C5048BF0E
:100690000CC05DF804EB890028BF40F8042B08BFAC
:1006A000704748BF20F8022B11F0804F18BF00F8A8
:1006B000012B704770477047704700000048704733
:1006C0008C060020704770477047704738B5044665
:1006D0000A4600206946AFF30080002808BF38BDF5
:1006E00002460099204600F073F8012038BD012031
:1006F00000F088B8F8B5AFF30080054600200C463E
:10070000102000BF0646A819A0420DD932466946FE
:100710000020AFF30080070008BF00F073F80098D6
:10072000A04218BF0546C419FFF7C8FF0560074679
:10073000F01D20F007004619284600F00AF8B442E0
:1007400008BFF8BDA21B31463868BDE8F84000F08C
:100750003FB800210160C0E90110704710207047C8
:1007600001694A1C02610878704700B58FB0CDE975
:1007700001310021059105497944CDE90310114665
:100780006846FFF785FE0FB000BD0000E5FFFFFFE4
:100790000A6802F8010B0A60704710B5436913B18B
:1007A000AFF3008001E0FFF749FE012010BD127891
:1007B00000F124010A7000224A700122EDE711685D
:1007C0004FF0FF32E9E70000004870478406002040
:1007D000034640688C46002818BF88423CBF034649
:1007E0004068F8D318681844884207D00CF1030019
:1007F00020F00700001D411A521A0146081D0A6028
:10080000FFF769BD10B500F039F8BDE8104000F001
:100810002FB870477546FFF7D7FFAE46050069460B
:10082000534620F00700854618B020B5FFF712FDAB
:10083000BDE820404FF000064FF000074FF00008E1
:100840004FF0000B21F00701AC46ACE8C009ACE862
:10085000C009ACE8C009ACE8C0098D46704710B5C6
:100860000446AFF300802046BDE81040FFF7DEBC31
:10087000002801D000F02AB87047000010B5012808
:1008800005D0002103A000F027F8012010BD09A128
:10089000F8E7000053494752544D454D3A204F75F3
:1008A00074206F662068656170206D656D6F727968
:1008B000000000003A2048656170206D656D6F7220
:1008C0007920636F72727570746564000149182035
:1008D000ABBEFEE72600020070B505460C460A20B6
:1008E00000E06D1C00F011F835B128780028F8D12F
:1008F00002E0641C00F009F814B120780028F8D157
:10090000BDE870400A20AFF3008008B569468DF855
:1009100000000320ABBE08BD70B50A4E0024356848
:10092000306007E000F07EF982B2A1B2002000F052
:10093000F1F8641C00F07CF9A042F3D8A8B2306052
:1009400070BD0000F8030020074B30B49B68DD88C1
:100950001C689B88DB1DDB08203A13FB02F205FBB9
:10096000024230BC00F0F4B9F803002001480068EE
:1009700080680047980000202DE9F04704460027D2
:1009800099468A461546B846104601E008F1010826
:1009900010F8011B0029F9D100F044F91C4E4A4619
:1009A000B9F1010FB1688988B0FBF1F002D0022AD9
:1009B00017D105E0A0EB0800484304EB500003E02A
:1009C000A0EB08004843001B84B20AE051462046D1
:1009D000FFF7BAFFB0687F1CBFB280886D1C20444F
:1009E00084B200F01FF90146B068808807FB10113F
:1009F00089B2814201D3012000E000202A780AB1A7
:100A0000012100E000210842E0D1BDE8F0870000AC
:100A1000F8030020054A03239268D288424390B22B
:100A20000A4601460020FFF7A7BF0000F803002098
:100A30002DE9FE4F814603208846A0EB42070025A2
:100A400014465EE0314EA8EB040A1FFA8AF13088A2
:100A500082B209EB0500029080B200F081F8308884
:100A60001FFA8AF182B2A9EB0500019080B200F072
:100A700077F83088A8EB050A82B209EB04000090F1
:100A80001FFA8AF180B200F06BF83088A9EB040BF2
:100A900082B21FFA8AF11FFA8BF000F061F83088F9
:100AA00008EB040A82B202981FFA8AF180B200F0C1
:100AB00057F830881FFA8AF182B2019880B200F0AC
:100AC0004FF8308808EB050A82B200981FFA8AF1C5
:100AD00080B200F045F830881FFA8AF182B21FFA1E
:100AE0008BF000F03DF80A48B060002F03DA07EB06
:100AF0008507BF1D04E0281B07EB8007641E0A372B
:100B00006D1CA5429ED9BDE8FE8F0000F8030020B1
:100B10009C0000202DE9F04106460F4800240F4FAD
:100B2000006815468846D0F820C0BCF1000F0FD0F1
:100B3000134638880A463146BDE8F04180B2604726
:100B40003888414682B2301980B200F009F8641C3E
:100B5000AC42F5D3BDE8F08198000020F8030020F6
:100B6000034B1B685B69002B00D0184770470000DF
:100B7000980000202DE9F74F0F46DFF8A49090462B
:100B80000321A1EB4806B9F8001082B089B2002415
:100B900015464FF6FF7AC9F8001031E08DB13819CB
:100BA00081B202980AEA4502401B0090934680B247
:100BB000FFF7B0FF381B81B200985A4680B2FFF7AA
:100BC000A9FF8CB1781B81B202980AEA4402001B8B
:100BD0000090934680B2FFF79DFF781981B200988C
:100BE0005A4680B2FFF796FF002E03DA06EB840622
:100BF000B61D04E0601B06EB80066D1E0A36641C01
:100C0000AC42CBD9B9F80010424689B2C9F80010FD
:100C1000029805B03946BDE8F04FFFF709BF000064
:100C2000F803002001480068806A0047980000200F
:100C300001480068C06A00479800002070B50D4C5C
:100C40004FF6FF70012660600B48A0600B4D00203E
:100C5000206068688047A0F51341253907D1064810
:100C6000001F05602868804703480026A0603046C2
:100C700070BD0000F80300209C000020A4000020AC
:100C80000149086070470000F8030020FEE70000FB
:100C9000014800F0E7B90000D0020020014800F050
:100CA000E1B900003003002001681823CAB2103AED
:100CB000B2FBF3F2054B6FF30901032A9B5CC3659A
:100CC00000D9091D8165084670470000864200086A
:100CD00010B5014600208B698A6A4FF0C07453B189
:100CE000B3F5005F15D072B1012A0CD0022A0AD0E8
:100CF000032A09D104E01AB1012A06D0022A03D13D
:100D0000C96AC90100D5012010BDC96AA142FAD043
:100D100010BD002AF7D0012AF2D0022AF3D0032A0C
:100D2000F3D010BD30B50468256825F48025256012
:100D3000046863608368402B036803D0996000688F
:100D4000C26030BD9A600068C16030BD704700006D
:100D50002DE9F74FDFF890B00026DBF80800858812
:100D6000C788E81D824620F00700401B00F0FF09FD
:100D700035E000BF4FEADA010298012901FB0600C5
:100D80000BD002290BD0017842780904807841EA1F
:100D9000022141EA000800241AE0007801E00088FE
:100DA00040BA8046F7E7291B49440120491E884084
:100DB00010EA080F02D0BBF8000001E0BBF8040005
:100DC000019982B20098204480B2FFF7C9FE641CEA
:100DD000AC42E8D30198401C80B2761C0190BE4220
:100DE000C8D3BDE8FE8F0000F8030020084810B506
:100DF0000178012901D0012100E00021017005A046
:100E000003F036F8BDE81040012000F011BB0000EF
:100E1000000000204B455920505245535345440093
:100E200010B54FF6FF70FFF777FD0A490020322218
:100E3000087078219620FFF79DFE074896214160B3
:100E40007821816032210160BDE810404FF40040FC
:100E500000F0EEBA000000204800002072B6FEE765
:100E600000B59BB04FF02040009014480190052041
:100E70001490012015900920169000200221CDE940
:100E80001701CDE919100421CDE902101021CDE997
:100E900004010690079009020890CDE909010C9021
:100EA0000B900D900E90119000F00AF814AA1146C4
:100EB000684601F021FC1BB000BD0000040100A049
:100EC000294800B5016887B041F001010160006860
:100ED00000F00100059024480838016841F008013D
:100EE0000160016801F008010591016841F01001FD
:100EF0000160016801F010010591016841F02001D5
:100F00000160016801F020010591016841F0400194
:100F100001600068694600F04000059002200190E1
:100F200001200290032003900C2004904FF63370B0
:100F300000900E4800F088FA4FF69B7000906946CA
:100F40000B4800F081FA4FF23F00009069460948D3
:100F500000F07AFA40F23F4000906946064800F0FF
:100F600073FA07B000BD000038380240000C0240A0
:100F700000100240001402400018024030B5B3F5E2
:100F8000804F05D06FF0704140F82210002030BD36
:100F90008C690B688D6823434C688989240144EA75
:100FA0000524234343EA014150F82230014C2340F9
:100FB0001943E9E70000F0CF10B50A6850F8223075
:100FC00023F0010340F822308C68082C23D0002342
:100FD0004A682243CC681C430B6922431A434B697D
:100FE0000E4C1A43CB691A430B6A1A434B6A1A43D5
:100FF0008B6A1A43CB6A1A430B6B1A438B691343F0
:10100000CA6B09681A4350F82130A343134340F8D0
:101010002130002010BD4023DAE700007FFF0F00E1
:1010200030B5D1E9003443EA04138C688D89240279
:1010300044EA054423430C8A094D00EB820005EB8A
:10104000045423430C7D6D0105EB0464896923433B
:101050000B43416801F040410B434360002030BD29
:101060000000F0FF2DE9F84304464FF00009CDF8E9
:10107000009063484FF41651A56D0068B0FBF1F77E
:101080002E6894F85C10082000FA01F131420FD06C
:1010900021680A6852070BD50A6822F004020A6028
:1010A00094F85C108840A860606D40F001006065B5
:1010B00094F85C104FF0010808FA01F0304208D0B3
:1010C00021684969090604D5A860606D40F00200F6
:1010D000606594F85C1004208840304208D0216894
:1010E0000968890704D5A860606D40F00400606558
:1010F00094F85C1010208840304218D021680968AC
:10110000090714D5A86020680168490304D5006860
:10111000000308D5A16C07E00168C90503D4016884
:1011200021F008010160216C09B12046884794F83C
:101130005C1020208840304231D021680968C906FF
:101140002DD5A86094F8350005282068016806D0E0
:10115000490347D5006800031DD4616C1CE021F0F1
:10116000160101602068416921F080014161206C15
:1011700008B9A06C20B12068016821F00801016065
:1011800094F85C103F208840A86084F8358084F88B
:101190003490216D1FE0E16B09B120468847606DF6
:1011A00000282BD0606DC00714D0052084F83500CE
:1011B0002068016821F0010101600098401C009046
:1011C000B84203D820680068C007F6D184F835809B
:1011D00084F83490E16C002910D001B02046BDE8BD
:1011E000F04308470168C905D5D4016821F0100112
:1011F000016084F8358084F83490CCE7BDE8F8834A
:10120000680000202DE9F041044600F01BFA064674
:101210005CB1022084F83500002584F83450206841
:10122000016821F0010101600DE00120BDE8F081BD
:1012300000F008FA801B052805D9202060650320EE
:1012400084F83500F2E720680068C007F0D1226812
:10125000116820480140D4E901031843D4E903365A
:101260003343184363691843A3691843E369184378
:10127000236A18430843616A042903D1D4E90B1394
:1012800019430843106020684069666A20F007012E
:1012900030460E43012704280CD1A06A0643E06AB9
:1012A00040B12046FFF714FD20B14020606584F86E
:1012B0003570BAE7206846612046FFF7F5FC94F8E0
:1012C0005C203F2191408160656584F83570002085
:1012D000ACE700003F8010F02DE9F0410446866D38
:1012E00090F83400002501280DD0012084F8340046
:1012F00094F835700020012F07D084F834000225BF
:101300002846BDE8F0810220FBE7022784F835700B
:1013100060652046FFF706FD94F85C103F2088408A
:10132000B0602068016841F016010160206C20B1B6
:101330002068016841F0080101602068016841F0FF
:1013400001010160DCE7000070B5044600F07AF9A5
:101350000546601C02D004480078044400F072F98D
:10136000401BA042FAD370BD5C000020F0B587B0EE
:1013700014216846FFF777F925480168002944D110
:101380000121016023480024016841F0010101604E
:101390000068022500F0010005904FF69B70CDE932
:1013A000000502AA03260C2782E8D00069461A48E5
:1013B00000F04AF84FF6FB70CDE9000502AA694635
:1013C00082E8D000154800F03FF88020CDE9000504
:1013D00002AA694682E8D000114800F035F840F2D0
:1013E0003F60CDE9000502AA694682E8D0000D48B9
:1013F00000F02AF84FF23F00CDE9000502AA694645
:1014000082E8D000084800F01FF807B0F0BD0000E7
:10141000540000203838024000100240000C024006
:10142000000402400018024000140240704700000F
:10143000044910B50A68024202D00860FFF7F6FFBF
:1014400010BD0000143C01402DE9F84FDFF8BCA1AD
:101450000022012503264FF00F090AF1040BAAF11F
:10146000040E00BF0B6805FA02F42340A34270D1BA
:101470000F7907F00307012F01D0022F16D18768DB
:101480004FEA420806FA08FC27EA0C07D1F80CC01C
:101490000CFA08FC4CEA070CC0F808C04768A743E0
:1014A0000C79C4F3001494403C4344600C79E44349
:1014B000A4070AD0C4684FEA420C06FA0CF7BC43F2
:1014C0008F6807FA0CF72743C7600C7904F0030410
:1014D000022C12D1D40800EB840CDCF82040570712
:1014E000FF0E09FA07F824EA0804D1F8108008FA78
:1014F00007F848EA0408CCF8208004684FEA420C58
:1015000006FA0CF7BC430F7907F0030707FA0CF74C
:10151000274307604C6814F4403F70D03C4C276868
:1015200047F480472760246822F0030704F48044CE
:101530000094384C07EB040CDCF8084897074FEA96
:10154000177809FA08F7BC43334FB84202D1002795
:1015500024E054E0314FB84201D101271EE0304F62
:10156000B84201D1022719E02E4FB84201D103271A
:1015700014E02D4FB84201D104270FE02B4FB842A1
:1015800001D105270AE02A4FB84201D1062705E01C
:10159000284FB84201D1072700E0082707FA08F7CB
:1015A0002743CCF80878DAF800405746D1F804C051
:1015B0009C435FEACC2C00D51C433C60DBF8004028
:1015C0005F46D1F804C09C435FEA8C2C00D51C43D5
:1015D0003C60DEF800407746D1F804C09C435FEAE7
:1015E0008C3C00D51C433C60084F083F3C68D1F858
:1015F00004C09C435FEACC3C00D51C433C60521CB9
:10160000102AFFF42FAFBDE8F88F0000083C01401E
:101610004438024000300140000002400004024013
:1016200000080240000C024000100240001402407A
:1016300000180240001C02400AB181617047090491
:10164000FBE7000001488068704700005C00002054
:1016500070B5040025D094F83D00002520B984F829
:101660003C50204600F0B8F8242084F83D00206863
:10167000016821F0010101602068016841F4004126
:1016800001602068016821F40041016000F02CFE37
:101690004D4A6168914201D84C4900E04C4988426A
:1016A00001D2012070BD4B492368B0FBF1F15E68A7
:1016B00026F03F060E435E606368934206D94FF4FE
:1016C000967359434FF47A73B1FBF3F12368491CC5
:1016D0001E6A26F03F06314319626168914210D8B4
:1016E0004900401EB0FBF1F2521CC2F30B02042A67
:1016F00001D2042022E0B0FBF1F0401CC0F30B004B
:101700001CE0A268F2B301EBC10303EB0116431E18
:10171000B3FBF6F35B1C43F480431B0549D092B343
:1017200001EBC10202EB0111401EB0FBF1F0401CC5
:10173000C0F30B0040F4804040F400402168CA69C7
:101740004CF6FF739A431043C861D4E90710014374
:101750002068026822F0C00211430160D4E903014D
:1017600001432068826848F2FF339A431143816045
:10177000D4E9050108432168CA6822F0FF0210433A
:10178000C86001E00EE016E02068016841F0010148
:1017900001602564202084F83D00256384F83E50D4
:1017A000002070BD01EB4106431EB3FBF6F35B1C4A
:1017B000B3E70120C2E701EB4101401EB0FBF1F0AD
:1017C000401CC0F30B00B7E7A086010080841E0018
:1017D00000093D0040420F0010B586B004461421B8
:1017E0006846FEF740FF14492068884221D113481B
:1017F000016841F0020101600068694600F00200E2
:1018000005904FF41070009012200190012002907A
:1018100003200390042004900948FFF715FE0748B1
:101820001030016841F400110160006800F40010FC
:10183000059006B010BD0000005400403038024052
:10184000000402402DE9FF410446006881680091D0
:101850007749784E4FF04027884201D1324600E068
:101860003A469268019240688846029001D130461B
:1018700000E038464068039060684FF00105B0F51D
:10188000007F1CD0D8B1900705D50398000602D57B
:10189000204601F0B3F90098C0070FD00298400627
:1018A0007FD521682046CA68E16A8B1CE3620A8002
:1018B000618E491E6186618E002967D071E00098B3
:1018C000800719D50298000616D5616A20468A1C41
:1018D000626222680988D160618D491E6185618DCF
:1018E00051B901684A6822F0A0024A60418E19B9D4
:1018F00080F8415000F072F90198C00705D00398B4
:10190000400602D5204601F049F90198400622D54B
:10191000039880061FD52168414501D1304600E07B
:101920003846406820F0600101D1304600E038467A
:1019300041602068416821F0A00141602068C168D1
:101940008068019084F84150606C40F0020060644F
:10195000204600F06BF90098000767D502988006D2
:1019600064D52068416821F0A001416021684145AB
:1019700001D1304600E03846406820F0600000D0D9
:101980003E46706020688068009043E001684A68C5
:1019900022F060024A60418D19B980F8415000F090
:1019A0001DF9009840061ED5029880061BD52068B8
:1019B000416821F0600141602168414501D1304614
:1019C00000E03846406820F0A00101D1304600E038
:1019D0003846416084F84150606C40F00200606419
:1019E000204600F023F9019800071FD503988006D0
:1019F0001CD52168414501D1304600E03846406899
:101A000020F0A00000D03E4670602068416821F0C0
:101A10006001416084F84150606C40F004006064F3
:101A200004B02046BDE8F04100F000B9BDE8FF81F8
:101A300000380040003400402DE9F84F044690F88B
:101A40004100154689464FF0000AD346012802D0CE
:101A50004FF0020A84E0E1B3DAB3D3B394F8400064
:101A600001283FD0012084F84000E26261622068D2
:101A7000C06900F00700032836D0052834D023853C
:101A800063852386A4F83230C4F844B0052384F873
:101A90004130E66B4C4B3364E66B4C4BF363E66BC7
:101AA0004B4BF364A66BC6F840B0A66BC6F83CB0CF
:101AB000A06BC3642068C369DFF8188103F4407326
:101AC000454E4FF04027B3F5007F16D0ABB1C26949
:101AD00000E004E0C2F30122032A45D047E00120E0
:101AE000BDE8F88F0220FBE74FF6FF7000EA4300E5
:101AF0002085608520866086C6E7238E404501D11B
:101B0000314600E039460C31E06BFFF7E5FB206819
:101B1000404501D1304600E03846406840F00100C1
:101B200001D1314600E039464860238D226849469C
:101B300002F10C02A06BFFF7CFFB2068416841F077
:101B4000020138E040453CD13046C06940F4806035
:101B500000D03E46F0612068C16941F48061C161F6
:101B600084F840B05046BBE7C26882680092238D7B
:101B7000404501D1324600E03A460C32A06BFFF7F7
:101B8000ABFB2168414501D1314600E03946496847
:101B900041F0020101D1304600E038464160238E19
:101BA00021682A4601F10C01E06BFFF795FB2068E4
:101BB000416841F0010141602068C1694905C1D512
:101BC000CEE73846C1E70000392D00085D2C00083B
:101BD000E52C0008003800400034004008488168C7
:101BE000C0684FEA31414FEA3040401000EB6100DD
:101BF0000349020C10310A8148818A81C8817047EB
:101C0000B00200200848016840684FEA31414FEABD
:101C10003040401000EB61000349020C10310A8093
:101C200048808A80C8807047B0020020704700005A
:101C30002DE9F047040005D094F841004FF000086A
:101C400018B109E00120BDE8F08784F840805148D0
:101C50006063204600F0A6F8022684F84160206800
:101C6000C16940F6BF77B943C16120680662606907
:101C70004FF4007902282FD0E06870B12025A068C9
:101C8000202800D86D00012000F0C6F921694945DF
:101C90001FD1E16819B1A90002E01025EFE7E900C2
:101CA000B0FBF1F000EB800061694000B0FBF1F0A7
:101CB000401D0A21B0FBF1F000F00101401A40087C
:101CC0000902821EFE2A09D3606C40F01000606495
:101CD000B8E7B0FBF5F0E5E70220002122690843F0
:101CE000024320680262D4E901010843A269E16865
:101CF000114308432168CA69BA43104340F40060A5
:101D0000C861206A01283AD12348606323482168CA
:101D1000234A4FF04023814201D1114600E0194689
:101D2000C96921EA070101D1154600E01D46E961B4
:101D30002168814201D1114600E019460E622568F2
:101D4000854201D1114600E01946C9698EB2616829
:101D500049451BD0D1B100212789B4F80CC047EA0E
:101D60000C07B4F818C04CEA010C47EA0C07B9B2EA
:101D7000314341F40061854200D01A46D161C4F874
:101D80004480012084F8410000205CE74FF480711A
:101D9000E2E70000432D0008451800080038004025
:101DA000003400402DE9F04F8BB005461421684601
:101DB000FEF759FC002405940694079408944049C2
:101DC0002868884278D101200590C5200226CDE9F7
:101DD000060605A800F050F908B1FFF73FF83948AA
:101DE000016841F480410160006800F4804009907E
:101DF00034481038016841F004010160016801F0C5
:101E000004010991016841F00201016000680527A1
:101E100000F00200099048200090CDE90164DFF84D
:101E2000A880CDE9034769464046FFF70DFB042033
:101E30000090CDE901640620CDE9034069464046A3
:101E4000FFF702FBB8020090CDE90164CDE903473A
:101E500069461E48FFF7F8FA1E4E1D484FF480678A
:101E600030604FF0C060C6E9010406F10C004FF489
:101E700000684FF400594FF4807A4FF4003B80E83B
:101E8000900F30467462FFF7BDF908B1FEF7E6FF28
:101E9000EE63B5630E48104E1830E6E802044020A9
:101EA000A6E8910F0C4846F82449FFF7ABF908B1B2
:101EB000FEF7D4FFAE63B5630BB0BDE8F08F000052
:101EC0000038004040380240000802400004024050
:101ED00058600240D0020020300300207047704755
:101EE0000248816802781144816070475C000020DC
:101EF0000B4810B5016841F400710160016841F4BC
:101F000080610160016841F480710160032000F08C
:101F100071F8002000F006F800F024F8002010BD51
:101F2000003C024070B50D4D04464FF47A7128789C
:101F3000B1FBF0F00A490968B1FBF0F000F00CFCCD
:101F400048B9102C07D200222146501E00F032F86A
:101F500000206C6070BD012070BD00005C0000209E
:101F6000680000200B4882B0016841F480410160A4
:101F7000006800F4804000900648001F016841F0AE
:101F800080510160006800F080500090072002B08E
:101F900000F030B844380240002809DB00F01F028E
:101FA000012191404009800000F1E020C0F80011BB
:101FB00070470000F0B40E4B1B680C46C3F30223BD
:101FC000C3F10705042D00D90425191D072901D2E5
:101FD000002300E0DB1E012606FA05F1491E214020
:101FE00099409E40761E16403143F0BC01F0F8BB8C
:101FF0000CED00E0064900F0070208684FF6FF0309
:10200000184040EA0220034A10430860704700006D
:102010000CED00E00000FA0501460020012908D17E
:102020001149096811F4000104D0B1F5000F00D185
:102030000E4870470C48001F01680068490200F014
:102040003F0001D50A4900E00A49074AB1FBF0F018
:102050007C321168C1F3881141431068C0F30270EB
:10206000B1FBF0F070470000083802400080BB0070
:1020700040787D010024F4002DE9F843054600680E
:102080004FF00109C1074FF0000601D1400727D5E5
:10209000DFF80C81C8F86860FFF7D4FA0746414CB6
:1020A00005E000BFFFF7CEFAC01B022857D8206812
:1020B0000001F7D468688101287A41EA0070394943
:1020C00084310860C8F86890FFF7BCFA074604E05E
:1020D000FFF7B8FAC01B022841D820680001F7D5E5
:1020E0002878800752D52F484030016841F0805150
:1020F000016000682C4C00F080500090206840F493
:1021000080702060FFF79EFA074604E0FFF79AFA16
:10211000C01B022823D82068C005F7D5214C703495
:10212000206810F4407020D0A98901F440718142E8
:102130001BD020681D4920F44070C1F800900E604B
:1021400020602068C00710D0FFF77CFA064641F2F5
:10215000883707E0FFF776FA801BB84202D90320E0
:10216000BDE8F88320688007F4D5E9680D48C1F31D
:1021700001220830032A0BD0016821F4F811016014
:102180002068A989C1F30B01084320600020E7E71C
:102190000268074B22F4F81219400A430260EFE785
:1021A000000047420038024000700040400E4742A5
:1021B000FFFCFF0F2DE9F0470E46050065D0DFF864
:1021C0001481D8F80000F7B200F00700B04207D23F
:1021D00088F80070D8F8000000F00700B04254D131
:1021E00028683D4C810712D5400703D5206840F48C
:1021F000E05020602878000703D5206840F4604054
:1022000020602068A96820F0F0000843206028784A
:10221000C0072DD0304968680839012812D002283B
:1022200013D0032811D00968890700292DDA216805
:1022300021F0030101432160FFF704FA814641F2D6
:10224000883A0EE009688903EFE709688901ECE73D
:10225000FFF7F8F9A0EB0901514502D90320BDE8C9
:10226000F0872068696800F00C00B0EB810FEFD1B7
:10227000D8F80010404601F00701B14207D90770B5
:10228000006800F00700B04201D00120E7E728789D
:10229000400705D52068E96820F4E0500843206035
:1022A0002878000706D52068296920F4604040EAB4
:1022B000C100206000F038F82168084AC1F303111A
:1022C000515CC8400649086006480068FFF72AFECE
:1022D0000020C4E7003C0240083802408E4200085B
:1022E0006800002060000020044805490068096873
:1022F000044AC1F38221515CC84070476800002045
:10230000083802409E4200080448054900680968F0
:10231000044AC1F34231515CC84070476800002054
:10232000083802409E420008154810B5006810F0B9
:102330000C02144813D01449042A0FD0082A0ED1D5
:102340000F4C241F2268236802F03F025B0207D56E
:102350002068C0F38810A0FB010106E0084610BD0C
:102360002168C1F38811A1FB00010023FDF7DAFF0A
:102370002168C1F30141491C4900B0FBF1F010BDD7
:10238000083802400024F40040787D012DE9F84F20
:1023900004006ED02078DFF84C93C007A9F1040543
:1023A0004AD009F104000168C1F38101012908D074
:1023B0000068C0F3810002280AD1D9F80000400269
:1023C00006D52868800337D560680028E1D033E05F
:1023D0006068B0F5803F10D0B0F5A02F286810D00D
:1023E00020F480302860286820F48020286060680D
:1023F000A8B1FFF727F906460DE0286840F48030C1
:10240000F4E740F480202860F7E700BFFFF71AF9EF
:10241000801B642873D828688003F7D50CE0FFF789
:1024200011F9064605E000BFFFF70CF9801B642890
:10243000F0D828688003F7D42078DFF8AC828007D2
:102440004FF0000A3ED5A748001D016811F00C0F9F
:1024500008D00068C0F3810002280BD1D9F8000031
:10246000400207D42868800716D5E068012800D10B
:1024700012E033E1E068B8B10120C8F80000FFF7CE
:10248000E1F8064605E000BFFFF7DCF8801B0228F4
:10249000C0D828688007F7D52868216920F0F8009F
:1024A00040EAC10028600DE0C8F800A0FFF7CAF8B4
:1024B000064604E0FFF7C6F8801B02281FD82868EC
:1024C0008007F7D42078000722D5864F87486169B6
:1024D000703771B101210160FFF7B4F8064604E0DE
:1024E000FFF7B0F8801B022809D838688007F7D5B5
:1024F0000EE0C0F800A0FFF7A5F8064605E082E070
:10250000FFF7A0F8801B02287DD838688007F7D431
:102510002078400768D5DFF8CCB100270BF13C0BE1
:10252000DBF80000C0000BD4DBF8001041F0805154
:10253000CBF80010DBF80000012700F0805000907D
:102540006B4E3068C00510D4306840F48070306045
:10255000FFF778F8009005E0FFF774F80099401A4B
:10256000022850D83068C005F6D55E4EA0686C369B
:1025700001280FD00528306810D020F0010030600D
:10258000306820F004003060A068B8B1FFF75AF856
:1025900000900FE0306840F00100F4E740F00400E4
:1025A0003060F7E7FFF74EF80099411A41F28830A2
:1025B000814266D830688007F4D50EE0FFF742F814
:1025C000009007E0FFF73EF80099411A41F2883089
:1025D000814256D830688007F4D42FB1DBF8001060
:1025E00021F08051CBF80010A069C8B33D49091D06
:1025F0000968C1F3810102294AD00228504607D058
:10260000C8F8600000E03CE0FFF71CF804463BE03F
:102610004746C8F86000FFF715F8064605E000BF1A
:10262000FFF710F8801B02282BD828688001F7D408
:10263000D4E907010843A16A2E4A490802EB014187
:10264000626A41EA8211084394F82C1040EA016161
:10265000C9F8001001203866FEF7F4FF044606E0D2
:102660003EE000BFFEF7EEFF001B022809D82868F5
:102670008001F7D534E000BFFEF7E4FF001B02281D
:1026800002D90320BDE8F88F28688001F4D427E040
:102690000128F7D0D9F80000E26900F480019142E6
:1026A0001CD1226A00F03F01914217D147F6C07158
:1026B000626A0140B1EB821F10D1A26A4FF0FF3372
:1026C00000F4403103EB5202B1EB024F06D194F813
:1026D0002C1000F07060B0EB016F01D00120D1E749
:1026E0000020CFE70438024000004742800E4742F6
:1026F000007000400000FFFF70B515460E46040054
:1027000003D094F8490010B107E0012070BD00200B
:1027100084F84800204600F01DF804F10801206804
:10272000FEF74AFC3146A2682068FEF779FCD4E93E
:1027300001022946236BFEF721FC2168A06851F8AD
:10274000202042F0010241F82020012084F84900B5
:10275000002070BDFEF70ABE10B5401EB0F1807FAC
:1027600001D3012010BD4FF0E02460610F216017FC
:1027700001F036F80020A06107202061002010BD84
:102780007047704770B590F83C20012A32D0012480
:1027900080F83C40022280F83D2003685A689D681A
:1027A00022F070060A6832435A60134B02689A425C
:1027B00014D0B2F1804F11D0104B9A420ED0104B72
:1027C0009A420BD00F4B9A4208D00F4B9A4205D039
:1027D0000E4B9A4202D00E4B9A4204D1496825F022
:1027E00080031943916080F83D40002180F83C103F
:1027F000084670BD022070BD00000140000400408A
:1028000000080040000C004000040140004001406E
:102810000018004010B5040003D094F83D0010B13A
:1028200007E0012010BD002084F83C00204600F0A5
:102830001FF8022084F83D00211D206800F07CFE76
:10284000012084F8460084F83E0084F83F0084F8B4
:10285000400084F8410084F8420084F8430084F882
:10286000440084F8450084F83D00002010BD0000BD
:1028700008B50068154988420FD11548016841F034
:10288000200101600068002200F020000090114645
:102890003720FFF78FFB372012E00E49884213D113
:1028A0000B48001D016841F480210160006800228E
:1028B00000F48020009011461A20FFF77BFB1A20BD
:1028C000BDE80840FFF768BB08BD000000140040E9
:1028D000403802400048014070472DE9F04104466D
:1028E0000068C66805694FF00007A90713D5B1074E
:1028F00011D5F91E016101202077206880698007C9
:10290000204602D0FFF7E8FF04E000F07EF8204602
:1029100000F07CF82777680716D5700714D5216872
:102920006FF004000861022020772068806910F4AD
:10293000407F204602D0FFF7CFFF04E000F065F8AB
:10294000204600F063F82777280715D5300713D500
:1029500021686FF008000861042020772068C069B2
:102960008007204602D0FFF7B7FF04E000F04DF8E3
:10297000204600F04BF82777E80616D5F00614D568
:1029800021686FF010000861082020772068C06976
:1029900010F4407F204602D0FFF79EFF04E000F0D5
:1029A00034F8204600F032F82777E80708D0F0071F
:1029B00006D021686FF001000861204600F027F87A
:1029C000280608D5300606D521686FF0800008611A
:1029D0002046FFF7D5FE680608D5700606D52168A3
:1029E0006FF040000861204600F012F8A8060AD5F2
:1029F000B00608D521686FF0200008612046BDE8C8
:102A0000F041FFF7BEBEBDE8F081704770477047E8
:102A1000704770B5040004D094F84100002510B14F
:102A200006E0012070BD84F84050204600F024F8F4
:102A3000242084F841002068C16821F40051C1605D
:102A4000204600F00DFE2068016921F490410161EB
:102A50002068416921F02A0141612068C16841F480
:102A60000051C1606564202084F8410084F8420070
:102A70006563002070BD0000F0B587B004461421E6
:102A80006846FDF7F0FD1949206888422CD11848A6
:102A90000024016841F480210160006800F4802076
:102AA000059013481038016841F004010160006886
:102AB000022500F0040005904FF400600090CDE97D
:102AC000015407260B4FCDE9034669463846FEF709
:102AD000BBFC6802CDE900050320CDE90240694650
:102AE00004963846FEF7B0FC07B0F0BD0048004041
:102AF00040380240000802402DE9F843044690F8AF
:102B00004100984616460D46202802D00220BDE816
:102B1000F88385B17EB100206064212084F84100F3
:102B2000FEF790FDA6848146E684A0682027B0F5D4
:102B3000805F02D003E00120E9E7206910B12E4652
:102B400000250EE000260CE08021204600F00EFE5D
:102B5000A8B9C6B116F8010B21684860E08C401E88
:102B6000E084E08C4B464FF00002CDF80080002856
:102B7000EAD14FF04001204600F0F8FD40B184F862
:102B800041700320C3E735F8020BC0F30800E3E708
:102B900084F841700020BAE7FEE7000070B51549DF
:102BA0000268154B4FF040248A4201D11A4600E0DA
:102BB0002246D568C26A961CC6621580428E521E95
:102BC0004286428E002A14D102688A4201D11946F7
:102BD00000E02146496821F0600100D02346596099
:102BE000418D002905D14FF0010180F84110FEF719
:102BF000F5FF70BD003800400034004070B5416AF8
:102C0000144B8A1C426205680988134A4FF040241D
:102C10009D4201D1154600E02546E960418D491EDF
:102C20004185418D002914D10168994201D1114695
:102C300000E02146496821F0A00100D02246516001
:102C4000418E002905D14FF0010180F84110FEF7B7
:102C5000C5FF70BD003800400034004070B501462B
:102C6000806BC969B1BB0168CA691D4BC2F30125FC
:102C70001A4A4FF04024022D0CD0CD6915F4407F44
:102C800008D04D6825F001054D600168914212D1D0
:102C9000194611E0914201D1194600E021464968E8
:102CA00021F0010100D02346596001684A6822F0F2
:102CB00002024A6006E02146496821F0020100D084
:102CC000234659604FF00001418641854FF00101D4
:102CD00080F84110FEF782FF70BD00000038004010
:102CE0000034004030B4806B01684A6822F003026F
:102CF0004A600F4A04680F494FF04023944201D1C3
:102D00000A4600E01A46526822F0030200D0194633
:102D10004A604FF00001418541864FF0010180F883
:102D20004110416C41F00801416430BCFEF77EBFA8
:102D3000003800400034004010B5806BFEF762FFA1
:102D400010BD7CB5016804468868009094F8410085
:102D50000125042834D10098C00718D04868C04322
:102D6000400614D4C9682046E26A1180E16A891CD1
:102D7000E162618E491E6186618E41B901684A68CF
:102D800022F060024A6080F84150FFF7A7F80098EF
:102D9000400615D520684168C943890610D44168AA
:102DA00021F0600141602068C1688068019084F86A
:102DB0004150606C40F0020060642046FEF736FF30
:102DC00094F84100032834D10098800719D5216870
:102DD0004868C043000614D4626A20461288CA605C
:102DE000616A891C6162618D491E6185618D41B98D
:102DF00001684A6822F0A0024A6080F84150FFF75B
:102E00006EF80098000714D520684168C943890608
:102E10000FD4416821F0A0014160206880680090D3
:102E200084F84150606C40F0040060642046FEF776
:102E3000FDFE7CBD04480178002903D10121017009
:102E4000FEF70EB8704700006C0000204FF0D04134
:102E5000C0B208804888704710B500224FF0D044B7
:102E600004E000BF30F8023B6380921C8A42F9D331
:102E700010BD4FF0D04108807047000000B587B00A
:102E80001C216846FDF7EFFB16484FF02041102249
:102E9000016015494160042181600021C160C0E9E1
:102EA00004128161C16113020162C0E90913C162A8
:102EB00001634163816341640F20FF230090CDE9EA
:102EC0000103CDE903021120CDE905010022694685
:102ED0000448FFF711FC002801D072B6FEE707B0E6
:102EE00000BD000060020020040100A02DE9F04FA9
:102EF00087B014216846FDF7B6FBF048002401684E
:102F000041F010010160016801F0100105910168B4
:102F100041F002010160016801F0020105910168C0
:102F200041F040010160016801F040010591016834
:102F300041F008010160016801F008010591016894
:102F400041F004010160016801F00401059101688C
:102F500041F001010160016801F001010591016882
:102F600041F480710160016801F48071059101688C
:102F700041F080010160016801F080010591016864
:102F800041F0200101600068002200F0200005905F
:102F90004FF48A51CA48FEF74FFB4FF4007A0022E3
:102FA0005146C848FEF748FB002248F22001C648B7
:102FB000FEF742FB00228021C448FEF73DFB0022C1
:102FC0008021C348FEF738FB4FF480700090022543
:102FD000CDE901540B27CDE903476946BD48FEF70B
:102FE00033FA42F62300CDE90005032602940A20B5
:102FF000CDE903606946B748FEF726FA4FF4D040A2
:103000000090CDE90154CDE903476946AC48FEF78D
:103010001BFA4FF49850CDE9000502940C20CDE93D
:1030200003606946A948FEF70FFAA80300904FF421
:103030000410CDE901046946A148FEF705FA4FF4F2
:103040008A5000900120CDE9010469469C48039410
:10305000FEF7FAF94FF4E0500090CDE901540A2050
:10306000CDE9034069469C48FEF7EEF9F020009058
:10307000CDE901544FF00D08CDE903486946914868
:10308000FEF7E2F94FF004094FF4901BCDF80090E1
:10309000CDE901B469468B48FEF7D6F90120CDF899
:1030A00000A0CDE90104694686480394FEF7CCF9F7
:1030B0000C20CDF80090CDE90360CDE901546946BC
:1030C0008648FEF7C1F948F2200000900120CDE9C2
:1030D000010469467C480394FEF7B6F96802009043
:1030E000CDE90154CDE9034769467648FEF7ACF9CE
:1030F000A802CDE9000502940A20CDE903606946E3
:103100007048FEF7A1F92803CDE9000401200290E0
:1031100069466D48FEF798F94FF4BE400090CDE93E
:103120000154CDE9034869466748FEF78DF9CDE9BA
:1031300000A4694668480294FEF786F9CC20009006
:10314000CDE90154CDE9034769465F48FEF77CF9B4
:10315000E8010090CDE90154039469465E48049467
:10316000FEF772F94FF0800A0120CDF800A0CDE9FA
:103170000104694655480394FEF766F91020CDE92D
:10318000000502940A20CDE9036069464E48FEF727
:103190005BF9CDF800A0CDE901540820CDE903404A
:1031A00069464748FEF750F90120CDF800A0CDE967
:1031B0000104694646480394FEF746F94020CDE9EC
:1031C0000004694642480294FEF73EF97002CDE9D8
:1031D0000006694602943E48FEF736F90120CDE923
:1031E000000502940A20CDE9036069463748FEF7DE
:1031F0002BF932200090CDE90154CDE9034769460F
:103200003248FEF721F9CDE900946946314802942D
:10321000FEF71AF986200090CDE90154CDE9034765
:1032200069462D48FEF710F9012000904FF4441034
:10323000CDE9010469462848FEF706F91020CDE9DA
:103240000006694602942448FEF7FEF840200090EC
:10325000CDE90154CDE9034869461F48FEF7F4F86B
:103260002820CDE9000502940A20CDE903606946D3
:103270001948FEF7E9F8A802CDE9000B6946029467
:103280001348FEF7E1F86803CDE9000B69460294A4
:103290001048FEF7D9F8002211460620FEF78AFEF4
:1032A0000620FEF779FE002211462820FEF782FE56
:1032B0002820FEF771FE07B0BDE8F08F30380240DD
:1032C0000018024000200240001C0240000802409A
:1032D000001402400004024000000240000C0240C2
:1032E000FEE7FEE770477047FEF7FABD30B593B0D2
:1032F00030216846FDF7B7F914210CA8FDF7B3F9A2
:103300001E480025016841F080510160006800F00E
:10331000805011901A48016841F4804101600068B2
:10332000022400F4804011900120009000040190DC
:103330008001CDE90640192008904FF4A870CDE92E
:10334000090407200B906846FFF720F808B172B611
:10335000FEE70CA90F2081E831004FF4A0500F9038
:103360004FF48050109005210CA8FEF723FF002891
:1033700001D072B6FEE713B030BD00004038024005
:10338000007000400248016841F47001016070471C
:1033900088ED00E010B500F097FDBDE81040014851
:1033A000FFF79BBAD001002070B551482DED028B7C
:1033B000FFF793FA4F4D28789FED4F8B504C012823
:1033C00069D194ED140B9FED4F1B51EC100B53EC96
:1033D000112B00F01DFF0DD294ED140B53EC182BA4
:1033E00051EC100B00F08AFE04D2002102220846A4
:1033F00000F040FE94ED140B53EC182B51EC100B25
:1034000000F006FF0FD294ED140B9FED401B51EC22
:10341000100B53EC112B00F071FE04D20021062298
:10342000084600F027FE94ED140B9FED3A1B51EC7B
:10343000100B53EC112B00F0EBFE10D294ED140B9B
:103440009FED361B51EC100B53EC112B00F056FE88
:1034500005D200216FF00502084600F00BFE94ED46
:10346000140B9FED301B51EC100B53EC112B00F0A3
:10347000CFFE10D294ED140B9FED2C1B51EC100BD2
:1034800053EC112B00F03AFE05D200216FF001023F
:10349000084600F0EFFD2878264C6FF0020602285F
:1034A0000AD12068012818D0401C1DD100221146E5
:1034B0005FF0030000F0DEFD2878032814D1606877
:1034C00001280ED0401C0FD100223146BDEC028BEA
:1034D0000020BDE8704000F0CDBD0022114630460E
:1034E000E8E700220321F1E7BDEC028B70BD00008C
:1034F000880100200000002000000000000054406F
:10350000900300200000000000003E40000000008A
:1035100000C0674000000000002067C000000000FD
:10352000000044C000000000000049C0000000008E
:10353000000034C0DC000020F0B50268294C2A4DA0
:103540002A4E2B4F2B4B4FF0804CA04209D06045A8
:1035500007D0A84205D0B04203D0B84201D098426B
:1035600004D122F0700E4A6842EA0E02A0421BD03B
:10357000604519D0A84217D0B04215D0B84213D038
:10358000984211D01C4DA8420ED01C4DA8420BD021
:103590001B4DA84208D01B4DA84205D01A4DA84289
:1035A00002D01A4DA84203D122F44075CA682A43BA
:1035B0004D6922F080022A4302608A68C2620A686A
:1035C0008262A04201D0984201D1096901630121C0
:1035D00041610169C90703D0016921F0010101615D
:1035E000F0BD000000000140000400400008004061
:1035F000000C004000040140004001400044014034
:103600000048014000180040001C0040002000401D
:1036100001680C3151E8002F22F4907241E8002338
:10362000002BF5D10168143151E8002F22F001027E
:1036300041E80023002BF5D1016B012909D1016874
:103640000C3151E8002F22F0100241E80023002B3A
:10365000F5D1202180F8421000210163704700005D
:1036600070B5044600680169E26821F440511143D5
:1036700001612169A068E269084361691143084357
:103680002168CA6849F20C639A430243CA60206801
:103690004169A26921F440711143416131492068B7
:1036A000884202D03049884202D1FEF72DFE01E067
:1036B000FEF71AFEE2690023192164253226B2F5CD
:1036C000004F626828D0A0FB0101930F9200FCF725
:1036D00029FE0146B0FBF5F06FF01802504301EBF4
:1036E000800006EB0010B0FBF5F000F0F002B1FB3B
:1036F000F5F002EB0012B1FBF5F06FF01803584340
:1037000001EB800006EB0010B0FBF5F000F00F00BD
:1037100021681044886070BDA0FB010192185B41D4
:10372000FCF700FE0146B0FBF5F00201B1FBF5F03D
:103730006FF01803584301EB800006EBC000B0FBAC
:10374000F5F000F0F80002EB4002B1FBF5F0584351
:1037500001EB800006EBC000B0FBF5F000F00700C5
:10376000D6E7000000100140001401402DE9F843A5
:10377000984617460D460446089E24E0701C22D049
:10378000FDF760FFA0EB0800B0421AD8CEB1206868
:10379000C168490717D5802D15D0402D13D0016879
:1037A000C94309070FD401680025406800902046EE
:1037B000FFF72EFF0820606484F840500120BDE828
:1037C000F8830320FBE72068006835EA000004D096
:1037D0000020B842D2D00020F1E70120F9E7FEE74F
:1037E0000907090E002804DB00F1E02080F800142E
:1037F000704700F00F0000F1E02080F8141D7047C2
:1038000030380A2801D2012070470020704710B5D7
:103810000021102000F005FA0021112000F001FA2B
:103820000021122000F0FDF90021132000F0F9F929
:103830000021292000F0F5F90021BDE81040072003
:1038400000F0EFB910B50021102000F0EAF90021D6
:10385000112000F0E6F90021122000F0E2F9002129
:10386000132000F0DEF941F2B071102000F0D9F918
:1038700040F23711112000F0D4F940F23911122032
:1038800000F0CFF94FF4E851132000F0CAF91321EA
:10389000292000F0C6F9BDE8104040F2731107205E
:1038A00000F0BFB92DE9F041064650880D469188D9
:1038B00040EA01415089938940EA0340091A4C08C3
:1038C000171841F20801032000F0ABF929463046F1
:1038D00000F06FF92220FFF7CCFA61003846FFF7BD
:1038E000BBFABDE8F04141F21801032000F099B99C
:1038F00070B51D460B46064600241146184600F0DA
:1039000058F92220FFF7B5FA064803E020F81460C2
:10391000641CA4B2AC42F9D36900BDE87040014810
:10392000FFF79ABA0404002070B502FB03F4049D6B
:1039300000F03FF92220FFF79CFA61002846BDE81D
:103940007040FFF789BA00002DE9F041884606462D
:103950001D461746002441F21001032000F061F9D2
:103960003946404600F025F92220FFF782FA0A483E
:1039700004E000BF20F81460641CA4B2AC42F9D388
:1039800069000548FFF768FABDE8F04141F2180107
:10399000032000F046B9000004040020F020704726
:1039A0004FF4A07070472DE9F041FFF743FA012171
:1039B000002000F036F94FF48071012000F031F959
:1039C0004FF4E061022000F02CF941F21804214686
:1039D000032000F026F90021042000F022F940F233
:1039E0000221082000F01DF90021092000F019F93A
:1039F00000210A2000F015F900210C2000F011F937
:103A000000210D2000F00DF900210F2000F009F930
:103A10000021102000F005F90021112000F001F92B
:103A20000021122000F0FDF80021132000F0F9F829
:103A300041F2B071102000F0F4F840F2371111207B
:103A400000F0EFF840F23911122000F0EAF84FF4DC
:103A5000E851132000F0E5F81321292000F0E1F8E7
:103A60000021202000F0DDF80021212000F0D9F80D
:103A70000721302000F0D5F840F20231312000F06B
:103A8000D0F840F205152946322000F0CAF840F27D
:103A900006263146352000F0C4F840F608073946BE
:103AA000362000F0BEF83146372000F0BAF840F278
:103AB0000451382000F0B5F80721392000F0B1F8A2
:103AC00029463C2000F0ADF839463D2000F0A9F829
:103AD0000021502000F0A5F8EF21512000F0A1F8BE
:103AE0000021522000F09DF840F23F11532000F0D9
:103AF00098F84FF42741602000F093F801216120ED
:103B000000F08FF800216A2000F08BF8002180205F
:103B100000F087F80021812000F083F80021822046
:103B200000F07FF80021832000F07BF80021842042
:103B300000F077F80021852000F073F81021902024
:103B400000F06FF80021922000F06BF80321932021
:103B500000F067F84FF48871952000F062F80021BA
:103B6000972000F05EF80021982000F05AF82146D6
:103B7000032000F056F840F27311072000F051F8CE
:103B80000021084600F015F8BDE8F0412220FFF7BB
:103B900070B910B5FFF74EF9BDE810400020FFF7EF
:103BA00055B910B500F005F8BDE810402220FFF728
:103BB0004DB910B50446202000F033F8A4F23F14AC
:103BC000604281B2BDE81040212000F02AB82DE902
:103BD000F04104461D4616460F46502000F021F8DD
:103BE0007819401E81B2512000F01BF8C4F5A07076
:103BF000801B81B2522000F014F8A4F23F146042FE
:103C0000BDE8F04181B2532000F00BB807B5FFF7D3
:103C1000D0FF2220FFF72DF9022102A8FFF71CF99F
:103C20000EBD13B5FFF725F9022101A8FFF714F91E
:103C30001CBD00001CB5DFED6C0A6C48C0ED070A26
:103C40009FED6B0A80ED080AC0ED090A9FED690A35
:103C5000DFED690A9FED691ADFED691A00F12801AD
:103C600081EC040A80ED0E1A80ED0F0AC0ED100AF7
:103C7000FEF73EF9FCF7E2FFFFF738FBFFF736F9F6
:103C800060480024016841F4001101600068224688
:103C900000F40010009021460E20FEF78BF90E2054
:103CA000FEF77AF9002211460F20FEF783F90F2064
:103CB000FEF772F95548544901604FF4E131C0E90B
:103CC00001140C21C460C0E904418461C461FEF7A1
:103CD000A0FE08B172B6FEE7FFF7D0F84B484C499A
:103CE0004838C0E9001444F29F11C0E90241046160
:103CF0008461FEF78FFD08B172B6FEE7434845497F
:103D0000D838032201604915C0E90114C0E9032134
:103D10004BF68031C0E905140121C0E90741FDF7E8
:103D200087FF08B172B6FEE73C483B4901603C4959
:103D3000C0E901144FF48041C0E90341446184614A
:103D4000C4610462FDF784FC08B172B6FEE72F4837
:103D50000094903833490194C0E9001440F247318F
:103D6000C0E902418461FEF755FD08B172B6FEE775
:103D700026480094694690380194FEF703FD08B187
:103D800072B6FEE7FCF7F2FD3220FDF7DDFA4FF6E2
:103D9000FF70FCF7C1FD0020FCF772FF22A000F0CD
:103DA00067F827A10120FCF735FE4FF47A70FDF784
:103DB000CBFA28A000F05CF8144A0423983202F1F0
:103DC0001001A1F5C070FDF737FE084844300188A6
:103DD0008AB20189808889B280B2FCF7CBFE20A02C
:103DE00000F046F8FEE700000150743F0400002098
:103DF0000150F4BFFA0CF4BF1026693F160E863A44
:103E0000160E063B303802400048004018020020E1
:103E1000004801400038004000540040EC00002001
:103E2000A0860100001400400A0A2B3D3D3D476F6B
:103E30006F64204D6F726E696E67213D3D3D2B00B2
:103E4000202020202020566F7841727420202020CE
:103E5000202000005B4C43445D2052454144590002
:103E60005B436972636C655D2052454144590000B3
:103E700030B589B0054624216846FCF7F4FB284696
:103E8000FCF7C6FB001DFCF7F7F904462946FCF7D2
:103E90009BFB0AA12046FCF7DAFB224608A16846F4
:103EA000FCF7B8FA6423232269460648FEF724FE8D
:103EB0002046FCF710FA09B030BD00000D0A0000E2
:103EC000257300001802002070B52DED048B9FEDC6
:103ED0004F9B9FED508B514C514D53EC182B94ED53
:103EE000120B51EC100B00F093F921D294ED120B50
:103EF00053EC192B51EC100B00F000F918D294ED93
:103F0000140B53EC182B51EC100B00F081F90FD26D
:103F100094ED140B53EC192B51EC100B00F0EEF850
:103F200006D22878012803D0002028703DA162E045
:103F300094ED120B53EC182B51EC100B00F068F9B8
:103F400027D294ED120B9FED391B51EC100B53EC63
:103F5000112B00F0D3F81CD294ED140B9FED351B00
:103F600051EC100B53EC112B00F052F911D294EDDF
:103F7000140B9FED321B51EC100B53EC112B00F086
:103F8000BDF806D22878012803D0022028702DA180
:103F900031E094ED120B9FED2D1B51EC100B53EC07
:103FA000112B00F035F92DD294ED120B9FED291B4A
:103FB00051EC100B53EC112B00F0A0F822D294ED31
:103FC000140B9FED261B51EC100B53EC112B00F042
:103FD00095F817D294ED140B9FED221B51EC100BAA
:103FE00053EC112B00F014F90CD22878012809D0D9
:103FF000032028701DA1BDEC048B0920BDE8704092
:10400000FCF708BDBDEC048B70BD00000000000093
:104010000000244000000000000024C090030020A5
:104020000000002049646C65202020000000000092
:10403000000018400000000000005940000000008F
:1040400000005E405265766572620000000000006C
:10405000000014C000000000000014400000000038
:1040600000E065C00000000000A066C043686F72F9
:104070007573000010B51A4C636803446360A06850
:104080000844A06021681144A1F10A0221605B2A62
:1040900005D3642901DD642100E00A212160A0F13B
:1040A0003C01742905D3AF2801DDAF2000E03C209E
:1040B000A060972B05D3962B01DD962000E0002011
:1040C00060604FF6FF70FCF727FC208882B22089E1
:1040D00081B2A088BDE8104080B2FCF74BBD000063
:1040E00048000020491058BFC1F140415B1058BF43
:1040F000C3F140438B42EFF30080704751EA030C59
:1041000017D41CF5801F58BFBCF5801F00F1068036
:10411000994218BF704708BF9042704707D711F502
:10412000801F58BF13F5801F19D4994270478942E8
:1041300070471CF5801F08D5BCF5801FF7D58B4252
:1041400018BF704708BF824270474FF4001C1CEB39
:10415000410F38BF1CEB430F01D28B42704770B543
:1041600000F008F8922449004FF000514FF08053BE
:10417000FFF7B8BF0EF1020E2EF0030E5EF8046BCF
:10418000364205D4012A43EB030515F5001F12D86A
:10419000012841EB010C1CF5001F0CD80ED14FEA91
:1041A000D17C15F5001F0CEB4C0C0CF1020C08BF78
:1041B0004CEBD37C04E04FF0080C01E04FEAD37CD9
:1041C0000CEB4C0526FA05F606F00706B6F1040CD2
:1041D00006D20EEB860CBDE870404CF0010C604737
:1041E000DFE80CF0090B02024FF000414FF0000035
:1041F000A1F5002170BD19461046012851EB0104BC
:1042000018BFD4F5001484BF002001F0004170BD38
:1042100053EA010C17D41CF5801F58BFBCF5801F52
:1042200000F106808B4218BF704708BF824270477A
:1042300007D713F5801F58BF11F5801F19D48B4283
:1042400070479B4270471CF5801F08D5BCF5801F46
:10425000F7D5994218BF704708BF904270474FF496
:10426000001C1CEB430F38BF1CEB410F01D29942DD
:1042700070470FB40CBC03BCFFF771BF4FF0407028
:10428000E1EE100A70470006101600061016000036
:1042900000000000000001020304060708090000F6
:1042A0000000010203040000000000000000000004
:1042B00000000000000000000000000000000000FE
:1042C00000000000000000000000000000000000EE
:1042D00000000000000000000000000000000000DE
:1042E00000000000000000000000000000000000CE
:1042F00000000000038000038000038000038000B2
:10430000038000038000038000038000038000011D
:104310000000010000000000000000038000038096
:10432000000000000000000000000000000000008D
:104330000000000000000000000000000000000E6F
:1043400070000E70000E7000042000042000042095
:104350000004200000000000000000000000000039
:10436000000000000000000000000000000000004D
:10437000000000000000000000000000000000003D
:104380000000000006600006600006600006600095
:104390000660003FF8003FF8000660000CC0003FD8
:1043A000F8003FF8000CC0000CC0000CC0000CC0AE
:1043B000000CC00000000000000000000000000031
:1043C00000000000000000000001800001800007E4
:1043D000B0000FF0001870001870001C00000F8073
:1043E0000007E00000F0001830001C30001C7000D6
:1043F0001FE0001BC000018000018000018000015F
:10440000800000000000000000000000000000002C
:10441000000000000780000FC0001CE000186000D2
:104420001860001CE0000FF80007E0001FF0000714
:10443000380006180006180007380003F00001E0F5
:10444000000000000000000000000000000000006C
:10445000000000000000000000000000000000005C
:10446000000003F00007F0000C60000C00000C00DE
:10447000000600000700000F9C001DFC0018F00063
:104480001870000FFC0007DC0000000000000000B6
:10449000000000000000000000000000000000001C
:1044A0000000000000000003800003800003800083
:1044B00001000001000001000001000000000000F8
:1044C00000000000000000000000000000000000EC
:1044D00000000000000000000000000000000000DC
:1044E00000000000000000000000000000180000B4
:1044F000380000700000F00000E00000E00001C0A3
:104500000001C00001C00001C00001C00001C000E6
:1045100000E00000E00000700000700000380000C3
:104520001800000000000000000000000000000073
:10453000000000001800001C00000E00000E00002B
:1045400007000007000003800003800003800003D1
:1045500080000380000380000700000700000F00B8
:10456000000E00001C000018000000000000000009
:1045700000000000000000000000000001800001B9
:1045800080000180001DB8001FF80007E00003C094
:104590000003C0000660000660000000000000008C
:1045A000000000000000000000000000000000000B
:1045B00000000000000000000000000000000000FB
:1045C00000000000000000000000018000018000E9
:1045D0000180000180000180003FFC003FFC0001E1
:1045E0008000018000018000018000018000000047
:1045F00000000000000000000000000000000000BB
:1046000000000000000000000000000000000000AA
:10461000000000000000000000000000000000009A
:10462000000000000000000000000000000000008A
:1046300000E00000C00001C0000180000180000314
:104640000000030000000000000000000000000067
:10465000000000000000000000000000000000005A
:104660000000000000000000001FF8001FF800001C
:10467000000000000000000000000000000000003A
:10468000000000000000000000000000000000002A
:10469000000000000000000000000000000000001A
:1046A000000000000000000000000000000000000A
:1046B00000000000000000000000000000000000FA
:1046C00003C00003C00003C00000000000000000A1
:1046D00000000000000000000000000000000018C2
:1046E000000018000038000030000070000060007A
:1046F00000600000C00000C00001800001800003D5
:1047000000000300000600000600000E00000C0080
:10471000001C00001800001800000000000000004D
:1047200000000000000000000000000003C00007BF
:10473000E0000C30000C3000181800181800181891
:10474000001818001818001818001818000C30006D
:104750000C300007E00003C0000000000000000073
:104760000000000000000000000000000000000049
:10477000000000000080000780001F80001D8000F6
:1047800001800001800001800001800001800001A3
:1047900080000180000180000180001FF8001FF8E8
:1047A0000000000000000000000000000000000009
:1047B00000000000000000000000000007C0001F13
:1047C000F0003830003018003018000018000030B9
:1047D0000000600001C0000380000600000C000023
:1047E0001800003FF8003FF8000000000000000043
:1047F00000000000000000000000000000000000B9
:104800000000000003C0000FE0000C70000030004A
:1048100000300000600003C00003E00000700000F2
:1048200018000018000018001838001FF0000FC012
:104830000000000000000000000000000000000078
:1048400000000000000000000000000000E0000187
:10485000E00001E0000360000660000660000C60FC
:10486000000C60001860003060003FF8003FF80066
:1048700000600003F80003F80000000000000000E2
:104880000000000000000000000000000000000028
:10489000000000001FF0001FF000180000180000CA
:1048A0001800001BC0001FF0001C300000180000A2
:1048B00018000018000018003030003FF0000FC052
:1048C00000000000000000000000000000000000E8
:1048D00000000000000000000000000000F80003DD
:1048E000F8000700000E00000C00001800001BC0BC
:1048F000001FF0001C3000181800181800181800CD
:104900000C38000FF00003E0000000000000000081
:104910000000000000000000000000000000000097
:10492000000000001FF8001FF800181800183800D9
:1049300000300000300000700000600000600000E7
:10494000E00000C00000C00001C000018000018044
:104950000000000000000000000000000000000057
:1049600000000000000000000000000007E0000F51
:10497000F0001C38001818001818000C300007E070
:104980000007E0000C300018180018180018180074
:104990001C38000FF00007E00000000000000000DD
:1049A0000000000000000000000000000000000007
:1049B0000000000007C0000FF0001C3000181800B5
:1049C0001818001818000C38000FF80003D8000061
:1049D000180000300000700000E0001FC0001F0041
:1049E00000000000000000000000000000000000C7
:1049F00000000000000000000000000000000000B7
:104A0000000000000000000003C00003C00003C05D
:104A10000000000000000000000000000000000096
:104A200003C00003C00003C000000000000000003D
:104A30000000000000000000000000000000000076
:104A40000000000000000000000000000000000066
:104A500000F00000F00000F0000000000000000086
:104A6000000000000000E00001C0000180000180A3
:104A70000003000002000000000000000000000031
:104A80000000000000000000000000000000000026
:104A90000000001C00003C0000F00003C0000F00FC
:104AA000003C0000F000003C00000F000003C000CC
:104AB00000F000003C00001C0000000000000000AE
:104AC00000000000000000000000000000000000E6
:104AD00000000000000000000000000000000000D6
:104AE0000000007FFC007FFC000000000000007F51
:104AF000FC007FFC0000000000000000000000003F
:104B000000000000000000000000000000000000A5
:104B10000000000000000000000000000000000095
:104B200000007000007800001E000007800001E017
:104B300000007800001E0000780001E000078000FF
:104B40001E0000780000700000000000000000005F
:104B50000000000000000000000000000000000055
:104B60000000000000000007C0000FE00018700007
:104B700018300018300000700000E00003C000038F
:104B80008000030000000000000000070000070094
:104B90000000000000000000000000000000000015
:104BA00000000000000000000000000003E000071B
:104BB000F0000E38000C180018780018F80019D80A
:104BC0000019980019980019980018F80018780032
:104BD0001800000C00000E180007F80003E00000A9
:104BE00000000000000000000000000000000000C5
:104BF000000000000000001F80001FC00001C00076
:104C00000360000360000630000630000C30000F27
:104C1000F8001FF800180C00300C00FC7F00FC7F2F
:104C20000000000000000000000000000000000084
:104C30000000000000000000000000000000007FF5
:104C4000E0007FF000183800181800181800183815
:104C5000001FF0001FF800181C00180C00180C00B2
:104C6000180C007FF8007FF000000000000000003A
:104C70000000000000000000000000000000000034
:104C80000000000000000003EC000FFC001C1C00F2
:104C9000180C00300C0030000030000030000030F4
:104CA0000000300000180C001C1C000FF80003F07E
:104CB00000000000000000000000000000000000F4
:104CC0000000000000000000000000000000007F65
:104CD000C0007FF000183800181800180C00180CDD
:104CE00000180C00180C00180C00180C0018180004
:104CF0001838007FF0007FE0000000000000000096
:104D000000000000000000000000000000000000A3
:104D1000000000000000007FF8007FF80018180075
:104D20001818001998001980001F80001F800019B2
:104D300080001998001818001818007FF8007FF8F4
:104D40000000000000000000000000000000000063
:104D50000000000000000000000000000000003F14
:104D6000FC003FFC000C0C000C0C000CCC000CC038
:104D7000000FC0000FC0000CC0000CC0000C0000F1
:104D80000C00003FC0003FC0000000000000000019
:104D90000000000000000000000000000000000013
:104DA0000000000000000003EC000FFC001C1C00D1
:104DB000180C00300C0030000030000030FE0030D5
:104DC000FE00300C00380C001C1C000FFC0003F02F
:104DD00000000000000000000000000000000000D3
:104DE0000000000000000000000000000000007E45
:104DF0007E007E7E00181800181800181800181879
:104E0000001FF8001FF800181800181800181800E4
:104E10001818007E7E007E7E00000000000000006A
:104E20000000000000000000000000000000000082
:104E3000000000000000001FF8001FF800018000C3
:104E400001800001800001800001800001800001DC
:104E500080000180000180000180001FF8001FF821
:104E60000000000000000000000000000000000042
:104E7000000000000000000000000000000000072B
:104E8000FE0007FE0000300000300000300000305F
:104E90000000300030300030300030300030300062
:104EA0003060003FE0000F800000000000000000C4
:104EB00000000000000000000000000000000000F2
:104EC000000000000000007F3E007F3E0018300020
:104ED00018600018C0001980001B80001FC0001C53
:104EE000E0001870001830001838007F1F007F1F86
:104EF00000000000000000000000000000000000B2
:104F00000000000000000000000000000000007F22
:104F100080007F80000C00000C00000C00000C00E2
:104F2000000C00000C00000C0C000C0C000C0C0021
:104F30000C0C007FFC007FFC000000000000000063
:104F40000000000000000000000000000000000061
:104F500000000000000000F00F00F81F00381C00E7
:104F60003C3C003C3C00366C00366C0033CC0033DB
:104F7000CC00318C00300C00300C00FE7F00FE7F36
:104F80000000000000000000000000000000000021
:104F90000000000000000000000000000000007899
:104FA000FE0078FE001C18001E18001F18001B18B9
:104FB000001B980019D80018D80018F800187800BD
:104FC0001838007F18007F18000000000000000063
:104FD00000000000000000000000000000000000D1
:104FE0000000000000000003C0000FF0001C3800AB
:104FF000181800381C00300C00300C00300C003049
:105000000C00381C001818001C38000FF00003C0FA
:105010000000000000000000000000000000000090
:105020000000000000000000000000000000003F41
:10503000F0003FF8000C1C000C0C000C0C000C0CD9
:10504000000C18000FF8000FE0000C00000C00002E
:105050000C00003FC0003FC0000000000000000046
:105060000000000000000000000000000000000040
:105070000000000000000003C0000FF0001C38001A
:10508000181800381C00300C00300C00300C0030B8
:105090000C00381C001818001C38000FF00007C066
:1050A0000007CC000FFC000C3800000000000000DE
:1050B0000000000000000000000000000000007F71
:1050C000E0007FF000183800181800181800183891
:1050D000001FF0001FC00018E0001870001830001A
:1050E0001838007F1E007F0E000000000000000046
:1050F00000000000000000000000000000000000B0
:105100000000000000000007D8000FF8001C380065
:105110001818001818001E00000FC00003F000004F
:1051200078001818001818001C38001FF0001BE049
:10513000000000000000000000000000000000006F
:105140000000000000000000000000000000003F20
:10515000FC003FFC00318C00318C00318C00318C24
:1051600000018000018000018000018000018000BA
:105170000180000FF0000FF00000000000000000B0
:10518000000000000000000000000000000000001F
:10519000000000000000007E7E007E7E00181800E7
:1051A00018180018180018180018180018180018F7
:1051B00018001818001818000C30000FF00003C079
:1051C00000000000000000000000000000000000DF
:1051D0000000000000000000000000000000007F50
:1051E0007F007F7F00180C000C18000C18000C18B2
:1051F000000630000630000360000360000360001A
:1052000001C00001C000008000000000000000009C
:10521000000000000000000000000000000000008E
:1052200000000000000000FE3F80FE3F80300600CE
:1052300030060030860019CC0019CC001B6C001B16
:105240006C001E7C000E38000E38000C18000C1884
:10525000000000000000000000000000000000004E
:105260000000000000000000000000000000007EC0
:105270007E007E7E001818000C300006600003C01F
:105280000001800001800003C0000660000C3000B7
:105290001818007E7E007E7E0000000000000000E6
:1052A00000000000000000000000000000000000FE
:1052B000000000000000007C7E007C7E00181800CA
:1052C0000C300006600006600003C0000180000191
:1052D00080000180000180000180000FF0000FF0CD
:1052E00000000000000000000000000000000000BE
:1052F0000000000000000000000000000000001F8F
:10530000F8001FF80018180018300018600018C0C6
:10531000000180000300000618000C180018180097
:105320003018003FF8003FF80000000000000000C7
:10533000000000000000000000000000000000006D
:105340000000000001F00001F00001800001800079
:1053500001800001800001800001800001800001C7
:105360008000018000018000018000018000018038
:105370000001800001F00001F000000000000000CA
:105380000000000000001800001800001C00000CC5
:1053900000000E00000600000600000300000300ED
:1053A0000001800001800000C00000C0000060001B
:1053B000006000007000003000003800001800009D
:1053C00018000000000000000000000000000000C5
:1053D000000000000F80000F8000018000018000AD
:1053E0000180000180000180000180000180000137
:1053F00080000180000180000180000180000180A8
:10540000000180000F80000F8000000000000000FD
:1054100000000000000000000000800001C0000348
:10542000E0000770000630000C1800180C00100493
:10543000000000000000000000000000000000006C
:10544000000000000000000000000000000000005C
:10545000000000000000000000000000000000004C
:10546000000000000000000000000000000000003C
:10547000000000000000000000000000000000002C
:10548000000000000000000000000000000000001C
:10549000000000000000000000000000000000000C
:1054A000FFFF00FFFF00000000030000038000007A
:1054B000E0000060000000000000000000000000AC
:1054C00000000000000000000000000000000000DC
:1054D00000000000000000000000000000000000CC
:1054E00000000000000000000000000000000000BC
:1054F00000000000000000000000000000000000AC
:105500000FC0001FE00000300000300007F0001F57
:10551000F0003830003030003070001FFC000FBC4D
:10552000000000000000000000000000000000007B
:10553000000000000000000000000000780000787B
:1055400000001800001800001BE0001FF8001C18E5
:1055500000180C00180C00180C00180C00180C0097
:105560001C18007FF8007BE0000000000000000035
:10557000000000000000000000000000000000002B
:10558000000000000000000000000000000000001B
:1055900003EC000FFC001C1C00380C00300C003029
:1055A0000000300000380C001C1C000FF80003F055
:1055B00000000000000000000000000000000000EB
:1055C0000000000000000000000000000078000063
:1055D000780000180000180007D8001FF8001838DD
:1055E0000030180030180030180030180030180053
:1055F0001838001FFE0007DE000000000000000059
:10560000000000000000000000000000000000009A
:10561000000000000000000000000000000000008A
:1056200007E0001FF800181800300C003FFC003F96
:10563000FC00300000300000180C001FFC0007F0D8
:10564000000000000000000000000000000000005A
:1056500000000000000000000000000001FC00034A
:10566000FC000600000600003FF8003FF8000600BE
:10567000000600000600000600000600000600000C
:105680000600003FF0003FF00000000000000000B6
:10569000000000000000000000000000000000000A
:1056A00000000000000000000000000000000000FA
:1056B00007DE001FFE0018380030180030180030D8
:1056C00018003018003018001838001FF80007D8EC
:1056D000000018000018000038000FF0000FC00094
:1056E00000000000000000000000000078000078CA
:1056F00000001800001800001BE0001FF0001C381C
:1057000000181800181800181800181800181800A9
:105710001818007E7E007E7E000000000000000061
:105720000000000000000000000000000000000079
:105730000000000001800001800000000000000067
:105740001F80001F80000180000180000180000197
:1057500080000180000180000180003FFC003FFCD0
:105760000000000000000000000000000000000039
:1057700000000000000000000000000000C0000069
:10578000C0000000000000001FF0001FF00000300B
:105790000000300000300000300000300000300019
:1057A0000030000030000030000030000030000009
:1057B00070001FE0001F80000000000000000000DB
:1057C000000000003C00003C00000C00000C000049
:1057D0000CF8000CF8000CC0000D80000F80000FCA
:1057E00000000F80000DC0000CE0003C7C003C7C01
:1057F00000000000000000000000000000000000A9
:105800000000000000000000000000001F80001FDA
:105810008000018000018000018000018000018083
:1058200000018000018000018000018000018000F3
:105830000180003FFC003FFC000000000000000071
:105840000000000000000000000000000000000058
:105850000000000000000000000000000000000048
:10586000F77800FFFC0039CC00318C00318C00311E
:105870008C00318C00318C00318C00FDEF00FDEF8D
:105880000000000000000000000000000000000018
:105890000000000000000000000000000000000008
:1058A00000000000000000007BE0007FF0001C38DA
:1058B00000181800181800181800181800181800F8
:1058C0001818007E7E007E7E0000000000000000B0
:1058D00000000000000000000000000000000000C8
:1058E00000000000000000000000000000000000B8
:1058F00003C0000FF0001C3800381C00300C0030D2
:105900000C00300C00381C001C38000FF00003C0E5
:105910000000000000000000000000000000000087
:105920000000000000000000000000000000000077
:1059300000000000000000007BE0007FF8001C1861
:1059400000180C00180C00180C00180C00180C00A3
:105950001C18001FF8001BE00018000018000018B9
:1059600000007F00007F0000000000000000000039
:105970000000000000000000000000000000000027
:1059800007DE001FFE001838003018003018003005
:1059900018003018003018001838001FF80007D819
:1059A0000000180000180000180000FE0000FE00B3
:1059B00000000000000000000000000000000000E7
:1059C00000000000000000003E78003EFC0007CC14
:1059D00000070000060000060000060000060000A8
:1059E0000600003FF0003FF0000000000000000053
:1059F00000000000000000000000000000000000A7
:105A00000000000000000000000000000000000096
:105A100007F8000FF8001818001818001F80000F72
:105A2000F00000F8001818001838001FF0001FE000
:105A30000000000000000000000000000000000066
:105A40000000000000000000000000000C00000C3E
:105A500000000C00000C00003FF0003FF0000C00C4
:105A6000000C00000C00000C00000C00000C0000FA
:105A70000C1C0007FC0003F0000000000000000008
:105A80000000000000000000000000000000000016
:105A90000000000000000000000000000000000006
:105AA000787800787800181800181800181800186E
:105AB00018001818001818001838000FFE0007DE2C
:105AC00000000000000000000000000000000000D6
:105AD00000000000000000000000000000000000C6
