:020000040800F2
:10000000C019002079020008F352000811420008CC
:10001000F152000831100008957B00080000000034
:100020000000000000000000000000000353000872
:100030005D1100080000000001530008055300088E
:10004000930200089302000893020008930200083C
:100050009302000893020008FD11000893020008B3
:10006000930200089302000893020008930200081C
:10007000930200089302000893020008351000085C
:1000800093020008930200089302000893020008FC
:1000900093020008930200089302000893020008EC
:1000A00093020008D1530008B953000893020008D6
:1000B00093020008930200089302000893020008CC
:1000C00093020008930200089302000893020008BC
:1000D00093020008930200089302000893020008AC
:1000E00031120008930200089302000893020008EE
:1000F000930200089302000893020008930200088C
:10010000930200089302000893020008930200087B
:100110009302000893020008930200085D5500084E
:10012000930200089302000893020008930200085B
:10013000930200089302000893020008930200084B
:10014000930200089302000893020008F552000889
:10015000930200089302000893020008930200082B
:10016000930200089302000893020008930200081B
:1001700093020008930200089302000800000000A8
:10018000930200089302000800F002F800F065F8FE
:100190000AA090E8000C82448344AAF10107DA45E2
:1001A00001D100F05AF8AFF2090EBAE80F0013F0CF
:1001B000010F18BFFB1A43F00103184750B30000AA
:1001C00070B300000A444FF0000C10F8013B13F02C
:1001D000070408BF10F8014B1D1108BF10F8015BA0
:1001E000641E05D010F8016B641E01F8016BF9D193
:1001F00013F0080F1EBF10F8014BAD1C0C1B09D1EA
:100200006D1E58BF01F801CBFAD505E014F8016B5B
:1002100001F8016B6D1EF9D59142D6D370470000ED
:100220000023002400250026103A28BF78C1FBD8FF
:10023000520728BF30C148BF0B607047732900F0D8
:100240008283002070471FB509F088FB9DE80300FA
:1002500000F008FB1FBD10B510BD00F0A3FB114658
:10026000FFF7F1FF08F042FA00F0C1FB03B4FFF71B
:10027000F2FF03BC00F0F2FB094880470948004741
:10028000FEE7FEE7FEE7FEE7FEE7FEE7FEE7FEE746
:10029000FEE7FEE704480549054A064B70470000A3
:1002A000A953000889010008C0130020C0190020CC
:1002B000C0150020C015002070B5064600F0B6FA43
:1002C000056806F10B0020F00704B4429CBF002033
:1002D00070BD2B466A68BAB11068A04210D304F111
:1002E000080188423CBF5068586007D35168101914
:1002F00041601168091B016058601460101D70BDD9
:1003000013465268002AE7D12146284600F096FAA3
:100310000028DED170BD70B50446051F00F086FAD6
:100320000068002C14BF446870BD002C18BFAC429C
:100330003CBF20466468F8D301680A18AA4218BF77
:10034000456003D12A6805461144016028684119B7
:10035000A1421CBF6C6070BD61686960216808447F
:10036000286070BD53EA020C00F069802DE9F04B63
:100370004FF00006002B1FBFB3FA83F503FA05F414
:1003800024FA05F65E4012BF1643B2FA82F502FA6D
:1003900005F4C5F120051EBF22FA05FC44EA0C0451
:1003A000203556EA044C4FEA144418BF641C4FF041
:1003B00000084FF00009904271EB030C39D300297B
:1003C00019BFB1FA81F701FA07F6B0FA80F700FA1F
:1003D00007F6C7F120071EBF20FA07FC46EA0C0605
:1003E0002037B6FBF4FCA7EB0507103F07F01F0B07
:1003F000CBF120060CFA0BFB2CFA06F644BFB346F1
:100400000026202FA4BF5E464FF0000B5BEA060CCF
:1004100008BF4FF0010B19EB0B09ABFB027C48EB5B
:100420000608C01B06FB02CC0BFB03CC71EB0C01D6
:10043000C1E70B46024641464846BDE8F08B13B57E
:100440004FF000004FF00001AFF30080BDE81C400A
:10045000704700000FB41CB5074B06AA7B446946E1
:100460000090059800F045FA0020694600F054FA23
:100470001CBC5DF814FB0000B904000070B50C460C
:100480000546012A05D02878800600D5EA690023B0
:1004900002E0012305E05B1C934202D2E05C0028ED
:1004A000F9D1A869E618C01AA861286A1844286218
:1004B0002846AFF3008004E0D5E9012114F8010BD0
:1004C0009047B442F8D32846AFF3008070BD0000D7
:1004D0002DE9F05F894604464FF0000ADFF824B1A9
:1004E000FB44C0F820A02046E168884700287DD062
:1004F000252806D0D4E901219047206A401C2062BB
:10050000F1E700255F462046E16888472028064637
:1005100007DB312E05D2B81910F8200C08B10543BD
:10052000F1E7A80701D525F00405C4F81CA00027B1
:10053000C4F818A02A2E09D0304607F0A9FE38B317
:1005400004EB8708303EC8F8186019E059F8041B1E
:10055000204604EB87029161E1688847012F064637
:1005600018D1E069002820DA25F020051DE0D8F830
:10057000180000EB800006EB40003038C8F8180087
:100580002046E1688847064607F082FE0028EED143
:10059000012F0AD02E2E08D12046E16888477F1C03
:1005A0000646022F45F02005C4DBA069002803DAC7
:1005B000404245F00105A061E80701D025F0100593
:1005C000A6B1A6F14100192802D8203645F40065ED
:1005D0004A463146204625604D46FFF72FFE60B162
:1005E000012807D0ED1D25F0070000E007E000F12D
:1005F000080978E705F1040975E730467AE7206ACB
:10060000BDE8F09F70AF000040EA0103024630B53C
:100610009B0710D14FF0013400E008C208C91D1B30
:100620009D4315EAC41FF8D013F0FF0102F8011B27
:100630000DD01B0AF8E711F8013B002B02F8013B33
:1006400005D011F8013B002B02F8013BF3D130BD7E
:1006500010B5431C02E010F8011B71B18107FAD1FB
:100660004FF0013202C88C1A8C4314EAC211F9D03F
:10067000C01A0A0603D0C01E10BDC01A10BD0A045D
:1006800001D0801E10BD0902FCD0401E10BD421ECC
:1006900012F8013F002BFBD111F8013B002B02F8AF
:1006A000013BF9D17047032A40F2308010F0030C6F
:1006B00000F0158011F8013BBCF1020F624498BFB5
:1006C00011F801CB00F8013B38BF11F8013BA2F152
:1006D000040298BF00F801CB38BF00F8013B11F0CD
:1006E000030300F02580083AC0F0088051F8043B6D
:1006F000083A51F804CBA0E80810F5E7121D5CBFDA
:1007000051F8043B40F8043BAFF30080D20724BF0C
:1007100011F8013B11F801CB48BF11F8012B24BFA0
:1007200000F8013B00F801CB48BF00F8012B7047EF
:1007300010B5203AC0F00B80B1E81850203AA0E87C
:100740001850B1E81850A0E81850BFF4F5AF5FEAB0
:10075000027C24BFB1E81850A0E8185044BF18C963
:1007600018C0BDE810405FEA827C24BF51F8043B0A
:1007700040F8043B08BF7047D20728BF31F8023B5E
:1007800048BF11F8012B28BF20F8023B48BF00F8F2
:10079000012B70474FF000020429C0F0128010F0C6
:1007A000030C00F01B80CCF1040CBCF1020F18BF4D
:1007B00000F8012BA8BF20F8022BA1EB0C0100F0E0
:1007C0000DB85FEAC17C24BF00F8012B00F8012BB3
:1007D00048BF00F8012B70474FF0000200B51346E8
:1007E00094469646203922BFA0E80C50A0E80C5051
:1007F000B1F12001BFF4F7AF090728BFA0E80C5002
:1008000048BF0CC05DF804EB890028BF40F8042BFA
:1008100008BF704748BF20F8022B11F0804F18BF67
:1008200000F8012B704770477047704700487047C9
:1008300068130020704770477047704738B504460A
:100840000A4600206946AFF30080002808BF38BD83
:1008500002460099204600F083F8012038BD0120AF
:1008600000F098B8F8B5AFF30080054600200C46BC
:10087000102000BF0646A819A0420DD9324669468D
:100880000020AFF30080070008BF00F083F8009855
:10089000A04218BF0546C419FFF7C8FF0560074608
:1008A000F01D20F007004619284600F00AF8B4426F
:1008B00008BFF8BDA21B31463868BDE8F84000F01B
:1008C0004FB800210160C0E9011070471020704747
:1008D00010B500F041F8006810BD10B5044600F0F6
:1008E0003BF8046010BD000001694A1C02610878F1
:1008F000704700B58FB0CDE9013100210591054960
:100900007944CDE9031011466846FFF7E1FD0FB0C9
:1009100000BD0000E5FFFFFF0A6802F8010B0A6056
:10092000704710B5436913B1AFF3008001E0FFF7E2
:10093000A5FD012010BD127800F124010A700022EB
:100940004A700122EDE711684FF0FF32E9E700003D
:100950000048704760130020004870476013002073
:10096000034640688C46002818BF88423CBF0346B7
:100970004068F8D318681844884207D00CF1030087
:1009800020F00700001D411A521A0146081D0A6096
:10099000FFF7C1BC10B500F039F8BDE8104000F019
:1009A0002FB870477546FFF7D3FFAE46050069467E
:1009B000534620F00700854618B020B5FFF76AFCC3
:1009C000BDE820404FF000064FF000074FF0000850
:1009D0004FF0000B21F00701AC46ACE8C009ACE8D1
:1009E000C009ACE8C009ACE8C0098D46704710B535
:1009F0000446AFF300802046BDE81040FFF736BC48
:100A0000002801D000F02AB87047000010B5012876
:100A100005D0002103A000F027F8012010BD09A196
:100A2000F8E7000053494752544D454D3A204F7561
:100A300074206F662068656170206D656D6F7279D6
:100A4000000000003A2048656170206D656D6F728E
:100A50007920636F727275707465640001491820A3
:100A6000ABBEFEE72600020070B505460C460A2024
:100A700000E06D1C00F011F835B128780028F8D19D
:100A800002E0641C00F009F814B120780028F8D1C5
:100A9000BDE870400A20AFF3008008B569468DF8C4
:100AA00000000320ABBE08BD464910B54A6822F4D9
:100AB00040324A604A6843681A434A6001684A689B
:100AC00022F480724A6001684A68036942EA03229C
:100AD0004A6001684A6822F040724A6001684A68C8
:100AE00083681A434A6001688A6822F400628A6057
:100AF00001688A68C3681A438A60816A6FF070620D
:100B0000D14201688A6822F070628A6001688A684E
:100B10000CD0836A1A438A6001688A6822F04052C6
:100B20008A6001688A68C36A1A4301E022F0405271
:100B30008A6001688A6822F002028A6001688A6815
:100B4000037E42EA43028A6090F82010002901687F
:100B50004A680FD042F400624A6001684A6822F491
:100B600060424A6001684A68174C436A04EB4333A9
:100B70001A4301E022F400624A600168CA6A22F462
:100B80007002CA620168CA6A838B104C04EB03537B
:100B90001A43CA6201688A6822F400728A60016896
:100BA0008A6890F8303042EA43228A6001688A6895
:100BB00022F480628A6001688A68406942EA802083
:100BC000886010BD0023014000E0FFFF0000F0FF3F
:100BD0000A460146014802F001B80000D40800208E
:100BE0004FF4784000F01EFA02A1082000F0CCF883
:100BF000FEE700002020202020444D4120204552C7
:100C0000524F52202020202000000000074810B53D
:100C10000078022808D14FF4FA710548FFF7D8FF91
:100C20000449012081F8EC0310BD00009900002068
:100C30004C03002058010020074810B50078022816
:100C400008D14FF4FA710548FFF7C2FF03490220AB
:100C500081F8EC0310BD000099000020580100202D
:100C600070B50A4E00243568306007E000F0ACF93A
:100C700082B2A1B2002000F007F9641C00F0AAF9CA
:100C8000A042F3D8A8B2306070BD00006808002010
:100C900070B5094C064625886068206000F094F91C
:100CA00082B2A068C38803FB06F081B2002000F086
:100CB00073F9A8B2206070BD68080020074B30B4FB
:100CC0009B68DD881C689B88DB1DDB08203A13FBD2
:100CD00002F205FB024230BC00F042BA6808002074
:100CE0000148006880680047C00000202DE9F047F7
:100CF0000446002799468A461546B846104601E044
:100D000008F1010810F8011B0029F9D100F05CF985
:100D10001C4E4A46B9F1010FB1688988B0FBF1F069
:100D200002D0022A17D105E0A0EB0800484304EBEB
:100D3000500003E0A0EB08004843001B84B20AE027
:100D400051462046FFF7BAFFB0687F1CBFB28088CB
:100D50006D1C204484B200F037F90146B0688088E9
:100D600007FB101189B2814201D3012000E000206D
:100D70002A780AB1012100E000210842E0D1BDE853
:100D8000F087000068080020054A03239268D28893
:100D9000424390B20A4601460020FFF7A7BF000079
:100DA000680800202DE9FE4F814603208846A0EB0D
:100DB0004207002514465EE0314EA8EB040A1FFAF4
:100DC0008AF1308882B209EB0500029080B200F00F
:100DD00081F830881FFA8AF182B2A9EB05000190F0
:100DE00080B200F077F83088A8EB050A82B209EBF0
:100DF000040000901FFA8AF180B200F06BF830888E
:100E0000A9EB040B82B21FFA8AF11FFA8BF000F0F3
:100E100061F8308808EB040A82B202981FFA8AF15E
:100E200080B200F057F830881FFA8AF182B2019838
:100E300080B200F04FF8308808EB050A82B20098C3
:100E40001FFA8AF180B200F045F830881FFA8AF163
:100E500082B21FFA8BF000F03DF80A48B060002F14
:100E600003DA07EB8507BF1D04E0281B07EB8007AB
:100E7000641E0A376D1CA5429ED9BDE8FE8F000096
:100E800068080020C40000202DE9F04106460F4804
:100E900000240F4F006815468846D0F820C0BCF1EA
:100EA000000F0FD0134638880A463146BDE8F0419E
:100EB00080B260473888414682B2301980B200F073
:100EC00009F8641CAC42F5D3BDE8F081C0000020F5
:100ED00068080020034B1B685B69002B00D0184793
:100EE00070470000C00000202DE9F74F0F46DFF8E3
:100EF000A49090460321A1EB4806B9F8001082B0F7
:100F000089B2002415464FF6FF7AC9F8001031E087
:100F10008DB1381981B202980AEA4502401B00904F
:100F2000934680B2FFF7B0FF381B81B200985A4653
:100F300080B2FFF7A9FF8CB1781B81B202980AEA50
:100F40004402001B0090934680B2FFF79DFF781982
:100F500081B200985A4680B2FFF796FF002E03DA5E
:100F600006EB8406B61D04E0601B06EB80066D1ED2
:100F70000A36641CAC42CBD9B9F80010424689B29B
:100F8000C9F80010029805B03946BDE8F04FFFF7E8
:100F900009BF0000680800202DE9F0410646094815
:100FA0000F461C460188154689B201603946781CF7
:100FB00087B22A463046FFF767FF641EA4B2F5D217
:100FC000BDE8F0816808002001480068806A004799
:100FD000C000002001480068C06A0047C00000202F
:100FE00070B50D4C4FF6FF70012660600B48A06095
:100FF0000B4D0020206068688047A0F5134125391B
:1010000007D10648001F056028688047034800266E
:10101000A060304670BD000068080020C4000020B9
:10102000F80000200149486070470000680800206F
:10103000FEE70000014800F0D7BB0000AC0700202D
:1010400001681823CAB2103AB2FBF3F2054B6FF3F2
:101050000901032A9B5CC36500D9091D8165084607
:10106000704700006699000810B5014600208B69A2
:101070008A6A4FF0C07453B1B3F5005F15D072B1F6
:10108000012A0CD0022A0AD0032A09D104E01AB19D
:10109000012A06D0022A03D1C96AC90100D501205C
:1010A00010BDC96AA142FAD010BD002AF7D0012AAA
:1010B000F2D0022AF3D0032AF3D010BD30B5046871
:1010C000256825F480252560046863608368402BCB
:1010D000036803D099600068C26030BD9A60006800
:1010E000C16030BD70B504460021084604EB8102A2
:1010F000491CC2F884031029F8D300224FF400756C
:10110000A118521C81F81C01AA42F9D3207060700A
:101110000121A170C4F8C40321764022A271607637
:1011200084F81C0384F81D1384F81F0384F81E033D
:10113000090204F11C00FFF74FFB294604F58E70ED
:10114000FFF74AFB122104F22630FFF723FB3E2172
:1011500004F54E70FFF740FB002070BD70470000A3
:101160002DE9F74FDFF890B00026DBF808008588FE
:10117000C788E81D824620F00700401B00F0FF09E9
:1011800035E000BF4FEADA010298012901FB0600B1
:101190000BD002290BD0017842780904807841EA0B
:1011A000022141EA000800241AE0007801E00088EA
:1011B00040BA8046F7E7291B49440120491E884070
:1011C00010EA080F02D0BBF8000001E0BBF80400F1
:1011D000019982B20098204480B2FFF77BFE641C24
:1011E000AC42E8D30198401C80B2761C0190BE420C
:1011F000C8D3BDE8FE8F000068080020084810B57D
:101200000178012901D0012100E00021017005A031
:1012100007F0D2FCBDE81040012000F0CBBC00007C
:10122000980000204B4559205052455353454400E7
:1012300010B54FF6FF70FFF713FD0CA007F0BCFCD4
:10124000134900203222087078219620FFF74CFEC7
:101250001048962141607821816032210160BDE80B
:1012600010404FF4004000F0A5BC00005B436972E1
:101270006C63655D20526573657420706F7369746B
:10128000696F6E20616E64207363616C650000009D
:10129000980000209C00002072B6FEE7002200F0BB
:1012A00001B8000030B50E4B054601205C7A002CD9
:1012B00014D1587A1C54587A03EB800045605D7A4B
:1012C00003F108002A54587A421C5A7230300870D0
:1012D0003A2048702F208870CC70002030BD00006C
:1012E0005413002000B59BB04FF0204000901448EC
:1012F00001900520149001201590092016900020DF
:101300000221CDE91701CDE919100421CDE9021020
:101310001021CDE904010690079009020890CDE95B
:1013200009010C900B900D900E90119000F00AF8AE
:1013300014AA1146684602F00BF91BB000BD00006C
:10134000040100A0294800B5016887B041F00101FF
:101350000160006800F00100059024480838016829
:1013600041F008010160016801F008010591016880
:1013700041F010010160016801F010010591016860
:1013800041F020010160016801F020010591016830
:1013900041F0400101600068694600F0400005909E
:1013A0000220019001200290032003900C20049061
:1013B0004FF6337000900E4800F008FC4FF69B701B
:1013C000009069460B4800F001FC4FF23F0000908E
:1013D0006946094800F0FAFB40F23F400090694638
:1013E000064800F0F3FB07B000BD000038380240AB
:1013F000000C02400010024000140240001802409D
:1014000030B5B3F5804F05D06FF0704140F8221031
:10141000002030BD8C690B688D6823434C68898936
:10142000240144EA0524234343EA014150F82230D1
:10143000014C23401943E9E70000F0CF10B50A68DA
:1014400050F8223023F0010340F822308C68082C39
:1014500023D000234A682243CC681C430B692243F3
:101460001A434B690E4C1A43CB691A430B6A1A4351
:101470004B6A1A438B6A1A43CB6A1A430B6B1A43A3
:101480008B691343CA6B09681A4350F82130A34390
:10149000134340F82130002010BD4023DAE700005C
:1014A0007FFF0F0030B5D1E9003443EA04138C68A4
:1014B0008D89240244EA054423430C8A094D00EB3C
:1014C000820005EB045423430C7D6D0105EB04649D
:1014D000896923430B43416801F040410B4343605A
:1014E000002030BD0000F0FF78B50024009490F893
:1014F0003C20012A19D0012280F83C200A680723E9
:101500000568092A13D9EE680A3A02EB42029340B1
:101510009E43EE600B788A680A3B03EB43039A40D4
:101520000368DD682A43DA6010E0022078BD2E6986
:1015300002EB420293409E432E610B788A6803EBD4
:1015400043039A4003681D692A431A614A681F23AE
:10155000072A13D205686E6B521E02EB820293407B
:101560009E436E630B790A885B1E92B203EB830382
:101570009A4003685D6B2A435A6327E005680D2A89
:1015800012D22E6BD21F02EB820293409E432E6337
:101590000B790A88DB1F92B203EB83039A4003683E
:1015A0001D6B2A431A6311E0EE6A0D3A02EB8202C8
:1015B00093409E43EE620B790A880D3B92B203EB97
:1015C00083039A400368DD6A2A43DA62164B056892
:1015D000144A9D4206D10D68122D03D1556845F479
:1015E0008005556005689D4218D10B68102B01D00D
:1015F000112B13D1536843F4000353600968102979
:101600000CD10A490A4A0968B1FBF2F101EB8101E8
:10161000490000E0491E00910029FBD180F83C40C0
:10162000002078BD0023014000200140BC000020C4
:1016300040420F0070B504004FF0000503D0206C4D
:10164000002610B107E0012070BD204600F01CF814
:10165000666484F83C60206CC00610D4206C20F4D2
:10166000885040F0020020642046FFF71DFA6664AF
:10167000206C20F0020040F00100206400E0012511
:1016800084F83C60284670BD10B586B0044614212D
:101690006846FFF7A1F81249206888421DD1114819
:1016A0000021026842F480620260006800F48060F9
:1016B00005900C481438026842F02002026000686D
:1016C00000F0200005904FF4C06000900320CDE9A9
:1016D00001016946044800F079FA06B010BD000027
:1016E00000220140443802400014024018B5002195
:1016F000009190F83C20012A07D0012280F83C207C
:1017000002689368DB0702D011E0022018BD9368DD
:1017100043F0010393602E4A2E4B1268B2FBF3F2A2
:1017200002EB420200E0521E0092002AFBD1026846
:101730009368DB0742D0036C40F20164A34343F497
:101740008073036453685B0505D5036C23F4005371
:1017500043F480530364036CDB0404D5436C23F02F
:101760000603436400E0416480F83C101A496FF0BE
:101770002203136049680068CA06184906D08842E7
:1017800024D1816811F0405F13D01FE08842F8D067
:10179000134A904203D1D1F80423D206F1D0114A62
:1017A000904213D1D1F8041301F01F011029E8D39E
:1017B0000CE0816841F08041816007E0016C41F0FC
:1017C00010010164416C41F001014164002018BD29
:1017D000BC00002040420F000023014000200140D7
:1017E00000210140002201402DE9F84304464FF05A
:1017F0000009CDF8009063484FF41651A56D0068BC
:10180000B0FBF1F72E6894F85C10082000FA01F1A3
:1018100031420FD021680A6852070BD50A6822F0BE
:1018200004020A6094F85C108840A860606D40F083
:101830000100606594F85C104FF0010808FA01F0AF
:10184000304208D021684969090604D5A860606D56
:1018500040F00200606594F85C100420884030423B
:1018600008D021680968890704D5A860606D40F038
:101870000400606594F85C1010208840304218D055
:1018800021680968090714D5A86020680168490320
:1018900004D50068000308D5A16C07E00168C905FC
:1018A00003D4016821F008010160216C09B12046D0
:1018B000884794F85C1020208840304231D021685D
:1018C0000968C9062DD5A86094F835000528206858
:1018D000016806D0490347D5006800031DD4616C38
:1018E0001CE021F0160101602068416921F08001AF
:1018F0004161206C08B9A06C20B12068016821F01A
:101900000801016094F85C103F208840A86084F8CA
:10191000358084F83490216D1FE0E16B09B12046D9
:101920008847606D00282BD0606DC00714D005205B
:1019300084F835002068016821F0010101600098F9
:10194000401C0090B84203D820680068C007F6D158
:1019500084F8358084F83490E16C002910D001B00F
:101960002046BDE8F04308470168C905D5D40168A1
:1019700021F01001016084F8358084F83490CCE7C0
:10198000BDE8F883BC0000202DE9F041044600F0DA
:1019900023FA06465CB1022084F83500002584F85D
:1019A00034502068016821F0010101600DE0012040
:1019B000BDE8F08100F010FA801B052805D9202031
:1019C0006065032084F83500F2E720680068C007EE
:1019D000F0D12268116820480140D4E9010318437E
:1019E000D4E903363343184363691843A3691843A2
:1019F000E3691843236A18430843616A042903D141
:101A0000D4E90B1319430843106020684069666AE3
:101A100020F0070130460E43012704280CD1A06AAC
:101A20000643E06A40B12046FFF71EFB20B140208C
:101A3000606584F83570BAE7206846612046FFF794
:101A4000FFFA94F85C203F2191408160656584F83D
:101A500035700020ACE700003F8010F02DE9F04128
:101A60000446866D90F83400002501280DD0012031
:101A700084F8340094F835700020012F07D084F8E2
:101A8000340002252846BDE8F0810220FBE702274A
:101A900084F8357060652046FFF710FB94F85C1001
:101AA0003F208840B0602068016841F01601016065
:101AB000206C20B12068016841F0080101602068B5
:101AC000016841F001010160DCE7000070B50446E7
:101AD00000F082F90546601C02D0044800780444F6
:101AE00000F07AF9401BA042FAD370BDB00000208C
:101AF000F0B587B014216846FEF76EFE25480168F0
:101B0000002944D10121016023480024016841F0EB
:101B1000010101600068022500F0010005904FF608
:101B20009B70CDE9000502AA03260C2782E8D000AD
:101B300069461A4800F04AF84FF6FB70CDE90005F7
:101B400002AA694682E8D000154800F03FF88020DC
:101B5000CDE9000502AA694682E8D000114800F0EC
:101B600035F840F23F60CDE9000502AA694682E8F7
:101B7000D0000D4800F02AF84FF23F00CDE90005F3
:101B800002AA694682E8D000084800F01FF807B0B2
:101B9000F0BD0000A80000203838024000100240CC
:101BA000000C0240000402400018024000140240F1
:101BB00070470000044910B50A68024202D008606C
:101BC000FFF7F6FF10BD0000143C01402DE9F84F6F
:101BD000DFF8BCA10022012503264FF00F090AF10E
:101BE000040BAAF1040E00BF0B6805FA02F42340AF
:101BF000A34270D10F7907F00307012F01D0022F04
:101C000016D187684FEA420806FA08FC27EA0C0753
:101C1000D1F80CC00CFA08FC4CEA070CC0F808C05C
:101C20004768A7430C79C4F3001494403C434460D4
:101C30000C79E443A4070AD0C4684FEA420C06FAC0
:101C40000CF7BC438F6807FA0CF72743C7600C7981
:101C500004F00304022C12D1D40800EB840CDCF84D
:101C600020405707FF0E09FA07F824EA0804D1F8C4
:101C7000108008FA07F848EA0408CCF820800468C5
:101C80004FEA420C06FA0CF7BC430F7907F0030742
:101C900007FA0CF7274307604C6814F4403F70D0F4
:101CA0003C4C276847F480472760246822F00307EC
:101CB00004F480440094384C07EB040CDCF808482A
:101CC00097074FEA177809FA08F7BC43334FB84231
:101CD00002D1002724E054E0314FB84201D101275E
:101CE0001EE0304FB84201D1022719E02E4FB84212
:101CF00001D1032714E02D4FB84201D104270FE092
:101D00002B4FB84201D105270AE02A4FB84201D132
:101D1000062705E0284FB84201D1072700E0082731
:101D200007FA08F72743CCF80878DAF80040574656
:101D3000D1F804C09C435FEACC2C00D51C433C6026
:101D4000DBF800405F46D1F804C09C435FEA8C2C6E
:101D500000D51C433C60DEF800407746D1F804C053
:101D60009C435FEA8C3C00D51C433C60084F083F15
:101D70003C68D1F804C09C435FEACC3C00D51C43CE
:101D80003C60521C102AFFF42FAFBDE8F88F000012
:101D9000083C01404438024000300140000002404D
:101DA0000004024000080240000C02400010024003
:101DB0000014024000180240001C0240426921EA5F
:101DC00002030A4043EA0241816170470AB181611E
:101DD00070470904FBE70000014880687047000075
:101DE000B0000020D0F8DC0304F075B8D0F8DC03B4
:101DF00004F07BB8006805F043BB006805F044BB05
:101E0000C1EB011100EB8100002200F81A2F427093
:101E1000C272827210467047C1EB011100EB810063
:101E200090F84C007047C1EB011100EB8100806B12
:101E3000704710B5044690F8D403012809D001205A
:101E400084F8D403206805F02AFB002084F8D4032A
:101E500010BD022010BD2DE9FF4F83B00546DDE91E
:101E6000117690F8D403DDF8408093468A46012825
:101E70001CD0CAEB0A11012305EB810485F8D43389
:101E80004FF0000984F819900698207584F815A081
:101E900084F826700BF07F00A07551462846FFF7A6
:101EA000AFFF5FEA0B6005D5E37505E0022007B0E0
:101EB000BDE8F08F84F81790286805F0E5FA012F47
:101EC00006D1B8F1010F03D110B9BC2E00D9BC2640
:101ED00084F81880B0B22085CDF80080CDE901707B
:101EE00028685A465146069B05F044FB85F8D49372
:101EF000DDE770472DE9F0030E46DDE906C9DDE9AF
:101F00000874C1EB061100EB81010225CA7581F846
:101F10002630BCF1000F0AD081F82A50002463B1AA
:101F2000012B31D0022B28D0032B16D125E04FF006
:101F3000030881F82A804C76F0E7BCF1010F0CD140
:101F40001AB18A7E012A19D007E0D7B9012281F897
:101F50003D2000E0C2B181F82A50C1F82C904F63B7
:101F600081F84C408C634E7581F84D408279006851
:101F7000BDE8F003143105F08DBB12B191F83C209F
:101F8000E8E791F83D20E5E781F82A40E5E7000021
:101F90002DE9F04106680446304605F07CFA012838
:101FA00077D1206805F032FD002872D0206805F056
:101FB0002DFD800203D521684FF400104861206890
:101FC00005F024FDC00203D521684FF4801048615C
:101FD000206805F01BFD400103D521684FF08060AB
:101FE0004861206805F012FD800702D521680220B3
:101FF0004861206805F00AFD800018D521684FF07F
:1020000000504861D6F84004C00710D11021304676
:1020100005F018FA304605F0F9F9607A022803D184
:102020000121206805F0CEFC2046FFF7DFFE206886
:1020300005F0ECFCC00102D5204602F05CF82068F7
:1020400005F0E4FC000705D5204600F0D0F8216833
:1020500008204861206805F0D9FC800124D520685B
:1020600005F014FB074600254FF0010815E000BFFE
:1020700005F00F0108FA01F038420DD006EB4510CB
:10208000D0F80005E9B20004204603D501F004FDB4
:1020900002E01CE001F0BEFE6D1C6079A842E7D8AA
:1020A00021684FF000704861206805F0AFFCC04324
:1020B000C0060CD42068816921F01001816120469E
:1020C00002F063F82068816941F010018161BDE888
:1020D000F081F8B5040005D094F8D50325680026F2
:1020E00010B106E00120F8BD84F8D463204600F06A
:1020F00029F8032084F8D503B5F1A04F00D1A671CB
:10210000206805F04FF9207C8DF8000094E80F005E
:1021100005F0E8F8022560B90121206805F0B2FC5D
:1021200038B9207C8DF8000094E80F0005F0E2FB40
:1021300010B184F8D553D5E7012084F8D5030020E9
:10214000F8BD000030B587B0044614216846FEF79C
:1021500043FB2068B0F1A04F37D11D48002401682F
:1021600041F00101016000681A4D00F00100059086
:102170004FF4E05000900220CDE901040A20CDE99F
:10218000034069462846FFF721FD6815CDE90004A4
:10219000694628460294FFF719FD0D48001D0168A5
:1021A00041F0800101600A481430016841F4804127
:1021B00001600068002200F4804005901146432031
:1021C00000F0DEFD432000F0CDFD07B030BD000083
:1021D0003038024000000240D0F8DC0303F016BFA4
:1021E000D0F8DC0303F016BF006805F032BCD0F86D
:1021F000DC0303F0C5BE10B5044690F8D4030128F3
:102200000DD0012084F8D4030121206805F0E2F804
:10221000206805F0F5F8002084F8D40310BD0220F2
:1022200010BD10B5044690F8D403012809D0012050
:1022300084F8D403206805F053FC002084F8D4030C
:1022400010BD022010BD000070B5040025D094F828
:102250003D00002520B984F83C50204600F052FA99
:10226000242084F83D002068016821F0010101600C
:102270002068016841F4004101602068016821F490
:102280000041016000F016FF4D4A6168914201D89B
:102290004C4900E04C49884201D2012070BD4B49B5
:1022A0002368B0FBF1F15E6826F03F060E435E60E6
:1022B0006368934206D94FF4967359434FF47A7387
:1022C000B1FBF3F12368491C1E6A26F03F06314337
:1022D00019626168914210D84900401EB0FBF1F2CA
:1022E000521CC2F30B02042A01D2042022E0B0FBEC
:1022F000F1F0401CC0F30B001CE0A268F2B301EB4C
:10230000C10303EB0116431EB3FBF6F35B1C43F45E
:1023100080431B0549D092B301EBC10202EB0111CE
:10232000401EB0FBF1F0401CC0F30B0040F48040B5
:1023300040F400402168CA694CF6FF739A43104389
:10234000C861D4E9071001432068026822F0C00286
:1023500011430160D4E9030101432068826848F217
:10236000FF339A4311438160D4E905010843216892
:10237000CA6822F0FF021043C86001E00EE016E0D8
:102380002068016841F0010101602564202084F883
:102390003D00256384F83E50002070BD01EB4106EE
:1023A000431EB3FBF6F35B1CB3E70120C2E701EB6E
:1023B0004101401EB0FBF1F0401CC0F30B00B7E739
:1023C000A086010080841E0000093D0040420F00ED
:1023D0002DE9FF4F83B09A46DDE911879346044605
:1023E000DDF84090FFF7F8FC054694F83D00202802
:1023F00070D11923012274492046009502F01EF87D
:102400000028F5D194F83C00012863D0012084F81D
:102410003C0020680168C90703D1016841F001014F
:1024200001602068016821F400610160222084F8C5
:102430003D00402084F83E0000262664C4F8249025
:10244000A4F82A80608D20856048E062CDE900759F
:1024500053465A462046049901F0F2FE002879D1ED
:10246000208DD0B1012821D00228206824D04169D4
:1024700080690090208D032866D801282BD054490C
:1024800002283B464FF00002009557D08846204670
:1024900001F0D4FF00285DD13AE0206841698169EC
:1024A0000091016841F4007101607DE020680168DD
:1024B00021F480610160F0E7016821F4806101602E
:1024C0002068016841F40061016020684169806909
:1024D000009069E075E02A463946204602F054F83B
:1024E00088BB54E02068016841F4007101602068F5
:1024F0000069616A0870606A401C6062218D491E33
:102500002185618D491E618521680969017042E05C
:102510002068016821F48061016020680069616AB7
:102520000870606A401C6062208D401E2085608DAE
:10253000401E60853B46002241460095204601F042
:102540007DFF00B9CEE705E02A463946204602F075
:102550001BF818B1012007B0BDE8F08F20680069B2
:10256000616A0870606A401C6062208D401E81B202
:102570002185608D401E608520684269D2435207E4
:1025800012D4032903D1016821F48061016020681D
:102590000069616A0870606A401C6062208D401E9C
:1025A0002085608D401E6085208D00287FF462AFFD
:1025B000202084F83D0084F83E6084F83C600020D0
:1025C000C9E70220C7E70000020010000000FFFF7B
:1025D000040001002DE9FF4F83B09A46DDE9119711
:1025E00093460446DDF84080FFF7F6FB054694F875
:1025F0003D0020287FD11923012240492046009523
:1026000001F01CFF002876D194F83C00012872D01C
:10261000012084F83C0020680168C90703D10168E3
:1026200041F0010101602068016821F4006101604E
:10263000212084F83D00402084F83E0000262664D6
:10264000C4F82480A4F82A90608D20852C48E0628C
:10265000CDE9007553465A462046049901F06EFEB6
:1026600070B930E02A463946204601F0C5FF58B11E
:10267000206C042804D12068016841F400710160D5
:10268000012007B0BDE8F08F606A2168007808611A
:10269000606A401C6062218D491E89B22185628D6D
:1026A000521E628522685369DB435B070BD469B114
:1026B00000781061606A401C6062208D401E208599
:1026C000608D401E6085208D0028CBD12A4639467A
:1026D000204601F087FE0028CAD154F83D0B01685E
:1026E00041F400710160202004F81E09E677667746
:1026F0000020C6E7FFE70220C3E700000200100049
:102700000000FFFF10B586B0044614216846FEF7AE
:1027100063F814492068884221D1134800210268D7
:1027200042F002020260006800F0020005904FF4DF
:1027300010700090122001900120CDE902010420C8
:10274000049069460948FFF741FA074810300168CC
:1027500041F400110160006800F40010059006B01B
:1027600010BD000000540040303802400004024018
:102770002DE9FF4104460068816800917749784E51
:102780004FF04027884201D1324600E03A46926835
:10279000019240688846029001D1304600E03846F8
:1027A0004068039060684FF00105B0F5007F1CD0D1
:1027B000D8B1900705D50398000602D5204601F050
:1027C00077FF0098C0070FD0029840067FD5216898
:1027D0002046CA68E16A8B1CE3620A80618E491E4A
:1027E0006186618E002967D071E00098800719D555
:1027F0000298000616D5616A20468A1C6262226829
:102800000988D160618D491E6185618D51B901686A
:102810004A6822F0A0024A60418E19B980F84150FE
:1028200000F0A0F80198C00705D00398400602D533
:10283000204601F00DFF0198400622D5039880063E
:102840001FD52168414501D1304600E03846406837
:1028500020F0600101D1304600E038464160206838
:10286000416821F0A00141602068C1688068019042
:1028700084F84150606C40F002006064204600F033
:1028800072F80098000767D50298800664D5206822
:10289000416821F0A00141602168414501D13046E5
:1028A00000E03846406820F0600000D03E4670608E
:1028B00020688068009043E001684A6822F0600266
:1028C0004A60418D19B980F8415000F04BF80098EA
:1028D00040061ED5029880061BD52068416821F06D
:1028E000600141602168414501D1304600E0384631
:1028F000406820F0A00101D1304600E03846416038
:1029000084F84150606C40F002006064204600F0A2
:102910002AF8019800071FD5039880061CD5216866
:10292000414501D1304600E03846406820F0A00023
:1029300000D03E4670602068416821F0600141602F
:1029400084F84150606C40F00400606404B020469C
:10295000BDE8F04100F007B8BDE8FF810038004055
:1029600000340040704710B5FEF73AF910BD000082
:102970002DE9F047040005D094F841004FF000081D
:1029800018B109E00120BDE8F08784F84080514883
:102990006063204600F0A6F8022684F841602068B3
:1029A000C16940F6BF77B943C161206806626069BA
:1029B0004FF4007902282FD0E06870B12025A0687C
:1029C000202800D86D00012000F00CFA216949454B
:1029D0001FD1E16819B1A90002E01025EFE7E90075
:1029E000B0FBF1F000EB800061694000B0FBF1F05A
:1029F000401D0A21B0FBF1F000F00101401A40082F
:102A00000902821EFE2A09D3606C40F01000606447
:102A1000B8E7B0FBF5F0E5E70220002122690843A2
:102A2000024320680262D4E901010843A269E16817
:102A3000114308432168CA69BA43104340F4006057
:102A4000C861206A01283AD123486063234821687D
:102A5000234A4FF04023814201D1114600E019463C
:102A6000C96921EA070101D1154600E01D46E96167
:102A70002168814201D1114600E019460E622568A5
:102A8000854201D1114600E01946C9698EB26168DC
:102A900049451BD0D1B100212789B4F80CC047EAC1
:102AA0000C07B4F818C04CEA010C47EA0C07B9B29D
:102AB000314341F40061854200D01A46D161C4F827
:102AC0004480012084F8410000205CE74FF48071CD
:102AD000E2E700006747000871270008003800405F
:102AE000003400402DE9F0418AB0064614216846C2
:102AF000FDF772FE00250595069507950895304966
:102B00003068884259D101200590F0200524CDE994
:102B1000060405A800F096F908B1FEF7BDFB2948A8
:102B2000016841F4804101600068264900F480405A
:102B300010390990086840F480700860086800F453
:102B400080700990086840F0040008600868022757
:102B500000F0040009900B200090CDE90175CDE94B
:102B6000035469461848FFF731F84FF04008CDF894
:102B70000080CDE90175CDE9035469461348FFF79C
:102B800025F8144C124884E821010015C4E90350CB
:102B9000400060618000A0614011C4E90705042085
:102BA00060620320C4E90A0520462563FEF7ECFEB7
:102BB00008B1FEF771FBB463A6630AB0BDE8F0810B
:102BC0000038004040380240002002400008024027
:102BD00070600240AC0700207047000070B50446EA
:102BE00081B17AB194F84000012809D0012684F817
:102BF000406094F841000025012805D084F8405039
:102C0000022070BD012070BD032084F8410065647E
:102C100061622068C06900F0070003281DD0052804
:102C20001BD022856285A16B19480864A16B1948E5
:102C3000C863A16B1848C864238D2268616A0C328E
:102C4000A06BFEF70BFF78B154F8440F40F008007A
:102C500044F8040966702570D4E74FF6FF7000EA67
:102C6000420020856085DEE72068C169490503D4FC
:102C7000C16941F48061C16120684168890703D45A
:102C8000416841F00201416084F84050002070BD6D
:102C90005D470008394700081147000810B5FDF7E7
:102CA000CBFF10BD10B5FDF7B1FF10BD0248816824
:102CB0000278114481607047B00000200B4810B5C5
:102CC000016841F400710160016841F480610160B4
:102CD000016841F480710160032000F071F8002068
:102CE00000F006F800F024F8002010BD003C02407F
:102CF00070B50D4D04464FF47A712878B1FBF0F0B1
:102D00000A490968B1FBF0F000F052FC48B9102CF8
:102D100007D200222146501E00F032F800206C60DD
:102D200070BD012070BD0000B0000020BC0000207C
:102D30000B4882B0016841F480410160006800F4F2
:102D4000804000900648001F016841F080510160FA
:102D5000006800F080500090072002B000F030B80A
:102D600044380240002809DB00F01F020121914095
:102D70004009800000F1E020C0F800117047000019
:102D8000F0B40E4B1B680C46C3F30223C3F10705D6
:102D9000042D00D90425191D072901D2002300E0C4
:102DA000DB1E012606FA05F1491E214099409E408E
:102DB000761E16403143F0BC04F005BF0CED00E078
:102DC000064900F0070208684FF6FF03184040EA82
:102DD0000220034A10430860704700000CED00E039
:102DE0000000FA0501460020012908D111490968AF
:102DF00011F4000104D0B1F5000F00D10E48704766
:102E00000C48001F01680068490200F03F0001D52E
:102E10000A4900E00A49074AB1FBF0F07C32116828
:102E2000C1F3881141431068C0F30270B1FBF0F0A8
:102E300070470000083802400080BB0040787D01E8
:102E40000024F4002DE9F843054600684FF001091D
:102E5000C1074FF0000601D1400727D5DFF80C81EC
:102E6000C8F86860FEF7B8FF0746414C05E000BFB0
:102E7000FEF7B2FFC01B022857D820680001F7D424
:102E800068688101287A41EA007039498431086014
:102E9000C8F86890FEF7A0FF074604E0FEF79CFF25
:102EA000C01B022841D820680001F7D52878800788
:102EB00052D52F484030016841F0805101600068D0
:102EC0002C4C00F080500090206840F4807020600E
:102ED000FEF782FF074604E0FEF77EFFC01B0228D4
:102EE00023D82068C005F7D5214C7034206810F431
:102EF000407020D0A98901F4407181421BD0206824
:102F00001D4920F44070C1F800900E6020602068D8
:102F1000C00710D0FEF760FF064641F2883707E091
:102F2000FEF75AFF801BB84202D90320BDE8F883A0
:102F300020688007F4D5E9680D48C1F30122083004
:102F4000032A0BD0016821F4F81101602068A989D7
:102F5000C1F30B01084320600020E7E70268074B3C
:102F600022F4F81219400A430260EFE700004742DA
:102F70000038024000700040400E4742FFFCFF0F47
:102F80002DE9F0470E46050065D0DFF81481D8F82A
:102F90000000F7B200F00700B04207D288F80070D6
:102FA000D8F8000000F00700B04254D128683D4C2A
:102FB000810712D5400703D5206840F4E050206017
:102FC0002878000703D5206840F46040206020681E
:102FD000A96820F0F000084320602878C0072DD0B1
:102FE000304968680839012812D0022813D0032814
:102FF00011D00968890700292DDA216821F0030121
:1030000001432160FEF7E8FE814641F2883A0EE076
:1030100009688903EFE709688901ECE7FEF7DCFE40
:10302000A0EB0901514502D90320BDE8F0872068D3
:10303000696800F00C00B0EB810FEFD1D8F80010F8
:10304000404601F00701B14207D90770006800F05F
:103050000700B04201D00120E7E72878400705D5F6
:103060002068E96820F4E0500843206028780007D1
:1030700006D52068296920F4604040EAC10020603C
:1030800000F038F82168084AC1F30311515CC840C8
:103090000649086006480068FFF72AFE0020C4E7DA
:1030A000003C0240083802406E990008BC00002035
:1030B000B40000200448054900680968044AC1F3C7
:1030C0008221515CC8407047BC0000200838024093
:1030D0007E9900080448054900680968044AC1F35C
:1030E0004231515CC8407047BC00002008380240A3
:1030F0007E990008154810B5006810F00C021448BD
:1031000013D01449042A0FD0082A0ED10F4C241FC3
:103110002268236802F03F025B0207D52068C0F3F3
:103120008810A0FB010106E0084610BD2168C1F32C
:103130008811A1FB00010023FDF714F92168C1F3F8
:103140000141491C4900B0FBF1F010BD08380240B4
:103150000024F40040787D01F0B51F4C16460D4662
:103160001D4B002102220327283C0028186887B045
:1031700019D040F004001860186800F004000590B1
:1031800010020090CDE90121CDE903716946134891
:10319000FEF71CFD206845EAC60120F07840084390
:1031A000206007B0F0BD40F001001860186800F022
:1031B000010005904FF480700090CDE90121CDE928
:1031C000037169460648FEF701FD2068354320F08B
:1031D000EC602843E4E70000303802400008024079
:1031E000000002402DE9F84F04006ED02078DFF88F
:1031F0004C93C007A9F104054AD009F10400016805
:10320000C1F38101012908D00068C0F381000228C0
:103210000AD1D9F80000400206D52868800337D5C6
:1032200060680028E1D033E06068B0F5803F10D0DE
:10323000B0F5A02F286810D020F4803028602868CE
:1032400020F4802028606068A8B1FEF7C5FD06461E
:103250000DE0286840F48030F4E740F480202860D6
:10326000F7E700BFFEF7B8FD801B642873D8286815
:103270008003F7D50CE0FEF7AFFD064605E000BF82
:10328000FEF7AAFD801B6428F0D828688003F7D4D5
:103290002078DFF8AC8280074FF0000A3ED5A748BF
:1032A000001D016811F00C0F08D00068C0F3810008
:1032B00002280BD1D9F80000400207D42868800703
:1032C00016D5E068012800D112E033E1E068B8B11A
:1032D0000120C8F80000FEF77FFD064605E000BFAC
:1032E000FEF77AFD801B0228C0D828688007F7D532
:1032F0002868216920F0F80040EAC10028600DE04C
:10330000C8F800A0FEF768FD064604E0FEF764FD7D
:10331000801B02281FD828688007F7D42078000770
:1033200022D5864F87486169703771B101210160EC
:10333000FEF752FD064604E0FEF74EFD801B022814
:1033400009D838688007F7D50EE0C0F800A0FEF76E
:1033500043FD064605E082E0FEF73EFD801B0228A5
:103360007DD838688007F7D42078400768D5DFF823
:10337000CCB100270BF13C0BDBF80000C0000BD4F4
:10338000DBF8001041F08051CBF80010DBF80000B2
:10339000012700F0805000906B4E3068C00510D4BB
:1033A000306840F480703060FEF716FD009005E054
:1033B000FEF712FD0099401A022850D83068C00567
:1033C000F6D55E4EA0686C3601280FD0052830680F
:1033D00010D020F001003060306820F00400306030
:1033E000A068B8B1FEF7F8FC00900FE0306840F03C
:1033F0000100F4E740F004003060F7E7FEF7ECFC72
:103400000099411A41F28830814266D830688007BD
:10341000F4D50EE0FEF7E0FC009007E0FEF7DCFCE0
:103420000099411A41F28830814256D830688007AD
:10343000F4D42FB1DBF8001021F08051CBF800104C
:10344000A069C8B33D49091D0968C1F3810102297A
:103450004AD00228504607D0C8F8600000E03CE09F
:10346000FEF7BAFC04463BE04746C8F86000FEF7AA
:10347000B3FC064605E000BFFEF7AEFC801B022849
:103480002BD828688001F7D4D4E907010843A16A42
:103490002E4A490802EB0141626A41EA821108435F
:1034A00094F82C1040EA0161C9F800100120386638
:1034B000FEF792FC044606E03EE000BFFEF78CFCFF
:1034C000001B022809D828688001F7D534E000BF26
:1034D000FEF782FC001B022802D90320BDE8F88F0A
:1034E00028688001F4D427E00128F7D0D9F800003B
:1034F000E26900F4800191421CD1226A00F03F0190
:10350000914217D147F6C071626A0140B1EB821F48
:1035100010D1A26A4FF0FF3300F4403103EB5202A6
:10352000B1EB024F06D194F82C1000F07060B0EBB4
:10353000016F01D00120D1E70020CFE7043802401D
:1035400000004742800E4742007000400000FFFF2D
:1035500070B515460E46040003D094F8490010B12A
:1035600007E0012070BD002084F84800204600F0EC
:103570001DF804F108012068FDF760FF3146A268DC
:103580002068FDF78FFFD4E901022946236BFDF780
:1035900037FF2168A06851F8202042F0010241F86D
:1035A0002020012084F84900002070BDFEF7A0BA59
:1035B00010B5401EB0F1807F01D3012010BD4FF047
:1035C000E02460610F21601704F0FDFA0020A06183
:1035D00007202061002010BD7047704770B590F83B
:1035E0003C20012A32D0012480F83C40022280F89D
:1035F0003D2003685A689D6822F070060A683243CD
:103600005A60134B02689A4214D0B2F1804F11D025
:10361000104B9A420ED0104B9A420BD00F4B9A424D
:1036200008D00F4B9A4205D00E4B9A4202D00E4B57
:103630009A4204D1496825F080031943916080F8CB
:103640003D40002180F83C10084670BD022070BD4E
:10365000000001400004004000080040000C004051
:1036600000040140004001400018004010B5040073
:1036700003D094F83D0010B107E0012010BD0020F8
:1036800084F83C00204600F01FF8022084F83D003A
:10369000211D206801F0C6FF012084F8460084F84F
:1036A0003E0084F83F0084F8400084F8410084F82C
:1036B000420084F8430084F8440084F8450084F80C
:1036C0003D00002010BD000008B501681E48814281
:1036D0000FD11E48016841F02001016000680022FE
:1036E00000F02000009011463720FFF749FB3720FB
:1036F00024E01648164A001D91420ED1016841F49B
:10370000003101600068002200F400300090114692
:103710001920FFF735FB192010E00E4A914211D114
:10372000016841F4802101600068002200F48020DB
:10373000009011461A20FFF723FB1A20BDE808402D
:10374000FFF710BB08BD00000014004040380240E5
:10375000004401400048014090F83D10012901D08B
:1037600001207047022180F83D100168CA6842F0CC
:103770000102CA6000681149884214D0B0F1804F3C
:1037800011D00F4988420ED00E4988420BD00E4905
:10379000884208D00D49884205D00D49884202D0A0
:1037A0000C49884204D1816801F00701062903D041
:1037B000016841F0010101600020704700000140F4
:1037C0000004004000080040000C004000040140DC
:1037D000004001400018004070472DE9F0410446C8
:1037E0000068C66805694FF00007A90713D5B1073F
:1037F00011D5F91E016101202077206880698007BA
:10380000204602D0FFF7E8FF04E000F07EF82046F3
:1038100000F07CF82777680716D5700714D5216863
:103820006FF004000861022020772068806910F49E
:10383000407F204602D0FFF7CFFF04E000F065F89C
:10384000204600F063F82777280715D5300713D5F1
:1038500021686FF008000861042020772068C069A3
:103860008007204602D0FFF7B7FF04E000F04DF8D4
:10387000204600F04BF82777E80616D5F00614D559
:1038800021686FF010000861082020772068C06967
:1038900010F4407F204602D0FFF79EFF04E000F0C6
:1038A00034F8204600F032F82777E80708D0F00710
:1038B00006D021686FF001000861204600F027F86B
:1038C000280608D5300606D521686FF0800008610B
:1038D0002046FFF781FE680608D5700606D52168E8
:1038E0006FF040000861204600F012F8A8060AD5E3
:1038F000B00608D521686FF0200008612046BDE8B9
:10390000F041FFF76ABEBDE8F0817047704770472D
:10391000704770B5040004D094F84100002510B140
:1039200006E0012070BD84F84050204600F024F8E5
:10393000242084F841002068C16821F40051C1604E
:10394000204601F003FF2068016921F490410161E4
:103950002068416921F02A0141612068C16841F471
:103960000051C1606564202084F8410084F8420061
:103970006563002070BD0000F0B587B004461421D7
:103980006846FCF729FF1949206888422CD118485D
:103990000024016841F480210160006800F4802067
:1039A000059013481038016841F004010160006877
:1039B000022500F0040005904FF400600090CDE96E
:1039C000015407260B4FCDE9034669463846FEF7FA
:1039D000FDF86802CDE900050320CDE90240694603
:1039E00004963846FEF7F2F807B0F0BD00480040F4
:1039F00040380240000802402DE9F843044690F8A0
:103A00004100984616460D46202802D00220BDE807
:103A1000F88385B17EB100206064212084F84100E4
:103A2000FEF7DAF9A6848146E684A0682027B0F57F
:103A3000805F02D003E00120E9E7206910B12E4643
:103A400000250EE000260CE08021204601F004FF56
:103A5000A8B9C6B116F8010B21684860E08C401E79
:103A6000E084E08C4B464FF00002CDF80080002847
:103A7000EAD14FF04001204601F0EEFE40B184F85B
:103A800041700320C3E735F8020BC0F30800E3E7F9
:103A900084F841700020BAE72DE9F05F0546006820
:103AA0000E46074603F0AAFFC6EB061140074FF08B
:103AB00007084FF0040905EB810401D5484633E0BF
:103AC0003146286803F09AFFC0054FF0080A08D570
:103AD00007EB46114FF48070C1F8080584F84DA03B
:103AE00028E03146286803F089FF000705D507EB79
:103AF0004611C1F808A506200CE03146286803F0FD
:103B00007DFF400509D507EB46114FF48060C1F8F1
:103B10000805092084F84D000CE03146286803F0C0
:103B20006DFF00060AD5802007EB4611C1F8080595
:103B300084F84D803146286803F0B1FC314628688E
:103B400003F05CFF80052868314604D503F0A7FC2C
:103B50004FF4007059E103F051FFC0074FF0200B04
:103B60004FF0010A4FF000084ED007EB4617C7F898
:103B700008B5E07E012807D184F81B80D7F804053A
:103B800020F48030C7F80405A87930B1206BD7F84D
:103B90001015C1F31201401AA06384F84DA0C4F8B7
:103BA00044805246C7F808A594F8260030B1022890
:103BB00004D003280AD0012808D013E03146286831
:103BC00003F06DFC1020C7F808050BE0D7F80005DE
:103BD00040F00050C7F8000584F84C2031462846D4
:103BE000FEF787F9A879012807D1208DA16B014440
:103BF000491EB1FBF0F0C00704D014F83C0F80F070
:103C000001002070BDE8F09F3146286803F0F6FE01
:103C100080060CD507EB4611C1F808B5A07E012837
:103C2000F0D184F81BA0032084F84D00B4E03146A5
:103C3000286803F0E3FE80074FF0050B75D507EB0E
:103C400046100221C0F8081594F84D20012A16D01C
:103C5000062A19D0072A1CD0092A1AD0052A33D0DF
:103C6000032A63D0042A7DD0082A7ED0022AC9D034
:103C700094F84C2031462846FEF73BF9C2E784F819
:103C80004D1084F84CA0F3E784F84D1084F84CB044
:103C9000EEE784F84D10626C521C6264022A10D95F
:103CA000C4F84480A27E4146012A07D1E1762177FB
:103CB000D0F8041521F48031C0F8041584F84C9034
:103CC000D6E784F84C1022E084F84D10E27E012AF9
:103CD000CED194F82620032AF3D1A26C521CA26400
:103CE000022A11D9C4F8488084F81B80616C03292A
:103CF00001D284F81CA0D0F8041521F48031C0F85A
:103D0000041584F84C9002E084F84C10B0E794F865
:103D1000261009B10229ABD1D0F8001521F080415D
:103D200041F00041C0F80015A2E724E084F84D10EE
:103D3000E27E012A9CD184F84C10D0F8041541F49D
:103D40008031C0F80415D0F80C1541F04001C0F8DE
:103D50000C15D0F80C1521F02001C0F80C15D6E791
:103D600000E002E084F84D10ABE784F84D10606C81
:103D7000401C6064A2E73146286803F03FFE40061D
:103D800010D507EB46114020C1F8080584F84DB066
:103D9000A07E08B9C4F8448031462868BDE8F05FC9
:103DA00003F07DBB3146286803F028FEC0067FF58E
:103DB00065AF94F82600032803D028B1022803D069
:103DC0000FE0C4F8448006E0C4F84480A87910B13C
:103DD000E07E012818D184F84D903146286803F020
:103DE0005EFBE07E01280FD107EB461084F81B80B4
:103DF000D0F8041521F48031C0F80415D0F80C1562
:103E000041F02001C0F80C15102007EB4611C1F855
:103E10000805F7E62DE9F05F054600680F460646FF
:103E200003F0ECFDC7EB071140074FF0040A05EB68
:103E3000810405D506EB4711C1F808A5072089E0E4
:103E40003946286803F0DAFD80064FF000084FF08D
:103E500001094FF0020B28D506EB47112020C1F8CD
:103E60000805607E0326012809D184F8198084F8AA
:103E70004CB084F84D603946286803F010FBA07EF2
:103E8000012810D1E07E00280DD194F826000128E9
:103E900001D084F81B9084F84D603946286803F0FF
:103EA000FEFAC4F84480BDE8F09F3946286803F064
:103EB000A5FD800506D506EB47114FF40070C1F84B
:103EC000080549E03946286803F098FDC00720D06E
:103ED000C4F844803946286803F090FD400606D5B2
:103EE00006EB471184F819904020C1F80805E07EE0
:103EF00048B106EB471084F81B80D0F8041521F474
:103F00008031C0F8041506EB47114846C1F8089502
:103F100020E03946286803F071FD40060ED50520E3
:103F200084F84D00A07E08B984F81990C4F8448044
:103F30003946286803F0B3FA402028E0394628685B
:103F400003F05CFD00070DD506EB47110820C1F812
:103F50000805062084F84D0039462868BDE8F05F62
:103F600003F09DBA3946286803F048FDC00613D512
:103F7000C4F8448084F84DA0607E18B9207E08B94A
:103F800084F819903946286803F089FA102006EB66
:103F90004711C1F8080586E73946286803F02EFD69
:103FA00000061CD5A87970B1606C401C60640228C2
:103FB00011D9C4F84480524684F84CA039462846AA
:103FC000FDF797FF09E0072084F84D00394628687F
:103FD00003F065FA01E084F84CB08020D7E7394659
:103FE000286803F00BFD400509D5092084F84D0031
:103FF0003946286803F053FA4FF48060C7E7394622
:10400000286803F0FBFC8007C5D506EB471258462D
:10401000C2F808B594F84D10012917D003293AD0F9
:1040200004293ED005294CD006294DD0072901D0BE
:104030000929B0D184F84D00616C491C61640229E2
:1040400048D9C4F8448084F84CA04DE084F84D0071
:1040500084F84C9094F82600022801D0032843D11C
:10406000A87928B994F83D0080F0010084F83D005B
:10407000A879012838D1606B10B3218D0844401E07
:10408000B0FBF1F0C0072FD094F83D0080F00100A4
:1040900084F83D0028E084F84D00E17E012916D027
:1040A00022E084F84D0084F84C00E07E01281BD10A
:1040B00084F81B80D2F8040520F48030C2F804058F
:1040C00012E084F84D0002E084F84D00052084F8E9
:1040D0004C0009E084F84C00D2F8000520F0804044
:1040E00040F00040C2F8000594F84C2039462846BC
:1040F000FDF7FFFED7E67CB504680546D4F840041A
:104100000190D4F8400420F02E0000900198800720
:1041100009D50198C00702D02846FDF763FE009834
:1041200040F0020000900198000724D5009840F06C
:1041300008000090019840071AD5687A022803D039
:10414000E87901280CD00FE00198C0F34140022823
:10415000286803D0012103F035FC05E00221FAE7CD
:104160004EF66020C4F804042846FEF739F802E051
:104170002846FEF731F801988006009802D540F0F5
:1041800020000090C4F840047CBD2DE9F0410246B7
:1041900000680646016AC1F3434301F00F07C1F30B
:1041A0000A15022B2ED1002D2CD0C7EB071102EBE4
:1041B0008104E16A002925D0A26B636B2A449A42EC
:1041C00022D82A4603F026FCE06A2844E062A06B6D
:1041D0002844A06306EB4710D0F81015228DC1F3D8
:1041E000C941AA420ED100290CD0D0F8001521F007
:1041F000804141F00041C0F8001514F83C0F80F0F8
:1042000001002070BDE8F081042084F84C00F9E73B
:10421000FEE701684A69D24352050FD46FF4806209
:104220004A61002140F8301F2022427381730269E5
:1042300042F00402026101730120704700207047C0
:104240002DE9F84F0446006889460B9D01689846A1
:10425000174641F4806101602068016841F4807173
:10426000016000954FF0011B0022594620460A9B31
:1042700000F0E4F84FF4007A40B120680068C0050F
:1042800001D5C4F840A00320BDE8F88F216809F0EB
:10429000FE0008612B46284920460A9A00F016F9CC
:1042A000F0BB20684169806900902A4620460A993F
:1042B00000F0A2F940B1206C04283AD120680168CE
:1042C00041F40071016034E0FEB2B8F1010F09D091
:1042D0002168380A08612A4620460A9900F08CF9BC
:1042E0000028E8D1206806612A4620460A9900F095
:1042F00083F90028DFD12068016841F480710160F2
:1043000000950022594620460A9B00F097F80028A5
:10431000B3D1216809F0FF0040F00100086100E01E
:1043200007E02B46044920460A9A00F0CFF80028FF
:10433000AAD00120A8E70000020001002DE9F843FF
:10434000044600680D46DDE9089701689846164660
:1043500041F4807101604B4600224FF0011120466C
:10436000009700F06BF848B120680068C00502D5DE
:104370004FF4007020640320BDE8F883216805F045
:10438000FE0008613B464A461549204600F09EF86B
:1043900088B920684169806900903A4649462046BC
:1043A00000F02AF948B1206C042804D12068016883
:1043B00041F4007101600120DEE7F5B2B8F1010FB0
:1043C00009D02168300A08613A464946204600F083
:1043D00013F90028E7D1206805610020CCE7000030
:1043E0000200010070B516460D4604461EE0204648
:1043F000FFF70FFF08B1012070BD681C16D0FDF754
:10440000EBFC801BA84200D885B920684069C043F6
:1044100040070BD5002044F8300F20216173A073B2
:10442000216941F0200121612073E4E7206840699F
:10443000C0434007DBD4002070BD00002DE9F047E9
:10444000984617460D460446C1F30746DDF820900E
:104450002AE000BFB8F1FF3F26D0FDF7BDFCA0EB7E
:104460000901414502D8B8F1000F1DD12068012E85
:1044700016D0806925EA00000004000C12D000204C
:10448000B84211D1002044F8300F20216173A0738D
:10449000216941F02001216120730120BDE8F087EE
:1044A0004069E7E70120EBE72068012E0AD0806928
:1044B00025EA00000004000C06D00020B842C9D054
:1044C0000020EBE74069F3E70120F7E72DE9F0472B
:1044D000984616460D4604464FF000094FF0200A54
:1044E000C1F3074723E020684069C043400515D465
:1044F0002068016841F40071016021686FF48060F8
:104500004861C4F8309084F83DA084F83E90216C56
:1045100041F00401216484F83C9021E0701C06D035
:10452000FDF75AFCA0EB0800B04203D816B1012FEA
:104530001FD021E02068012F15D0806925EA0000F6
:104540000004000C18D000BF44F8309F84F80DA080
:1045500084F80E90216941F02001216184F80C90CB
:104560000120BDE8F087406925EA00000004000C46
:10457000EAD12068406901E02068806925EA0000EE
:104580000004000CAFD1ECE72DE9F0410025904686
:104590000E460446202728E04069C043C0060CD4DC
:1045A00054F8301B6FF01000486144F810596777D9
:1045B000A577206A2062257714E0FDF70DFCA0EBBB
:1045C0000800B04200D886B920684069C043400660
:1045D0000BD544F8305F6773A573206940F0200065
:1045E000206125730120BDE8F08120684169C9433D
:1045F0004906D1D40020F6E770B516460D460446AC
:104600001EE02046FFF705FE08B1012070BD681CC2
:1046100016D0FDF7E1FB801BA84200D885B92068C1
:104620004069C04300060BD5002044F8300F20211C
:104630006173A073216941F0200121612073E4E7D7
:1046400020684069C0430006DBD4002070BD000034
:1046500070B515490268154B4FF040248A4201D1CC
:104660001A4600E02246D568C26A961CC6621580CA
:10467000428E521E4286428E002A14D102688A421D
:1046800001D1194600E02146496821F0600100D0BF
:1046900023465960418D002905D14FF0010180F872
:1046A0004110FEF75FF970BD003800400034004053
:1046B00070B5416A144B8A1C426205680988134A26
:1046C0004FF040249D4201D1154600E02546E960A7
:1046D000418D491E4185418D002914D101689942BF
:1046E00001D1114600E02146496821F0A00100D027
:1046F00022465160418E002905D14FF0010180F81A
:104700004110FEF72FF970BD003800400034004022
:1047100010B5806B01684A6822F003024A600021EC
:1047200041854186012180F84110416C41F008012A
:104730004164FEF718F910BD10B50146806BC969D8
:1047400049B901684A6822F002024A6000214185A5
:10475000012180F84110FEF7A1FA10BD10B5806B61
:10476000FEF7A0FA10BD7CB5016804468868009089
:1047700094F841000125042834D10098C00718D0CE
:104780004868C043400614D4C9682046E26A1180D4
:10479000E16A891CE162618E491E6186618E41B9C0
:1047A00001684A6822F060024A6080F84150FEF7D2
:1047B00013FA0098400615D520684168C943890658
:1047C00010D4416821F0600141602068C1688068B0
:1047D000019084F84150606C40F002006064204613
:1047E000FEF7C1F894F84100032834D100988007FF
:1047F00019D521684868C043000614D4626A20466F
:104800001288CA60616A891C6162618D491E618576
:10481000618D41B901684A6822F0A0024A6080F8BF
:104820004150FEF73BFA0098000714D52068416814
:10483000C94389060FD4416821F0A0014160206876
:104840008068009084F84150606C40F0040060641F
:104850002046FEF788F87CBD70B504462DED108B20
:1048600082B0B0EE429AF0EE629AB0EE40FAF0EE0C
:1048700060FA90ED08EB51EC110B53EC1E2B04F099
:1048800083FF41EC100B51EC190B53EC102B04F08F
:104890006FFD94ED061B53EC112B04F0BBFA94ED65
:1048A00010DB41EC1A0B53EC1D2B51EC190B04F0EF
:1048B0005FFD0E4646EC100B94ED0CCB054653EC19
:1048C0001C2B51EC100B04F05FFF94ED0EBB53EC6E
:1048D0001B2B04F059FF94ED001B53EC112B04F03B
:1048E00099FA53EC192B04F043FD94ED0A1B53EC99
:1048F000112B04F08FFA46EC105B41EC180B53ECD3
:104900001C2B51EC100B04F067FE46EC105B41ECE5
:104910001C0B53EC1B2B51EC100B04F05DFE94EDC3
:10492000020B41EC1B0B53EC192B51EC100B04F058
:104930001FFD53EC1D2B04F06DFA41EC100B51ECF4
:10494000180B8DED000B94ED040B53EC102B04F0C1
:1049500061FA41EC190B51EC180B53EC192B04F0D4
:104960000DFB41EC1D0B53EC192B51EC1B0B04F010
:1049700005FB41EC190B53EC1A2B51EC1F0B04F007
:1049800003FF41EC1F0B51EC1D0B53EC1F2B04F0EC
:10499000EFFC53EC1A2B04F03DFA41EC1A0B53ECEC
:1049A0001F2B84ED06AB51EC190B04F0E1FC53EC2A
:1049B0001E2B04F02FFAC4E9080153EC182B51EC1C
:1049C0001D0B04F0D5FC53EC182B04F005FEC4E9D4
:1049D0000A0153EC1C2B51EC1D0B04F0C9FC53ECE9
:1049E0001C2B04F0F9FDC4E90C0153EC182B51EC1D
:1049F000190B04F0BDFC53EC1B2B04F0EDFDC4E9D6
:104A00000E0153EC1C2B51EC190B04F0B1FC9DED85
:104A1000000B53EC102B04F0DFFDC4E9100102B0D1
:104A2000B0EE4A0AF0EE6A0ABDEC108B70BD0000D1
:104A300004480178002903D101210170FCF752BC20
:104A400070470000CC0000204FF0D041C0B2088079
:104A50004888704710B500224FF0D04404E000BFF2
:104A600030F8023B6380921C8A42F9D310BD4FF0AC
:104A7000D041088070472DE9F04186B0804601247E
:104A8000642504A88DE8310023467522D0214046D4
:104A9000FDF79EFC9DF81000682803D0012006B0A9
:104AA000BDE8F081002703AE8DF80C70009601235D
:104AB0006B22D0214046CDE90145FDF78BFD072053
:104AC0008DF80C00009601231922D0214046CDE933
:104AD0000145FDF77FFD8DF80C40009601231C2257
:104AE000D0214046CDE90145FDF774FD8DF80C70ED
:104AF000009601231B22D0214046CDE90145FDF758
:104B000069FD0020CBE700002DE9F0470C462DEDB4
:104B10000C8B88B09FED9A9B9FED9BDB9FED9CBB20
:104B20009FED9DAB64230E2203A98DE80E000123A7
:104B30003B22D021FDF74CFCBDF80C0040BA00B27E
:104B40002080BDF80E1049BA0EB26680BDF8101074
:104B500049BA0DB2A580BDF8121049BA0FFA81FA10
:104B6000BDF8141049BA0FB22784BDF8161049BA1F
:104B700009B261848946BDF8181049BA09B2A18406
:104B8000884604F08FFB9FED868B53EC182B04F0C6
:104B9000EFFBC4E90201304604F084FB53EC182B10
:104BA00004F0E6FBC4E90401284604F07BFB9FED1A
:104BB0007E1B53EC112B04F0E1F900EE10AAB8EEC5
:104BC000C00A9FED7B1AC0EE010A9FED7A0AC4E984
:104BD0000601384630EE800A84ED100A04F062FBCC
:104BE0009FED758B53EC182B04F0C8F9C4E90A014A
:104BF000484604F057FB53EC182B04F0BFF9C4E906
:104C00000C01404604F04EFB53EC182B04F0B6F9AF
:104C1000C4E90E01FDF7E0F8694D2968401A04F077
:104C200058FB9FED681B53EC112B04F0A7F941ECE6
:104C30001C0BFDF7D1F82860208810FB00F1A0883C
:104C400010FB001004F02EFB41EC100B03F042FAB5
:104C5000B0EE408AF0EE608A53EC192B51EC180B41
:104C600004F0E4FA13D0B4F9020004F01BFB53EC97
:104C7000182B04F083F941EC100B02F0B5FF53EC54
:104C80001D2B51EC100B04F073FB41EC190BB4F924
:104C9000040004F007FB41EC180BB4F9000040429B
:104CA00004F000FB41EC100BB0EE481AF0EE681A6D
:104CB00003F006F953EC1D2B51EC100B04F058FBDC
:104CC00041EC180B53EC1B2B04F016FB08D294EDAF
:104CD000140B53EC1A2B51EC100B04F047FC0FD3C0
:104CE00053EC1A2B51EC180B04F040FC11D294ED4C
:104CF000140B53EC1B2B51EC100B04F0FDFA08D2F3
:104D00002F48503080ED068B84ED148B94ED140BFE
:104D10000FE02B4894ED0C1BB0EE4C2AF0EE6C2A01
:104D2000B0EE480AF0EE680A5030FFF795FD84EDCA
:104D3000140B03F0C5F953EC1A2B51EC100B04F0D3
:104D400015FC07D294ED0A0B51EC100B04F056F849
:104D5000C4E90A011A4894ED0A1BB0EE4C2AF0EEA1
:104D60006C2AB0EE490AF0EE690A0830FFF774FDCC
:104D700084ED120B08B0BDEC0C8BBDE8F087000091
:104D80000000000000000000F8C1631ADCA54C40E0
:104D900000000000008056C0000000000080564067
:104DA000000000000000103F000000000029CC407F
:104DB0000000AA43B81E12420000000000606040DC
:104DC000000000200000000000408F407FB500245C
:104DD00015480094019402941249039401604FF421
:104DE0008031C0E9011401250461057680F8204076
:104DF0000E49C0E90A14C561C46080F830404561BD
:104E0000FCF718FC08B172B6FEE70820CDE90005F2
:104E1000694602940448FCF767FB002801D072B68B
:104E2000FEE77FBD00220140580500200100000F71
:104E300020B1002220210248FCF7C8BF0122F9E777
:104E4000001C024010B504490448FCF727FA024947
:104E5000491E087010BD00003101002040B4000858
:104E600000B587B01C216846FBF7B6FC16484FF02A
:104E700020414FF48052016014494160002181605B
:104E8000C160016141618161C1610162C0E90912D2
:104E9000C16201634163816341640F20FF2200907E
:104EA000CDE901020390102004901120CDE9050105
:104EB000002269460448FEF74BFB002801D072B679
:104EC000FEE707B000BD00005C070020040100A061
:104ED0002DE9F04F87B014216846FBF77DFCE848C8
:104EE0000024016841F010010160016801F0100127
:104EF0000591016841F002010160016801F00201C1
:104F00000591016841F040010160016801F0400134
:104F10000591016841F008010160016801F0080194
:104F20000591016841F004010160016801F004018C
:104F30000591016841F001010160016801F0010182
:104F40000591016841F480710160016801F480718C
:104F50000591016841F080010160016801F0800164
:104F60000591016841F0200101600068002200F015
:104F7000200005904FF48A51C248FCF727FF002219
:104F80004FF40071C048FCF721FF002248F22001D5
:104F9000BE48FCF71BFF00228021BD48FCF716FF2E
:104FA00000228021BB48FCF711FF4FF480790225D5
:104FB000CDF80090CDE901540B20CDE903406946BE
:104FC000B548FCF703FE43F62340CDE90005032076
:104FD000CDE902400A2669460496AF48FCF7F6FD83
:104FE0004FF4D0400090CDE901540B20CDE90340AF
:104FF0006946A448FCF7EAFD4FF49850CDE9000556
:105000000320CDE902404FF00C0B6946CDF810B0FB
:105010009F48FCF7DBFDA80300904FF40410CDE996
:10502000010469469748FCF7D1FD4FF48A5000907F
:105030000120CDE90104694692480394FCF7C6FDBE
:10504000F0200090CDE901540D27CDE903476946D2
:105050008D48FCF7BBFD4FF004084FF4901ACDF8D3
:105060000080CDE901A469468748FCF7AFFD28021E
:1050700000900120CDE90104694683480394FCF7C0
:10508000A5FD0320CDE90240CDE900856946CDF8B4
:1050900010B08248FCF79AFD48F2200000900120F1
:1050A000CDE90104694679480394FCF78FFD680255
:1050B0000090CDE901540B20CDE9034069467248C8
:1050C000FCF784FDA802CDE900050320CDE90240EC
:1050D000694604966C48FCF779FD2803CDE9000485
:1050E0000120029069466948FCF770FD4FF4BE400C
:1050F0000090CDE90154CDE9034769466348FCF7C8
:1051000065FDCC200090CDE901540B20CDE9034092
:1051100069465E48FCF75AFDCDF80090CDE9015490
:10512000039469465E480494FCF750FD4FF08009F3
:105130000120CDF80090CDE901046946544803945C
:10514000FCF744FD03204FF0100BCDE90240CDE900
:1051500000B5694604964D48FCF738FDCDF800903F
:10516000CDE901540820CDE9034069464548FCF7E4
:105170002DFD0120CDF80090CDE901046946454898
:105180000394FCF723FD4FF04009CDE900946946F4
:1051900040480294FCF71AFD0120CDE900050320E8
:1051A000CDE90240694604963948FCF70FFD3E20E0
:1051B0000090CDE901540B20CDE903406946344805
:1051C000FCF704FDCDE90084694633480294FCF7FE
:1051D000FDFC86200090CDE901540B20CDE9034071
:1051E00069462F48FCF7F2FC012000904FF4441070
:1051F000CDE9010469462A48FCF7E8FC0320CDF814
:1052000000B0CDE9010469462548FCF7DFFCCDF884
:105210000090CDE90154CDE9034769462048FCF7E9
:10522000D5FC2820CDE900050320CDE902406946E0
:1052300004961B48FCF7CAFCA802CDE9000A69469F
:1052400002941448FCF7C2FC6803CDE9000A6946E1
:1052500002941148FCF7BAFC002211460620FDF723
:105260008FFD0620FDF77EFD002211462820FDF768
:1052700087FD2820FDF776FD07B0BDE8F08F000020
:10528000303802400018024000200240001C02405A
:10529000000802400014024000040240000C0240DA
:1052A0000000024010B501220B490C4800F0EBFD54
:1052B00008B1FBF7F1FF0A49084801F02DFF08B1DA
:1052C000FBF7EAFF054801F06AFF002803D0BDE8BC
:1052D0001040FBF7E1BF10BDB57100089C0B00202A
:1052E00038010020014801F0F9BD00009C0B0020AE
:1052F000FEE7FEE70148FCF74BBE0000740F0020FC
:1053000070477047FDF7D2BC70B592B03021684647
:10531000FBF762FA14210CA8FBF75EFA204800257F
:10532000016841F080510160006800F080501190E8
:105330001C48016841F4804101600068022400F4C7
:105340008040119001200090000406948601019095
:105350001920CDE907604FF4A870CDE909040720B2
:105360000B906846FDF73EFF08B172B6FEE70CA948
:105370000F2081E831004FF4A0500F904FF480507F
:10538000109005210CA8FDF7FBFD08B172B6FEE7F1
:10539000002231461046FDF7DFFE12B070BD00005E
:1053A00040380240007000400248016841F470013A
:1053B0000160704788ED00E010B503F0AFFB03F02B
:1053C00063FBBDE810400148FEF707BACC06002099
:1053D00070B5504D2DED028B28789FED4F8B504CC2
:1053E000012869D194ED140B9FED4E1B51EC100B6D
:1053F00053EC112B04F0BAF80DD294ED140B53ECCE
:10540000182B51EC100B03F077FF04D2002102227D
:10541000084603F0BBFC94ED140B53EC182B51EC35
:10542000100B04F0A3F80FD294ED140B9FED3F1B6B
:1054300051EC100B53EC112B03F05EFF04D2002152
:105440000622084603F0A2FC94ED140B9FED391BD5
:1054500051EC100B53EC112B04F088F810D294EDA2
:10546000140B9FED361B51EC100B53EC112B03F07A
:1054700043FF05D200216FF00502084603F086FCC9
:1054800094ED140B9FED2F1B51EC100B53EC112BD3
:1054900004F06CF810D294ED140B9FED2C1B51EC22
:1054A000100B53EC112B03F027FF05D200216FF0F6
:1054B0000102084603F06AFC2878264C6FF00206C9
:1054C00002280ED12068012802D0401C04D019E027
:1054D00000221146304602E000221146032003F06C
:1054E00055FC287803280DD16068012802D0401CA3
:1054F00003D007E00022032101E000223146002012
:1055000003F044FCBDEC028B1348BDE87040FEF78D
:1055100064B9000098000020000000000000544022
:10552000100800200000000000003E4000000000C5
:1055300000C0674000000000002067C000000000BD
:10554000000044C000000000000049C0000000004E
:10555000000034C048050020840600202DE9F041F9
:1055600029492A48FFF7D0FA03F052FB2848294C72
:10557000294F0078A515DFF8A480661530B1012801
:105580000BD0022822D003281BD12BE0012240217E
:105590002046FCF71BFC002205E0002240212046AB
:1055A000FCF714FC012229462046FCF70FFC0022E0
:1055B00031463846FCF70AFC002280214046FCF7C1
:1055C00005FCBDE8F0411648FEF707B9002240216E
:1055D0002046FCF7FBFB002229462046FCF7F6FBA1
:1055E0000122E5E7002240212046FCF7EFFB0022E4
:1055F00029462046FCF7EAFB002231463846FCF7F4
:10560000E5FB0122D9E7000010080020A0050020DA
:1056100098000020001802400020024000080240CC
:105620003C060020F0B50268294C2A4D2A4E2B4F2B
:105630002B4B4FF0804CA04209D0604507D0A842C8
:1056400005D0B04203D0B84201D0984204D122F034
:10565000700E4A6842EA0E02A0421BD0604519D083
:10566000A84217D0B04215D0B84213D0984211D0FA
:105670001C4DA8420ED01C4DA8420BD01B4DA84279
:1056800008D01B4DA84205D01A4DA84202D01A4D91
:10569000A84203D122F44075CA682A434D6922F01A
:1056A00080022A4302608A68C2620A688262A0425B
:1056B00001D0984201D10969016301214161016969
:1056C000C90703D0016921F001010161F0BD0000AB
:1056D000000001400004004000080040000C0040B1
:1056E00000040140004001400044014000480140E6
:1056F00000180040001C00400020004001680C31F0
:1057000051E8002F22F4907241E80023002BF5D1DC
:105710000168143151E8002F22F0010241E8002312
:10572000002BF5D1016B012909D101680C3151E839
:10573000002F22F0100241E80023002BF5D1202198
:1057400080F84210002101637047000070B50446E4
:1057500000680169E26821F4405111430161216947
:10576000A068E26908436169114308432168CA6877
:1057700049F20C639A430243CA6020684169A269F6
:1057800021F440711143416131492068884202D0BF
:105790003049884202D1FDF79DFC01E0FDF78AFC0B
:1057A000E2690023192164253226B2F5004F6268B0
:1057B00028D0A0FB0101930F9200FAF7D3FD014618
:1057C000B0FBF5F06FF01802504301EB800006EBE0
:1057D0000010B0FBF5F000F0F002B1FBF5F002EBC9
:1057E0000012B1FBF5F06FF01803584301EB800095
:1057F00006EB0010B0FBF5F000F00F00216810443C
:10580000886070BDA0FB010192185B41FAF7AAFD08
:105810000146B0FBF5F00201B1FBF5F06FF01803A3
:10582000584301EB800006EBC000B0FBF5F000F040
:10583000F80002EB4002B1FBF5F0584301EB8000A9
:1058400006EBC000B0FBF5F000F00700D6E7000063
:1058500000100140001401402DE9F8439846174616
:105860000D460446089E24E0701C22D0FCF7B4FAD2
:10587000A0EB0800B0421AD8CEB12068C168490731
:1058800017D5802D15D0402D13D00168C9430907C5
:105890000FD401680025406800902046FFF72EFFD6
:1058A0000820606484F840500120BDE8F88303209C
:1058B000FBE72068006835EA000004D00020B84209
:1058C000D2D00020F1E70120F9E710B500224FF611
:1058D000FF7300EB8204B4F8844324040BD49A428F
:1058E00007D002F00F0300EB830041F40041C0F841
:1058F0008413D0B210BD521CD2B2102AE9D31A467A
:10590000F7E77FB51C46012501AE0023009586E828
:105910000E0002232A46214600F0ADFB04B0002011
:1059200070BD7FB51D4690F81D33089C03B100245F
:105930000123CDE90031CDE90224022300222946CA
:1059400000F099FB04B0002070BD10B500F0BAFA69
:10595000002010BD8278012A07D1022202740122A0
:105960004274002242828182C2820022114600F0EB
:105970000FB87FB51C46012501AE0023009586E8CF
:105980000E002A46214600F076FB04B0002070BDD0
:1059900070B504460120A3780546012B0BD0022BDD
:1059A00008D1204600F0F1F858B1032809D00228A8
:1059B00000D1A57070BDA160A28125760221A170E1
:1059C00070BDA5700021217670BD7FB51D4690F891
:1059D0001D33089C03B100240123CDE90031CDE93A
:1059E000022400231A46294600F045FB04B000209B
:1059F00070BD1FB500231446CDE900310822CDE962
:105A000002231A46214600F036FB04B0002010BDE8
:105A1000FCF75CB870B50546002005F54E7500BF73
:105A200000EB800404EBC00405EB4404E67B0A347D
:105A30008E4201D0FF2909D1A679964201D0FF2AD2
:105A400004D1E4799C4206D0FF2B04D0401CC0B2A4
:105A50000228E5D3FF2070BD102907D200EB81009A
:105A6000B0F88413C1F30E01C0F88413002070470E
:105A700030B48578029C012D0FD141F08001017472
:105A80000621417403214282B1EB122F02D140F270
:105A9000094100E000218182C482224630BC1946BF
:105AA000FFF776BF0A8803781A440A800178084411
:105AB0007047F8B50D46064600F11C04B1F5807F2D
:105AC00001D90320F8BD23464FF40072002130466F
:105AD0000095FFF7CDFF0028F4D12A462146304635
